:0F1633007D607C09ED1D70011C144C70F7DFF118
:011642002285
:10080D00EFD3940740037FFF221201BCFED3940364
:10081D0040037FFF22EF7041EE700B90000112013B
:10082D00D5F4529352941201BCB4010B90000112F5
:10083D0001D54293F452941201BCFEB4020A900009
:10084D00011201D542934294EEB4030D90000112B2
:10085D0001D5FEF45293EE4294EF64017043120100
:10086D00BCFE700B9000011201D5F452915292EE24
:10087D00B4010B9000011201D54291F45292120174
:10088D00BCB4020A9000011201D5429142921201AC
:10089D00BCB4030D9000011201D5FEF45291EE424D
:1008AD0092EF640270431201BCFE700B90000112B6
:1008BD0001D5F452955296EEB4010B900001120140
:1008CD00D54295F452961201BCB4020A9000011261
:1008DD0001D5429542961201BCB4030D9000011250
:1008ED0001D5FEF45295EE4296EF6403704312016A
:1008FD00BCFE700B9000011201D5F452B152B2EE54
:10090D00B4010B9000011201D542B1F452B21201A3
:10091D00BCB4020A9000011201D542B142B21201DB
:10092D00BCB4030D9000011201D5FEF452B1EE429C
:10093D00B2EF640470431201BCFE700B9000011203
:10094D0001D5F452B352B4EEB4010B900001120173
:10095D00D542B3F452B41201BCB4020A9000011294
:10096D0001D542B342B41201BCB4030D9000011283
:10097D0001D5FEF452B3EE42B4EF6405704312019B
:10098D00BCFE700B9000011201D5F452C952CAEE93
:10099D00B4010B9000011201D542C9F452CA1201E3
:1009AD00BCB4020A9000011201D542C942CA12011B
:1009BD00BCB4030D9000011201D5FEF452C9EE42F4
:1009CD00CAEF640670431201BCFE700B9000011259
:1009DD0001D5F452CB52CCEEB4010B9000011201B3
:1009ED00D542CBF452CC1201BCB4020A90000112D4
:1009FD0001D542CB42CC1201BCB4030D90000112C3
:100A0D0001D5FEF452CBEE42CCEF640770431201D8
:100A1D00BCFF700B9000011201D5F452E152E2EFD0
:100A2D00B4010B9000011201D542E1F452E2120122
:100A3D00BCB4020A9000011201D542E142E212015A
:100A4D00BCB4030D9000011201D5FFF452E1EF4249
:040A5D00E27F002212
:100026009000021201D56401702A90FE80E04440DF
:10003600F090FE82E4F01201BC543FFF90FE80E097
:1000460054C04FF09000031201D590FE88B401020F
:100056008031802990FE80E054BFF090FE84E4F069
:100066009000041201D525E0FF90FE85E054014F73
:10007600F09000051201D590FE85B40106E054FE0D
:10008600F08004E04401F09000011201D590FE805A
:0C0096007005E0547FF022E04480F0226E
:0800BB0090FE82E05480FF2258
:0C16990090FE82E030E6F9E054BFF02241
:0916BB0090FE817401F002169901
:0E16700090FE86EFF090FE817402F002169953
:061643001216BB12167026
:0916490090FE817403F002169971
:0F16520090FE817404F012169990FE87E0FF223B
:0E167E0090FE82E4F090FE817405F002169951
:0F16610090FE827401F090FE817405F0021699DC
:0916C40090FE817406F0021699F3
:0D168C0090FE86EDF090FE81EFF0021699C1
:1013EB008B3A8A3B893CAE05121643AF0612167038
:1013FB00121649AB3A053CE53CAA3B7002053B147F
:10140B00F91201BCFF121670121649D53DE50216F2
:01141B00C40C
:10134800AE07121643AF051216701216491216BBD5
:10135800EE4401FF121670121649121652EF1202CD
:1013680002740129F9E43AFAE53E640160031216B1
:0A1378007ED53EE61216610216C48F
:0300C300020E2208
:100E2200C0E0C083C082C0D075D000C006C00790A9
:100E3200FE84E030E606E054BFF0807A90FE84E063
:100E420030E535E054DFF0E50E6005750E00806692
:100E5200E50D600D750D0090FE87E0F50F24008012
:100E62003490FE87E0FFAE0F050F74002EF582E48A
:100E72003401F583EFF0803E90FE84E030E424E01C
:100E820054EFF0E030E10890FE8674FFF080270511
:100E92000F7400250FF582E43401F583E090FE869D
:100EA200F0801390FE84E030E30CE054F7F0750E0E
:100EB20001750D01D209D007D006D0D0D082D083DF
:030EC200D0E0324B
:10130B00696E74335F63616C6C20416C61726D0A42
:10131B0000696E74335F63616C6C2054696D657228
:10132B000A0025642D25642D25642D25642D256447
:0D133B002D25642C5765656B3A25640A006A
:1015E300E4F52E752F80FB7A00792E7F0312080D08
:0615F30053B1FC53B2FCF1
:0115F90022CF
:1015FA00752E017B007A00792E7F031213B9E4FD60
:05160A007F0102121334
:10144B00752E40752F017533007532C275310175DC
:10145B003000753501E4F536FB7A00792E7F0112E9
:0C146B000A617D017F011212CD53A23FE7
:011477002252
:0916CD007BFF7A13790B0205136F
:0916D6007BFF7A13791C02051355
:100D730043BA801216DF12144B1215E31215FAD27E
:100D8300AF7522077523E875240675261D752501A1
:100D930075271775283B7529367B007A007922124F
:100DA3000BAFE4F52DF52C752B1E752A02782E7CDE
:100DB30000FDFB7A00792AFE7F04120196120F3F91
:100DC3001214A57D407F011214781214CD7B007A92
:100DD300007922120CA47BFF7A13792D85223185A9
:100DE30023327533008524347535008526367537EF
:100DF3000085273875390085283A753B0085293CDD
:100E0300753D0085253E1205137FFA1216337FFACE
:0F0E13001216337FFA1216337FFA12163380AE9F
:10119700EFD3940140037FFF22EDD3940340037FF5
:1011A700FF22EF7004C2A98002D2A9ED700553B7E0
:1011B700FDC2B9BD010553B7FDD2B9BD020543B79D
:0E11C70002C2B9BD030543B702D2B97F0022B0
:1011D500EFD3940140037FFF22EDD3940340037FB7
:1011E500FF22EF7004C2AB8002D2ABED700553B79E
:1011F500F7C2BBBD010553B7F7D2BBBD020543B767
:0E12050008C2BBBD030543B708D2BB7F002261
:10158700EFD3940140037FFF22EDD3940340037F01
:10159700FF22EF25E025E0FFE5AF54FB4FF5AFE471
:0215A700FF2221
:1015A900EFD3940140037FFF22EDD3940340037FDF
:1015B900FF22EFC43354E0FFE5AF54DF4FF5AFE44A
:0215C900FF22FF
:10156400EFD3940140037FFF22EDD3940340037F24
:10157400FF22EFC4333354C0FFE5AF54BF4FF5AF80
:03158400E4FF225F
:10121300EFD3940140037FFF22EDD3940340037F78
:10122300FF22EF7004C2A88002D2A8ED700553B765
:10123300FEC2B8BD010553B7FED2B8BD020543B720
:0E12430001C2B8BD030543B701D2B87F002237
:10125100EFD3940140037FFF22EDD3940340037F3A
:10126100FF22EF7004C2AA8002D2AAED700553B723
:10127100FBC2BABD010553B7FBD2BABD020543B7E4
:0E12810004C2BABD030543B704D2BA7F0022EF
:1015CB00EFD3940140037FFF22EFC454F0FFE58F6C
:0815DB0054EF4FF58FE4FF22ED
:1000A200EFD3940140037FFF22EFC43354E0FFE516
:0900B2008F54DF4FF58FE4FF22AB
:10000300EFD3940140037FFF22EFC4333354C0FF87
:0A001300E58F54BF4FF58FE4FF2284
:10128F00EFD3940140037FFF22EDD3940340037FFC
:10129F00FF22EF7004C2AD8002D2ADED700553B7DF
:1012AF00DFC2BDBD010553B7DFD2BDBD020543B7D8
:0E12BF0020C2BDBD030543B720D2BD7F002273
:100FFC00EDD3940340037FFF22EF30E10543E6205D
:10100C00800353E6DFEF30E00543E610800353E640
:10101C00EFED700653B6DF53B5DFBD010653B6DFF7
:10102C0043B520BD020643B62053B5DFBD030643CE
:08103C00B62043B5207F00221D
:100FA300EFD3940140037FFF22EBD3940340037FED
:100FB300FF22BF0112ED90FE817006E0547FF080A6
:100FC30011E04480F0800BEF700890FE83E05487BB
:100FD3004DF0EB700653B6DF53B5DFBB010653B6D6
:100FE300DF43B520BB020643B62053B5DFBB030680
:090FF30043B62043B5207F002223
:1012CD00EFD3940140037FFF22EDD3940340037FBE
:1012DD00FF22EF7004C2AC8002D2ACED700553B7A3
:1012ED00EFC2BCBD010553B7EFD2BCBD020543B77C
:0E12FD0010C2BCBD030543B710D2BC7F002257
:10115700EFD3940140037FFF22EDD3940340037F35
:10116700FF22E5AF54FE4FF5AFED700653B6FE53C1
:10117700B5FEBD010653B6FE43B501BD020643B633
:101187000153B5FEBD030643B60143B5017F0022F7
:10104400EFD3940140037FFF22EDD3940340037F49
:10105400FF22EF33333354F8FFE5AF54F74FF5AFC6
:10106400ED700653EEFE53DFFEBD010653EEFE4364
:10107400DF01BD020643EE0153DFFEBD030643EE6E
:071084000143DF017F0022A0
:10108B00EFD3940140037FFF22EDD3940340037F02
:10109B00FF22EFC454F0FFE5AF54EF4FF5AFED7007
:1010AB000653EEFD53DFFDBD010653EEFD43DF029C
:1010BB00BD020643EE0253DFFDBD030643EE0243C2
:0510CB00DF027F00229E
:1010D000EFD3940140037FFF22EDD3940340037FBD
:1010E000FF22EF25E0FFE5AF54FD4FF5AFED7006B1
:1010F00053B6FD53B5FDBD010653B6FD43B502BD64
:10110000020643B60253B5FDBD030643B60243B51E
:04111000027F002238
:100EC500EFD3948140037FFF22EBD3940340037F4C
:100ED500FF22EF247F603004705890FEC4EDF0EBE4
:100EE500700653B6FB53B5FBBB010653B6FB43B5C2
:100EF50004BB020643B60453B5FBEB6403703843E9
:100F0500B60443B504803090FEE4EDF0EB70065373
:100F1500B6F753B5F7BB010653B6F743B508BB02A1
:100F25000643B60853B5F7BB030D43B60843B508EA
:0A0F3500800590FEE4EDF07F00223D
:10138200EDD394035026ED700653EEFB53DFFBBD05
:10139200010653EEFB43DF04BD020643EE0453DFB6
:1013A200FBBD030B43EE0443DF0480037FFF229067
:0713B200FE62EFF07F002254
:060A61008B378A38893949
:100A6700EF64016003020BACF508F509F50AF50B15
:100A7700F50CFF7E80900080E4F0A3DEFCE4FF7EAF
:100A870080900000E4F0A3DEFC7E00AB37AA38A913
:100A9700391201BCFFE598543F4FF598EF64C060E9
:100AA70008EF64406003020B619000021203FF7FAE
:100AB700807E8D7D5B7C001203498F3D8E3C8D3B94
:100AC7008C3AE4FFFE7D01FCAB3DAA3CA93BA83A6A
:100AD700C31203DB40037FFF22C3E4953DF53DE4EA
:100AE700953CF53C7401953BF53BE4953AF53AABFB
:100AF70037AA38A9399000011201D5FB6401702C7F
:100B0700C28E538EFE5389BF5389CF438E40AF3D6C
:100B1700AE3CAD3BAC3A78081203EC8F8D853D8B2C
:100B2700C2AB5389BF538FFDD28E8062EB640270D4
:100B370026538EEF438E01538EF7438E04AF3DAE9F
:100B47003CAD3BAC3A78081203EC8FD6853DD753C2
:100B5700AFFB438E1080377FFF22AB37AA38A93906
:100B67001201BCFF70139000081201D5B4010543B0
:100B77008E20801A538EDF8015EFB4801190000805
:100B87001201D5B40105438780800353877FAB37B4
:100B9700AA38A9399000071201D57004C29C8002B7
:070BA700D29C7F00227FFFBA
:010BAE002224
:0A16B1008F99750A01E50A70FC220A
:10160F001201BCFF600C1216B1740129F9E43AFA09
:03161F0080EE2238
:05001D00AE070216B160
:03002300021114B3
:10111400C0E0C083C082C0D075D000C00730982022
:10112400C298E50BC394804003750B00AF0B050B0D
:1011340074002FF582E43400F583E599F0750C050D
:10114400309905C299750A00D007D0D0D082D083D7
:03115400D0E032B6
:10162200752E02752F0C7B007A00792E7F0302083B
:011632000DAA
:1014F500753001752F01E4F531752E0DFB7A0079F4
:101505002E120026E4FBFD7F01120FA3E5BA54CF8E
:041515004430F5BAAF
:0115190022AF
:0916DF0043BA801216220214F530
:060BAF008B2E8A2F893015
:100BB500E49000071201D5FE75F00A84C454F0FDD7
:100BC500EE75F00A84E5F02DF5319000061201D599
:100BD500FE75F00A84C454F0FDEE75F00A84E5F064
:100BE5002DF5329000051201D5FE75F00A84C45426
:100BF500F0FDEE75F00A84E5F02DF5339000031253
:100C050001D5F5349000041201D5FE75F00A84C4AF
:100C150054F0FDEE75F00A84E5F02DF53512028BE2
:100C2500C39434E5F0940850047E0080027E01AF41
:100C350006AB2EAA2FA9309000021201D5FE75F041
:100C45000A84C454F0FDEFC433333354802DFFEED2
:100C550075F00A84E5F02FF53612028BFFAEF07CB5
:100C6500007D64120236AA04AB057D0A7C00AF0341
:100C7500AE02120236EFC4F8540FC868FFC0077DF4
:100C85000A7C00AF03AE02120236D0E02DF5377BA9
:0F0C9500007A007931753D077D027FA20213EBD3
:060CA4008B2E8A2F89301F
:100CAA00E4F538FB7A007931753E077D027FA2129E
:100CBA001348E531C4540775F00AA4FFE531540F0F
:100CCA002FAB2EAA2FA930900007120214E532C4C6
:100CDA00540775F00AA4FFE532540F2F900006124C
:100CEA000214E533C4540375F00AA4FFE533540F24
:100CFA002F900005120214E534C4540375F00AA4B7
:100D0A00FFE534540F2F900004120214E5355407FE
:100D1A00900003120214E536C4540175F00AA4FFC8
:100D2A00E536540F2F900002120214E536C413134D
:100D3A00135401F538E537C4540F75F00AA4FFE5DA
:100D4A0037540F7C002FFFEC35F08FF01202EEE5DE
:100D5A003870067E077FD080047E087F34AB2EAAC7
:090D6A002FA930EE8FF00202B651
:100F3F00E53175F00A84C454F0FFE53175F00A8489
:100F4F00E5F02FF532E53075F00A84C454F0FFE573
:100F5F003075F00A84E5F02FF532E52F75F00A842D
:100F6F00C454F0FFE52F75F00A84E5F02FF532E554
:100F7F002E75F00A84C454F0FFE52E75F00A84E54F
:100F8F00F02FF5327B007A007932753D047D097FB1
:040F9F00A20213EBAC
:1014A500E4F52EFB7A00792E753E017D017FA212AF
:1014B5001348532EF7432E027B007A00792E753D93
:0814C500017D017FA20213EB7F
:10151A00E4F510FB7A007910753E017D017FA21275
:10152A0013485310F77B007A007910753D017D014D
:05153A007FA20213EB8B
:021478008D2EB7
:10147A00E4F52FEF2480F52F7B007A00792F753D54
:10148A00017D0E7FA21213EB852E2F7B007A007945
:0B149A002F753D017D0F7FA20213EBB8
:1014CD00E4F52EFB7A00792E753E017D017FA21287
:1014DD001348532EFB432E017B007A00792E753D68
:0814ED00017D017FA20213EB57
:10153F00E4F511FB7A007911753E017D017FA2124E
:10154F0013485311FB7B007A007911753D017D0122
:05155F007FA20213EB66
:10141C00E4F512FB7A007912753E017D017FA21270
:10142C001348E51230E30930E10612151A1216CDF5
:0E143C00E51230E20930E00612153F1216D616
:01144A00227F
:1013B900EFD3940140037FFF22EF7010C28912011D
:1013C900BC7004C2888002D2887F0022BF0110C28B
:1013D9008B1201BC7004C28A8002D28A7F00227FEC
:0213E900FF22E1
:030000000216A540
:0C16A500787FE4F6D8FD758141020D73DA
:1000C600E709F608DFFA8046E709F208DFFA803E1C
:1000D60088828C83E709F0A3DFFA8032E309F60809
:1000E600DFFA8078E309F208DFFA807088828C8371
:1000F600E309F0A3DFFA806489828A83E0A3F60825
:10010600DFFA805889828A83E0A3F208DFFA804CFE
:1001160080D280FA80C680D4806980F280338010D5
:1001260080A680EA809A80A880DA80E280CA80333E
:1001360089828A83ECFAE493A3C8C582C8CCC583B6
:10014600CCF0A3C8C582C8CCC583CCDFE9DEE78086
:100156000D89828A83E493A3F608DFF9ECFAA9F005
:10016600EDFB2289828A83ECFAE0A3C8C582C8CC5B
:10017600C583CCF0A3C8C582C8CCC583CCDFEADE74
:10018600E880DB89828A83E493A3F208DFF980CCD6
:1001960088F0EF60010E4E60C388F0ED2402B404CF
:1001A6000050B9F582EB2402B4040050AF23234576
:0601B60082239001167384
:1001BC00BB010689828A83E0225002E722BBFE0241
:0901CC00E32289828A83E4932274
:1001D500BB010CE58229F582E5833AF583E02250DF
:1001E50006E92582F8E622BBFE06E92582F8E22229
:0D01F500E58229F582E5833AF583E4932243
:10020200BB010689828A83F0225002F722BBFE01DB
:02021200F322D5
:10021400F8BB010DE58229F582E5833AF583E8F020
:10022400225006E92582C8F622BBFE05E92582C8CC
:02023400F222B4
:10023600BC000BBE0029EF8DF084FFADF022E4CCAC
:10024600F875F008EF2FFFEE33FEEC33FCEE9DEC75
:10025600984005FCEE9DFE0FD5F0E9E4CEFD22EDBB
:10026600F8F5F0EE8420D21CFEADF075F008EF2F05
:10027600FFED33FD4007985006D5F0F222C398FDF6
:050286000FD5F0EA2293
:10028B00BB010A89828A83E0F5F0A3E0225006873E
:10029B00F009E71922BBFE07E3F5F009E319228900
:0B02AB00828A83E493F5F07401932233
:1002B600BB010789828A8302042F500B09C5F027E8
:1002C600F7C5F01937F722BBFE0D09F8E325F0F361
:1002D600C5F019E338F322F889828A8374019325DD
:0802E600F0C5F0F8E4933822A2
:1002EE00BB010A89828A83F0E5F0A3F0225006F75B
:0F02FE0009A7F01922BBFE06F3E5F009F3192258
:10030D0075F008758200EF2FFFEE33FECD33CDCCA7
:10031D0033CCC58233C5829BED9AEC99E58298402A
:10032D000CF582EE9BFEED9AFDEC99FC0FD5F0D607
:10033D00E4CEFBE4CDFAE4CCF9A88222B800C1B931
:10034D000059BA002DEC8BF084CFCECDFCE5F0CB6F
:10035D00F97818EF2FFFEE33FEED33FDEC33FCEBA8
:10036D0033FB10D703994004EB99FB0FD8E5E4F963
:10037D00FA227818EF2FFFEE33FEED33FDEC33FC50
:10038D00C933C910D7059BE99A4007EC9BFCE99A44
:10039D00F90FD8E0E4C9FAE4CCFB2275F010EF2F89
:1003AD00FFEE33FEED33FDCC33CCC833C810D70789
:1003BD009BEC9AE899400AED9BFDEC9AFCE899F8C4
:0E03CD000FD5F0DAE4CDFBE4CCFAE4C8F92257
:1003DB00EB9FF5F0EA9E42F0E99D42F0E89C45F078
:0103EB0022EF
:1003EC00E8600FECC313FCED13FDEE13FEEF13FFEF
:0303FC00D8F12213
:1003FF00BB010DE58229F582E5833AF583020452AC
:10040F005007E92582F8020445BBFE07E92582F86B
:10041F0002045EE58229F582E5833AF58302046BD7
:1004B100E53D2431F8E6053D22782E3007027831FA
:1004C100E475F00112047B0201BC2000EB7F2ED207
:1004D100008018EF540F2490D43440D4FF30040B23
:1004E100EF24BFB41A0050032461FFE53E600215FA
:1004F1003E0541E5417002054030070D782EE47557
:10050100F00112047BEF02020202001D7403D20704
:100511008003E4C207F53D8B2E8A2F8930E4F53E36
:10052100F540F541E53E60077F201204EC80F5754A
:100531003FFFC201C200C202C203C205C206C20815
:100541001204BAFF700D3007057F001204FDAF41A0
:10055100AE4022B4255FC2D5C2041204BAFF24D032
:10056100B40A00501A75F00A783E30D50508B6FF76
:100571000106C6A426F620D5047002D20380D92430
:10058100CFB41A00EF5004C2E5D2040206FDD20135
:1005910080C6D20080C0D20280BCD2D580BAD2053A
:1005A10080B47F201204EC2002077401B53E0040A4
:1005B100F11204B1FF1204EC020525D208D2068023
:1005C100951204B1FB1204B1FA1204B1F94A4B704D
:1005D1000679CE7A077BFF20022EE53E602A7E0057
:1005E1008E827583001201D560060EEE653F70F0B4
:1005F100C2D5EBC0E0EAC0E0E9C0E0EE120744D0AA
:10060100E0F9D0E0FAD0E0FB1201BCFF60AAEBC038
:10061100E0EAC0E0E9C0E01204ECD0E02401F9D046
:10062100E03400FAD0E0FBE53F0460DCD53FD9803F
:10063100877BFF7A077940D202809C79108002790A
:1006410008C206C2088008D2D5790A8004790AC294
:10065100D5E53F047002F53FE4FAFDFEFF1204B157
:10066100FC7B082001131204B1FD7B1030000A123B
:1006710004B1FE1204B1FF7B20EC3382D592D55038
:1006810013C3E43000069FFFE49EFEE42001039DB6
:10069100FDE49CFCE4CBF8C201EC700CCFCECDCCD8
:1006A100E824F8F870F38017C3EF33FFEE33FEED63
:1006B10033FDEC33FCEB33FB994002FB0FD8E9EB44
:1006C100300105F8D0E0C448B201C0E00AEC4D4E5B
:1006D1004F78207B0070C2EAB53F0040BCC0E012F9
:1006E1000746D0F0D0E0200104C4C0E0C4B201C08C
:1006F100F01204D5D0F0D5F0EB02052512048B05DC
:10070100C253063C5805934C058F4206404F06489C
:0F0711004406484905A843064E550632460632AF
:100720004506324707EE5005972D059B2E05BE2B3B
:10073000059F2305BC2007D72A055748000005B6AA
:100740003F3F3F00790AA2D5200314300509B910B4
:10075000020404B9080104A2D520060250010420B5
:1007600002689202B53E005034C0E07F2030031989
:100770007F30A20272067205500F12079DC202C29C
:1007800006C205C2087F30800F300503E9C0E012C1
:1007900004EC300503D0E0F9D0E0B53ECC300517CD
:1007A0007F30B9100C1204EC7F583004077F78803A
:1007B00003B908031204EC3002057F2D0204EC7F1C
:1007C000202008F87F2B2006F322920280CF286E8B
:1007D000756C6C2900D2011204B13001F8C20178A5
:1007E0003E30D50108F60205572D504349581204F2
:1007F000B12403B405004001E49007E9931204DD3D
:0D080000743A1204DDD203753E0402063C7A
:10042F00C5F0F8A3E028F0C5F0F8E5821582700258
:06043F001583E038F022F5
:0D044500E6FB08E6F908E6FA08E6CBF82227
:0C045200E0F8A3E0F9A3E0FAA3E0FB222D
:0D045E00E2FB08E2F908E2FA08E2CBF8221E
:10046B00E493F8740193F9740293FA740393FB22E7
:10047B00FAE6FB0808E6F925F0F618E6CA3AF62282
:10048B00D083D082F8E4937012740193700DA3A300
:10049B0093F8740193F5828883E473740293686014
:0604AB00EFA3A3A380DF14
:00000001FF
