:021BEE001B8D4D
:021BF0001BA731
:03000B00020C27BD
:100C2200C2AF80FE32120C2685D00B75D008AAE026
:100C3200C28CE58A24F7F58AE58C34D8F58CD28CFF
:100C4200EC2419F8E6BC010274FFC39581B41400C8
:100C520040CE7902781416E608700BC2AFE630E196
:100C6200034418F6D2AF08D9EDEA8BD0300901223D
:100C7200D50DFCC0E0C0D0C0F0C083C082C000C0AF
:100C820001C002C003C004C005C006C007E50C23B2
:100C92002415F87440C2AF46F6D2AFD209E50CFF74
:100CA200232415F80F0808BF02047F007815E630E8
:100CB200E4F200E50CC39F5020050C7418250CF8D3
:100CC200E6FDA68108E6AE0CBE010274FFCDF8E88F
:100CD2006D60E008E6C0E080F6E50CD39F4027E5B2
:100CE2000C2419F8E6AE0CBE010274FFFD18E6CD25
:100CF200F8E5816D6006D0E0F61880F5E50C241861
:100D0200C8F6150C80D3750D05E50C232415F87F64
:100D120004C2AFE610E61E30E00310E20C7F0030A2
:050D2200E10730E304CD
:100D27007F0854F4547CC6D2AF54804207C20922CC
:100D3700F6D2AFD007D006D005D004D003D002D06A
:100D470001D000D082D083D0F0D0D0D0E0C2092229
:100D57007818A68174016006FF0876FFDFFB7F0223
:100D6700E47814F608F608DFFA78157630901BEE6B
:100D7700740193C0E0E493C0E0750D0543890175E4
:0D0D87008AF0758CD8D28CD2AFD2A922018F
:10153D00BEE0C0EBBBF1C8A1B3C9B9A63A20252EB8
:10154D00326620636D0A00D0A1D3DABFC9B2E2BE04
:10155D00E0C0EB3A20252E326620636D0A00B4F30D
:10156D00D3DABFC9B2E2BEE0C0EB3A20252E326617
:10157D0020636D0A00BEE0C0EBBBF1C8A1CAA7B0E5
:10158D00DC2C636F756E743A252E64206469733A92
:06159D00252E32660A0053
:1019E1007522407523017527007526C2752501757D
:1019F1002400752901E4F52AFB7A0079227F01127E
:0C1A010011597D017F0112196C53A23FA6
:011A0D0022B6
:101B080043BA801219E1121B9A120003121BD81251
:081B18001BD1121BDED2AF222B
:0D1B8D00121B087F01120D94E4FF020E1DD3
:10146100E4F5327F02121B507B007A0079331216A9
:1014710051121AB87B007A0079371212A78F32E520
:101481003270087BFF7A15793D8018E532B4010886
:101491007BFF7A157954800BE5327BFFB402127A17
:1014A10015796B853A4185394085383F85373E80CE
:1014B1001A7A157982AF32EF3395E0F53E8F3F8589
:0E14C1003A4385394285384185374012081577
:0114CF0022FA
:050026007F02021B66D1
:0C1BA700121B387D027F02120EA680F493
:100F0500EFD3940740037FFF2212056FFED39403AE
:100F150040037FFF22EF7041EE700B900001120538
:100F250088F45293529412056FB4010B900001128C
:100F350005884293F4529412056FFEB4020A90009C
:100F45000112058842934294EEB4030D90000112FC
:100F55000588FEF45293EE4294EF64017043120546
:100F65006FFE700B900001120588F452915292EEBB
:100F7500B4010B9000011205884291F452921205BA
:100F85006FB4020A9000011205884291429212053F
:100F95006FB4030D900001120588FEF45291EE42E4
:100FA50092EF6402704312056FFE700B9000011200
:100FB5000588F452955296EEB4010B900001120586
:100FC500884295F4529612056FB4020A90000112F8
:100FD50005884295429612056FB4030D90000112E3
:100FE5000588FEF45295EE4296EF640370431205B0
:100FF5006FFE700B900001120588F452B152B2EEEB
:10100500B4010B90000112058842B1F452B21205E9
:101015006FB4020A90000112058842B142B212056E
:101025006FB4030D900001120588FEF452B1EE4233
:10103500B2EF6404704312056FFE700B900001124D
:101045000588F452B352B4EEB4010B9000011205B9
:101055008842B3F452B412056FB4020A900001122B
:10106500058842B342B412056FB4030D9000011216
:101075000588FEF452B3EE42B4EF640570431205E1
:101085006FFE700B900001120588F452C952CAEE2A
:10109500B4010B90000112058842C9F452CA120529
:1010A5006FB4020A90000112058842C942CA1205AE
:1010B5006FB4030D900001120588FEF452C9EE428B
:1010C500CAEF6406704312056FFE700B90000112A3
:1010D5000588F452CB52CCEEB4010B9000011205F9
:1010E5008842CBF452CC12056FB4020A900001126B
:1010F500058842CB42CC12056FB4030D9000011256
:101105000588FEF452CBEE42CCEF6407704312051E
:101115006FFF700B900001120588F452E152E2EF67
:10112500B4010B90000112058842E1F452E2120568
:101135006FB4020A90000112058842E142E21205ED
:101145006FB4030D900001120588FFF452E1EF42E0
:04115500E27F002213
:1015FC00900001120588FFE5DE54F04FF5DE9000F7
:10160C0002120588C43354E0FFE5DE54DF4FF5DEEB
:10161C0012056FFFD3941F502B900003120588FE08
:10162C00D39401501F900004120588FDD3940350ED
:10163C0013EDC43354E0FDEEC433333354804D4FBB
:05164C0090FEA8F02251
:0B1BB300BF010443BC802253BC7F2212
:1014D000EFD3940F40028060E4F5BDF5BEE5BC5447
:1014E000F044404FF5BC0000000000000000000088
:1014F000E4FDE5BC30E53D53BCDFE5DEAFBD30E5E6
:101500000EEFFEACBEECFBEEF542EBF54380207532
:1015100042008F43E5BEC4540FFBE543C4F8540FAB
:10152000C868FFE542C454F048F542EF4BF543AEBE
:0C15300042AF43220DBDFABA7E107F00CE
:01153C00228C
:03002B00021BF2C3
:041BF20053BCDF32CF
:061159008B2B8A2C892D6E
:10115F00EF640160030212A4F50EF50FF510F511FF
:10116F00F512FF7E80900080E4F0A3DEFCE4FF7EAA
:10117F0080900000E4F0A3DEFC7E00AB2BAA2CA92C
:10118F002D12056FFFE598543F4FF598EF64C0603F
:10119F0008EF644060030212599000021206F37FB9
:1011AF00807E8D7D5B7C001206158F318E308D2FEA
:1011BF008C2EE4FFFE7D01FCAB31AA30A92FA82EA7
:1011CF00C31206B540037FFF22C3E49531F531E426
:1011DF009530F5307401952FF52FE4952EF52EAB44
:1011EF002BAA2CA92D900001120588FB6401702CED
:1011FF00C28E538EFE5389BF5389CF438E40AF317A
:10120F00AE30AD2FAC2E78081206C68F8D85318B80
:10121F00C2AB5389BF538FFDD28E8062EB640270D5
:10122F0026538EEF438E01538EF7438E04AF31AEAC
:10123F0030AD2FAC2E78081206C68FD68531D75316
:10124F00AFFB438E1080377FFF22AB2BAA2CA92D2B
:10125F0012056FFF7013900008120588B401054343
:10126F008E20801A538EDF8015EFB4801190000806
:10127F00120588B40105438780800353877FAB2B0A
:10128F00AA2CA92D9000071205887004C29C800219
:07129F00D29C7F00227FFFBB
:0112A6002225
:0A1BBE008F99751001E51070FC22EC
:10000E0012056FFF600C121BBE740129F9E43AFA57
:03001E0080EE224F
:051BE400AE07021BBE6C
:030023000217B30E
:1017B300C0E0C083C082C0D075D000C0073098207D
:1017C300C298E511C394804003751100AF11051150
:1017D30074002FF582E43400F583E599F075120562
:1017E300309905C299751000D007D0D0D082D0832C
:0317F300D0E03211
:10183600EFD3940140037FFF22EDD3940340037F4F
:10184600FF22EF7004C2A98002D2A9ED700553B73A
:10185600FDC2B9BD010553B7FDD2B9BD020543B7F7
:0E18660002C2B9BD030543B702D2B97F00220A
:10187400EFD3940140037FFF22EDD3940340037F11
:10188400FF22EF7004C2AB8002D2ABED700553B7F8
:10189400F7C2BBBD010553B7F7D2BBBD020543B7C1
:0E18A40008C2BBBD030543B708D2BB7F0022BC
:101A3100EFD3940140037FFF22EDD3940340037F52
:101A4100FF22EF25E025E0FFE5AF54FB4FF5AFE4C2
:021A5100FF2272
:101A5300EFD3940140037FFF22EDD3940340037F30
:101A6300FF22EFC43354E0FFE5AF54DF4FF5AFE49B
:021A7300FF2250
:101A0E00EFD3940140037FFF22EDD3940340037F75
:101A1E00FF22EFC4333354C0FFE5AF54BF4FF5AFD1
:031A2E00E4FF22B0
:1018B200EFD3940140037FFF22EDD3940340037FD3
:1018C200FF22EF7004C2A88002D2A8ED700553B7C0
:1018D200FEC2B8BD010553B7FED2B8BD020543B77B
:0E18E20001C2B8BD030543B701D2B87F002292
:1018F000EFD3940140037FFF22EDD3940340037F95
:10190000FF22EF7004C2AA8002D2AAED700553B77D
:10191000FBC2BABD010553B7FBD2BABD020543B73E
:0E19200004C2BABD030543B704D2BA7F002249
:101B2000EFD3940140037FFF22EFC454F0FFE58F11
:081B300054EF4FF58FE4FF2292
:101AEF00EFD3940140037FFF22EFC43354E0FFE5AF
:091AFF008F54DF4FF58FE4FF2244
:101AD500EFD3940140037FFF22EFC4333354C0FF9B
:0A1AE500E58F54BF4FF58FE4FF2298
:10192E00EFD3940140037FFF22EDD3940340037F56
:10193E00FF22EF7004C2AD8002D2ADED700553B739
:10194E00DFC2BDBD010553B7DFD2BDBD020543B732
:0E195E0020C2BDBD030543B720D2BD7F0022CD
:10169B00EDD3940340037FFF22EF30E10543E620B7
:1016AB00800353E6DFEF30E00543E610800353E69B
:1016BB00EFED700653B6DF53B5DFBD010653B6DF52
:1016CB0043B520BD020643B62053B5DFBD03064329
:0816DB00B62043B5207F002278
:1015A300EFD3940140037FFF22EBD3940340037FE7
:1015B300FF22BF0112ED90FE817006E0547FF080A0
:1015C30011E04480F0800BEF700890FE83E05487B5
:1015D3004DF0EB700653B6DF53B5DFBB010653B6D0
:1015E300DF43B520BB020643B62053B5DFBB03067A
:0915F30043B62043B5207F00221D
:10196C00EFD3940140037FFF22EDD3940340037F18
:10197C00FF22EF7004C2AC8002D2ACED700553B7FD
:10198C00EFC2BCBD010553B7EFD2BCBD020543B7D6
:0E199C0010C2BCBD030543B710D2BC7F0022B1
:1017F600EFD3940140037FFF22EDD3940340037F90
:10180600FF22E5AF54FE4FF5AFED700653B6FE531B
:10181600B5FEBD010653B6FE43B501BD020643B68D
:101826000153B5FEBD030643B60143B5017F002251
:1016E300EFD3940140037FFF22EDD3940340037FA4
:1016F300FF22EF33333354F8FFE5AF54F74FF5AF21
:10170300ED700653EEFE53DFFEBD010653EEFE43BE
:10171300DF01BD020643EE0153DFFEBD030643EEC8
:071723000143DF017F0022FA
:10172A00EFD3940140037FFF22EDD3940340037F5C
:10173A00FF22EFC454F0FFE5AF54EF4FF5AFED7061
:10174A000653EEFD53DFFDBD010653EEFD43DF02F6
:10175A00BD020643EE0253DFFDBD030643EE02431C
:05176A00DF027F0022F8
:10176F00EFD3940140037FFF22EDD3940340037F17
:10177F00FF22EF25E0FFE5AF54FD4FF5AFED70060B
:10178F0053B6FD53B5FDBD010653B6FD43B502BDBE
:10179F00020643B60253B5FDBD030643B60243B579
:0417AF00027F002293
:1013E700EFD3948140037FFF22EBD3940340037F25
:1013F700FF22EF247F603004705890FEC4EDF0EBBD
:10140700700653B6FB53B5FBBB010653B6FB43B59A
:1014170004BB020643B60453B5FBEB6403703843C1
:10142700B60443B504803090FEE4EDF0EB7006534C
:10143700B6F753B5F7BB010653B6F743B508BB027A
:101447000643B60853B5F7BB030D43B60843B508C3
:0A145700800590FEE4EDF07F002216
:1019AA00EDD394035026ED700653EEFB53DFFBBDD7
:1019BA00010653EEFB43DF04BD020643EE0453DF88
:1019CA00FBBD030B43EE0443DF0480037FFF229039
:0719DA00FE62EFF07F002226
:0D1B9A005393DF43942053B1EF43B2102268
:101B5000EF14600A14600A2402700AD2B422D285FB
:061B600022D2B4D285225E
:101B6600EF14600A14600A2402700AC2B422C28505
:061B760022C2B4C2852268
:031BF600011300D8
:0700030053B17F53B27F22CD
:101B3800A2B7E4336513600FA2B7E433F51330B7E7
:081B48000302146112002622C1
:101B7C007522017523027B007A007922E4FF020FA3
:011B8C000553
:101A970075221FE4F525752601F523752401FB7AC8
:101AA7000079221215FC7F01121BB3E4FDFF021916
:011AB7002E00
:061BD800121B7C021A97AB
:061651008B3B8A3C893D41
:101657007F091214D0AD07AC06E4120252E4FBFA7C
:101667007920784012002EE4FBFA79807845120140
:10167700378F418E408D3F8C3EE4FBFA79407840AE
:1016870012002E8F418E408D3F8C3EAB3BAA3CA96A
:041697003D0206D931
:081BC8007F037E52DEFEDFFC0C
:011BD00022F2
:071BD10053B1BF43B24022F3
:101AB8007DE87C03ED1DAE0470011CD39400EE6438
:0C1AC8008094804007B2B6121BC880E872
:011AD40022EF
:041BE9007F4EDFFE4E
:011BED0022D5
:101A75007523087522037B007A0079227F01120FF6
:101A8500057523017522017B007A0079227F040206
:021A95000F053B
:061BDE00121A75C29322E9
:0612A7008B3B8A3C893DEF
:1012AD00E4FBFAF541F540F53FF53ED293121BE90B
:1012BD00121BE9C29320C00E121BE90BBB00010AE1
:1012CD00EB64284A70EF7C007D0AAF03AE02120575
:1012DD00C7C3EF9490EE94014003AF0322E4FAFBF1
:1012ED0030C00A121BE90BBB00010A80F3AE02AF3E
:1012FD00037C007D221205C7AC06AD07E412025235
:10130D007B0A7AD779A3783B12002E8F418E408DC0
:10131D003F8C3EAB3BAA3CA93D1206D9E4FFFEFD36
:10132D007C40AB41AA40A93FA83E1201D450037F97
:10133D000122E4FFFE7D167C44AB41AA40A93FA8E3
:0D134D003E1201D4600540037F02227F00A4
:01135A002270
:100D9400EFD3940140037FFF2274152F2FF8E62030
:100DA400E5F4C2AFE64430F6D2AFAE0CEEC39F50CA
:100DB400210E74182EF8E6F908E618BE010274FF35
:100DC400FDED69600909E71919F7090980F3161699
:100DD40080DAEED39F400405810581EED39F402243
:100DE40074182EF808E6F9EEB50C02A98118060667
:100DF400E6FDED6960091919E70909F71980F31E81
:100E040080D9EF2418F8E604F8EF2F04901BEE9332
:090E1400F608EF2F93F67F00228F
:100E1D00EFD3940140037FFF22EF232415F8E63032
:100E2D00E5F4C2AFE6548CF6D2AFE50CB5070A7403
:100E3D00182FF8E6F581020C9D502E74192FF8E647
:100E4D00BF010274FFFD18E6F974182FF8FBE6FCDC
:100E5D00E96C6008A805E7F61D1980F4A803A6053E
:100E6D001FE50CB507E37F002274192FF8E6FD1876
:100E7D0086010F74182FF8A601088604E50CB50736
:100E8D0002AC81ED6C60080D09A805E6F780F4E56C
:090E9D000CB507DE89817F0022FB
:100EA6008FF0E4FFFEE50C232414F8C2A930F70DF9
:100EB6007F08E6600B2DF660325030800730F10671
:100EC600EDF660277E020830F010C2AFE610E72587
:100ED6000E30E20CD2AF7F048014C2AFE610E715E5
:100EE60054EC4EF6D2AFD2A9020C9D7F0808EF440F
:0F0EF60083F4C2AF56C6D2AFD2A954804FFF22A9
:10002E00EC4D6011E8497017ED33EC3304600DE4CC
:10003E00FCFFFEFD22E933E8330470F80202C01221
:10004E00028B58046009E4CC248150062850090222
:10005E0002CA2840030202C7C0E0EB4A7044B980CE
:10006E0006D0E0FB0202B6EF4E701CBD8008EBFF1F
:10007E00EAFEE9FD80EBE98DF0A4FEE5F002011742
:10008E00E9CDF9EAFEEBFFEF89F0A4FCE5F0CE89AD
:10009E00F0A42EFFE435F0CD89F0A42DFEE435F06A
:1000AE008067EF4E7005BD80D780C3EF8BF0A4AC98
:1000BE00F0EE8BF0A42CFCE435F0F8EF8AF0A42CD3
:1000CE00E5F038FCE433CB8DF0A42CFCE5F03BF8E6
:1000DE00EE8AF0A42CFCE5F038F8E433CF89F0A4D6
:1000EE002CFCE5F038CF3400CE89F0A42FFFE5F0DC
:1000FE003EFEE433C98DF0A42EFEE5F039CD8AF034
:10010E00A42FFFE5F03EFEE43DFD33D0E0FB5007AB
:10011E000BBB000F0202CAEC2CFCEF33FFEE33FEDA
:06012E00ED33FD0202A208
:100134000202CAEC5D046005E8590470030202C0BF
:1001440012028B580460F6EC4860F2EC7004FDFE79
:10015400FF22C860DB2481C85009C398600250069E
:100164000202C79850CAF582E9294B4A7005AB824E
:100174000202B675F0007C1A7880C3EF9BEE9AED0C
:1001840099400DC3EF9BFFEE9AFEED99FDE842F016
:10019400DC23ACF0D0E0FFD0E0FED0E0FDAB822069
:1001A400E7101BEB60BAEC2CFCEF33FFEE33FEEDF3
:1001B40033FD0202A2E803F830E705C0F075F00051
:1001C400EF2FFFEE33FEED33FD40B830E7C280AAD7
:1001D40074F8CC6480CCC86480C8F58204604FC3D2
:1001E400EB9FF5F0EA9E42F0E99D42F0E89C45F071
:1001F400603C501DE5825FFFE582D313CB5BCBF4FB
:100204002B5582FB50280ABA002409B90020088023
:100214001DE5825BFBE582D313CF5FCFF4C3132FBD
:100224005582FF50090EBE00050DBD00010CC3EB45
:100234009FF5F0EA9E42F0E99D42F0E89C45F060AB
:0902440007CC4820E701B3EC22CD
:10024D0075F020800E75F010800575F0087D007E2C
:10025D00007F003392D530D5031206A7EC33401042
:10026D00EF33FFEE33FEED33FDEC33FCD5F0ED2235
:0E027D00E5F0247EA2D513CC92E7CDCEFF2271
:1007B300E552243EF8E6055222783B300702783EA4
:1007C300E475F00112072302056F2000EB7F2ED2A0
:1007D300008018EF540F2490D43440D4FF30040B1E
:1007E300EF24BFB41A0050032461FFE553600215E0
:1007F300530556E5567002055530070D783BE475F1
:10080300F001120723EF0205B5021BE47403D207BC
:100813008003E4C207F5528B3B8A3C893DE4F553E0
:10082300F555F556E55360077F201207EE80F57501
:1008330054FFC201C200C202C203C205C206C208FB
:100843001207BCFF700D3007057F001207FFAF567C
:10085300AE5522B4255FC2D5C2041207BCFF24D013
:10086300B40A00501A75F00A785330D50508B6FF5C
:100873000106C6A426F620D5047002D20380D9242B
:10088300CFB41A00EF5004C2E5D204020AECD2013D
:1008930080C6D20080C0D20280BCD2D580BAD20535
:1008A30080B47F201207EE2002077401B553004085
:1008B300F11207B3FF1207EE020827D208D206800F
:1008C300951207B3FB1207B3FA1207B3F94A4B7039
:1008D3000679E37A0B7BFF20022EE553602A7E0024
:1008E3008E8275830012058860060EEE655470F0E3
:1008F300C2D5EBC0E0EAC0E0E9C0E0EE120B4CD099
:10090300E0F9D0E0FAD0E0FB12056FFF60AAEBC07C
:10091300E0EAC0E0E9C0E01207EED0E02401F9D03C
:10092300E03400FAD0E0FBE5540460DCD554D98010
:1009330087D20280A2120B2F60F7E55470010412D4
:1009430002D5A954600DE554600914F554120BD671
:10095300EF60F3EA30E702F404C3995077EAF42531
:10096300540430E701E404F554800D120B2F60C1E9
:10097300EA055425541202D5EA7851F630E701E42A
:10098300255404D5540420050114120B4CE4C0E093
:10099300120BD67851E6601320E70714F61207D638
:1009A300802204F6D0E014C0E07F001207D6E5549D
:1009B30060071207CD1554800B3005031207CDD005
:1009C300E0020827D0E00480C5120B2F60A0E55495
:1009D300041202D57851EAF6E554200502600104B9
:0509E3002404120B4C7E
:1009E80074FF04C0E0120BD61207D6E554200502A6
:1009F80060031207CDD0E0B554E87F451207E078D0
:100A080051E67F2B30E7047F2DF404C0E01207EE97
:100A1800D0E075F00A84C0F01207D7D0E01207D7EB
:100A2800020827791080027908C206C2088008D215
:100A3800D5790A8004790AC2D5E554047002F554C0
:100A4800E4FAFDFEFF1207B3FC7B0820011312072E
:100A5800B3FD7B1030000A1207B3FE1207B3FF7B09
:100A680020EC3382D592D55013C3E43000069FFFA3
:100A7800E49EFEE42001039DFDE49CFCE4CBF8C267
:100A880001EC700CCFCECDCCE824F8F870F38017C9
:100A9800C3EF33FFEE33FEED33FDEC33FCEB33FBFA
:100AA800994002FB0FD8E9EB300105F8D0E0C448C3
:100AB800B201C0E00AEC4D4E4F78207B0070C2EACC
:100AC800B5540040BCC0E0120B4ED0F0D0E020017D
:100AD80004C4C0E0C4B201C0F01207D7D0F0D5F00A
:100AE800EB02082712073308C4530A2B5808954C01
:100AF8000891420A2F4F0A37440A374908AA430A7D
:100B08003D55096E4609CC450938470C03500899EC
:100B18002D089D2E08C02B08A12308BE200BEC2A07
:100B2800085948000008B8E554B4FF037554061284
:100B380007B3FC1207B3FD1207B3FE1207B3FF7821
:100B48004A020304790AA2D5200314300509B91012
:100B5800020404B9080104A2D520060250010420A9
:100B680002689202B553005034C0E07F2030031968
:100B78007F30A20272067205500F120BA5C202C284
:100B880006C205C2087F30800F300503E9C0E012B5
:100B980007EE300503D0E0F9D0E0B553CC300517A7
:100BA8007F30B9100C1207EE7F583004077F788029
:100BB80003B908031207EE3002057F2D0207EE7F06
:100BC800202008F87F2B2006F322920280CF7F0096
:100BD800B407005005244AF8E6FF22286E756C6CAD
:100BE8002900D2011207B33001F8C201785330D579
:100BF8000108F60208592D504349581207B3240337
:100C0800B405004001E4900BFE931207DF743A121A
:0A0C180007DFD203755304020A2B14
:10028B00E9D2E7C933E833F892D5EDD2E7CD33ECB9
:07029B0033FC5002B2D52232
:1002A200EC30E7100FBF000C0EBE00080DBD0004BD
:1002B2000BEB6014A2D5EB13FCED92E7FD2274FF69
:1002C200FCFDFEFF22E480F8A2D574FF13FC7D80C2
:0302D200E480EFD6
:1002D500F920E72824F950037907E4F42402FB18F0
:1002E500DBFDE624FB5014E9600DE4F618E604F6A0
:0F02F500B40A08E4F6D9F57401F60A22C2D5223C
:10030400ED33EC3392D5FA602AB4FF33EDC2E77BC8
:10031400FF60067A037929E4227A03793220D5042E
:100324007A03792D224E614E002B494E46002D4909
:100334004E4600E47A08F608DAFC7B00740722E8EB
:10034400C0E0ECC0E0EDC0E0EEC0E0EFC0E0EA7574
:10035400F010A4CAABF075F04DA42BFBE435F0FC0F
:10036400EA2410FAEB34C5FBEC34D9FCEDC2E7FF08
:1003740075F056A4F42411C5F0F434C58FF0A42A02
:10038400E5F03BE43CF620E71412052FD0E0FFD063
:10039400E0FED0E0FDD0E0FC1201378014F404123A
:1003A400052FD0E0FFD0E0FED0E0FDD0E0FC12004D
:1003B4002ED0E0F8E6FAEDD2E7CD33EC332482FB1D
:1003C400E4C3CF33CFCE33CECD33CD33DBF37B0792
:1003D40075F00A846004F6081B0AE5F0F6088FF04D
:1003E400740AA4FFACF08EF0740AA42CFEACF05096
:1003F400010C8DF0740AA42CFDE435F0F608DBDE64
:0304040074072258
:100407000202C0E86480F8E933E83360110460F061
:10041700ED33EC337009E8FCE9FDEAFEEBFF22045B
:1004270060DED3EB9FEA9EE99DE8C2E78CF0C2F756
:1004370095F0400CE8CCF8E9CDF9EACEFAEBCFFB22
:1004470012028B85D0F05804700320D5B3E80470EE
:10045700075002B2D50202CA92D5EC0460F7E4CC89
:10046700C0E0C398F8603B94186008400DD0E0FBEB
:100477000202A2E4FBFAC9FC8028E830E406E4C9DA
:10048700FBE4CAFCE830E305E4C9CACBFCE854073F
:100497006010F8C3E913F9EA13FAEB13FBEC13FC4A
:1004A700D8F130F52FC3E49CFCEF9BFFEE9AFEEDED
:1004B70099FDD0E0FBEF4E4D4C701222DB03020298
:1004C700C7EC2CFCEF33FFEE33FEED33FDED30E7E9
:1004D700EB0202A2EF2BFFEE3AFEED39FDD0E0FB77
:1004E70050130BBB00030202CAED13FDEE13FEEF20
:0804F70013FFEC13FC0202A24A
:1004FF003F8000004120000042C80000447A000005
:10050F00461C400047C35000497424004B18968086
:10051F004CBEBC205A0E1BCA6753C21C749DC5AE7D
:10052F00FB60065407601C232312055DEB543860F3
:10053F000912054912055812002EECF8EDF9EEFAE2
:10054F00EFCB22EB12055880F1543803241C900492
:10055F00FFFE93FC0EEE93FD0EEE930ECE93FF2255
:0300000002135B8D
:0C135B00787FE4F6D8FD7581560213A2DD
:10056F00BB010689828A83E0225002E722BBFE028A
:09057F00E32289828A83E49322BD
:10058800BB010CE58229F582E5833AF583E0225028
:1005980006E92582F8E622BBFE06E92582F8E22272
:0D05A800E58229F582E5833AF583E493228C
:1005B500BB010689828A83F0225002F722BBFE0125
:0205C500F3221F
:1005C700EF8DF0A4A8F0CF8CF0A428CE8DF0A42E48
:0205D700FE2202
:1005D90075F008758200EF2FFFEE33FECD33CDCCD9
:1005E90033CCC58233C5829BED9AEC99E58298405C
:1005F9000CF582EE9BFEED9AFDEC99FC0FD5F0D639
:10060900E4CEFBE4CDFAE4CCF9A88222B800C1B962
:100619000059BA002DEC8BF084CFCECDFCE5F0CBA0
:10062900F97818EF2FFFEE33FEED33FDEC33FCEBD9
:1006390033FB10D703994004EB99FB0FD8E5E4F994
:10064900FA227818EF2FFFEE33FEED33FDEC33FC81
:10065900C933C910D7059BE99A4007EC9BFCE99A75
:10066900F90FD8E0E4C9FAE4CCFB2275F010EF2FBA
:10067900FFEE33FEED33FDCC33CCC833C810D707BA
:100689009BEC9AE899400AED9BFDEC9AFCE899F8F5
:0E0699000FD5F0DAE4CDFBE4CCFAE4C8F92288
:0E06A700C3E49FFFE49EFEE49DFDE49CFC2264
:1006B500EB9FF5F0EA9E42F0E99D42F0E89C45F09B
:0106C5002212
:1006C600E8600FECC313FCED13FDEE13FEEF13FF12
:0306D600D8F12236
:1006D900BB010789828A8302079B5005E9F8020753
:0A06E9008FBBFE05E9F80207A72207
:1006F300BB010DE58229F582E5833AF5830207669E
:100703005007E92582F8020759BBFE07E92582F85D
:10071300020772E58229F582E5833AF58302077FB2
:10072300FAE6FB0808E6F925F0F618E6CA3AF622D7
:10073300D083D082F8E4937012740193700DA3A355
:1007430093F8740193F5828883E473740293686069
:06075300EFA3A3A380DF69
:10136700020D57E493A3F8E493A34003F68001F238
:1013770008DFF48029E493A3F85407240CC8C33387
:10138700C4540F4420C8834004F456800146F6DF56
:10139700E4800B0102040810204080901BF6E47ED5
:1013A700019360BCA3FF543F30E509541FFEE4934B
:1013B700A360010ECF54C025E060A840B8E493A312
:1013C700FAE493A3F8E493A3C8C582C8CAC583CA3D
:1013D700F0A3C8C582C8CAC583CADFE9DEE780BEF5
:011BF90000EB
:0D075900E6FB08E6F908E6FA08E6CBF82210
:0C076600E0F8A3E0F9A3E0FAA3E0FB2216
:0D077200E2FB08E2F908E2FA08E2CBF82207
:10077F00E493F8740193F9740293FA740393FB22D0
:0C078F00ECF608EDF608EEF608EFF62296
:0C079B00ECF0A3EDF0A3EEF0A3EFF022D1
:0C07A700ECF208EDF208EEF208EFF2228E
:00000001FF
