:0F0F0B007D607C09ED1D70011C144C70F7DFF147
:010F1A0022B4
:1003E200EFD3940740037FFF22120636FED3940315
:1003F20040037FFF22EF7041EE700B900001120666
:100402004FF452935294120636B4010B900001122B
:10041200064F4293F45294120636FEB4020A90003A
:100422000112064F42934294EEB4030D9000011262
:10043200064FFEF45293EE4294EF640170431206AB
:1004420036FE700B90000112064FF452915292EE5A
:10045200B4010B90000112064F4291F4529212061F
:1004620036B4020A90000112064F429142921206DD
:1004720036B4030D90000112064FFEF45291EE4283
:1004820092EF64027043120636FE700B9000011266
:10049200064FF452955296EEB4010B9000011206EB
:1004A2004F4295F45296120636B4020A9000011297
:1004B200064F42954296120636B4030D9000011281
:1004C200064FFEF45295EE4296EF64037043120615
:1004D20036FE700B90000112064FF452B152B2EE8A
:1004E200B4010B90000112064F42B1F452B212064F
:1004F20036B4020A90000112064F42B142B212060D
:1005020036B4030D90000112064FFEF452B1EE42D2
:10051200B2EF64047043120636FE700B90000112B3
:10052200064FF452B352B4EEB4010B90000112061E
:100532004F42B3F452B4120636B4020A90000112CA
:10054200064F42B342B4120636B4030D90000112B4
:10055200064FFEF452B3EE42B4EF64057043120646
:1005620036FE700B90000112064FF452C952CAEEC9
:10057200B4010B90000112064F42C9F452CA12068E
:1005820036B4020A90000112064F42C942CA12064C
:1005920036B4030D90000112064FFEF452C9EE422A
:1005A200CAEF64067043120636FE700B9000011209
:1005B200064FF452CB52CCEEB4010B90000112065E
:1005C2004F42CBF452CC120636B4020A900001120A
:1005D200064F42CB42CC120636B4030D90000112F4
:1005E200064FFEF452CBEE42CCEF64077043120684
:1005F20036FF700B90000112064FF452E152E2EF07
:10060200B4010B90000112064F42E1F452E21206CD
:1006120036B4020A90000112064F42E142E212068B
:1006220036B4030D90000112064FFFF452E1EF427F
:04063200E27F002241
:100DF300696E74305F63616C6C3A526973696E67D4
:100E030020656467650A00696E74305F63616C6CAA
:0F0E13003A46616C6C696E6720656467650A001A
:100F1B00E4F536753704FB7A0079367F030203E27A
:10002600753640753701753B00753AC275390175ED
:100036003800753D01E4F53EFB7A0079367F011202
:0C004600081C7D017F01120D0E53A23F2B
:01005200228B
:100ED200E4F536FB7A007936FF120DC1E4FD7F019D
:030EE200020C54AB
:100EE5007BFF30B2067A0D79F380047A0E790A1207
:030EF50000E822F0
:100E6600120F1B120026120ED2D2AF7FFA120F0BF0
:100E76007FFA120F0B7FFA120F0B7FFA120F0B80FD
:010E8600EA81
:100BD800EFD3940140037FFF22EDD3940340037FBA
:100BE800FF22EF7004C2A98002D2A9ED700553B7A5
:100BF800FDC2B9BD010553B7FDD2B9BD020543B762
:0E0C080002C2B9BD030543B702D2B97F002274
:100C1600EFD3940140037FFF22EDD3940340037F7B
:100C2600FF22EF7004C2AB8002D2ABED700553B762
:100C3600F7C2BBBD010553B7F7D2BBBD020543B72B
:0E0C460008C2BBBD030543B708D2BB7F002226
:100E2200EFD3940140037FFF22EDD3940340037F6D
:100E3200FF22EF25E025E0FFE5AF54FB4FF5AFE4DD
:020E4200FF228D
:100E4400EFD3940140037FFF22EDD3940340037F4B
:100E5400FF22EFC43354E0FFE5AF54DF4FF5AFE4B6
:020E6400FF226B
:10005E00EFD3940140037FFF22EDD3940340037F3F
:10006E00FF22EFC4333354C0FFE5AF54BF4FF5AF9B
:03007E00E4FF227A
:100C5400EFD3940140037FFF22EDD3940340037F3D
:100C6400FF22EF7004C2A88002D2A8ED700553B72A
:100C7400FEC2B8BD010553B7FED2B8BD020543B7E5
:0E0C840001C2B8BD030543B701D2B87F0022FC
:100C9200EFD3940140037FFF22EDD3940340037FFF
:100CA200FF22EF7004C2AA8002D2AAED700553B7E8
:100CB200FBC2BABD010553B7FBD2BABD020543B7A9
:0E0CC20004C2BABD030543B704D2BA7F0022B4
:100EBA00EFD3940140037FFF22EFC454F0FFE58F84
:080ECA0054EF4FF58FE4FF2205
:100EA100EFD3940140037FFF22EFC43354E0FFE509
:090EB1008F54DF4FF58FE4FF229E
:100E8700EFD3940140037FFF22EFC4333354C0FFF5
:0A0E9700E58F54BF4FF58FE4FF22F2
:100CD000EFD3940140037FFF22EDD3940340037FC1
:100CE000FF22EF7004C2AD8002D2ADED700553B7A4
:100CF000DFC2BDBD010553B7DFD2BDBD020543B79D
:0E0D000020C2BDBD030543B720D2BD7F002237
:100A3D00EDD3940340037FFF22EF30E10543E62021
:100A4D00800353E6DFEF30E00543E610800353E605
:100A5D00EFED700653B6DF53B5DFBD010653B6DFBC
:100A6D0043B520BD020643B62053B5DFBD03064393
:080A7D00B62043B5207F0022E2
:1009E400EFD3940140037FFF22EBD3940340037FB2
:1009F400FF22BF0112ED90FE817006E0547FF0806B
:100A040011E04480F0800BEF700890FE83E054877F
:100A14004DF0EB700653B6DF53B5DFBB010653B69A
:100A2400DF43B520BB020643B62053B5DFBB030644
:090A340043B62043B5207F0022E7
:100D0E00EFD3940140037FFF22EDD3940340037F82
:100D1E00FF22EF7004C2AC8002D2ACED700553B767
:100D2E00EFC2BCBD010553B7EFD2BCBD020543B740
:0E0D3E0010C2BCBD030543B710D2BC7F00221B
:100B9800EFD3940140037FFF22EDD3940340037FFA
:100BA800FF22E5AF54FE4FF5AFED700653B6FE5386
:100BB800B5FEBD010653B6FE43B501BD020643B6F8
:100BC8000153B5FEBD030643B60143B5017F0022BC
:100A8500EFD3940140037FFF22EDD3940340037F0E
:100A9500FF22EF33333354F8FFE5AF54F74FF5AF8B
:100AA500ED700653EEFE53DFFEBD010653EEFE4329
:100AB500DF01BD020643EE0153DFFEBD030643EE33
:070AC5000143DF017F002265
:100ACC00EFD3940140037FFF22EDD3940340037FC7
:100ADC00FF22EFC454F0FFE5AF54EF4FF5AFED70CC
:100AEC000653EEFD53DFFDBD010653EEFD43DF0261
:100AFC00BD020643EE0253DFFDBD030643EE024387
:050B0C00DF027F002262
:100B1100EFD3940140037FFF22EDD3940340037F81
:100B2100FF22EF25E0FFE5AF54FD4FF5AFED700675
:100B310053B6FD53B5FDBD010653B6FD43B502BD28
:100B4100020643B60253B5FDBD030643B60243B5E3
:040B5100027F0022FD
:10096A00EFD3948140037FFF22EBD3940340037FAC
:10097A00FF22EF247F603004705890FEC4EDF0EB44
:10098A00700653B6FB53B5FBBB010653B6FB43B522
:10099A0004BB020643B60453B5FBEB640370384349
:1009AA00B60443B504803090FEE4EDF0EB700653D4
:1009BA00B6F753B5F7BB010653B6F743B508BB0202
:1009CA000643B60853B5F7BB030D43B60843B5084B
:0A09DA00800590FEE4EDF07F00229E
:100D8A00EDD394035026ED700653EEFB53DFFBBD03
:100D9A00010653EEFB43DF04BD020643EE0453DFB4
:100DAA00FBBD030B43EE0443DF0480037FFF229065
:070DBA00FE62EFF07F002252
:06081C008B3F8A40894178
:10082200EF64016003020967F508F509F50AF50BA3
:10083200F50CFF7E80900080E4F0A3DEFCE4FF7EF6
:1008420080900000E4F0A3DEFC7E00AB3FAA40A94A
:1008520041120636FFE598543F4FF598EF64C060A9
:1008620008EF6440600302091C90000212076E7FC9
:10087200807E8D7D5B7C001206B88F458E448D4351
:100882008C42E4FFFE7D01FCAB45AA44A943A84289
:10089200C312074A40037FFF22C3E49545F545E4AE
:1008A2009544F54474019543F543E49542F542AB12
:1008B2003FAA40A94190000112064FFB6401702C2F
:1008C200C28E538EFE5389BF5389CF438E40AF45AC
:1008D200AE44AD43AC42780812075B8F8D85458BE1
:1008E200C2AB5389BF538FFDD28E8062EB6402701C
:1008F20026538EEF438E01538EF7438E04AF45AEDF
:1009020044AD43AC42780812075B8FD68545D75376
:10091200AFFB438E1080377FFF22AB3FAA40A94135
:10092200120636FF701390000812064FB4010543F9
:100932008E20801A538EDF8015EFB480119000084C
:1009420012064FB40105438780800353877FAB3F74
:10095200AA40A94190000712064F7004C29C80026F
:07096200D29C7F00227FFF01
:01096900226B
:0A0016008F99750A01E50A70FC22BB
:100EF800120636FF600C120016740129F9E43AFA5A
:030F080080EE2256
:05005600AE07020016D8
:03002300020B5578
:100B5500C0E0C083C082C0D075D000C007309820E7
:100B6500C298E50BC394804003750B00AF0B050BD2
:100B750074002FF582E43400F583E599F0750C05D2
:100B8500309905C299750A00D007D0D0D082D0839C
:030B9500D0E0327B
:100DC100EFD3940140037FFF22EF7010C289120616
:100DD100367004C2888002D2887F0022BF0110C20F
:100DE1008B1206367004C28A8002D28A7F00227F6B
:020DF100FF22DF
:03000300020D4C9F
:100D4C00C0E0C0F0C083C082C0D075D000C000C06D
:100D5C0001C002C003C004C005C006C007750D0168
:100D6C00120EE5D007D006D005D004D003D002D0A7
:0E0D7C0001D000D0D0D082D083D0F0D0E032B1
:03001300020F2BAE
:040F2B00750D02320C
:03005300020F2F6A
:040F2F00750D033207
:03005B00020F335E
:040F3300750D043202
:03008300020F3732
:040F3700750D0532FD
:03000000020006F5
:0C000600787FE4F6D8FD758145020E6697
:10063600BB010689828A83E0225002E722BBFE02C2
:09064600E32289828A83E49322F5
:10064F00BB010CE58229F582E5833AF583E0225060
:10065F0006E92582F8E622BBFE06E92582F8E222AA
:0D066F00E58229F582E5833AF583E49322C4
:10067C0075F008758200EF2FFFEE33FECD33CDCC35
:10068C0033CCC58233C5829BED9AEC99E5829840B8
:10069C000CF582EE9BFEED9AFDEC99FC0FD5F0D695
:1006AC00E4CEFBE4CDFAE4CCF9A88222B800C1B9BF
:1006BC000059BA002DEC8BF084CFCECDFCE5F0CBFD
:1006CC00F97818EF2FFFEE33FEED33FDEC33FCEB36
:1006DC0033FB10D703994004EB99FB0FD8E5E4F9F1
:1006EC00FA227818EF2FFFEE33FEED33FDEC33FCDE
:1006FC00C933C910D7059BE99A4007EC9BFCE99AD2
:10070C00F90FD8E0E4C9FAE4CCFB2275F010EF2F16
:10071C00FFEE33FEED33FDCC33CCC833C810D70716
:10072C009BEC9AE899400AED9BFDEC9AFCE899F851
:0E073C000FD5F0DAE4CDFBE4CCFAE4C8F922E4
:10074A00EB9FF5F0EA9E42F0E99D42F0E89C45F005
:01075A00227C
:10075B00E8600FECC313FCED13FDEE13FEEF13FF7C
:03076B00D8F122A0
:10076E00BB010DE58229F582E5833AF5830207BDCB
:10077E005007E92582F80207B0BBFE07E92582F88B
:10078E000207C9E58229F582E5833AF5830207D689
:10008600E5312425F8E60531227822300702782565
:10009600E475F0011207E60206362000EB7F2ED249
:1000A600008018EF540F2490D43440D4FF30040B52
:1000B600EF24BFB41A0050032461FFE53260021535
:1000C600320535E5357002053430070D7822E475C2
:1000D600F0011207E6EF02079E0200567403D207EC
:1000E6008003E4C207F5318B228A238924E4F532A2
:1000F600F534F535E53260077F201200C180F575CD
:1001060033FFC201C200C202C203C205C206C20850
:1001160012008FFF700D3007057F001200D2AF3539
:10012600AE3422B4255FC2D5C20412008FFF24D09C
:10013600B40A00501A75F00A783230D50508B6FFB1
:100146000106C6A426F620D5047002D20380D9245F
:10015600CFB41A00EF5004C2E5D2040202D2D20193
:1001660080C6D20080C0D20280BCD2D580BAD20569
:1001760080B47F201200C12002077401B53200400E
:10018600F1120086FF1200C10200FAD208D20680E0
:1001960095120086FB120086FA120086F94A4B7009
:1001A6000679A37A037BFF20022EE532602A7E00C1
:1001B6008E8275830012064F60060EEE653370F070
:1001C600C2D5EBC0E0EAC0E0E9C0E0EE120319D008
:1001D600E0F9D0E0FAD0E0FB120636FF60AAEBC0E9
:1001E600E0EAC0E0E9C0E01200C1D0E02401F9D0A5
:1001F600E03400FAD0E0FBE5330460DCD533D98087
:10020600877BFF7A037915D202809C791080027968
:1002160008C206C2088008D2D5790A8004790AC2C3
:10022600D5E533047002F533E4FAFDFEFF120086CD
:10023600FC7B08200113120086FD7B1030000A1299
:100246000086FE120086FF7B20EC3382D592D550C5
:1002560013C3E43000069FFFE49EFEE42001039DE5
:10026600FDE49CFCE4CBF8C201EC700CCFCECDCC07
:10027600E824F8F870F38017C3EF33FFEE33FEED92
:1002860033FDEC33FCEB33FB994002FB0FD8E9EB73
:10029600300105F8D0E0C448B201C0E00AEC4D4E8A
:1002A6004F78207B0070C2EAB5330040BCC0E01234
:1002B600031BD0F0D0E0200104C4C0E0C4B201C0EA
:1002C600F01200AAD0F0D5F0EB0200FA1207F60100
:1002D600975302115801684C01644202154F021DE2
:0F02E60044021D49017D430223550207460207CA
:1002F5004502074703C350016C2D01702E01932B56
:1003050001742301912003AC2A012C480000018BC4
:100315003F3F3F00790AA2D5200314300509B910E3
:10032500020404B9080104A2D520060250010420E4
:1003350002689202B532005034C0E07F20300319C4
:100345007F30A20272067205500F120372C202C2FA
:1003550006C205C2087F30800F300503E9C0E012F0
:1003650000C1300503D0E0F9D0E0B532CC30051737
:100375007F30B9100C1200C17F583004077F788098
:1003850003B908031200C13002057F2D0200C17FA9
:10039500202008F87F2B2006F322920280CF286EBA
:1003A500756C6C2900D2011200863001F8C2017803
:1003B5003230D50108F602012C2D50434958120060
:1003C500862403B405004001E49003BE931200B2F5
:0D03D500743A1200B2D20375320402021114
:10079E00BB010689828A83F0225002F722BBFE013A
:0207AE00F32234
:0D07B000E6FB08E6F908E6FA08E6CBF822B9
:0C07BD00E0F8A3E0F9A3E0FAA3E0FB22BF
:0D07C900E2FB08E2F908E2FA08E2CBF822B0
:1007D600E493F8740193F9740293FA740393FB2279
:1007E600FAE6FB0808E6F925F0F618E6CA3AF62214
:1007F600D083D082F8E4937012740193700DA3A392
:1008060093F8740193F5828883E4737402936860A5
:06081600EFA3A3A380DFA5
:00000001FF
