:10080000EFD3940740037FFF22120B4AFED39403D9
:1008100040037FFF22EF7041EE700B900001120B3E
:1008200063F452935294120B4AB4010B90000112DC
:100830000B634293F45294120B4AFEB4020A9000E6
:1008400001120B6342934294EEB4030D9000011227
:100850000B63FEF45293EE4294EF64017043120B6B
:100860004AFE700B900001120B63F452915292EE0B
:10087000B4010B900001120B634291F45292120BDF
:100880004AB4020A900001120B6342914292120B89
:100890004AB4030D900001120B63FEF45291EE4234
:1008A00092EF64027043120B4AFE700B900001122B
:1008B0000B63F452955296EEB4010B900001120BAB
:1008C000634295F45296120B4AB4020A9000011248
:1008D0000B6342954296120B4AB4030D900001122D
:1008E0000B63FEF45295EE4296EF64037043120BD5
:1008F0004AFE700B900001120B63F452B152B2EE3B
:10090000B4010B900001120B6342B1F452B2120B0E
:100910004AB4020A900001120B6342B142B2120BB8
:100920004AB4030D900001120B63FEF452B1EE4283
:10093000B2EF64047043120B4AFE700B9000011278
:100940000B63F452B352B4EEB4010B900001120BDE
:100950006342B3F452B4120B4AB4020A900001127B
:100960000B6342B342B4120B4AB4030D9000011260
:100970000B63FEF452B3EE42B4EF64057043120B06
:100980004AFE700B900001120B63F452C952CAEE7A
:10099000B4010B900001120B6342C9F452CA120B4E
:1009A0004AB4020A900001120B6342C942CA120BF8
:1009B0004AB4030D900001120B63FEF452C9EE42DB
:1009C000CAEF64067043120B4AFE700B90000112CE
:1009D0000B63F452CB52CCEEB4010B900001120B1E
:1009E0006342CBF452CC120B4AB4020A90000112BB
:1009F0000B6342CB42CC120B4AB4030D90000112A0
:100A00000B63FEF452CBEE42CCEF64077043120B43
:100A10004AFF700B900001120B63F452E152E2EFB7
:100A2000B4010B900001120B6342E1F452E2120B8D
:100A30004AB4020A900001120B6342E142E2120B37
:100A40004AB4030D900001120B63FFF452E1EF4230
:040A5000E27F00221F
:020BF5000000FE
:100B900078087C007D007BFF7A0B79F57E007F0270
:100BA000120B247508037509207B007A0079087FF1
:100BB00004120800E4F508750930FB7A0079087F13
:100BC000011208007509CF7B007A0079087F0202C4
:020BD00008001B
:100BD200120B90C2C5C2A7C2A6C295D294C2A3C22A
:070BE200A2C2A1C2A080FE27
:03000000020BE907
:0C0BE900787FE4F6D8FD758109020BD27C
:100A5400E709F608DFFA8046E709F208DFFA803E84
:100A640088828C83E709F0A3DFFA8032E309F60871
:100A7400DFFA8078E309F208DFFA807088828C83D9
:100A8400E309F0A3DFFA806489828A83E0A3F6088D
:100A9400DFFA805889828A83E0A3F208DFFA804C67
:100AA40080D280FA80C680D4806980F2803380103E
:100AB40080A680EA809A80A880DA80E280CA8033A7
:100AC40089828A83ECFAE493A3C8C582C8CCC5831F
:100AD400CCF0A3C8C582C8CCC583CCDFE9DEE780EF
:100AE4000D89828A83E493A3F608DFF9ECFAA9F06E
:100AF400EDFB2289828A83ECFAE0A3C8C582C8CCC4
:100B0400C583CCF0A3C8C582C8CCC583CCDFEADEDC
:100B1400E880DB89828A83E493A3F208DFF980CC3E
:100B240088F0EF60010E4E60C388F0ED2402B40437
:100B34000050B9F582EB2402B4040050AF232345DE
:060B44008223900AA47355
:100B4A00BB010689828A83E0225002E722BBFE02A9
:090B5A00E32289828A83E49322DC
:100B6300BB010CE58229F582E5833AF583E0225047
:100B730006E92582F8E622BBFE06E92582F8E22291
:0D0B8300E58229F582E5833AF583E49322AB
:00000001FF
