:0223D900238758
:0223DB0023A13C
:0223DD001B8C57
:03000B0002119847
:10119300C2AF80FE3212119785D00B75D008AAE03A
:1011A300C28CE58A24F7F58AE58C34D8F58CD28C89
:1011B300EC2471F8E6BC020274FFC39581B41400F9
:1011C30040CE7903786A16E608700BC2AFE630E1C9
:1011D300034418F6D2AF08D9EDEA8BD030090122C7
:1011E300D50DFCC0E0C0D0C0F0C083C082C000C039
:1011F30001C002C003C004C005C006C007E50C233C
:10120300246BF87440C2AF46F6D2AFD209E50CFFA7
:1012130023246BF80F0808BF03047F00786BE630C4
:10122300E4F200E50CC39F5020050C7470250CF804
:10123300E6FDA68108E6AE0CBE020274FFCDF8E817
:101243006D60E008E6C0E080F6E50CD39F4027E53B
:101253000C2471F8E6AE0CBE020274FFFD18E6CD55
:10126300F8E5816D6006D0E0F61880F5E50C247092
:10127300C8F6150C80D3750D05E50C23246BF87F98
:1012830004C2AFE610E61E30E00310E20C7F00302C
:05129300E10730E30457
:101298007F0854F4547CC6D2AF54804207C2092256
:1012A800F6D2AFD007D006D005D004D003D002D0F4
:1012B80001D000D082D083D0F0D0D0D0E0C20922B3
:1012C8007870A68174026006FF0876FFDFFB7F0353
:1012D800E4786AF608F608DFFA786B76309023D956
:1012E800740193C0E0E493C0E0750D05438901756E
:0D12F8008AF0758CD8D28CD2AFD2A9220218
:10000E00256420000A00706F733A2025640A0000F0
:04001E0000000000DE
:072378000161320262000A5C
:101F7E0075226075252E7526E07528307B007A0057
:101F8E0079227F03120D8175235D7524BFE4F52739
:101F9E00752A01752901FB7A0079227F80120D8145
:0F1FAE0090FEB2E054CFF0E4FBFD7F80021AA555
:070003005391CF5392CF226D
:102197007522407523017527007526C275250175BF
:1021A7002400752901E4F52AFB7A0079227F0112C0
:0C21B70016CA7D017F011220F353A23FE5
:0121C30022F9
:10224D0043BA80122197120003121F7E122394129B
:10225D0023CB1223DF1223D21223E51222DFD2AFBA
:01226D00224E
:0D23870012224D7F01121305E4FF02138E98
:101D55007F02122328E5632561F561B46408756285
:101D6500FF7563F6800DE561D3940050067562003A
:101D750075630AAF61E4FCFDFE7BC07A5DF9F8127C
:101D85000694E47B64FAF9F8121EB78E558F567BDC
:0A1D9500007A0079517F030218184C
:050026007F0202233EF1
:0C23A1001223107D027F0212141780F43A
:101B8C007BFF7A00791D1221687532047BFF7A0085
:101B9C00790EAF32EF3395E0FE741D2FF582740091
:101BAC003EF583E493753800F5391209741532C388
:101BBC00E5326480948050D47BFF7A00791212094C
:101BCC0074121BEC8E338F347BFF7A0079148533BF
:0E1BDC00388534391209747D287F02121417DF
:021BEA0080A0D9
:10147600EFD3940740037FFF2212056FFED3940338
:1014860040037FFF22EF7041EE700B9000011205C2
:1014960088F45293529412056FB4010B9000011216
:1014A60005884293F4529412056FFEB4020A900026
:1014B6000112058842934294EEB4030D9000011286
:1014C6000588FEF45293EE4294EF640170431205D0
:1014D6006FFE700B900001120588F452915292EE45
:1014E600B4010B9000011205884291F45292120544
:1014F6006FB4020A900001120588429142921205C9
:101506006FB4030D900001120588FEF45291EE426D
:1015160092EF6402704312056FFE700B9000011289
:101526000588F452955296EEB4010B90000112050F
:10153600884295F4529612056FB4020A9000011281
:1015460005884295429612056FB4030D900001126C
:101556000588FEF45295EE4296EF64037043120539
:101566006FFE700B900001120588F452B152B2EE74
:10157600B4010B90000112058842B1F452B2120573
:101586006FB4020A90000112058842B142B21205F8
:101596006FB4030D900001120588FEF452B1EE42BD
:1015A600B2EF6404704312056FFE700B90000112D7
:1015B6000588F452B352B4EEB4010B900001120543
:1015C6008842B3F452B412056FB4020A90000112B5
:1015D600058842B342B412056FB4030D90000112A0
:1015E6000588FEF452B3EE42B4EF6405704312056B
:1015F6006FFE700B900001120588F452C952CAEEB4
:10160600B4010B90000112058842C9F452CA1205B2
:101616006FB4020A90000112058842C942CA120537
:101626006FB4030D900001120588FEF452C9EE4214
:10163600CAEF6406704312056FFE700B900001122C
:101646000588F452CB52CCEEB4010B900001120582
:101656008842CBF452CC12056FB4020A90000112F4
:10166600058842CB42CC12056FB4030D90000112DF
:101676000588FEF452CBEE42CCEF640770431205A8
:101686006FFF700B900001120588F452E152E2EFF1
:10169600B4010B90000112058842E1F452E21205F2
:1016A6006FB4020A90000112058842E142E2120577
:1016B6006FB4030D900001120588FFF452E1EF426A
:0416C600E27F00229D
:101D0000900001120588FFE5DE54F04FF5DE9000EB
:101D100002120588C43354E0FFE5DE54DF4FF5DEE0
:101D200012056FFFD3941F502B900003120588FEFD
:101D3000D39401501F900004120588FDD3940350E2
:101D400013EDC43354E0FDEEC433333354804D4FB0
:051D500090FEA8F02246
:0B23AD00BF010443BC802253BC7F2210
:101B1F00EFD3940F40028060E4F5BDF5BEE5BC54F1
:101B2F00F044404FF5BC0000000000000000000032
:101B3F00E4FDE5BC30E53D53BCDFE5DEAFBD30E590
:101B4F000EEFFEACBEECFBEEF51CEBF51D80207529
:101B5F001C008F1DE5BEC4540FFBE51DC4F8540FC8
:101B6F00C868FFE51CC454F048F51CEF4BF51DAEDB
:0C1B7F001CAF1D220DBDFABA7E107F00C5
:011B8B002237
:03002B000223F5B8
:0423F50053BCDF32C4
:0616CA008B2B8A2C892DF8
:1016D000EF64016003021815F564F565F566F567BA
:1016E000F568FF7E80900080E4F0A3DEFCE4FF7EDE
:1016F00080900000E4F0A3DEFC7E00AB2BAA2CA9B6
:101700002D12056FFFE598543F4FF598EF64C060C8
:1017100008EF644060030217CA9000021207FD7FC1
:10172000807E8D7D5B7C0012071F8F318E308D2F68
:101730008C2EE4FFFE7D01FCAB31AA30A92FA82E30
:10174000C31207BF40037FFF22C3E49531F531E4A4
:101750009530F5307401952FF52FE4952EF52EABCD
:101760002BAA2CA92D900001120588FB6401702C76
:10177000C28E538EFE5389BF5389CF438E40AF3103
:10178000AE30AD2FAC2E78081207D08F8D85318BFF
:10179000C2AB5389BF538FFDD28E8062EB6402705F
:1017A00026538EEF438E01538EF7438E04AF31AE36
:1017B00030AD2FAC2E78081207D08FD68531D75395
:1017C000AFFB438E1080377FFF22AB2BAA2CA92DB5
:1017D00012056FFF7013900008120588B4010543CD
:1017E0008E20801A538EDF8015EFB4801190000890
:1017F000120588B40105438780800353877FAB2B94
:10180000AA2CA92D9000071205887004C29C8002A2
:07181000D29C7F00227FFF44
:0118170022AE
:0A23B8008F99756601E56670FC223E
:1023540012056FFF600C1223B8740129F9E43AFAEC
:0323640080EE22E6
:0523EB00AE070223B85B
:03002300021EFBBF
:101EFB00C0E0C083C082C0D075D000C0073098202E
:101F0B00C298E567C394804003756700AF670567A8
:101F1B0074002FF582E43400F583E599F0756805BC
:101F2B00309905C299756600D007D0D0D082D08386
:031F3B00D0E032C1
:101FBD00EFD3940140037FFF22EDD3940340037FC1
:101FCD00FF22EF7004C2A98002D2A9ED700553B7AC
:101FDD00FDC2B9BD010553B7FDD2B9BD020543B769
:0E1FED0002C2B9BD030543B702D2B97F00227C
:101FFB00EFD3940140037FFF22EDD3940340037F83
:10200B00FF22EF7004C2AB8002D2ABED700553B769
:10201B00F7C2BBBD010553B7F7D2BBBD020543B732
:0E202B0008C2BBBD030543B708D2BB7F00222D
:1021E700EFD3940140037FFF22EDD3940340037F95
:1021F700FF22EF25E025E0FFE5AF54FB4FF5AFE405
:02220700FF22B4
:10220900EFD3940140037FFF22EDD3940340037F72
:10221900FF22EFC43354E0FFE5AF54DF4FF5AFE4DD
:02222900FF2292
:1021C400EFD3940140037FFF22EDD3940340037FB8
:1021D400FF22EFC4333354C0FFE5AF54BF4FF5AF14
:0321E400E4FF22F3
:10203900EFD3940140037FFF22EDD3940340037F44
:10204900FF22EF7004C2A88002D2A8ED700553B731
:10205900FEC2B8BD010553B7FED2B8BD020543B7EC
:0E20690001C2B8BD030543B701D2B87F002203
:10207700EFD3940140037FFF22EDD3940340037F06
:10208700FF22EF7004C2AA8002D2AAED700553B7EF
:10209700FBC2BABD010553B7FBD2BABD020543B7B0
:0E20A70004C2BABD030543B704D2BA7F0022BB
:1022F800EFD3940140037FFF22EFC454F0FFE58F32
:0823080054EF4FF58FE4FF22B2
:1022C600EFD3940140037FFF22EFC43354E0FFE5D0
:0922D6008F54DF4FF58FE4FF2265
:1022AC00EFD3940140037FFF22EFC4333354C0FFBC
:0A22BC00E58F54BF4FF58FE4FF22B9
:1020B500EFD3940140037FFF22EDD3940340037FC8
:1020C500FF22EF7004C2AD8002D2ADED700553B7AB
:1020D500DFC2BDBD010553B7DFD2BDBD020543B7A4
:0E20E50020C2BDBD030543B720D2BD7F00223F
:101D9F00EDD3940340037FFF22EF30E10543E620AC
:101DAF00800353E6DFEF30E00543E610800353E690
:101DBF00EFED700653B6DF53B5DFBD010653B6DF47
:101DCF0043B520BD020643B62053B5DFBD0306431E
:081DDF00B62043B5207F00226D
:101CA700EFD3940140037FFF22EBD3940340037FDC
:101CB700FF22BF0112ED90FE817006E0547FF08095
:101CC70011E04480F0800BEF700890FE83E05487AA
:101CD7004DF0EB700653B6DF53B5DFBB010653B6C5
:101CE700DF43B520BB020643B62053B5DFBB03066F
:091CF70043B62043B5207F002212
:1020F300EFD3940140037FFF22EDD3940340037F8A
:10210300FF22EF7004C2AC8002D2ACED700553B76E
:10211300EFC2BCBD010553B7EFD2BCBD020543B747
:0E21230010C2BCBD030543B710D2BC7F002222
:101F3E00EFD3940140037FFF22EDD3940340037F40
:101F4E00FF22E5AF54FE4FF5AFED700653B6FE53CC
:101F5E00B5FEBD010653B6FE43B501BD020643B63E
:101F6E000153B5FEBD030643B60143B5017F002202
:101DE700EFD3940140037FFF22EDD3940340037F99
:101DF700FF22EF33333354F8FFE5AF54F74FF5AF16
:101E0700ED700653EEFE53DFFEBD010653EEFE43B3
:101E1700DF01BD020643EE0153DFFEBD030643EEBD
:071E27000143DF017F0022EF
:101E2E00EFD3940140037FFF22EDD3940340037F51
:101E3E00FF22EFC454F0FFE5AF54EF4FF5AFED7056
:101E4E000653EEFD53DFFDBD010653EEFD43DF02EB
:101E5E00BD020643EE0253DFFDBD030643EE024311
:051E6E00DF027F0022ED
:101E7300EFD3940140037FFF22EDD3940340037F0C
:101E8300FF22EF25E0FFE5AF54FD4FF5AFED700600
:101E930053B6FD53B5FDBD010653B6FD43B502BDB3
:101EA300020643B60253B5FDBD030643B60243B56E
:041EB300027F002288
:101AA500EFD3948140037FFF22EBD3940340037F60
:101AB500FF22EF247F603004705890FEC4EDF0EBF8
:101AC500700653B6FB53B5FBBB010653B6FB43B5D6
:101AD50004BB020643B60453B5FBEB6403703843FD
:101AE500B60443B504803090FEE4EDF0EB70065388
:101AF500B6F753B5F7BB010653B6F743B508BB02B6
:101B05000643B60853B5F7BB030D43B60843B508FE
:0A1B1500800590FEE4EDF07F002251
:10213100EDD394035026ED700653EEFB53DFFBBD48
:10214100010653EEFB43DF04BD020643EE0453DFF9
:10215100FBBD030B43EE0443DF0480037FFF2290AA
:07216100FE62EFF07F002297
:100D8100AD07ED6401707A90FECCE054FEF0E054C2
:100D9100FBF090FEC8E054FCF012056FFF90FEC816
:100DA100E0548F4FF0900006120588FF90FECC3082
:100DB100E00DE04401F090FEB1E04401F0800BE071
:100DC10054FEF090FEB1E054FEF0EF90FECC30E125
:100DD1000DE04404F090FEB1E04402F0800BE054D9
:100DE100FBF090FEB1E054FDF090000312065CE5CB
:100DF100F090FED5F090000312065C90FED6021131
:100E01003BED6402707A90FECCE054EFF0E054BF09
:100E1100F090FEC9E054FCF012056FFF90FEC9E0AE
:100E2100548F4FF0900006120588FF90FECC30E2FF
:100E31000DE04410F090FEB1E04404F0800BE0546A
:100E4100EFF090FEB1E054FBF0EF90FECC30E30DFB
:100E5100E04440F090FEB1E04408F0800BE054BF64
:100E6100F090FEB1E054F7F090000312065CE5F05B
:100E710090FED7F090000312065C90FED802113B61
:100E8100ED6403707A90FECDE054FEF0E054FBF087
:100E910090FECAE054FCF012056FFF90FECAE054C8
:100EA1008F4FF0900006120588FF90FECD30E40DC3
:100EB100E04401F090FEB1E04410F0800BE054FEFC
:100EC100F090FEB1E054EFF0EF90FECD30E50DE093
:100ED1004404F090FEB1E04420F0800BE054FBF0BC
:100EE10090FEB1E054DFF090000312065CE5F09053
:100EF100FED9F090000312065C90FEDA02113BED80
:100F01006404707A90FECDE054EFF0E054BFF090AD
:100F1100FECBE054FCF012056FFF90FECBE0548F46
:100F21004FF0900006120588FF90FECD30E60DE0EF
:100F31004410F090FEB1E04440F0800BE054EFF03B
:100F410090FEB1E054BFF0EF90FECD30E70DE044EC
:100F510040F090FEB1E04480F0800BE054BFF0908F
:100F6100FEB1E0547FF090000312065CE5F090FEC4
:100F7100DBF090000312065C90FEDC02113BED6495
:100F810080704F90000512058890FEDEF090000100
:100F910012065CE5F090FED2F090000112065C9022
:100FA100FED3F090000812058890FEDDB40106E042
:100FB1004480F08004E0547FF0900007120588908F
:100FC100FEC0B40106E04401F08004E054FEF07F6D
:100FD1000022ED6405705690FEECE054FEF090FEA8
:100FE100E8E054FCF012056FFF90FEE8E0548F4FEB
:100FF100F090000612058890FEEC30E00DE044010F
:10100100F090FEB5E04401F0800BE054FEF090FE5C
:10101100B5E054FEF090000312065CE5F090FEF599
:10102100F090000312065C90FEF602113BED64069F
:10103100705690FEECE054EFF090FEE9E054FCF0C5
:1010410012056FFF90FEE9E0548F4FF090000612F9
:10105100058890FEEC30E20DE04410F090FEB5E022
:101061004404F0800BE054EFF090FEB5E054FBF047
:1010710090000312065CE5F090FEF7F09000031279
:10108100065C90FEF802113BED6407705590FEED91
:10109100E054FEF090FEEAE054FCF012056FFF9080
:1010A100FEEAE0548F4FF090000612058890FEEDA5
:1010B10030E40DE04401F090FEB5E04410F0800B07
:1010C100E054FEF090FEB5E054EFF09000031206FC
:1010D1005CE5F090FEF9F090000312065C90FEFAD8
:1010E1008058ED6408705790FEEDE054EFF090FEEB
:1010F100EBE054FCF012056FFF90FEEBE0548F4FD4
:10110100F090000612058890FEED30E60DE04410E7
:10111100F090FEB5E04440F0800BE054EFF090FE1B
:10112100B5E054BFF090000312065CE5F090FEFBC1
:10113100F090000312065C90FEFCF07F0022ED644B
:1011410081704C90000512058890FEFEF090000120
:1011510012065CFDACF0EC90FEF2F0AF05A3EFF0EF
:1011610090000812058890FEFDB40106E04480F06D
:101171008004E0547FF090000712058890FEE0B4EF
:101181000106E04401F08004E054FEF07F00227F7C
:02119100FF223B
:10181800EF248070030218D314700302191824806F
:10182800B40800400302196490183E75F003A4C57B
:101838008325F0C5837302185602186302187302D1
:1018480018830218930218A30218B30218C31206C9
:1018580031FDACF0EC90FED502195E900002120644
:101868005CFDACF0EC90FED702195E900004120605
:101878005CFDACF0EC90FED902195E9000061206F1
:101888005CFDACF0EC90FEDB02195E9000081206DD
:101898005CFDACF0EC90FEF502195E90000A1206B1
:1018A8005CFDACF0EC90FEF702195E90000C12069D
:1018B8005CFDACF0EC90FEF902195E90000E120689
:1018C8005CFDACF0EC90FEFB02195E120631FDAC3B
:1018D800F0EC90FED5F0AF05A3EFF09000021206F1
:1018E8005CFDACF0EC90FED7F0AF05A3EFF09000F4
:1018F8000412065CFDACF0EC90FED9F0AF05A3EF46
:10190800F090000612065CFDACF0EC90FEDB804621
:1019180090000812065CFDACF0EC90FEF5F0AF0507
:10192800A3EFF090000A12065CFDACF0EC90FEF715
:10193800F0AF05A3EFF090000C12065CFDACF0ECE4
:1019480090FEF9F0AF05A3EFF090000E12065CFDD3
:0D195800ACF0EC90FEFBF0AF05A3EFF02229
:0D2394005393DF43942053B1EF43B2102266
:10232800EF14600A14600A2402700AD2B422D2851B
:0623380022D2B4D285227E
:10233E00EF14600A14600A2402700AC2B422C28525
:06234E0022C2B4C2852288
:03237F00016900F1
:0723CB0053B17F53B27F22E2
:10231000A2B7E4336569600FA2B7E433F56930B75B
:0823200003021D5512002622E4
:102367007522017523027B007A007922E4FF0214AB
:0123770076EF
:10226E0075221FE4F525752601F523752401FB7AE9
:10227E00007922121D007F011223ADE4FDFF022022
:01228E00B59A
:0623DF0012236702226ECA
:061C4A008B0E8A0F8910C9
:101C50007F09121B1FAD07AC06E412034AE4FBFA2E
:101C600079207840120126E4FBFA79807845120247
:101C70002F8F148E138D128C11E4FBFA794078406B
:101C80001201268F148E138D128C117BCD7ACC7994
:101C90004C783F1200358F148E138D128C11AB0EC1
:071CA000AA0FA9100207E3DF
:0823C2007F037E52DEFEDFFC0A
:0123CA0022F0
:0723D20053B1BF43B24022EA
:10228F007DE87C03ED1DAE0470011CD39400EE6459
:0C229F008094804007B2B61223C280E891
:0122AB002210
:0423F0007F4EDFFE3F
:0123F40022C6
:10222B007523087522037B007A0079227F01121433
:10223B00767523017522017B007A0079227F0402D7
:02224B00147607
:0623E50012222BC293221C
:061965008B158A1689179C
:10196B00E4FBFAF51BF51AF519F518D2931223F0CF
:10197B001223F0C29320C00E1223F00BBB00010AFE
:10198B00EB64284A70EF7C007D0AAF03AE021205B0
:10199B00E9C3EF9490EE94014003AF0322E4FAFB0A
:1019AB0030C00A1223F00BBB00010A80F3AE02AF6A
:1019BB00037C007D221205E9AC06AD07E412034A55
:1019CB007B0A7AD779A3783B1201268F1B8E1A8D4F
:1019DB00198C18AB15AA16A9171207E3E4FFFEFD25
:1019EB007C40AB1BAA1AA919A8181202CC50037F72
:1019FB000122E4FFFE7D167C44AB1BAA1AA919A891
:0D1A0B00181202CC600540037F02227F000C
:011A180022AB
:04238200021E000037
:1022DF0053B37F53B47F5393BF5394BF53B1F3534F
:0922EF00B2F353C9FE53CAFE22EA
:10216800A2C7E4331205B5A286E433900001120534
:10217800C7A2B2E4339000021205C7A2B3E43390B9
:0F21880000031205C7A2C8E4339000040205C784
:101BEC00E4FFFEFDFC30C70B2440FFE433FE0DBDCB
:101BFC0000010C30860C74202FFFE43EFE0DBD005E
:101C0C00010C30B2050DBD00010C30B30D74E02F8A
:101C1C00FF74FF3EFE0DBD00010C30C80C74402F4C
:101C2C00FFE43EFE0DBD00010CED4C7005AE1EAF89
:0D1C3C001F221205FBAA06AB078A1E8B1F94
:011C49002278
:10130500EFD3940240037FFF22746B2F2FF8E62062
:10131500E5F4C2AFE64430F6D2AFAE0CEEC39F5053
:10132500210E74702EF8E6F908E618BE020274FF65
:10133500FDED69600909E71919F7090980F3161622
:1013450080DAEED39F400405810581EED39F4022CC
:1013550074702EF808E6F9EEB50C02A98118060698
:10136500E6FDED6960091919E70909F71980F31E0A
:1013750080D9EF2470F8E604F8EF2F049023D99371
:09138500F608EF2F93F67F002219
:10138E00EFD3940240037FFF22EF23246BF8E63065
:10139E00E5F4C2AFE6548CF6D2AFE50CB5070A748D
:1013AE00702FF8E6F58102120E502E74712FF8E6AA
:1013BE00BF020274FFFD18E6F974702FF8FBE6FC0D
:1013CE00E96C6008A805E7F61D1980F4A803A605C8
:1013DE001FE50CB507E37F002274712FF8E6FD18A8
:1013EE0086010F74702FF8A601088604E50CB50768
:1013FE0002AC81ED6C60080D09A805E6F780F4E5F6
:09140E000CB507DE89817F002284
:101417008FF0E4FFFEE50C23246AF8C2A930F70D2C
:101427007F08E6600B2DF660325030800730F106FA
:10143700EDF660277E020830F010C2AFE610E72510
:101447000E30E20CD2AF7F048014C2AFE610E7156E
:1014570054EC4EF6D2AFD2A902120E7F0808EF4421
:0F14670083F4C2AF56C6D2AFD2A954804FFF2232
:10002E000203B8E86480F8E933E83360110460F045
:10003E00ED33EC337009E8FCE9FDEAFEEBFF220438
:10004E0060DED3EB9FEA9EE99DE8C2E78CF0C2F733
:10005E0095F0400CE8CCF8E9CDF9EACEFAEBCFFBFF
:10006E0012038385D0F05804700320D5B3E80470D2
:10007E00075002B2D50203C292D5EC0460F7E4CC6D
:10008E00C0E0C398F8603B94186008400DD0E0FBC8
:10009E0002039AE4FBFAC9FC8028E830E406E4C9BE
:1000AE00FBE4CAFCE830E305E4C9CACBFCE854071C
:1000BE006010F8C3E913F9EA13FAEB13FBEC13FC27
:1000CE00D8F130F52FC3E49CFCEF9BFFEE9AFEEDCA
:1000DE0099FDD0E0FBEF4E4D4C701222DB03020374
:1000EE00BFEC2CFCEF33FFEE33FEED33FDED30E7CE
:1000FE00EB02039AEF2BFFEE3AFEED39FDD0E0FB5B
:10010E0050130BBB00030203C2ED13FDEE13FEEF03
:08011E0013FFEC13FC02039A2D
:10012600EC4D6011E8497017ED33EC3304600DE4D3
:10013600FCFFFEFD22E933E8330470F80203B8122F
:10014600038358046009E4CC248150062850090230
:1001560003C22840030203BFC0E0EB4A7044B980E3
:1001660006D0E0FB0203AEEF4E701CBD8008EBFF2D
:10017600EAFEE9FD80EBE98DF0A4FEE5F002020F50
:10018600E9CDF9EAFEEBFFEF89F0A4FCE5F0CE89B4
:10019600F0A42EFFE435F0CD89F0A42DFEE435F071
:1001A6008067EF4E7005BD80D780C3EF8BF0A4AC9F
:1001B600F0EE8BF0A42CFCE435F0F8EF8AF0A42CDA
:1001C600E5F038FCE433CB8DF0A42CFCE5F03BF8ED
:1001D600EE8AF0A42CFCE5F038F8E433CF89F0A4DD
:1001E6002CFCE5F038CF3400CE89F0A42FFFE5F0E3
:1001F6003EFEE433C98DF0A42EFEE5F039CD8AF03B
:10020600A42FFFE5F03EFEE43DFD33D0E0FB5007B2
:100216000BBB000F0203C2EC2CFCEF33FFEE33FEE8
:06022600ED33FD02039A16
:10022C000203C2EC5D046005E8590470030203B8D4
:10023C00120383580460F6EC4860F2EC7004FDFE87
:10024C00FF22C860DB2481C85009C39860025006A5
:10025C000203BF9850CAF582E9294B4A7005AB825C
:10026C000203AE75F0007C1A7880C3EF9BEE9AED1A
:10027C0099400DC3EF9BFFEE9AFEED99FDE842F01D
:10028C00DC23ACF0D0E0FFD0E0FED0E0FDAB822070
:10029C00E7101BEB60BAEC2CFCEF33FFEE33FEEDFA
:1002AC0033FD02039AE803F830E705C0F075F0005F
:1002BC00EF2FFFEE33FEED33FD40B830E7C280AADE
:1002CC0074F8CC6480CCC86480C8F58204604FC3D9
:1002DC00EB9FF5F0EA9E42F0E99D42F0E89C45F078
:1002EC00603C501DE5825FFFE582D313CB5BCBF402
:1002FC002B5582FB50280ABA002409B9002008802B
:10030C001DE5825BFBE582D313CF5FCFF4C3132FC4
:10031C005582FF50090EBE00050DBD00010CC3EB4C
:10032C009FF5F0EA9E42F0E99D42F0E89C45F060B2
:09033C0007CC4820E701B3EC22D4
:1003450075F020800E75F010800575F0087D007E33
:10035500007F003392D530D5031207B1EC3340103E
:10036500EF33FFEE33FEED33FDEC33FCD5F0ED223C
:0E037500E5F0247EA2D513CC92E7CDCEFF2278
:10091200E54C2438F8E6054C227835300702783861
:10092200E475F00112082D02056F2000EB7F2ED234
:10093200008018EF540F2490D43440D4FF30040BBD
:10094200EF24BFB41A0050032461FFE54D60021585
:100952004D0550E5507002054F30070D7835E475AE
:10096200F00112082DEF0205B50223EB7403D20742
:100972008003E4C207F54C8B358A368937E4F54D9E
:10098200F54FF550E54D60077F2012094D80F57552
:100992004EFFC201C200C202C203C205C206C208A1
:1009A20012091BFF700D3007057F0012095EAF5060
:1009B200AE4F22B4255FC2D5C20412091BFF24D058
:1009C200B40A00501A75F00A784D30D50508B6FF02
:1009D2000106C6A426F620D5047002D20380D924CB
:1009E200CFB41A00EF5004C2E5D204020C4BD2017C
:1009F20080C6D20080C0D20280BCD2D580BAD205D5
:100A020080B47F2012094D2002077401B54D0040C9
:100A1200F1120912FF12094D020986D208D206808C
:100A220095120912FB120912FA120912F94A4B70B5
:100A32000679427A0D7BFF20022EE54D602A7E0068
:100A42008E8275830012058860060EEE654E70F088
:100A5200C2D5EBC0E0EAC0E0E9C0E0EE120CABD0D8
:100A6200E0F9D0E0FAD0E0FB12056FFF60AAEBC01C
:100A7200E0EAC0E0E9C0E012094DD0E02401F9D07B
:100A8200E03400FAD0E0FBE54E0460DCD54ED980BC
:100A920087D20280A2120C8E60F7E54E700104121A
:100AA20003CDA94E600DE54E600914F54E120D35C9
:100AB200EF60F3EA30E702F404C3995077EAF425D1
:100AC2004E0430E701E404F54E800D120C8E60C135
:100AD200EA054E254E1203CDEA784BF630E701E4E3
:100AE200254E04D54E0420050114120CABE4C0E0DF
:100AF200120D35784BE6601320E70714F61209351C
:100B0200802204F6D0E014C0E07F00120935E54EE1
:100B1200600712092C154E800B30050312092CD0E8
:100B2200E0020986D0E00480C5120C8E60A0E54E7A
:100B3200041203CD784BEAF6E54E2005026001046B
:050B42002404120CABBD
:100B470074FF04C0E0120D35120935E54E20050289
:100B5700600312092CD0E0B54EE87F4512093F78B3
:100B67004BE67F2B30E7047F2DF404C0E012094DDC
:100B7700D0E075F00A84C0F0120936D0E0120936C9
:100B8700020986791080027908C206C2088008D255
:100B9700D5790A8004790AC2D5E54E047002F54E6C
:100BA700E4FAFDFEFF120912FC7B0820011312096B
:100BB70012FD7B1030000A120912FE120912FF7B88
:100BC70020EC3382D592D55013C3E43000069FFF43
:100BD700E49EFEE42001039DFDE49CFCE4CBF8C207
:100BE70001EC700CCFCECDCCE824F8F870F3801769
:100BF700C3EF33FFEE33FEED33FDEC33FCEB33FB9A
:100C0700994002FB0FD8E9EB300105F8D0E0C44862
:100C1700B201C0E00AEC4D4E4F78207B0070C2EA6B
:100C2700B54E0040BCC0E0120CADD0F0D0E02001C2
:100C370004C4C0E0C4B201C0F0120936D0F0D5F048
:100C4700EB02098612083D0A23530B8A5809F44C14
:100C570009F0420B8E4F0B96440B96490A09430B3A
:100C67009C550ACD460B2B450A97470D625009F84C
:100C77002D09FC2E0A1F2B0A00230A1D200D4B2AC3
:100C870009B84800000A17E54EB4FF03754E06126F
:100C97000912FC120912FD120912FE120912FF783D
:100CA700440203FC790AA2D5200314300509B910C0
:100CB700020404B9080104A2D52006025001042049
:100CC70002689202B54D005034C0E07F203003190E
:100CD7007F30A20272067205500F120D04C202C2C3
:100CE70006C205C2087F30800F300503E9C0E01255
:100CF700094D300503D0E0F9D0E0B54DCC300517EC
:100D07007F30B9100C12094D7F583004077F788067
:100D170003B9080312094D3002057F2D02094D7FE3
:100D2700202008F87F2B2006F322920280CF7F0035
:100D3700B4070050052444F8E6FF22286E756C6C52
:100D47002900D2011209123001F8C201784D30D5BD
:100D57000108F60209B82D50434958120912240315
:100D6700B405004001E4900D5D9312093E743A12F8
:0A0D7700093ED203754D04020B8AF9
:10038300E9D2E7C933E833F892D5EDD2E7CD33ECC0
:0703930033FC5002B2D52239
:10039A00EC30E7100FBF000C0EBE00080DBD0004C4
:1003AA000BEB6014A2D5EB13FCED92E7FD2274FF70
:1003BA00FCFDFEFF22E480F8A2D574FF13FC7D80C9
:0303CA00E480EFDD
:1003CD00F920E72824F950037907E4F42402FB18F7
:1003DD00DBFDE624FB5014E9600DE4F618E604F6A7
:0F03ED00B40A08E4F6D9F57401F60A22C2D52243
:1003FC00ED33EC3392D5FA602AB4FF33EDC2E77BD0
:10040C00FF60067A047921E4227A04792A20D50443
:10041C007A047925224E614E002B494E46002D4917
:10042C004E4600E47A08F608DAFC7B00740722E8F2
:10043C00C0E0ECC0E0EDC0E0EEC0E0EFC0E0EA757B
:10044C00F010A4CAABF075F04DA42BFBE435F0FC16
:10045C00EA2410FAEB34C5FBEC34D9FCEDC2E7FF0F
:10046C0075F056A4F42411C5F0F434C58FF0A42A09
:10047C00E5F03BE43CF620E71412052FD0E0FFD06A
:10048C00E0FED0E0FDD0E0FC12022F8014F4041248
:10049C00052FD0E0FFD0E0FED0E0FDD0E0FC120153
:1004AC0026D0E0F8E6FAEDD2E7CD33EC332482FB2C
:1004BC00E4C3CF33CFCE33CECD33CD33DBF37B0799
:1004CC0075F00A846004F6081B0AE5F0F6088FF054
:1004DC00740AA4FFACF08EF0740AA42CFEACF0509D
:1004EC00010C8DF0740AA42CFDE435F0F608DBDE6B
:0304FC0074072260
:1004FF003F8000004120000042C80000447A000005
:10050F00461C400047C35000497424004B18968086
:10051F004CBEBC205A0E1BCA6753C21C749DC5AE7D
:10052F00FB60065407601C232312055DEB543860F3
:10053F0009120549120558120126ECF8EDF9EEFAE9
:10054F00EFCB22EB12055880F1543803241C900492
:10055F00FFFE93FC0EEE93FD0EEE930ECE93FF2255
:03000000021A19C8
:0C1A1900787FE4F6D8FD758172021A6037
:10056F00BB010689828A83E0225002E722BBFE028A
:09057F00E32289828A83E49322BD
:10058800BB010CE58229F582E5833AF583E0225028
:1005980006E92582F8E622BBFE06E92582F8E22272
:0D05A800E58229F582E5833AF583E493228C
:1005B500BB010689828A83F0225002F722BBFE0125
:0205C500F3221F
:1005C700F8BB010DE58229F582E5833AF583E8F06A
:1005D700225006E92582C8F622BBFE05E92582C816
:0205E700F222FE
:1005E900EF8DF0A4A8F0CF8CF0A428CE8DF0A42E26
:0205F900FE22E0
:1005FB00C2D5EC30E709B2D5E4C39DFDE49CFCEE1B
:10060B0030E715B2D5E4C39FFFE49EFE120863C327
:10061B00E49DFDE49CFC800312086330D507C3E422
:06062B009FFFE49EFE2289
:10063100BB010A89828A83E0F5F0A3E02250068794
:10064100F009E71922BBFE07E3F5F009E319228956
:0B065100828A83E493F5F07401932289
:10065C00BB0110E58229F582E5833AF583E0F5F0DC
:10066C00A3E0225009E92582F886F008E622BBFEB9
:10067C000AE92582F8E2F5F008E222E5832AF583FF
:08068C00E993F5F0A3E99322C4
:10069400E88FF0A4CC8BF0A42CFCE98EF0A42CFC05
:1006A4008AF0EDA42CFCEA8EF0A4CDA8F08BF0A483
:1006B4002DCC3825F0FDE98FF0A42CCD35F0FCEBE2
:1006C4008EF0A4FEA9F0EB8FF0A4CFC5F02ECD39A7
:0F06D400FEE43CFCEAA42DCE35F0FDE43CFC2214
:1006E30075F008758200EF2FFFEE33FECD33CDCCCE
:1006F30033CCC58233C5829BED9AEC99E582984051
:100703000CF582EE9BFEED9AFDEC99FC0FD5F0D62D
:10071300E4CEFBE4CDFAE4CCF9A88222B800C1B957
:100723000059BA002DEC8BF084CFCECDFCE5F0CB95
:10073300F97818EF2FFFEE33FEED33FDEC33FCEBCE
:1007430033FB10D703994004EB99FB0FD8E5E4F989
:10075300FA227818EF2FFFEE33FEED33FDEC33FC76
:10076300C933C910D7059BE99A4007EC9BFCE99A6A
:10077300F90FD8E0E4C9FAE4CCFB2275F010EF2FAF
:10078300FFEE33FEED33FDCC33CCC833C810D707AF
:100793009BEC9AE899400AED9BFDEC9AFCE899F8EA
:0E07A3000FD5F0DAE4CDFBE4CCFAE4C8F9227D
:101EB700C2D5E830E70FB2D5E4C39BFBE49AFAE456
:101EC70099F9E498F8EC30E717B2D5121EED12072E
:101ED7001FE4C39BFBE49AFAE499F9E498F88003BA
:101EE70012071F30D50DE4C39FFFE49EFEE49DFD5E
:041EF700E49CFC2249
:0E07B100C3E49FFFE49EFEE49DFDE49CFC2259
:1007BF00EB9FF5F0EA9E42F0E99D42F0E89C45F090
:0107CF002207
:1007D000E8600FECC313FCED13FDEE13FEEF13FF07
:0307E000D8F1222B
:1007E300BB010789828A830208FA5005E9F80208E7
:0A07F300EEBBFE05E9F8020906223C
:1007FD00BB010DE58229F582E5833AF5830208C533
:10080D005007E92582F80208B8BBFE07E92582F8F2
:10081D000208D1E58229F582E5833AF5830208DEE7
:10082D00FAE6FB0808E6F925F0F618E6CA3AF622CC
:10083D00D083D082F8E4937012740193700DA3A34A
:10084D0093F8740193F5828883E47374029368605E
:06085D00EFA3A3A380DF5E
:101A25000212C8E493A3F8E493A34003F68001F2FD
:101A350008DFF48029E493A3F85407240CC8C333C2
:101A4500C4540F4420C8834004F456800146F6DF91
:101A5500E4800B0102040810204080902378E47E86
:101A6500019360BCA3FF543F30E509541FFEE49386
:101A7500A360010ECF54C025E060A840B8E493A34D
:101A8500FAE493A3F8E493A3C8C582C8CAC583CA78
:101A9500F0A3C8C582C8CAC583CADFE9DEE780BE30
:012386000056
:10086300BC000BBE0029EF8DF084FFADF022E4CC79
:10087300F875F008EF2FFFEE33FEEC33FCEE9DEC42
:10088300984005FCEE9DFE0FD5F0E9E4CEFD22ED88
:10089300F8F5F0EE8420D21CFEADF075F008EF2FD2
:1008A300FFED33FD4007985006D5F0F222C398FDC3
:0508B3000FD5F0EA2260
:0D08B800E6FB08E6F908E6FA08E6CBF822B0
:0C08C500E0F8A3E0F9A3E0FAA3E0FB22B6
:0D08D100E2FB08E2F908E2FA08E2CBF822A7
:1008DE00E493F8740193F9740293FA740393FB2270
:0C08EE00ECF608EDF608EEF608EFF62236
:0C08FA00ECF0A3EDF0A3EEF0A3EFF02271
:0C090600ECF208EDF208EEF208EFF2222D
:00000001FF
