:020003002327B1
:0200050023F9DD
:020007001B01DB
:020009001C14C5
:03000B00020EC51D
:100EC000C2AF80FE32120EC485D00B75D008AAE0E6
:100ED000C28CE58A24F7F58AE58C34D8F58CD28C5F
:100EE000EC241AF8E6BC030274FFC39581B4140025
:100EF00040CE7904781116E608700BC2AFE630E1F7
:100F0000034418F6D2AF08D9EDEA8BD030000122A5
:100F1000D50DFCC0E0C0D0C0F0C083C082C000C00E
:100F200001C002C003C004C005C006C007E50C2311
:100F30002412F87440C2AF46F6D2AFD200E50CFFDF
:100F4000232412F80F0808BF04047F007812E6304B
:100F5000E4F200E50CC39F5020050C7419250CF831
:100F6000E6FDA68108E6AE0CBE030274FFCDF8E8EC
:100F70006D60E008E6C0E080F6E50CD39F4027E511
:100F80000C241AF8E6AE0CBE030274FFFD18E6CD81
:100F9000F8E5816D6006D0E0F61880F5E50C2419BF
:100FA000C8F6150C80D3750D05E50C232412F87FC7
:100FB00004C2AFE610E61E30E00310E20C7F003002
:050FC000E10730E3042D
:100FC5007F0854F4547CC6D2AF54804207C2002235
:100FD500F6D2AFD007D006D005D004D003D002D0CA
:100FE50001D000D082D083D0F0D0D0D0E0C2002292
:100FF5007819A68174036006FF0876FFDFFB7F047E
:10100500E47811F608F608DFFA78127630900003D6
:10101500740193C0E0E493C0E0750D054389017543
:0D1025008AF0758CD8D28CD2AFD2A92203EC
:0423C4004102700062
:10000E00E490020AF0A37403F07B017A02790A7F6E
:04001E00010211A327
:101AA00090020A7440F0A37401F0A31206AF000183
:101AB000C2009002117401F0E4A3F07B017A027974
:101AC0000A7F01120B957D017F0112203D53A23F39
:101AD00090020A7440F0A37402F0A31206AF000053
:101AE00025809002117401F0E4A3F07B017A027961
:101AF0000A7F02120B957D017F01121EB553BAFEBB
:011B000022C2
:10226A0043BA80121AA012000E1223D2122411129B
:10227A00242612241812242C1222F6122440D2AF39
:01228A002231
:1023270012226A7F011210327F021210327F0312CB
:072337001032E4FF0210BBAD
:050026007F0202233EF1
:052432007F02022354AB
:0C23F9001222A87D027F0212114480F421
:101B0100900004E0D39400404FE014F0704A90003C
:101B110003E0D39400403CE490021DF0900003E008
:101B2100FF90021DE0FEC39F5029740A2EF582E446
:101B31003400F583E0FF1223B590021DE0240AF57D
:101B410082E43400F583E0FF1223A690021DE00435
:101B5100F080C9E4900003F07D027F0212114480FD
:011B61009FE4
:101D990090008AE0FF90021FF0BF01077F467E0096
:101DA90002216A90021FE0B402077F467E000220EA
:101DB900E790021FE0B4030302224890021FE0B437
:101DC90004077F0212233E800C90021FE0B405082D
:081DD9007F0212235412228B39
:011DE10022DF
:101C1400900009E0D394004040E014F0703B900041
:101C240008E0D39400402D121D99E490021EF09018
:101C34000008E0FF90021EE0FEC39F5017748A2E36
:101C4400F582E43400F583E0FF1223A690021EE03F
:101C540004F080DBE4900008F07D027F021211445E
:021C640080AE50
:1011A300EFD3940740037FFF221203E5FED394039A
:1011B30040037FFF22EF7041EE700B90000112039A
:1011C300FEF4529352941203E5B4010B9000011202
:1011D30003FE4293F452941203E5FEB4020A900014
:1011E300011203FE42934294EEB4030D90000112E8
:1011F30003FEFEF45293EE4294EF64017043120334
:10120300E5FE700B9000011203FEF452915292EE30
:10121300B4010B9000011203FE4291F452921203A7
:10122300E5B4020A9000011203FE429142921203B6
:10123300E5B4030D9000011203FEFEF45291EE4259
:1012430092EF640270431203E5FE700B90000112EB
:1012530003FEF452955296EEB4010B900001120373
:10126300FE4295F452961203E5B4020A900001126D
:1012730003FE429542961203E5B4030D900001125A
:1012830003FEFEF45295EE4296EF6403704312039D
:10129300E5FE700B9000011203FEF452B152B2EE60
:1012A300B4010B9000011203FE42B1F452B21203D7
:1012B300E5B4020A9000011203FE42B142B21203E6
:1012C300E5B4030D9000011203FEFEF452B1EE42A9
:1012D300B2EF640470431203E5FE700B9000011239
:1012E30003FEF452B352B4EEB4010B9000011203A7
:1012F300FE42B3F452B41203E5B4020A90000112A1
:1013030003FE42B342B41203E5B4030D900001128D
:1013130003FEFEF452B3EE42B4EF640570431203CE
:10132300E5FE700B9000011203FEF452C952CAEE9F
:10133300B4010B9000011203FE42C9F452CA120316
:10134300E5B4020A9000011203FE42C942CA120325
:10135300E5B4030D9000011203FEFEF452C9EE4200
:10136300CAEF640670431203E5FE700B900001128E
:1013730003FEF452CB52CCEEB4010B9000011203E6
:10138300FE42CBF452CC1203E5B4020A90000112E0
:1013930003FE42CB42CC1203E5B4030D90000112CD
:1013A30003FEFEF452CBEE42CCEF6407704312030C
:1013B300E5FF700B9000011203FEF452E152E2EFDD
:1013C300B4010B9000011203FE42E1F452E2120356
:1013D300E5B4020A9000011203FE42E142E2120365
:1013E300E5B4030D9000011203FEFFF452E1EF4256
:0413F300E27F002273
:101BBF009000011203FEFFE5DE54F04FF5DE9000BA
:101BCF00021203FEC43354E0FFE5DE54DF4FF5DEAF
:101BDF001203E5FFD3941F502B9000031203FEFE58
:101BEF00D39401501F9000041203FEFDD3940350B1
:101BFF0013EDC43354E0FDEEC433333354804D4FF3
:051C0F0090FEA8F02288
:0C240500EFB4010443BC802253BC7F22D2
:1019B700EFD3940F4002806BE4F5BDF5BEE5BC5450
:1019C700F044404FF5BC000000000000000000009C
:1019D700E4FDE5BC30E54753BCDFE5DEAFBD30E5F0
:1019E7000DEFFEACBEECFBEBFF90026A802290028B
:1019F7006AE4F0A3EFF0E5BEC4540FFBE0C4F8546B
:101A07000FC868FF90026AE0C454F048FEEF4BFF2E
:101A1700EEF0A3EFF090026AE0FEA3E0FF220DEDE7
:071A2700B4FAAF7E107F004E
:011A2E002295
:03002B0002243C70
:04243C0053BCDF327C
:100B9500900214EBF0A3EAF0A3E9F0900213EFF052
:100BA50064016003020D73900000F0A3F0A3F0A3AD
:100BB500F0A3F0900217F0A3F0900217E0FEA3E077
:100BC500FFC39480EE9400501C740A2FF5827401C3
:100BD5003EF583E4F0900218E004F070DC90021713
:100BE500E004F080D4E4900217F0A3F0900217E03F
:100BF500FEA3E0FFC39480EE9400501C740A2FF509
:100C05008274003EF583E4F0900218E004F070DC95
:100C1500900217E004F080D4900214E0FBA3E0FA00
:100C2500A3E0F91203E5FFE598543F4FF598EF640B
:100C3500C06008EF64406003020D1E9000021206BA
:100C4500737F807E8D7D5B7C001205959002191265
:100C550006A3E4FFFE7D01FC900219E0F8A3E0F98C
:100C6500A3E0FAA3E0FBC312063540037FFF229001
:100C75000219E0F8A3E0F9A3E0FAA3E0FBC3E49BC3
:100C8500FFE49AFE740199FDE498FC90021912069E
:100C9500A3900214E0FBA3E0FAA3E0F9900001128F
:100CA50003FEFB64017038C28E538EFE5389BF5319
:100CB50089CF438E40900219E0FCA3E0FDA3E0FE3E
:100CC500A3E0FF78081206468F8D900219A3A3A30F
:100CD500E0F58BC2AB5389BF538FFDD28E8073EB8A
:100CE50064027032538EEF438E01538EF7438E04A8
:100CF500900219E0FCA3E0FDA3E0FEA3E0FF780865
:100D05001206468FD6900219A3A3A3E0F5D753AFD9
:100D1500FB438E10803C7FFF22900214E0FBA3E092
:100D2500FAA3E0F91203E5FF70139000081203FE21
:100D3500B40105438E20801A538EDF8015EFB480F1
:100D4500119000081203FEB4010543878080035308
:100D5500877F900214E0FBA3E0FAA3E0F990000777
:100D65001203FE7004C29C8002D29C7F0022900276
:100D750013E064026003020EBD900005F0A3F0A32A
:100D8500F0A3F0A3F0900217F0A3F0900217E0FE95
:100D9500A3E0FFC39480EE9400501C748A2FF58263
:100DA50074013EF583E4F0900218E004F070DC90E5
:100DB5000217E004F080D4E4900217F0A3F090024B
:100DC50017E0FEA3E0FFC39480EE9400501C748AE4
:100DD5002FF58274003EF583E4F0900218E004F0EC
:100DE50070DC900217E004F080D4900214E0FBA3BD
:100DF500E0FAA3E0F91203E5FF64C06008EF644080
:100E05006003020E9BEFB4C005439A808003539A9A
:100E15007F9000021206737F807E8D7D5B7C0012C1
:100E250005959002191206A3E4FFFE7D01FC9002D0
:100E350019E0F8A3E0F9A3E0FAA3E0FBC312063535
:100E450040037FFF22900219E0F8A3E0F9A3E0FA3E
:100E5500A3E0FBC3E49BFFE49AFE740199FDE498CB
:100E6500FC9002191206A3538EEF538EF7438E049E
:100E7500900219E0FCA3E0FDA3E0FEA3E0FF7808E3
:100E85001206468FD6900219A3A3A3E0F5D753AF58
:100E9500FB438E1080037FFF22900214E0FBA3E04A
:100EA500FAA3E0F99000071203FEC454F0FFE59A97
:0A0EB50054EF4FF59A7F00227FFFF3
:010EBF002210
:0F23A6008F999000027401F0900002E070FA220B
:102380001203E5FF600C1223A6740129F9E43AFA5E
:0323900080EE22BA
:0F23B5008F9B9000077401F0900007E070FA22F0
:102393001203E5FF600C1223B5740129F9E43AFA3C
:0323A30080EE22A7
:05243700AE070223A620
:03002300021CB804
:101CB800C0E0C083C082C0D075D000C0073098276C
:101CC800C298900003E0C394804002E4F0900003BF
:101CD800E0FF04F0740A2FF582E43400F583E599F7
:101CE800F09000047405F0309907C299900002E45E
:0C1CF800F0D007D0D0D082D083D0E032F2
:03004300021C6636
:101C6600C0E0C083C082C0D075D000C007E59A30FE
:101C7600E028539AFE900008E0C394804002E4F006
:101C8600900008E0FF04F0748A2FF582E43400F532
:101C960083E59BF09000097405F0E59A30E108535E
:101CA6009AFD900007E4F0D007D0D0D082D083D040
:021CB600E0321A
:101EF800EFD3940140037FFF22EDD3940340037F87
:101F0800FF22EF7004C2A98002D2A9ED700553B771
:101F1800FDC2B9EDB4010553B7FDD2B9EDB4020560
:101F280043B702C2B9EDB4030543B702D2B97F0083
:011F38002286
:101F3900EFD3940140037FFF22EDD3940340037F45
:101F4900FF22EF7004C2AB8002D2ABED700553B72C
:101F5900F7C2BBEDB4010553B7F7D2BBEDB4020527
:101F690043B708C2BBEDB4030543B708D2BB7F0032
:011F79002245
:10220400EFD3940140037FFF22EDD3940340037F77
:10221400FF22EF25E025E0FFE5AF54FB4FF5AFE4E7
:02222400FF2297
:10222600EFD3940140037FFF22EDD3940340037F55
:10223600FF22EFC43354E0FFE5AF54DF4FF5AFE4C0
:02224600FF2275
:1021E100EFD3940140037FFF22EDD3940340037F9B
:1021F100FF22EFC4333354C0FFE5AF54BF4FF5AFF7
:03220100E4FF22D5
:101F7A00EFD3940140037FFF22EDD3940340037F04
:101F8A00FF22EF7004C2A88002D2A8ED700553B7F1
:101F9A00FEC2B8EDB4010553B7FED2B8EDB40205DE
:101FAA0043B701C2B8EDB4030543B701D2B87F0005
:011FBA002204
:101FBB00EFD3940140037FFF22EDD3940340037FC3
:101FCB00FF22EF7004C2AA8002D2AAED700553B7AC
:101FDB00FBC2BAEDB4010553B7FBD2BAEDB402059F
:101FEB0043B704C2BAEDB4030543B704D2BA7F00BA
:011FFB0022C3
:10230F00EFD3940140037FFF22EFC454F0FFE58F1A
:08231F0054EF4FF58FE4FF229B
:1022DD00EFD3940140037FFF22EFC43354E0FFE5B9
:0922ED008F54DF4FF58FE4FF224E
:1022C300EFD3940140037FFF22EFC4333354C0FFA5
:0A22D300E58F54BF4FF58FE4FF22A2
:101FFC00EFD3940140037FFF22EDD3940340037F82
:10200C00FF22EF7004C2AD8002D2ADED700553B764
:10201C00DFC2BDEDB4010553B7DFD2BDEDB402058F
:10202C0043B720C2BDEDB4030543B720D2BD7F003A
:01203C002281
:101D0400EDD3940340037FFF22EF30E10543E62047
:101D1400800353E6DFEF30E00543E610800353E62B
:101D2400EFED700653B6DF53B5DFEDB4010653B6DD
:101D3400DF43B520EDB4020643B62053B5DFEDB45E
:0B1D4400030643B62043B5207F0022B9
:101B6200EFD3940140037FFF22EBD3940340037F22
:101B7200FF22EFB40112ED90FE817006E0547FF077
:101B82008011E04480F0800BEF700890FE83E054F7
:101B9200874DF0EB700653B6DF53B5DFEBB40106A9
:101BA20053B6DF43B520EBB4020643B62053B5DF8C
:0D1BB200EBB4030643B62043B5207F0022AC
:10203D00EFD3940140037FFF22EDD3940340037F40
:10204D00FF22EF7004C2AC8002D2ACED700553B725
:10205D00EFC2BCEDB4010553B7EFD2BCEDB4020530
:10206D0043B710C2BCEDB4030543B710D2BC7F001B
:01207D002240
:101EB500EFD3940140037FFF22EDD3940340037FCA
:101EC500FF22E5AF54FE4FF5AFED700653B6FE5356
:101ED500B5FEEDB4010653B6FE43B501EDB40206F9
:101EE50043B60153B5FEEDB4030643B60143B50150
:031EF5007F002249
:101D4F00EFD3940140037FFF22EDD3940340037F31
:101D5F00FF22EF33333354F8FFE5AF54F74FF5AFAE
:101D6F00ED700653EEFE53DFFEEDB4010653EEFEAB
:101D7F0043DF01EDB4020643EE0153DFFEEDB40382
:0A1D8F000643EE0143DF017F00224E
:101DE200EFD3940140037FFF22EDD3940340037F9E
:101DF200FF22EFC454F0FFE5AF54EF4FF5AFED70A3
:101E02000653EEFD53DFFDEDB4010653EEFD43DF55
:101E120002EDB4020643EE0253DFFDEDB4030643C6
:081E2200EE0243DF027F002203
:101E2A00EFD3940140037FFF22EDD3940340037F55
:101E3A00FF22EF25E0FFE5AF54FD4FF5AFED700649
:101E4A0053B6FD53B5FDEDB4010653B6FD43B502D5
:101E5A00EDB4020643B60253B5FDEDB4030643B62C
:071E6A000243B5027F0022D4
:10193800EFD3948140037FFF22EBD3940340037FCE
:10194800FF22EF247F603204705D90FEC4EDF0EB5F
:10195800700653B6FB53B5FBEBB4010653B6FB4315
:10196800B504EBB4020643B60453B5FBEB6403704D
:101978003B43B60443B504803390FEE4EDF0EB70CE
:101988000653B6F753B5F7EBB4010653B6F743B5AC
:1019980008EBB4020643B60853B5F7EBB4030D439E
:0F19A800B60843B508800590FEE4EDF07F0022FD
:10207E00EDD394035029ED700653EEFB53DFFBEDC9
:10208E00B4010653EEFB43DF04EDB4020643EE0447
:10209E0053DFFBEDB4030B43EE0443DF0480037FF9
:0A20AE00FF2290FE62EFF07F002297
:10078300AD07ED6401707A90FECCE054FEF0E054C6
:10079300FBF090FEC8E054FCF01203E5FF90FEC8A6
:1007A300E0548F4FF09000061203FEFF90FECC3012
:1007B300E00DE04401F090FEB1E04401F0800BE075
:1007C30054FEF090FEB1E054FEF0EF90FECC30E129
:1007D3000DE04404F090FEB1E04402F0800BE054DD
:1007E300FBF090FEB1E054FDF09000031204D2E55B
:1007F300F090FED5F09000031204D290FED6020BC7
:100803003DED6402707A90FECCE054EFF0E054BF0B
:10081300F090FEC9E054FCF01203E5FF90FEC9E03E
:10082300548F4FF09000061203FEFF90FECC30E28F
:100833000DE04410F090FEB1E04404F0800BE0546E
:10084300EFF090FEB1E054FBF0EF90FECC30E30DFF
:10085300E04440F090FEB1E04408F0800BE054BF68
:10086300F090FEB1E054F7F09000031204D2E5F0EB
:1008730090FED7F09000031204D290FED8020B3DF5
:10088300ED6403707A90FECDE054FEF0E054FBF08B
:1008930090FECAE054FCF01203E5FF90FECAE05458
:1008A3008F4FF09000061203FEFF90FECD30E40D53
:1008B300E04401F090FEB1E04410F0800BE054FE00
:1008C300F090FEB1E054EFF0EF90FECD30E50DE097
:1008D3004404F090FEB1E04420F0800BE054FBF0C0
:1008E30090FEB1E054DFF09000031204D2E5F090E3
:1008F300FED9F09000031204D290FEDA020B3DED14
:100903006404707A90FECDE054EFF0E054BFF090B1
:10091300FECBE054FCF01203E5FF90FECBE0548FD6
:100923004FF09000061203FEFF90FECD30E60DE07F
:100933004410F090FEB1E04440F0800BE054EFF03F
:1009430090FEB1E054BFF0EF90FECD30E70DE044F0
:1009530040F090FEB1E04480F0800BE054BFF09093
:10096300FEB1E0547FF09000031204D2E5F090FE54
:10097300DBF09000031204D290FEDC020B3DED6429
:1009830080704F9000051203FE90FEDEF090000190
:100993001204D2E5F090FED2F09000011204D2903E
:1009A300FED3F09000081203FE90FEDDB40106E0D2
:1009B3004480F08004E0547FF09000071203FE901F
:1009C300FEC0B40106E04401F08004E054FEF07F71
:1009D3000022ED6405705690FEECE054FEF090FEAC
:1009E300E8E054FCF01203E5FF90FEE8E0548F4F7B
:1009F300F09000061203FE90FEEC30E00DE044019F
:100A0300F090FEB5E04401F0800BE054FEF090FE60
:100A1300B5E054FEF09000031204D2E5F090FEF529
:100A2300F09000031204D290FEF6020B3DED640633
:100A3300705690FEECE054EFF090FEE9E054FCF0C9
:100A43001203E5FF90FEE9E0548F4FF09000061289
:100A530003FE90FEEC30E20DE04410F090FEB5E0B2
:100A63004404F0800BE054EFF090FEB5E054FBF04B
:100A73009000031204D2E5F090FEF7F09000031209
:100A830004D290FEF8020B3DED6407705590FEED25
:100A9300E054FEF090FEEAE054FCF01203E5FF9010
:100AA300FEEAE0548F4FF09000061203FE90FEED35
:100AB30030E40DE04401F090FEB5E04410F0800B0B
:100AC300E054FEF090FEB5E054EFF0900003120402
:100AD300D2E5F090FEF9F09000031204D290FEFAF2
:100AE3008058ED6408705790FEEDE054EFF090FEEF
:100AF300EBE054FCF01203E5FF90FEEBE0548F4F64
:100B0300F09000061203FE90FEED30E60DE0441077
:100B1300F090FEB5E04440F0800BE054EFF090FE1F
:100B2300B5E054BFF09000031204D2E5F090FEFB51
:100B3300F09000031204D290FEFCF07F0022ED64DB
:100B430081704C9000051203FE90FEFEF0900001B0
:100B53001204D2FDACF0EC90FEF2F0AF05A3EFF07F
:100B63009000081203FE90FEFDB40106E04480F0FD
:100B73008004E0547FF09000071203FE90FEE0B47F
:100B83000106E04401F08004E054FEF07F00227F80
:020B9300FF223F
:1015FE00EF248070030216B91470030216FE2480C5
:10160E00B40800400302174A90162475F003A4C5CF
:10161E008325F0C5837302163C0216490216590241
:10162E0016690216790216890216990216A9120473
:10163E00A7FDACF0EC90FED5021744900002120408
:10164E00D2FDACF0EC90FED70217449000041204C9
:10165E00D2FDACF0EC90FED90217449000061204B5
:10166E00D2FDACF0EC90FEDB0217449000081204A1
:10167E00D2FDACF0EC90FEF502174490000A120475
:10168E00D2FDACF0EC90FEF702174490000C120461
:10169E00D2FDACF0EC90FEF902174490000E12044D
:1016AE00D2FDACF0EC90FEFB0217441204A7FDAC89
:1016BE00F0EC90FED5F0AF05A3EFF090000212040F
:1016CE00D2FDACF0EC90FED7F0AF05A3EFF090009A
:1016DE00041204D2FDACF0EC90FED9F0AF05A3EFEE
:1016EE00F09000061204D2FDACF0EC90FEDB8046CA
:1016FE009000081204D2FDACF0EC90FEF5F0AF05B0
:10170E00A3EFF090000A1204D2FDACF0EC90FEF7BD
:10171E00F0AF05A3EFF090000C1204D2FDACF0EC8C
:10172E0090FEF9F0AF05A3EFF090000E1204D2FD7B
:0D173E00ACF0EC90FEFBF0AF05A3EFF02245
:0D23D2005393DF43942053B1EF43B2102228
:10233E00EF14600A14600A2402700AD2B422D28505
:06234E0022D2B4D2852268
:10235400EF14600A14600A2402700AC2B422C2850F
:0623640022C2B4C2852272
:0423C800410271005D
:0724110053B17F53B27F229B
:1022A800A2B7E433FF900271E06F600EA2B7E43387
:0B22B800F030B703020026122432228F
:10002E0090020A7401F0A304F07B017A02790AE4CB
:04003E00FF0211A309
:1021410090020A741FF0E490020DF0A304F0E490F1
:10215100020BF0A304F0FB7A02790A121BBF7F0184
:09216100122405E4FDFF021FFC3D
:0624260012002E0221410C
:0B18AD0090025CEBF0A3EAF0A3E9F06E
:1018B8007F091219B7AD07AC06E4120362E4FBFA1C
:1018C8007920784012013EE4FBFA798078451202CB
:1018D8004790025F1206A390025FE0FCA3E0FDA31D
:1018E800E0FEA3E0FFE4FBFA7940784012013E9065
:1018F800025F1206A390025FE0FCA3E0FDA3E0FEF6
:10190800A3E0FF7BCD7ACC794C783F12004D900252
:101918005F1206A390025FE0FCA3E0FDA3E0FEA334
:10192800E0FF90025CE0FBA3E0FAA3E0F9020659AD
:0C23DF00750E03750F52D50FFDD50EFAD8
:0123EB0022CF
:0724180053B1BF43B24022A3
:10228B007FE87E03EF1FAC0670011ED39400EC6455
:0C229B008094804007B2B61223DF80E878
:0122A7002214
:06241F0075104ED510FD02
:012425002294
:1021160090020B7408F090020A7403F07B017A02B5
:10212600790A7F011211A390020B7401F090020A42
:0B213600F0FB7A02790A7F040211A37B
:06242C00122116C29322EA
:0B174B00900263EBF0A3EAF0A3E9F0CA
:10175600E4FBFAA31206AF00000000D29312241F86
:1017660012241FC29320C00E12241F0BBB00010AB5
:10177600EB64284A70EF7C007D0AAF03AE021204C8
:101786005FC3EF9490EE94014003AF0322E4FAFBAB
:1017960030C00A12241F0BBB00010A80F3AE02AF51
:1017A600037C007D2212045FAC06AD07E4120362DF
:1017B6007B0A7AD779A3783B12013E90026612061D
:1017C600A3900266E0FCA3E0FDA3E0FEA3E0FF9089
:1017D6000263E0FBA3E0FAA3E0F9120659E4FFFE78
:1017E600FD7C40900266E0F8A3E0F9A3E0FAA3E0EE
:1017F600FB1202E450037F0122E4FFFE7D167C44C7
:10180600900266E0F8A3E0F9A3E0FAA3E0FB120277
:0A181600E4600540037F02227F001A
:0118200022A5
:0523CC0042026C00005C
:1022F60053B37F53B47F5393BF5394BF53B1F35338
:09230600B2F353C9FE53CAFE22D2
:1020B800A2C7E43312042BA286E433900001120471
:1020C8003DA2B2E43390000212043DA2B3E433907F
:0F20D800000312043DA2C8E43390000402043D4B
:101A2F00E4FFFEFDFC90026EF0A3F030C70B2440E4
:101A3F00FFE433FE0DBD00010C30860C74202FFF28
:101A4F00E43EFE0DBD00010C30B2050DBD00010CD2
:101A5F0030B30D74E02FFF74FF3EFE0DBD00010C7F
:101A6F0030C80D74C02FFF74FF3EFE0DBD00010C7A
:101A7F00ED4C700990026CE0FEA3E0FF221204719E
:101A8F0090026EEEF0A3EFF090026CEEF0A3EFF089
:011A9F002224
:07236A00F91204D2FFAEF0EE
:0F2371007C007D02120471EF2432FFE43EFE2255
:0B13F700900228EBF0A3EAF0A3E9F05D
:1014020090000212236B900234EEF0A3EFF09002F0
:1014120028E0FBA3E0FAA3E090000612236A900200
:1014220036EEF0A3EFF0900228E0FBA3E0FAA3E08F
:1014320090000412236A900238EEF0A3EFF09002BB
:1014420028E0FBA3E0FAA3E0F91204A7FFAEF01232
:10145200237190023AEEF0A3EFF090022B7460F049
:10146200900234E0FEA3E0FFEE3395E0FDFCE47B66
:10147200C07A5DF9F812050AE47B64FAF9F8121EE3
:101482007190022EEEF0A3EFF0900228E0FBA3E0B1
:10149200FAA3E0F99000021204D245F07003FF8033
:1014A200027F03900231EFF07B017A02792B7F01F8
:1014B20012078390022B7470F0900236E0FEA3E0D4
:1014C200FFEE3395E0FDFCE47BC07A5DF9F812058E
:1014D2000AE47B64FAF9F8121E7190022EEEF0A370
:1014E200EFF0900228E0FBA3E0FAA3E0F9900006F7
:1014F2001204D245F07003FF80027F0C900231EF9C
:10150200F07B017A02792B7F0212078390022B74FF
:1015120060F0900238E0FEA3E0FFEE3395E0FDFCC0
:10152200E47BC07A5DF9F812050AE47B64FAF9F803
:10153200121E7190022EEEF0A3EFF0900228E0FB53
:10154200A3E0FAA3E0F99000041204D245F070037C
:10155200FF80027F30900231EFF07B017A02792B1B
:101562007F0312078390022B7460F090023AE0FE30
:10157200A3E0FFEE3395E0FDFCE47BC07A5DF9F871
:1015820012050AE47B64FAF9F8121E7190022EEE3B
:10159200F0A3EFF0900228E0FBA3E0FAA3E0F91237
:1015A20004A745F07003FF80027FC0900231EFF084
:1015B2007B017A02792B7F0412078390022C745DDF
:1015C200F0A374BFF0E4900230F090023304F09084
:1015D2000232F0FB7A02792B7F8012078390FEB2EF
:1015E200E054FC4401F0E054F34404F0E054CFF042
:0C15F200E0543FF0E4FBFD7F800219385C
:0D23EC0053910F53920F5395F05396F0222A
:032440000223EC88
:10216A00900220EEF0A3EFF0900224EEF0A3EFF03D
:10217A00900222EEF0A3EFF0900226EEF0A3EFF029
:09218A007B017A0279200213F7AF
:1020E700C3E49FFDE49EFC900220F0A3EDF0900274
:1020F70024ECF0A3EDF0900222ECF0A3EDF09002B7
:0F21070026ECF0A3EDF07B017A0279200213F7AA
:10219300E490024CF0A3F0900250EEF0A3EFF0E4D1
:1021A30090024EF0A3F0900252EEF0A3EFF07B0109
:0721B3007A02794C0213F7D8
:1021BA00900254EEF0A3EFF0E4900258F0A3F090EE
:1021CA000256EEF0A3EFF0E490025AF0A3F07B017E
:0721DA007A0279540213F7A9
:10224800E4900220F0A3F0900224F0A3F090022280
:10225800F0A3F0900226F0A3F07B017A0279200225
:0222680013F76A
:10103200EFD3940340037FFF2274122F2FF8E62090
:10104200E5F4C2AFE64430F6D2AFAE0CEEC39F5029
:10105200210E74192EF8E6F908E618BE030274FF91
:10106200FDED69600909E71919F7090980F31616F8
:1010720080DAEED39F400405810581EED39F4022A2
:1010820074192EF808E6F9EEB50C02A981180606C5
:10109200E6FDED6960091919E70909F71980F31EE0
:1010A20080D9EF2419F8E604F8EF2F049000039397
:0910B200F608EF2F93F67F0022EF
:1010BB00EFD3940340037FFF22EF232412F8E63093
:1010CB00E5F4C2AFE6548CF6D2AFE50CB5070A7463
:1010DB00192FF8E6F581020F3B502E741A2FF8E604
:1010EB00BF030274FFFD18E6F974192FF8FBE6FC39
:1010FB00E96C6008A805E7F61D1980F4A803A6059E
:10110B001FE50CB507E37F0022741A2FF8E6FD18D4
:10111B0086010F74192FF8A601088604E50CB50794
:10112B0002AC81ED6C60080D09A805E6F780F4E5CB
:09113B000CB507DE89817F00225A
:101144008FF0E4FFFEE50C232411F8C2A930F70D5B
:101154007F08E6600B2DF660325030800730F106D0
:10116400EDF660277E020830F010C2AFE610E725E6
:101174000E30E20CD2AF7F048014C2AFE610E71544
:1011840054EC4EF6D2AFD2A9020F3B7F0808EF44CD
:0F11940083F4C2AF56C6D2AFD2A954804FFF2208
:100046000203D0E86480F8E933E83360110460F015
:10005600ED33EC337009E8FCE9FDEAFEEBFF220420
:1000660060DED3EB9FEA9EE99DE8C2E78CF0C2F71B
:1000760095F0400CE8CCF8E9CDF9EACEFAEBCFFBE7
:1000860012039B85D0F05804700320D5B3E80470A2
:10009600075002B2D50203DA92D5EC0460F7E4CC3D
:1000A600C0E0C398F8603B94186008400DD0E0FBB0
:1000B6000203B2E4FBFAC9FC8028E830E406E4C98E
:1000C600FBE4CAFCE830E305E4C9CACBFCE8540704
:1000D6006010F8C3E913F9EA13FAEB13FBEC13FC0F
:1000E600D8F130F52FC3E49CFCEF9BFFEE9AFEEDB2
:1000F60099FDD0E0FBEF4E4D4C701222DB0302035C
:10010600D7EC2CFCEF33FFEE33FEED33FDED30E79D
:10011600EB0203B2EF2BFFEE3AFEED39FDD0E0FB2A
:1001260050130BBB00030203DAED13FDEE13FEEFD3
:0801360013FFEC13FC0203B2FD
:10013E00EC4D6011E8497017ED33EC3304600DE4BB
:10014E00FCFFFEFD22E933E8330470F80203D012FF
:10015E00039B58046009E4CC248150062850090200
:10016E0003DA2840030203D7C0E0EB4A7044B9809B
:10017E0006D0E0FB0203C6EF4E701CBD8008EBFFFD
:10018E00EAFEE9FD80EBE98DF0A4FEE5F002022720
:10019E00E9CDF9EAFEEBFFEF89F0A4FCE5F0CE899C
:1001AE00F0A42EFFE435F0CD89F0A42DFEE435F059
:1001BE008067EF4E7005BD80D780C3EF8BF0A4AC87
:1001CE00F0EE8BF0A42CFCE435F0F8EF8AF0A42CC2
:1001DE00E5F038FCE433CB8DF0A42CFCE5F03BF8D5
:1001EE00EE8AF0A42CFCE5F038F8E433CF89F0A4C5
:1001FE002CFCE5F038CF3400CE89F0A42FFFE5F0CB
:10020E003EFEE433C98DF0A42EFEE5F039CD8AF022
:10021E00A42FFFE5F03EFEE43DFD33D0E0FB50079A
:10022E000BBB000F0203DAEC2CFCEF33FFEE33FEB8
:06023E00ED33FD0203B2E6
:100244000203DAEC5D046005E8590470030203D08C
:1002540012039B580460F6EC4860F2EC7004FDFE57
:10026400FF22C860DB2481C85009C398600250068D
:100274000203D79850CAF582E9294B4A7005AB822C
:100284000203C675F0007C1A7880C3EF9BEE9AEDEA
:1002940099400DC3EF9BFFEE9AFEED99FDE842F005
:1002A400DC23ACF0D0E0FFD0E0FED0E0FDAB822058
:1002B400E7101BEB60BAEC2CFCEF33FFEE33FEEDE2
:1002C40033FD0203B2E803F830E705C0F075F0002F
:1002D400EF2FFFEE33FEED33FD40B830E7C280AAC6
:1002E40074F8CC6480CCC86480C8F58204604FC3C1
:1002F400EB9FF5F0EA9E42F0E99D42F0E89C45F060
:10030400603C501DE5825FFFE582D313CB5BCBF4E9
:100314002B5582FB50280ABA002409B90020088012
:100324001DE5825BFBE582D313CF5FCFF4C3132FAC
:100334005582FF50090EBE00050DBD00010CC3EB34
:100344009FF5F0EA9E42F0E99D42F0E89C45F0609A
:0903540007CC4820E701B3EC22BC
:10035D0075F020800E75F010800575F0087D007E1B
:10036D00007F003392D530D503120627EC334010B1
:10037D00EF33FFEE33FEED33FDEC33FCD5F0ED2224
:0E038D00E5F0247EA2D513CC92E7CDCEFF2260
:10039B00E9D2E7C933E833F892D5EDD2E7CD33ECA8
:0703AB0033FC5002B2D52221
:1003B200EC30E7100FBF000C0EBE00080DBD0004AC
:1003C2000BEB6014A2D5EB13FCED92E7FD2274FF58
:1003D200FCFDFEFF22E480F8A2D574FF13FC7D80B1
:0303E200E480EFC5
:03000000021821C2
:0C182100787FE4F6D8FD7581200218687D
:1003E500BB010689828A83E0225002E722BBFE0216
:0903F500E32289828A83E4932249
:1003FE00BB010CE58229F582E5833AF583E02250B4
:10040E0006E92582F8E622BBFE06E92582F8E222FD
:0D041E00E58229F582E5833AF583E4932217
:10042B00BB010689828A83F0225002F722BBFE01B0
:02043B00F322AA
:10043D00F8BB010DE58229F582E5833AF583E8F0F5
:10044D00225006E92582C8F622BBFE05E92582C8A1
:02045D00F22289
:10045F00EF8DF0A4A8F0CF8CF0A428CE8DF0A42EB1
:02046F00FE226B
:10047100C2D5EC30E709B2D5E4C39DFDE49CFCEEA6
:1004810030E715B2D5E4C39FFFE49EFE1206E0C338
:10049100E49DFDE49CFC80031206E030D507C3E433
:0604A1009FFFE49EFE2215
:1004A700BB010A89828A83E0F5F0A3E02250068720
:1004B700F009E71922BBFE07E3F5F009E3192289E2
:0B04C700828A83E493F5F07401932215
:1004D200BB0110E58229F582E5833AF583E0F5F068
:1004E200A3E0225009E92582F886F008E622BBFE45
:1004F2000AE92582F8E2F5F008E222E5832AF5838B
:08050200E993F5F0A3E993224F
:10050A00E88FF0A4CC8BF0A42CFCE98EF0A42CFC90
:10051A008AF0EDA42CFCEA8EF0A4CDA8F08BF0A40E
:10052A002DCC3825F0FDE98FF0A42CCD35F0FCEB6D
:10053A008EF0A4FEA9F0EB8FF0A4CFC5F02ECD3932
:0F054A00FEE43CFCEAA42DCE35F0FDE43CFC229F
:1005590075F008758200EF2FFFEE33FECD33CDCC59
:1005690033CCC58233C5829BED9AEC99E5829840DC
:100579000CF582EE9BFEED9AFDEC99FC0FD5F0D6B9
:10058900E4CEFBE4CDFAE4CCF9A88222B800C1B9E3
:100599000059BA002DEC8BF084CFCECDFCE5F0CB21
:1005A900F97818EF2FFFEE33FEED33FDEC33FCEB5A
:1005B90033FB10D703994004EB99FB0FD8E5E4F915
:1005C900FA227818EF2FFFEE33FEED33FDEC33FC02
:1005D900C933C910D7059BE99A4007EC9BFCE99AF6
:1005E900F90FD8E0E4C9FAE4CCFB2275F010EF2F3B
:1005F900FFEE33FEED33FDCC33CCC833C810D7073B
:100609009BEC9AE899400AED9BFDEC9AFCE899F875
:0E0619000FD5F0DAE4CDFBE4CCFAE4C8F92208
:101E7100C2D5E830E70FB2D5E4C39BFBE49AFAE49C
:101E810099F9E498F8EC30E717B2D5121EA71205BC
:101E910095E4C39BFBE49AFAE499F9E498F880038A
:101EA10012059530D50DE4C39FFFE49EFEE49DFD30
:041EB100E49CFC228F
:0E062700C3E49FFFE49EFEE49DFDE49CFC22E4
:10063500EB9FF5F0EA9E42F0E99D42F0E89C45F01B
:010645002292
:10064600E8600FECC313FCED13FDEE13FEEF13FF92
:03065600D8F122B6
:10065900BB010789828A830206A35005E9F80207CC
:0A0669006BBBFE05E9F802077722DB
:10067300BB010DE58229F582E5833AF58302074242
:100683005007E92582F8020735BBFE07E92582F802
:1006930002074EE58229F582E5833AF58302075B7B
:0C06A300ECF0A3EDF0A3EEF0A3EFF022CA
:1006AF00A8828583F0D083D0821206C61206C612A6
:1006BF0006C61206C6E473E493A3C583C5F0C583CB
:1006CF00C8C582C8F0A3C583C5F0C583C8C582C895
:0106DF0022F8
:10182D00020FF5E493A3F8E493A34003F68001F2CD
:10183D0008DFF48029E493A3F85407240CC8C333BC
:10184D00C4540F4420C8834004F456800146F6DF8B
:10185D00E4800B01020408102040809023C4E47E34
:10186D00019360BCA3FF543F30E509541FFEE49380
:10187D00A360010ECF54C025E060A840B8E493A347
:10188D00FAE493A3F8E493A3C8C582C8CAC583CA72
:10189D00F0A3C8C582C8CAC583CADFE9DEE780BE2A
:0123D100000B
:1006E000BC000BBE0029EF8DF084FFADF022E4CCFE
:1006F000F875F008EF2FFFEE33FEEC33FCEE9DECC7
:10070000984005FCEE9DFE0FD5F0E9E4CEFD22ED0C
:10071000F8F5F0EE8420D21CFEADF075F008EF2F56
:10072000FFED33FD4007985006D5F0F222C398FD47
:050730000FD5F0EA22E4
:0D073500E6FB08E6F908E6FA08E6CBF82234
:0C074200E0F8A3E0F9A3E0FAA3E0FB223A
:0D074E00E2FB08E2F908E2FA08E2CBF8222B
:10075B00E493F8740193F9740293FA740393FB22F4
:0C076B00ECF608EDF608EEF608EFF622BA
:0C077700ECF208EDF208EEF208EFF222BE
:00000001FF
