:0F0CD1007D607C09ED1D70011C144C70F7DFF184
:010CE00022F1
:10034300EFD3940740037FFF22120597FED3940354
:1003530040037FFF22EF7041EE700B900001120506
:10036300B0F452935294120597B4010B900001120A
:1003730005B04293F45294120597FEB4020A90001A
:10038300011205B042934294EEB4030D90000112A2
:1003930005B0FEF45293EE4294EF640170431205EC
:1003A30097FE700B9000011205B0F452915292EE39
:1003B300B4010B9000011205B04291F45292120560
:1003C30097B4020A9000011205B0429142921205BD
:1003D30097B4030D9000011205B0FEF45291EE4262
:1003E30092EF64027043120597FE700B90000112A6
:1003F30005B0F452955296EEB4010B90000112052C
:10040300B04295F45296120597B4020A9000011275
:1004130005B042954296120597B4030D9000011260
:1004230005B0FEF45295EE4296EF64037043120555
:1004330097FE700B9000011205B0F452B152B2EE68
:10044300B4010B9000011205B042B1F452B212058F
:1004530097B4020A9000011205B042B142B21205EC
:1004630097B4030D9000011205B0FEF452B1EE42B1
:10047300B2EF64047043120597FE700B90000112F3
:1004830005B0F452B352B4EEB4010B90000112055F
:10049300B042B3F452B4120597B4020A90000112A9
:1004A30005B042B342B4120597B4030D9000011294
:1004B30005B0FEF452B3EE42B4EF64057043120587
:1004C30097FE700B9000011205B0F452C952CAEEA8
:1004D300B4010B9000011205B042C9F452CA1205CF
:1004E30097B4020A9000011205B042C942CA12052C
:1004F30097B4030D9000011205B0FEF452C9EE4209
:10050300CAEF64067043120597FE700B9000011248
:1005130005B0F452CB52CCEEB4010B90000112059E
:10052300B042CBF452CC120597B4020A90000112E8
:1005330005B042CB42CC120597B4030D90000112D3
:1005430005B0FEF452CBEE42CCEF640770431205C4
:1005530097FF700B9000011205B0F452E152E2EFE5
:10056300B4010B9000011205B042E1F452E212050E
:1005730097B4020A9000011205B042E142E212056B
:1005830097B4030D9000011205B0FFF452E1EF425E
:04059300E27F0022E1
:1009DA00EFD3940140037FFF22EDD3940340037FBA
:1009EA00FF22EF7004C2A98002D2A9ED700553B7A5
:1009FA00FDC2B9BD010553B7FDD2B9BD020543B762
:0E0A0A0002C2B9BD030543B702D2B97F002274
:100A1800EFD3940140037FFF22EDD3940340037F7B
:100A2800FF22EF7004C2AB8002D2ABED700553B762
:100A3800F7C2BBBD010553B7F7D2BBBD020543B72B
:0E0A480008C2BBBD030543B708D2BB7F002226
:100BE500EFD3940140037FFF22EDD3940340037FAD
:100BF500FF22EF25E025E0FFE5AF54FB4FF5AFE41D
:020C0500FF22CC
:100C0700EFD3940140037FFF22EDD3940340037F8A
:100C1700FF22EFC43354E0FFE5AF54DF4FF5AFE4F5
:020C2700FF22AA
:100BC200EFD3940140037FFF22EDD3940340037FD0
:100BD200FF22EFC4333354C0FFE5AF54BF4FF5AF2C
:030BE200E4FF220B
:100A5600EFD3940140037FFF22EDD3940340037F3D
:100A6600FF22EF7004C2A88002D2A8ED700553B72A
:100A7600FEC2B8BD010553B7FED2B8BD020543B7E5
:0E0A860001C2B8BD030543B701D2B87F0022FC
:100A9400EFD3940140037FFF22EDD3940340037FFF
:100AA400FF22EF7004C2AA8002D2AAED700553B7E8
:100AB400FBC2BABD010553B7FBD2BABD020543B7A9
:0E0AC40004C2BABD030543B704D2BA7F0022B4
:100CA600EFD3940140037FFF22EFC454F0FFE58F9A
:080CB60054EF4FF58FE4FF221B
:100C8D00EFD3940140037FFF22EFC43354E0FFE51F
:090C9D008F54DF4FF58FE4FF22B4
:10000300EFD3940140037FFF22EFC4333354C0FF87
:0A001300E58F54BF4FF58FE4FF2284
:100AD200EFD3940140037FFF22EDD3940340037FC1
:100AE200FF22EF7004C2AD8002D2ADED700553B7A4
:100AF200DFC2BDBD010553B7DFD2BDBD020543B79D
:0E0B020020C2BDBD030543B720D2BD7F002237
:1007F800EDD3940340037FFF22EF30E10543E62069
:10080800800353E6DFEF30E00543E610800353E64C
:10081800EFED700653B6DF53B5DFBD010653B6DF03
:1008280043B520BD020643B62053B5DFBD030643DA
:08083800B62043B5207F002229
:10002600EFD3940140037FFF22EBD3940340037F79
:10003600FF22BF0112ED90FE817006E0547FF08032
:1000460011E04480F0800BEF700890FE83E0548747
:100056004DF0EB700653B6DF53B5DFBB010653B662
:10006600DF43B520BB020643B62053B5DFBB03060C
:0900760043B62043B5207F0022AF
:100B1000EFD3940140037FFF22EDD3940340037F82
:100B2000FF22EF7004C2AC8002D2ACED700553B767
:100B3000EFC2BCBD010553B7EFD2BCBD020543B740
:0E0B400010C2BCBD030543B710D2BC7F00221B
:10099A00EFD3940140037FFF22EDD3940340037FFA
:1009AA00FF22E5AF54FE4FF5AFED700653B6FE5386
:1009BA00B5FEBD010653B6FE43B501BD020643B6F8
:1009CA000153B5FEBD030643B60143B5017F0022BC
:10084000EFD3940140037FFF22EDD3940340037F55
:10085000FF22EF33333354F8FFE5AF54F74FF5AFD2
:10086000ED700653EEFE53DFFEBD010653EEFE4370
:10087000DF01BD020643EE0153DFFEBD030643EE7A
:070880000143DF017F0022AC
:1008CE00EFD3940140037FFF22EDD3940340037FC7
:1008DE00FF22EFC454F0FFE5AF54EF4FF5AFED70CC
:1008EE000653EEFD53DFFDBD010653EEFD43DF0261
:1008FE00BD020643EE0253DFFDBD030643EE024387
:05090E00DF027F002262
:10091300EFD3940140037FFF22EDD3940340037F81
:10092300FF22EF25E0FFE5AF54FD4FF5AFED700675
:1009330053B6FD53B5FDBD010653B6FD43B502BD28
:10094300020643B60253B5FDBD030643B60243B5E3
:04095300027F0022FD
:10073500EFD3948140037FFF22EBD3940340037FE3
:10074500FF22EF247F603004705890FEC4EDF0EB7B
:10075500700653B6FB53B5FBBB010653B6FB43B559
:1007650004BB020643B60453B5FBEB640370384380
:10077500B60443B504803090FEE4EDF0EB7006530B
:10078500B6F753B5F7BB010653B6F743B508BB0239
:100795000643B60853B5F7BB030D43B60843B50882
:0A07A500800590FEE4EDF07F0022D5
:100B8B00EDD394035026ED700653EEFB53DFFBBD04
:100B9B00010653EEFB43DF04BD020643EE0453DFB5
:100BAB00FBBD030B43EE0443DF0480037FFF229066
:070BBB00FE62EFF07F002253
:080096008F118B128A138914EB
:10009E00E5116401600302020CF51BF51CF51DF55C
:1000AE001EF51FF515F51674802516F582740035AC
:1000BE0015F583E4F00516E5167002051564804506
:1000CE001570E4E4F515F51674002516F582740026
:1000DE003515F583E4F00516E516700205156480F6
:1000EE00451570E4AB12AA13A914120597FFE598F3
:1000FE00543F4FF598EF64C06008EF644060030210
:10010E0001C19000021206CF7F807E8D7D5B7C0048
:10011E001206198F1A8E198D188C17E4FFFE7D01A9
:10012E00FCAB1AAA19A918A817C31206AB40037F75
:10013E00FF22C3E4951AF51AE49519F51974019581
:10014E0018F518E49517F517AB12AA13A914900019
:10015E00011205B0FB6401702CC28E538EFE5389C2
:10016E00BF5389CF438E40AF1AAE19AD18AC177876
:10017E00081206BC8F8D851A8BC2AB5389BF538F65
:10018E00FDD28E8062EB64027026538EEF438E0199
:10019E00538EF7438E04AF1AAE19AD18AC1778080C
:1001AE001206BC8FD6851AD753AFFB438E108037FD
:1001BE007FFF22AB12AA13A914120597FF7013909A
:1001CE0000081205B0B40105438E20801A538EDF4D
:1001DE008015EFB480119000081205B0B4010543EC
:1001EE008780800353877FAB12AA13A91490000750
:1001FE001205B07004C29C8002D29C7F0022E511D1
:10020E0064046003020340F520F521F522F523F581
:10021E0024F515F51674202516F58274013515F59D
:10022E0083E4F00516E51670020515642045157079
:10023E00E4E4F515F51674002516F58274013515EE
:10024E00F583E4F00516E5167002051564204515D4
:10025E0070E4AB12AA13A914120597FF64C06008CC
:10026E00EF64406003020323EFB4C0054384808033
:10027E000353847F9000021206CF7F807E8D7D5BBC
:10028E007C001206198F1A8E198D188C17E4FFFE3A
:10029E007D01FCAB1AAA19A918A817C31206AB4008
:1002AE00037FFF22C3E4951AF51AE49519F5197424
:1002BE00019518F518E49517F517AB12AA13A914A2
:1002CE009000011205B0FBB4041D438440AF1AAE7A
:1002DE0019AD18AC1778081206BC8FD2851AD353F5
:1002EE00D10F43D1A08031EB64027026538EEF53B1
:1002FE0084BF538EF7438E04AF1AAE19AD18AC17E8
:10030E0078081206BC8FD6851AD753AFFB438E10D2
:10031E0080067FFF227FFF22AB12AA13A914900042
:10032E00071205B0C454F0FFE58454EF4FF5847FF7
:04033E0000227FFF1B
:010342002298
:0A0CED008F99751D01E51D70FC22B2
:10007F00120597FF600C120CED740129F9E43AFA9E
:03008F0080EE22DE
:0A0CF7008F85752201E52270FC22B2
:100CBE00120597FF600C120CF7740129F9E43AFA49
:030CCE0080EE2293
:05001D00AE07020CED2E
:0300230002095778
:10095700C0E0C083C082C0D075D000C007309820E7
:10096700C298E51EC394804003751E00AF1E051E86
:1009770074002FF582E43400F583E599F0751F05BF
:10098700309905C299751D00D007D0D0D082D08389
:03099700D0E0327B
:030093000207AFB2
:1007AF00C0E0C083C082C0D075D000C007E58430E0
:1007BF00E0215384FEE523C394204003752300AF4B
:1007CF0023052374002FF582E43401F583E585F0CA
:1007DF00752405E58430E1065384FD752200D007AA
:0907EF00D0D0D082D083D0E032DA
:100C29007509037508037B007A0079087F031203AD
:100C39004375090C7508037B007A0079087F050262
:020C4900034363
:10088700750840750901750D00750CC2750B01756A
:100897000A00750F01E4F510FB7A0079087F011251
:1008A70000967B007A0079087F041200967D017F0D
:1008B70001120B107D017F011208CE53A23FE5BA4A
:0608C70054FB4404F5BAE5
:0108CD002208
:100C4B00E4F508E508C3951E501674002508F582D7
:100C5B00E43400F583E0F509FF120CF7050880E397
:010C6B002266
:100C6C00E4F508E508C39523501674002508F582B1
:100C7C00E43401F583E0F509FF120CED050880E37F
:010C8C002245
:100B4E00120C29120887D2AFE51FD394004010D59E
:100B5E001F0DE51ED394004003120C4BE4F51EE569
:100B6E0024D394004010D5240DE523D394004003E4
:0D0B7E00120C6CE4F5237F0A120CD180CB21
:03000000020CE10E
:0C0CE100787FE4F6D8FD758124020B4EEC
:10059700BB010689828A83E0225002E722BBFE0262
:0905A700E32289828A83E4932295
:1005B000BB010CE58229F582E5833AF583E0225000
:1005C00006E92582F8E622BBFE06E92582F8E2224A
:0D05D000E58229F582E5833AF583E4932264
:1005DD0075F008758200EF2FFFEE33FECD33CDCCD5
:1005ED0033CCC58233C5829BED9AEC99E582984058
:1005FD000CF582EE9BFEED9AFDEC99FC0FD5F0D635
:10060D00E4CEFBE4CDFAE4CCF9A88222B800C1B95E
:10061D000059BA002DEC8BF084CFCECDFCE5F0CB9C
:10062D00F97818EF2FFFEE33FEED33FDEC33FCEBD5
:10063D0033FB10D703994004EB99FB0FD8E5E4F990
:10064D00FA227818EF2FFFEE33FEED33FDEC33FC7D
:10065D00C933C910D7059BE99A4007EC9BFCE99A71
:10066D00F90FD8E0E4C9FAE4CCFB2275F010EF2FB6
:10067D00FFEE33FEED33FDCC33CCC833C810D707B6
:10068D009BEC9AE899400AED9BFDEC9AFCE899F8F1
:0E069D000FD5F0DAE4CDFBE4CCFAE4C8F92284
:1006AB00EB9FF5F0EA9E42F0E99D42F0E89C45F0A5
:0106BB00221C
:1006BC00E8600FECC313FCED13FDEE13FEEF13FF1C
:0306CC00D8F12240
:1006CF00BB010DE58229F582E5833AF58302070C1C
:1006DF005007E92582F80206FFBBFE07E92582F8DD
:1006EF00020718E58229F582E5833AF5830207258B
:0D06FF00E6FB08E6F908E6FA08E6CBF8226B
:0C070C00E0F8A3E0F9A3E0FAA3E0FB2270
:0D071800E2FB08E2F908E2FA08E2CBF82261
:10072500E493F8740193F9740293FA740393FB222A
:00000001FF
