:0200030022BA1F
:02000500239E38
:020007001B01DB
:020009001C6673
:03000B00020EC51D
:100EC000C2AF80FE32120EC485D00B75D008AAE0E6
:100ED000C28CE58A24F7F58AE58C34D8F58CD28C5F
:100EE000EC241AF8E6BC030274FFC39581B4140025
:100EF00040CE7904781116E608700BC2AFE630E1F7
:100F0000034418F6D2AF08D9EDEA8BD030000122A5
:100F1000D50DFCC0E0C0D0C0F0C083C082C000C00E
:100F200001C002C003C004C005C006C007E50C2311
:100F30002412F87440C2AF46F6D2AFD200E50CFFDF
:100F4000232412F80F0808BF04047F007812E6304B
:100F5000E4F200E50CC39F5020050C7419250CF831
:100F6000E6FDA68108E6AE0CBE030274FFCDF8E8EC
:100F70006D60E008E6C0E080F6E50CD39F4027E511
:100F80000C241AF8E6AE0CBE030274FFFD18E6CD81
:100F9000F8E5816D6006D0E0F61880F5E50C2419BF
:100FA000C8F6150C80D3750D05E50C232412F87FC7
:100FB00004C2AFE610E61E30E00310E20C7F003002
:050FC000E10730E3042D
:100FC5007F0854F4547CC6D2AF54804207C2002235
:100FD500F6D2AFD007D006D005D004D003D002D0CA
:100FE50001D000D082D083D0F0D0D0D0E0C2002292
:100FF5007819A68174036006FF0876FFDFFB7F047E
:10100500E47811F608F608DFFA78127630900003D6
:10101500740193C0E0E493C0E0750D054389017543
:0D1025008AF0758CD8D28CD2AFD2A92203EC
:0423690041028800A5
:10000E00E490020AF0A37403F07B017A02790A7F6E
:04001E00010211A327
:101AA00090020A7440F0A37401F0A31206AF000183
:101AB000C2009002117401F0E4A3F07B017A027974
:101AC0000A7F01120B957D017F01121FF153A23F86
:101AD00090020A7440F0A37402F0A31206AF000053
:101AE00025809002117401F0E4A3F07B017A027961
:101AF0000A7F02120B957D017F01121E6953BAFE07
:011B000022C2
:1023390043BA80121AA012000E1223771223B6D2C2
:02234900AF22C1
:1022BA001223397F011210327F021210327F031269
:0722CA001032E4FF0210BB1B
:050026007F020222D15F
:0523D7007F020222E775
:0C239E0012223B7D027F0212114480F4E9
:101B0100900004E0D39400404FE014F0704A90003C
:101B110003E0D39400403CE490021DF0900003E008
:101B2100FF90021DE0FEC39F5029740A2EF582E446
:101B31003400F583E0FF12235A90021DE0240AF5D8
:101B410082E43400F583E0FF12234B90021DE00490
:101B5100F080C9E4900003F07D027F0212114480FD
:011B61009FE4
:101C6600900009E0D39400403DE014F070389000F5
:101C760008E0D39400402AE490021EF0900008E0A9
:101C8600FF90021EE0FEC39F5017748A2EF582E471
:101C96003400F583E0FF12234B90021EE004F0802F
:0F1CA600DBE4900008F07D027F0212114480B150
:1011A300EFD3940740037FFF221203E5FED394039A
:1011B30040037FFF22EF7041EE700B90000112039A
:1011C300FEF4529352941203E5B4010B9000011202
:1011D30003FE4293F452941203E5FEB4020A900014
:1011E300011203FE42934294EEB4030D90000112E8
:1011F30003FEFEF45293EE4294EF64017043120334
:10120300E5FE700B9000011203FEF452915292EE30
:10121300B4010B9000011203FE4291F452921203A7
:10122300E5B4020A9000011203FE429142921203B6
:10123300E5B4030D9000011203FEFEF45291EE4259
:1012430092EF640270431203E5FE700B90000112EB
:1012530003FEF452955296EEB4010B900001120373
:10126300FE4295F452961203E5B4020A900001126D
:1012730003FE429542961203E5B4030D900001125A
:1012830003FEFEF45295EE4296EF6403704312039D
:10129300E5FE700B9000011203FEF452B152B2EE60
:1012A300B4010B9000011203FE42B1F452B21203D7
:1012B300E5B4020A9000011203FE42B142B21203E6
:1012C300E5B4030D9000011203FEFEF452B1EE42A9
:1012D300B2EF640470431203E5FE700B9000011239
:1012E30003FEF452B352B4EEB4010B9000011203A7
:1012F300FE42B3F452B41203E5B4020A90000112A1
:1013030003FE42B342B41203E5B4030D900001128D
:1013130003FEFEF452B3EE42B4EF640570431203CE
:10132300E5FE700B9000011203FEF452C952CAEE9F
:10133300B4010B9000011203FE42C9F452CA120316
:10134300E5B4020A9000011203FE42C942CA120325
:10135300E5B4030D9000011203FEFEF452C9EE4200
:10136300CAEF640670431203E5FE700B900001128E
:1013730003FEF452CB52CCEEB4010B9000011203E6
:10138300FE42CBF452CC1203E5B4020A90000112E0
:1013930003FE42CB42CC1203E5B4030D90000112CD
:1013A30003FEFEF452CBEE42CCEF6407704312030C
:1013B300E5FF700B9000011203FEF452E152E2EFDD
:1013C300B4010B9000011203FE42E1F452E2120356
:1013D300E5B4020A9000011203FE42E142E2120365
:1013E300E5B4030D9000011203FEFFF452E1EF4256
:0413F300E27F002273
:101BBF009000011203FEFFE5DE54F04FF5DE9000BA
:101BCF00021203FEC43354E0FFE5DE54DF4FF5DEAF
:101BDF001203E5FFD3941F502B9000031203FEFE58
:101BEF00D39401501F9000041203FEFDD3940350B1
:101BFF0013EDC43354E0FDEEC433333354804D4FF3
:051C0F0090FEA8F02288
:0C23AA00EFB4010443BC802253BC7F222E
:1019B700EFD3940F4002806BE4F5BDF5BEE5BC5450
:1019C700F044404FF5BC000000000000000000009C
:1019D700E4FDE5BC30E54753BCDFE5DEAFBD30E5F0
:1019E7000DEFFEACBEECFBEBFF90027E8022900277
:1019F7007EE4F0A3EFF0E5BEC4540FFBE0C4F85457
:101A07000FC868FF90027EE0C454F048FEEF4BFF1A
:101A1700EEF0A3EFF090027EE0FEA3E0FF220DEDD3
:071A2700B4FAAF7E107F004E
:011A2E002295
:03002B000223E1CC
:0423E10053BCDF32D8
:100B9500900214EBF0A3EAF0A3E9F0900213EFF052
:100BA50064016003020D73900000F0A3F0A3F0A3AD
:100BB500F0A3F0900217F0A3F0900217E0FEA3E077
:100BC500FFC39480EE9400501C740A2FF5827401C3
:100BD5003EF583E4F0900218E004F070DC90021713
:100BE500E004F080D4E4900217F0A3F0900217E03F
:100BF500FEA3E0FFC39480EE9400501C740A2FF509
:100C05008274003EF583E4F0900218E004F070DC95
:100C1500900217E004F080D4900214E0FBA3E0FA00
:100C2500A3E0F91203E5FFE598543F4FF598EF640B
:100C3500C06008EF64406003020D1E9000021206BA
:100C4500737F807E8D7D5B7C001205959002191265
:100C550006A3E4FFFE7D01FC900219E0F8A3E0F98C
:100C6500A3E0FAA3E0FBC312063540037FFF229001
:100C75000219E0F8A3E0F9A3E0FAA3E0FBC3E49BC3
:100C8500FFE49AFE740199FDE498FC90021912069E
:100C9500A3900214E0FBA3E0FAA3E0F9900001128F
:100CA50003FEFB64017038C28E538EFE5389BF5319
:100CB50089CF438E40900219E0FCA3E0FDA3E0FE3E
:100CC500A3E0FF78081206468F8D900219A3A3A30F
:100CD500E0F58BC2AB5389BF538FFDD28E8073EB8A
:100CE50064027032538EEF438E01538EF7438E04A8
:100CF500900219E0FCA3E0FDA3E0FEA3E0FF780865
:100D05001206468FD6900219A3A3A3E0F5D753AFD9
:100D1500FB438E10803C7FFF22900214E0FBA3E092
:100D2500FAA3E0F91203E5FF70139000081203FE21
:100D3500B40105438E20801A538EDF8015EFB480F1
:100D4500119000081203FEB4010543878080035308
:100D5500877F900214E0FBA3E0FAA3E0F990000777
:100D65001203FE7004C29C8002D29C7F0022900276
:100D750013E064026003020EBD900005F0A3F0A32A
:100D8500F0A3F0A3F0900217F0A3F0900217E0FE95
:100D9500A3E0FFC39480EE9400501C748A2FF58263
:100DA50074013EF583E4F0900218E004F070DC90E5
:100DB5000217E004F080D4E4900217F0A3F090024B
:100DC50017E0FEA3E0FFC39480EE9400501C748AE4
:100DD5002FF58274003EF583E4F0900218E004F0EC
:100DE50070DC900217E004F080D4900214E0FBA3BD
:100DF500E0FAA3E0F91203E5FF64C06008EF644080
:100E05006003020E9BEFB4C005439A808003539A9A
:100E15007F9000021206737F807E8D7D5B7C0012C1
:100E250005959002191206A3E4FFFE7D01FC9002D0
:100E350019E0F8A3E0F9A3E0FAA3E0FBC312063535
:100E450040037FFF22900219E0F8A3E0F9A3E0FA3E
:100E5500A3E0FBC3E49BFFE49AFE740199FDE498CB
:100E6500FC9002191206A3538EEF538EF7438E049E
:100E7500900219E0FCA3E0FDA3E0FEA3E0FF7808E3
:100E85001206468FD6900219A3A3A3E0F5D753AF58
:100E9500FB438E1080037FFF22900214E0FBA3E04A
:100EA500FAA3E0F99000071203FEC454F0FFE59A97
:0A0EB50054EF4FF59A7F00227FFFF3
:010EBF002210
:0F234B008F999000027401F0900002E070FA2266
:102313001203E5FF600C12234B740129F9E43AFA26
:0323230080EE2227
:0F235A008F9B9000077401F0900007E070FA224B
:102326001203E5FF600C12235A740129F9E43AFA04
:0323360080EE2214
:0523DC00AE0702234BD7
:03002300021CB507
:101CB500C0E0C083C082C0D075D000C0073098276F
:101CC500C298900003E0C394804002E4F0900003C2
:101CD500E0FF04F0740A2FF582E43400F583E599FA
:101CE500F09000047405F0309907C299900002E461
:0C1CF500F0D007D0D0D082D083D0E032F5
:03004300021C1488
:101C1400C0E0C083C082C0D075D000C007E59A3050
:101C2400E028539AFE900008E0C394804002E4F058
:101C3400900008E0FF04F0748A2FF582E43400F584
:101C440083E59BF09000097405F0E59A30E10853B0
:101C54009AFD900007E4F0D007D0D0D082D083D092
:021C6400E0326C
:101EAC00EFD3940140037FFF22EDD3940340037FD3
:101EBC00FF22EF7004C2A98002D2A9ED700553B7BE
:101ECC00FDC2B9EDB4010553B7FDD2B9EDB40205AD
:101EDC0043B702C2B9EDB4030543B702D2B97F00D0
:011EEC0022D3
:101EED00EFD3940140037FFF22EDD3940340037F92
:101EFD00FF22EF7004C2AB8002D2ABED700553B779
:101F0D00F7C2BBEDB4010553B7F7D2BBEDB4020573
:101F1D0043B708C2BBEDB4030543B708D2BB7F007E
:011F2D002291
:1021B800EFD3940140037FFF22EDD3940340037FC4
:1021C800FF22EF25E025E0FFE5AF54FB4FF5AFE434
:0221D800FF22E4
:1021DA00EFD3940140037FFF22EDD3940340037FA2
:1021EA00FF22EFC43354E0FFE5AF54DF4FF5AFE40D
:0221FA00FF22C2
:10219500EFD3940140037FFF22EDD3940340037FE7
:1021A500FF22EFC4333354C0FFE5AF54BF4FF5AF43
:0321B500E4FF2222
:101F2E00EFD3940140037FFF22EDD3940340037F50
:101F3E00FF22EF7004C2A88002D2A8ED700553B73D
:101F4E00FEC2B8EDB4010553B7FED2B8EDB402052A
:101F5E0043B701C2B8EDB4030543B701D2B87F0051
:011F6E002250
:101F6F00EFD3940140037FFF22EDD3940340037F0F
:101F7F00FF22EF7004C2AA8002D2AAED700553B7F8
:101F8F00FBC2BAEDB4010553B7FBD2BAEDB40205EB
:101F9F0043B704C2BAEDB4030543B704D2BA7F0006
:011FAF00220F
:1022A200EFD3940140037FFF22EFC454F0FFE58F88
:0822B20054EF4FF58FE4FF2209
:10227000EFD3940140037FFF22EFC43354E0FFE526
:092280008F54DF4FF58FE4FF22BB
:10225600EFD3940140037FFF22EFC4333354C0FF12
:0A226600E58F54BF4FF58FE4FF220F
:101FB000EFD3940140037FFF22EDD3940340037FCE
:101FC000FF22EF7004C2AD8002D2ADED700553B7B1
:101FD000DFC2BDEDB4010553B7DFD2BDEDB40205DC
:101FE00043B720C2BDEDB4030543B720D2BD7F0087
:011FF00022CE
:101D0100EDD3940340037FFF22EF30E10543E6204A
:101D1100800353E6DFEF30E00543E610800353E62E
:101D2100EFED700653B6DF53B5DFEDB4010653B6E0
:101D3100DF43B520EDB4020643B62053B5DFEDB461
:0B1D4100030643B62043B5207F0022BC
:101B6200EFD3940140037FFF22EBD3940340037F22
:101B7200FF22EFB40112ED90FE817006E0547FF077
:101B82008011E04480F0800BEF700890FE83E054F7
:101B9200874DF0EB700653B6DF53B5DFEBB40106A9
:101BA20053B6DF43B520EBB4020643B62053B5DF8C
:0D1BB200EBB4030643B62043B5207F0022AC
:101FF100EFD3940140037FFF22EDD3940340037F8D
:10200100FF22EF7004C2AC8002D2ACED700553B771
:10201100EFC2BCEDB4010553B7EFD2BCEDB402057C
:1020210043B710C2BCEDB4030543B710D2BC7F0067
:01203100228C
:101E6900EFD3940140037FFF22EDD3940340037F16
:101E7900FF22E5AF54FE4FF5AFED700653B6FE53A2
:101E8900B5FEEDB4010653B6FE43B501EDB4020645
:101E990043B60153B5FEEDB4030643B60143B5019C
:031EA9007F002295
:101D4C00EFD3940140037FFF22EDD3940340037F34
:101D5C00FF22EF33333354F8FFE5AF54F74FF5AFB1
:101D6C00ED700653EEFE53DFFEEDB4010653EEFEAE
:101D7C0043DF01EDB4020643EE0153DFFEEDB40385
:0A1D8C000643EE0143DF017F002251
:101D9600EFD3940140037FFF22EDD3940340037FEA
:101DA600FF22EFC454F0FFE5AF54EF4FF5AFED70EF
:101DB6000653EEFD53DFFDEDB4010653EEFD43DFA2
:101DC60002EDB4020643EE0253DFFDEDB403064313
:081DD600EE0243DF027F002250
:101DDE00EFD3940140037FFF22EDD3940340037FA2
:101DEE00FF22EF25E0FFE5AF54FD4FF5AFED700696
:101DFE0053B6FD53B5FDEDB4010653B6FD43B50222
:101E0E00EDB4020643B60253B5FDEDB4030643B678
:071E1E000243B5027F002220
:10193800EFD3948140037FFF22EBD3940340037FCE
:10194800FF22EF247F603204705D90FEC4EDF0EB5F
:10195800700653B6FB53B5FBEBB4010653B6FB4315
:10196800B504EBB4020643B60453B5FBEB6403704D
:101978003B43B60443B504803390FEE4EDF0EB70CE
:101988000653B6F753B5F7EBB4010653B6F743B5AC
:1019980008EBB4020643B60853B5F7EBB4030D439E
:0F19A800B60843B508800590FEE4EDF07F0022FD
:10203200EDD394035029ED700653EEFB53DFFBED15
:10204200B4010653EEFB43DF04EDB4020643EE0493
:1020520053DFFBEDB4030B43EE0443DF0480037F45
:0A206200FF2290FE62EFF07F0022E3
:10078300AD07ED6401707A90FECCE054FEF0E054C6
:10079300FBF090FEC8E054FCF01203E5FF90FEC8A6
:1007A300E0548F4FF09000061203FEFF90FECC3012
:1007B300E00DE04401F090FEB1E04401F0800BE075
:1007C30054FEF090FEB1E054FEF0EF90FECC30E129
:1007D3000DE04404F090FEB1E04402F0800BE054DD
:1007E300FBF090FEB1E054FDF09000031204D2E55B
:1007F300F090FED5F09000031204D290FED6020BC7
:100803003DED6402707A90FECCE054EFF0E054BF0B
:10081300F090FEC9E054FCF01203E5FF90FEC9E03E
:10082300548F4FF09000061203FEFF90FECC30E28F
:100833000DE04410F090FEB1E04404F0800BE0546E
:10084300EFF090FEB1E054FBF0EF90FECC30E30DFF
:10085300E04440F090FEB1E04408F0800BE054BF68
:10086300F090FEB1E054F7F09000031204D2E5F0EB
:1008730090FED7F09000031204D290FED8020B3DF5
:10088300ED6403707A90FECDE054FEF0E054FBF08B
:1008930090FECAE054FCF01203E5FF90FECAE05458
:1008A3008F4FF09000061203FEFF90FECD30E40D53
:1008B300E04401F090FEB1E04410F0800BE054FE00
:1008C300F090FEB1E054EFF0EF90FECD30E50DE097
:1008D3004404F090FEB1E04420F0800BE054FBF0C0
:1008E30090FEB1E054DFF09000031204D2E5F090E3
:1008F300FED9F09000031204D290FEDA020B3DED14
:100903006404707A90FECDE054EFF0E054BFF090B1
:10091300FECBE054FCF01203E5FF90FECBE0548FD6
:100923004FF09000061203FEFF90FECD30E60DE07F
:100933004410F090FEB1E04440F0800BE054EFF03F
:1009430090FEB1E054BFF0EF90FECD30E70DE044F0
:1009530040F090FEB1E04480F0800BE054BFF09093
:10096300FEB1E0547FF09000031204D2E5F090FE54
:10097300DBF09000031204D290FEDC020B3DED6429
:1009830080704F9000051203FE90FEDEF090000190
:100993001204D2E5F090FED2F09000011204D2903E
:1009A300FED3F09000081203FE90FEDDB40106E0D2
:1009B3004480F08004E0547FF09000071203FE901F
:1009C300FEC0B40106E04401F08004E054FEF07F71
:1009D3000022ED6405705690FEECE054FEF090FEAC
:1009E300E8E054FCF01203E5FF90FEE8E0548F4F7B
:1009F300F09000061203FE90FEEC30E00DE044019F
:100A0300F090FEB5E04401F0800BE054FEF090FE60
:100A1300B5E054FEF09000031204D2E5F090FEF529
:100A2300F09000031204D290FEF6020B3DED640633
:100A3300705690FEECE054EFF090FEE9E054FCF0C9
:100A43001203E5FF90FEE9E0548F4FF09000061289
:100A530003FE90FEEC30E20DE04410F090FEB5E0B2
:100A63004404F0800BE054EFF090FEB5E054FBF04B
:100A73009000031204D2E5F090FEF7F09000031209
:100A830004D290FEF8020B3DED6407705590FEED25
:100A9300E054FEF090FEEAE054FCF01203E5FF9010
:100AA300FEEAE0548F4FF09000061203FE90FEED35
:100AB30030E40DE04401F090FEB5E04410F0800B0B
:100AC300E054FEF090FEB5E054EFF0900003120402
:100AD300D2E5F090FEF9F09000031204D290FEFAF2
:100AE3008058ED6408705790FEEDE054EFF090FEEF
:100AF300EBE054FCF01203E5FF90FEEBE0548F4F64
:100B0300F09000061203FE90FEED30E60DE0441077
:100B1300F090FEB5E04440F0800BE054EFF090FE1F
:100B2300B5E054BFF09000031204D2E5F090FEFB51
:100B3300F09000031204D290FEFCF07F0022ED64DB
:100B430081704C9000051203FE90FEFEF0900001B0
:100B53001204D2FDACF0EC90FEF2F0AF05A3EFF07F
:100B63009000081203FE90FEFDB40106E04480F0FD
:100B73008004E0547FF09000071203FE90FEE0B47F
:100B83000106E04401F08004E054FEF07F00227F80
:020B9300FF223F
:1015FE00EF248070030216B91470030216FE2480C5
:10160E00B40800400302174A90162475F003A4C5CF
:10161E008325F0C5837302163C0216490216590241
:10162E0016690216790216890216990216A9120473
:10163E00A7FDACF0EC90FED5021744900002120408
:10164E00D2FDACF0EC90FED70217449000041204C9
:10165E00D2FDACF0EC90FED90217449000061204B5
:10166E00D2FDACF0EC90FEDB0217449000081204A1
:10167E00D2FDACF0EC90FEF502174490000A120475
:10168E00D2FDACF0EC90FEF702174490000C120461
:10169E00D2FDACF0EC90FEF902174490000E12044D
:1016AE00D2FDACF0EC90FEFB0217441204A7FDAC89
:1016BE00F0EC90FED5F0AF05A3EFF090000212040F
:1016CE00D2FDACF0EC90FED7F0AF05A3EFF090009A
:1016DE00041204D2FDACF0EC90FED9F0AF05A3EFEE
:1016EE00F09000061204D2FDACF0EC90FEDB8046CA
:1016FE009000081204D2FDACF0EC90FEF5F0AF05B0
:10170E00A3EFF090000A1204D2FDACF0EC90FEF7BD
:10171E00F0AF05A3EFF090000C1204D2FDACF0EC8C
:10172E0090FEF9F0AF05A3EFF090000E1204D2FD7B
:0D173E00ACF0EC90FEFBF0AF05A3EFF02245
:0D2377005393DF43942053B1EF43B2102283
:1022D100EF14600A14600A2402700AD2B422D28573
:0622E10022D2B4D28522D6
:1022E700EF14600A14600A2402700AC2B422C2857D
:0622F70022C2B4C28522E0
:04236D0041028900A0
:0723B60053B17F53B27F22F7
:10223B00A2B7E433FF900289E06F600EA2B7E433DC
:0B224B00F030B7030200261223D72258
:10002E009002807401F0A304F07B017A027980E4DF
:04003E00FF0211A309
:1020F500900279741FF0E490027CF0A304F0E49060
:10210500027AF0A304F0FB7A027979121BBF7F01F2
:092115001223AAE4FDFF021FB031
:0623CB0012002E0220F5B5
:0B18AD0090026BEBF0A3EAF0A3E9F05F
:1018B8007F091219B7AD07AC06E4120362E4FBFA1C
:1018C8007920784012013EE4FBFA798078451202CB
:1018D8004790026E1206A390026EE0FCA3E0FDA3FF
:1018E800E0FEA3E0FFE4FBFA7940784012013E9065
:1018F800026E1206A390026EE0FCA3E0FDA3E0FED8
:10190800A3E0FF7BCD7ACC794C783F12004D900252
:101918006E1206A390026EE0FCA3E0FDA3E0FEA316
:10192800E0FF90026BE0FBA3E0FAA3E0F90206599E
:0C238400750E03750F52D50FFDD50EFA33
:01239000222A
:0723BD0053B1BF43B24022FF
:10221E007FE87E03EF1FAC0670011ED39400EC64C2
:0C222E008094804007B2B612238480E840
:01223A002281
:0623C40075104ED510FD5E
:0123CA0022F0
:1020CA009002837408F09002827403F07B017A0212
:1020DA0079827F011211A39002837401F090028227
:0B20EA00F0FB7A0279827F040211A350
:0623D1001220CAC2932293
:0B174B00900272EBF0A3EAF0A3E9F0BB
:10175600E4FBFAA31206AF00000000D2931223C4E2
:101766001223C4C29320C00E1223C40BBB00010A6D
:10177600EB64284A70EF7C007D0AAF03AE021204C8
:101786005FC3EF9490EE94014003AF0322E4FAFBAB
:1017960030C00A1223C40BBB00010A80F3AE02AFAD
:1017A600037C007D2212045FAC06AD07E4120362DF
:1017B6007B0A7AD779A3783B12013E90027512060E
:1017C600A3900275E0FCA3E0FDA3E0FEA3E0FF907A
:1017D6000272E0FBA3E0FAA3E0F9120659E4FFFE69
:1017E600FD7C40900275E0F8A3E0F9A3E0FAA3E0DF
:1017F600FB1202E450037F0122E4FFFE7D167C44C7
:10180600900275E0F8A3E0F9A3E0FAA3E0FB120268
:0A181600E4600540037F02227F001A
:0118200022A5
:0523710042028400009F
:1022890053B37F53B47F5393BF5394BF53B1F353A5
:09229900B2F353C9FE53CAFE2240
:10206C00A2C7E43312042BA286E4339000011204BD
:10207C003DA2B2E43390000212043DA2B3E43390CB
:0F208C00000312043DA2C8E43390000402043D97
:101A2F00E4FFFEFDFC900286F0A3F030C70B2440CC
:101A3F00FFE433FE0DBD00010C30860C74202FFF28
:101A4F00E43EFE0DBD00010C30B2050DBD00010CD2
:101A5F0030B30D74E02FFF74FF3EFE0DBD00010C7F
:101A6F0030C80D74C02FFF74FF3EFE0DBD00010C7A
:101A7F00ED4C7009900284E0FEA3E0FF2212047186
:101A8F00900286EEF0A3EFF0900284EEF0A3EFF059
:011A9F002224
:0722FD00F91204D2FFAEF05C
:0F2304007C007D02120471EF2432FFE43EFE22C2
:0B13F70090021FEBF0A3EAF0A3E9F066
:101402009000021222FE90022BEEF0A3EFF0900267
:101412001FE0FBA3E0FAA3E09000061222FD900277
:101422002DEEF0A3EFF090021FE0FBA3E0FAA3E0A1
:101432009000041222FD90022FEEF0A3EFF0900232
:101442001FE0FBA3E0FAA3E0F91204A7FFAEF0123B
:101452002304900231EEF0A3EFF09002227460F0C8
:1014620090022BE0FEA3E0FFEE3395E0FDFCE47B6F
:10147200C07A5DF9F812050AE47B64FAF9F8121EE3
:1014820025900225EEF0A3EFF090021FE0FBA3E00F
:10149200FAA3E0F99000021204D245F07003FF8033
:1014A200027F03900228EFF07B017A0279227F010A
:1014B2001207839002227470F090022DE0FEA3E0E6
:1014C200FFEE3395E0FDFCE47BC07A5DF9F812058E
:1014D2000AE47B64FAF9F8121E25900225EEF0A3C5
:1014E200EFF090021FE0FBA3E0FAA3E0F990000600
:1014F2001204D245F07003FF80027F0C900228EFA5
:10150200F07B017A0279227F021207839002227411
:1015120060F090022FE0FEA3E0FFEE3395E0FDFCC9
:10152200E47BC07A5DF9F812050AE47B64FAF9F803
:10153200121E25900225EEF0A3EFF090021FE0FBB1
:10154200A3E0FAA3E0F99000041204D245F070037C
:10155200FF80027F30900228EFF07B017A0279222D
:101562007F031207839002227460F0900231E0FE42
:10157200A3E0FFEE3395E0FDFCE47BC07A5DF9F871
:1015820012050AE47B64FAF9F8121E25900225EE90
:10159200F0A3EFF090021FE0FBA3E0FAA3E0F91240
:1015A20004A745F07003FF80027FC0900228EFF08D
:1015B2007B017A0279227F04120783900223745DF1
:1015C200F0A374BFF0E4900227F090022A04F09096
:1015D2000229F0FB7A0279227F8012078390FEB201
:1015E200E054FC4401F0E054F34404F0E054CFF042
:0C15F200E0543FF0E4FBFD7F800219385C
:0D23910053910F53920F5395F05396F02285
:0323E5000223913F
:10211E00900243EEF0A3EFF0900247EEF0A3EFF043
:10212E00900245EEF0A3EFF0900249EEF0A3EFF02F
:09213E007B017A0279430213F7D8
:10209B00C3E49FFDE49EFC90024BF0A3EDF0900295
:1020AB004FECF0A3EDF090024DECF0A3EDF09002AD
:0F20BB0051ECF0A3EDF07B017A02794B0213F7A1
:10214700E4900253F0A3F0900257EEF0A3EFF0E40F
:10215700900255F0A3F0900259EEF0A3EFF07B0147
:072167007A0279530213F71D
:10216E0090025BEEF0A3EFF0E490025FF0A3F0902C
:10217E00025DEEF0A3EFF0E4900261F0A3F07B01BC
:07218E007A02795B0213F7EE
:1021FC00E4900263F0A3F0900267F0A3F090026504
:10220C00F0A3F0900269F0A3F07B017A02796302EB
:02221C0013F7B6
:10103200EFD3940340037FFF2274122F2FF8E62090
:10104200E5F4C2AFE64430F6D2AFAE0CEEC39F5029
:10105200210E74192EF8E6F908E618BE030274FF91
:10106200FDED69600909E71919F7090980F31616F8
:1010720080DAEED39F400405810581EED39F4022A2
:1010820074192EF808E6F9EEB50C02A981180606C5
:10109200E6FDED6960091919E70909F71980F31EE0
:1010A20080D9EF2419F8E604F8EF2F049000039397
:0910B200F608EF2F93F67F0022EF
:1010BB00EFD3940340037FFF22EF232412F8E63093
:1010CB00E5F4C2AFE6548CF6D2AFE50CB5070A7463
:1010DB00192FF8E6F581020F3B502E741A2FF8E604
:1010EB00BF030274FFFD18E6F974192FF8FBE6FC39
:1010FB00E96C6008A805E7F61D1980F4A803A6059E
:10110B001FE50CB507E37F0022741A2FF8E6FD18D4
:10111B0086010F74192FF8A601088604E50CB50794
:10112B0002AC81ED6C60080D09A805E6F780F4E5CB
:09113B000CB507DE89817F00225A
:101144008FF0E4FFFEE50C232411F8C2A930F70D5B
:101154007F08E6600B2DF660325030800730F106D0
:10116400EDF660277E020830F010C2AFE610E725E6
:101174000E30E20CD2AF7F048014C2AFE610E71544
:1011840054EC4EF6D2AFD2A9020F3B7F0808EF44CD
:0F11940083F4C2AF56C6D2AFD2A954804FFF2208
:100046000203D0E86480F8E933E83360110460F015
:10005600ED33EC337009E8FCE9FDEAFEEBFF220420
:1000660060DED3EB9FEA9EE99DE8C2E78CF0C2F71B
:1000760095F0400CE8CCF8E9CDF9EACEFAEBCFFBE7
:1000860012039B85D0F05804700320D5B3E80470A2
:10009600075002B2D50203DA92D5EC0460F7E4CC3D
:1000A600C0E0C398F8603B94186008400DD0E0FBB0
:1000B6000203B2E4FBFAC9FC8028E830E406E4C98E
:1000C600FBE4CAFCE830E305E4C9CACBFCE8540704
:1000D6006010F8C3E913F9EA13FAEB13FBEC13FC0F
:1000E600D8F130F52FC3E49CFCEF9BFFEE9AFEEDB2
:1000F60099FDD0E0FBEF4E4D4C701222DB0302035C
:10010600D7EC2CFCEF33FFEE33FEED33FDED30E79D
:10011600EB0203B2EF2BFFEE3AFEED39FDD0E0FB2A
:1001260050130BBB00030203DAED13FDEE13FEEFD3
:0801360013FFEC13FC0203B2FD
:10013E00EC4D6011E8497017ED33EC3304600DE4BB
:10014E00FCFFFEFD22E933E8330470F80203D012FF
:10015E00039B58046009E4CC248150062850090200
:10016E0003DA2840030203D7C0E0EB4A7044B9809B
:10017E0006D0E0FB0203C6EF4E701CBD8008EBFFFD
:10018E00EAFEE9FD80EBE98DF0A4FEE5F002022720
:10019E00E9CDF9EAFEEBFFEF89F0A4FCE5F0CE899C
:1001AE00F0A42EFFE435F0CD89F0A42DFEE435F059
:1001BE008067EF4E7005BD80D780C3EF8BF0A4AC87
:1001CE00F0EE8BF0A42CFCE435F0F8EF8AF0A42CC2
:1001DE00E5F038FCE433CB8DF0A42CFCE5F03BF8D5
:1001EE00EE8AF0A42CFCE5F038F8E433CF89F0A4C5
:1001FE002CFCE5F038CF3400CE89F0A42FFFE5F0CB
:10020E003EFEE433C98DF0A42EFEE5F039CD8AF022
:10021E00A42FFFE5F03EFEE43DFD33D0E0FB50079A
:10022E000BBB000F0203DAEC2CFCEF33FFEE33FEB8
:06023E00ED33FD0203B2E6
:100244000203DAEC5D046005E8590470030203D08C
:1002540012039B580460F6EC4860F2EC7004FDFE57
:10026400FF22C860DB2481C85009C398600250068D
:100274000203D79850CAF582E9294B4A7005AB822C
:100284000203C675F0007C1A7880C3EF9BEE9AEDEA
:1002940099400DC3EF9BFFEE9AFEED99FDE842F005
:1002A400DC23ACF0D0E0FFD0E0FED0E0FDAB822058
:1002B400E7101BEB60BAEC2CFCEF33FFEE33FEEDE2
:1002C40033FD0203B2E803F830E705C0F075F0002F
:1002D400EF2FFFEE33FEED33FD40B830E7C280AAC6
:1002E40074F8CC6480CCC86480C8F58204604FC3C1
:1002F400EB9FF5F0EA9E42F0E99D42F0E89C45F060
:10030400603C501DE5825FFFE582D313CB5BCBF4E9
:100314002B5582FB50280ABA002409B90020088012
:100324001DE5825BFBE582D313CF5FCFF4C3132FAC
:100334005582FF50090EBE00050DBD00010CC3EB34
:100344009FF5F0EA9E42F0E99D42F0E89C45F0609A
:0903540007CC4820E701B3EC22BC
:10035D0075F020800E75F010800575F0087D007E1B
:10036D00007F003392D530D503120627EC334010B1
:10037D00EF33FFEE33FEED33FDEC33FCD5F0ED2224
:0E038D00E5F0247EA2D513CC92E7CDCEFF2260
:10039B00E9D2E7C933E833F892D5EDD2E7CD33ECA8
:0703AB0033FC5002B2D52221
:1003B200EC30E7100FBF000C0EBE00080DBD0004AC
:1003C2000BEB6014A2D5EB13FCED92E7FD2274FF58
:1003D200FCFDFEFF22E480F8A2D574FF13FC7D80B1
:0303E200E480EFC5
:03000000021821C2
:0C182100787FE4F6D8FD7581200218687D
:1003E500BB010689828A83E0225002E722BBFE0216
:0903F500E32289828A83E4932249
:1003FE00BB010CE58229F582E5833AF583E02250B4
:10040E0006E92582F8E622BBFE06E92582F8E222FD
:0D041E00E58229F582E5833AF583E4932217
:10042B00BB010689828A83F0225002F722BBFE01B0
:02043B00F322AA
:10043D00F8BB010DE58229F582E5833AF583E8F0F5
:10044D00225006E92582C8F622BBFE05E92582C8A1
:02045D00F22289
:10045F00EF8DF0A4A8F0CF8CF0A428CE8DF0A42EB1
:02046F00FE226B
:10047100C2D5EC30E709B2D5E4C39DFDE49CFCEEA6
:1004810030E715B2D5E4C39FFFE49EFE1206E0C338
:10049100E49DFDE49CFC80031206E030D507C3E433
:0604A1009FFFE49EFE2215
:1004A700BB010A89828A83E0F5F0A3E02250068720
:1004B700F009E71922BBFE07E3F5F009E3192289E2
:0B04C700828A83E493F5F07401932215
:1004D200BB0110E58229F582E5833AF583E0F5F068
:1004E200A3E0225009E92582F886F008E622BBFE45
:1004F2000AE92582F8E2F5F008E222E5832AF5838B
:08050200E993F5F0A3E993224F
:10050A00E88FF0A4CC8BF0A42CFCE98EF0A42CFC90
:10051A008AF0EDA42CFCEA8EF0A4CDA8F08BF0A40E
:10052A002DCC3825F0FDE98FF0A42CCD35F0FCEB6D
:10053A008EF0A4FEA9F0EB8FF0A4CFC5F02ECD3932
:0F054A00FEE43CFCEAA42DCE35F0FDE43CFC229F
:1005590075F008758200EF2FFFEE33FECD33CDCC59
:1005690033CCC58233C5829BED9AEC99E5829840DC
:100579000CF582EE9BFEED9AFDEC99FC0FD5F0D6B9
:10058900E4CEFBE4CDFAE4CCF9A88222B800C1B9E3
:100599000059BA002DEC8BF084CFCECDFCE5F0CB21
:1005A900F97818EF2FFFEE33FEED33FDEC33FCEB5A
:1005B90033FB10D703994004EB99FB0FD8E5E4F915
:1005C900FA227818EF2FFFEE33FEED33FDEC33FC02
:1005D900C933C910D7059BE99A4007EC9BFCE99AF6
:1005E900F90FD8E0E4C9FAE4CCFB2275F010EF2F3B
:1005F900FFEE33FEED33FDCC33CCC833C810D7073B
:100609009BEC9AE899400AED9BFDEC9AFCE899F875
:0E0619000FD5F0DAE4CDFBE4CCFAE4C8F92208
:101E2500C2D5E830E70FB2D5E4C39BFBE49AFAE4E8
:101E350099F9E498F8EC30E717B2D5121E5B120554
:101E450095E4C39BFBE49AFAE499F9E498F88003D6
:101E550012059530D50DE4C39FFFE49EFEE49DFD7C
:041E6500E49CFC22DB
:0E062700C3E49FFFE49EFEE49DFDE49CFC22E4
:10063500EB9FF5F0EA9E42F0E99D42F0E89C45F01B
:010645002292
:10064600E8600FECC313FCED13FDEE13FEEF13FF92
:03065600D8F122B6
:10065900BB010789828A830206A35005E9F80207CC
:0A0669006BBBFE05E9F802077722DB
:10067300BB010DE58229F582E5833AF58302074242
:100683005007E92582F8020735BBFE07E92582F802
:1006930002074EE58229F582E5833AF58302075B7B
:0C06A300ECF0A3EDF0A3EEF0A3EFF022CA
:1006AF00A8828583F0D083D0821206C61206C612A6
:1006BF0006C61206C6E473E493A3C583C5F0C583CB
:1006CF00C8C582C8F0A3C583C5F0C583C8C582C895
:0106DF0022F8
:10182D00020FF5E493A3F8E493A34003F68001F2CD
:10183D0008DFF48029E493A3F85407240CC8C333BC
:10184D00C4540F4420C8834004F456800146F6DF8B
:10185D00E4800B0102040810204080902369E47E8F
:10186D00019360BCA3FF543F30E509541FFEE49380
:10187D00A360010ECF54C025E060A840B8E493A347
:10188D00FAE493A3F8E493A3C8C582C8CAC583CA72
:10189D00F0A3C8C582C8CAC583CADFE9DEE780BE2A
:012376000066
:1006E000BC000BBE0029EF8DF084FFADF022E4CCFE
:1006F000F875F008EF2FFFEE33FEEC33FCEE9DECC7
:10070000984005FCEE9DFE0FD5F0E9E4CEFD22ED0C
:10071000F8F5F0EE8420D21CFEADF075F008EF2F56
:10072000FFED33FD4007985006D5F0F222C398FD47
:050730000FD5F0EA22E4
:0D073500E6FB08E6F908E6FA08E6CBF82234
:0C074200E0F8A3E0F9A3E0FAA3E0FB223A
:0D074E00E2FB08E2F908E2FA08E2CBF8222B
:10075B00E493F8740193F9740293FA740393FB22F4
:0C076B00ECF608EDF608EEF608EFF622BA
:0C077700ECF208EDF208EEF208EFF222BE
:00000001FF
