:0F10E7007D607C09ED1D70011C144C70F7DFF16A
:0110F60022D7
:10042200EFD3940740037FFF22120676FED3940394
:1004320040037FFF22EF7041EE700B900001120625
:100442008FF452935294120676B4010B900001126B
:10045200068F4293F45294120676FEB4020A90007A
:100462000112068F42934294EEB4030D90000112E2
:10047200068FFEF45293EE4294EF6401704312062B
:1004820076FE700B90000112068FF452915292EE9A
:10049200B4010B90000112068F4291F4529212069F
:1004A20076B4020A90000112068F4291429212061D
:1004B20076B4030D90000112068FFEF45291EE42C3
:1004C20092EF64027043120676FE700B90000112E6
:1004D200068FF452955296EEB4010B90000112066B
:1004E2008F4295F45296120676B4020A90000112D7
:1004F200068F42954296120676B4030D90000112C1
:10050200068FFEF45295EE4296EF64037043120694
:1005120076FE700B90000112068FF452B152B2EEC9
:10052200B4010B90000112068F42B1F452B21206CE
:1005320076B4020A90000112068F42B142B212064C
:1005420076B4030D90000112068FFEF452B1EE4212
:10055200B2EF64047043120676FE700B9000011233
:10056200068FF452B352B4EEB4010B90000112069E
:100572008F42B3F452B4120676B4020A900001120A
:10058200068F42B342B4120676B4030D90000112F4
:10059200068FFEF452B3EE42B4EF640570431206C6
:1005A20076FE700B90000112068FF452C952CAEE09
:1005B200B4010B90000112068F42C9F452CA12060E
:1005C20076B4020A90000112068F42C942CA12068C
:1005D20076B4030D90000112068FFEF452C9EE426A
:1005E200CAEF64067043120676FE700B9000011289
:1005F200068FF452CB52CCEEB4010B9000011206DE
:100602008F42CBF452CC120676B4020A9000011249
:10061200068F42CB42CC120676B4030D9000011233
:10062200068FFEF452CBEE42CCEF64077043120603
:1006320076FF700B90000112068FF452E152E2EF46
:10064200B4010B90000112068F42E1F452E212064D
:1006520076B4020A90000112068F42E142E21206CB
:1006620076B4030D90000112068FFFF452E1EF42BF
:04067200E27F002201
:1000260090000212068F6401702A90FE80E0444020
:10003600F090FE82E4F0120676543FFF90FE80E0D8
:1000460054C04FF090000312068F90FE88B4010250
:100056008031802990FE80E054BFF090FE84E4F069
:1000660090000412068F25E0FF90FE85E054014FB4
:10007600F090000512068F90FE85B40106E054FE4E
:10008600F08004E04401F090000112068F90FE809B
:0C0096007005E0547FF022E04480F0226E
:0811810090FE82E05480FF2281
:0C114D0090FE82E030E6F9E054BFF02292
:09116F0090FE817401F002114DA3
:0E11240090FE86EFF090FE817402F002114DF5
:0610F70012116F1211241A
:0910FD0090FE817403F002114D14
:0F11060090FE817404F012114D90FE87E0FF22DD
:0E11320090FE82E4F090FE817405F002114DF3
:0F11150090FE827401F090FE817405F002114D7E
:0911780090FE817406F002114D95
:0D11400090FE86EDF090FE81EFF002114D63
:100FA1008B0A8A0B890CAE051210F7AF06121124B9
:100FB1001210FDAB0A050CE50CAA0B7002050B140F
:100FC100F9120676FF1211241210FDD50DE502115A
:010FD10078A7
:100F3000AE071210F7AF051211241210FD12116F37
:100F4000EE4401FF1211241210FD121106EF1206D9
:100F5000BC740129F9E43AFAE5386401600312111E
:0A0F600032D538E61211150211789F
:0300C300020AAB83
:100AAB00C0E0C083C082C0D075D000C006C0079024
:100ABB00FE84E030E606E054BFF0807A90FE84E0DE
:100ACB0030E535E054DFF0E5146005751400806601
:100ADB00E513600D75130090FE87E0F5152400807B
:100AEB003490FE87E0FFAE15051574002EF582E4F9
:100AFB003401F583EFF0803E90FE84E030E424E097
:100B0B0054EFF0E030E10890FE8674FFF08027058B
:100B1B001574002515F582E43401F583E090FE860B
:100B2B00F0801390FE84E030E30CE054F7F0751482
:100B3B0001751301D209D007D006D0D0D082D08353
:030B4B00D0E032C5
:1000030025642D25642D25642D25642D25642D253A
:0B001300642C5765656B3A25640A00F9
:1010A40075330275340C7B007A0079337F031204A4
:0710B4002253B1FC53B2FC12
:0110BB002212
:100FD2007533407534017538007537C27536017541
:100FE2003500753A01E4F53BFB7A0079337F011253
:0C0FF200085C7D017F01120EF253A23F4B
:010FFE0022D0
:100FFF00753501753401E4F53675330DFB7A0079DB
:10100F0033120026E4FBFD7F01120BC8E5BA54CF63
:04101F004430F5BAAA
:0110230022AA
:1009AA007522A275230243BA801210A4120FD21222
:1009BA000FFFD2AF7B007A007924753807AD23AFD9
:1009CA0022120F30E524C4540775F00AA4FFE52467
:1009DA00540F2FF52BE525C4540775F00AA4FFE53B
:1009EA0025540F2FF52CE526C4540375F00AA4FFED
:1009FA00E526540F2FF52DE527C4540375F00AA4F4
:100A0A00FFE527540F2FF52EE5285407F52FE52982
:100A1A00C4540175F00AA4FFE529540F2FF530E5F7
:100A2A0029C41313135401FDE52AC4540F75F00A9F
:100A3A00A4FFAEF0E52A540F7A002FF532EA3EF50C
:100A4A0031ED70067E077FD080047E087F34EF2563
:100A5A0032F532EE3531F5317BFF7A007903F5361E
:100A6A00853237753800853039753A00852E3B75E1
:100A7A003C00852D3D753E00852C3F754000852B39
:100A8A0041754200852F431201287FFA1210E77F31
:100A9A00FA1210E77FFA1210E77FFA1210E702093A
:010AAA00BE8D
:100DBC00EFD3940140037FFF22EDD3940340037FD4
:100DCC00FF22EF7004C2A98002D2A9ED700553B7BF
:100DDC00FDC2B9BD010553B7FDD2B9BD020543B77C
:0E0DEC0002C2B9BD030543B702D2B97F00228F
:100DFA00EFD3940140037FFF22EDD3940340037F96
:100E0A00FF22EF7004C2AB8002D2ABED700553B77C
:100E1A00F7C2BBBD010553B7F7D2BBBD020543B745
:0E0E2A0008C2BBBD030543B708D2BB7F002240
:10104700EFD3940140037FFF22EDD3940340037F46
:10105700FF22EF25E025E0FFE5AF54FB4FF5AFE4B6
:02106700FF2266
:10106900EFD3940140037FFF22EDD3940340037F24
:10107900FF22EFC43354E0FFE5AF54DF4FF5AFE48F
:02108900FF2244
:10102400EFD3940140037FFF22EDD3940340037F69
:10103400FF22EFC4333354C0FFE5AF54BF4FF5AFC5
:03104400E4FF22A4
:100E3800EFD3940140037FFF22EDD3940340037F57
:100E4800FF22EF7004C2A88002D2A8ED700553B744
:100E5800FEC2B8BD010553B7FED2B8BD020543B7FF
:0E0E680001C2B8BD030543B701D2B87F002216
:100E7600EFD3940140037FFF22EDD3940340037F19
:100E8600FF22EF7004C2AA8002D2AAED700553B702
:100E9600FBC2BABD010553B7FBD2BABD020543B7C3
:0E0EA60004C2BABD030543B704D2BA7F0022CE
:1010BC00EFD3940140037FFF22EFC454F0FFE58F80
:0810CC0054EF4FF58FE4FF2201
:10108B00EFD3940140037FFF22EFC43354E0FFE51D
:09109B008F54DF4FF58FE4FF22B2
:1000A200EFD3940140037FFF22EFC4333354C0FFE8
:0A00B200E58F54BF4FF58FE4FF22E5
:100EB400EFD3940140037FFF22EDD3940340037FDB
:100EC400FF22EF7004C2AD8002D2ADED700553B7BE
:100ED400DFC2BDBD010553B7DFD2BDBD020543B7B7
:0E0EE40020C2BDBD030543B720D2BD7F002252
:100C2100EDD3940340037FFF22EF30E10543E6203B
:100C3100800353E6DFEF30E00543E610800353E61F
:100C4100EFED700653B6DF53B5DFBD010653B6DFD6
:100C510043B520BD020643B62053B5DFBD030643AD
:080C6100B62043B5207F0022FC
:100BC800EFD3940140037FFF22EBD3940340037FCC
:100BD800FF22BF0112ED90FE817006E0547FF08085
:100BE80011E04480F0800BEF700890FE83E054879A
:100BF8004DF0EB700653B6DF53B5DFBB010653B6B5
:100C0800DF43B520BB020643B62053B5DFBB03065E
:090C180043B62043B5207F002201
:100EF200EFD3940140037FFF22EDD3940340037F9D
:100F0200FF22EF7004C2AC8002D2ACED700553B781
:100F1200EFC2BCBD010553B7EFD2BCBD020543B75A
:0E0F220010C2BCBD030543B710D2BC7F002235
:100D7C00EFD3940140037FFF22EDD3940340037F14
:100D8C00FF22E5AF54FE4FF5AFED700653B6FE53A0
:100D9C00B5FEBD010653B6FE43B501BD020643B612
:100DAC000153B5FEBD030643B60143B5017F0022D6
:100C6900EFD3940140037FFF22EDD3940340037F28
:100C7900FF22EF33333354F8FFE5AF54F74FF5AFA5
:100C8900ED700653EEFE53DFFEBD010653EEFE4343
:100C9900DF01BD020643EE0153DFFEBD030643EE4D
:070CA9000143DF017F00227F
:100CB000EFD3940140037FFF22EDD3940340037FE1
:100CC000FF22EFC454F0FFE5AF54EF4FF5AFED70E6
:100CD0000653EEFD53DFFDBD010653EEFD43DF027B
:100CE000BD020643EE0253DFFDBD030643EE0243A1
:050CF000DF027F00227D
:100CF500EFD3940140037FFF22EDD3940340037F9C
:100D0500FF22EF25E0FFE5AF54FD4FF5AFED70068F
:100D150053B6FD53B5FDBD010653B6FD43B502BD42
:100D2500020643B60253B5FDBD030643B60243B5FD
:040D3500027F002217
:100B4E00EFD3948140037FFF22EBD3940340037FC6
:100B5E00FF22EF247F603004705890FEC4EDF0EB5E
:100B6E00700653B6FB53B5FBBB010653B6FB43B53C
:100B7E0004BB020643B60453B5FBEB640370384363
:100B8E00B60443B504803090FEE4EDF0EB700653EE
:100B9E00B6F753B5F7BB010653B6F743B508BB021C
:100BAE000643B60853B5F7BB030D43B60843B50865
:0A0BBE00800590FEE4EDF07F0022B8
:100F6A00EDD394035026ED700653EEFB53DFFBBD21
:100F7A00010653EEFB43DF04BD020643EE0453DFD2
:100F8A00FBBD030B43EE0443DF0480037FFF229083
:070F9A00FE62EFF07F002270
:06085C008B3C8A3D893E41
:10086200EF640160030209A7F50EF50FF510F5110B
:10087200F512FF7E80900080E4F0A3DEFCE4FF7EB0
:1008820080900000E4F0A3DEFC7E00AB3CAA3DA910
:100892003E120676FFE598543F4FF598EF64C0602C
:1008A20008EF6440600302095C9000021207C07FF7
:1008B200807E8D7D5B7C0012070A8F428E418D40C7
:1008C2008C3FE4FFFE7D01FCAB42AA41A940A83F58
:1008D200C312079C40037FFF22C3E49542F542E422
:1008E2009541F54174019540F540E4953FF53FABE4
:1008F2003CAA3DA93E90000112068FFB6401702CB8
:10090200C28E538EFE5389BF5389CF438E40AF426E
:10091200AE41AD40AC3F78081207AD8F8D85428B5A
:10092200C2AB5389BF538FFDD28E8062EB640270DB
:1009320026538EEF438E01538EF7438E04AF42AEA1
:1009420041AD40AC3F78081207AD8FD68542D753F0
:10095200AFFB438E1080377FFF22AB3CAA3DA93EFE
:10096200120676FF701390000812068FB401054339
:100972008E20801A538EDF8015EFB480119000080C
:1009820012068FB40105438780800353877FAB3CF7
:10099200AA3DA93E90000712068F7004C29C8002F5
:0709A200D29C7F00227FFFC1
:0109A900222B
:0A1165008F99751001E51070FC224F
:1010D400120676FF600C121165740129F9E43AFADC
:0310E40080EE2279
:05001E00AE07021165B0
:03002300020D3992
:100D3900C0E0C083C082C0D075D000C00730982001
:100D4900C298E511C394804003751100AF110511D4
:100D590074002FF582E43400F583E599F0751205E6
:100D6900309905C299751000D007D0D0D082D083B0
:030D7900D0E03295
:0300000002115991
:0C115900787FE4F6D8FD7581460209AAF3
:10067600BB010689828A83E0225002E722BBFE0282
:09068600E32289828A83E49322B5
:10068F00BB010CE58229F582E5833AF583E0225020
:10069F0006E92582F8E622BBFE06E92582F8E2226A
:0D06AF00E58229F582E5833AF583E4932284
:1006BC00BB010689828A83F0225002F722BBFE011D
:0206CC00F32217
:1006CE0075F008758200EF2FFFEE33FECD33CDCCE3
:1006DE0033CCC58233C5829BED9AEC99E582984066
:1006EE000CF582EE9BFEED9AFDEC99FC0FD5F0D643
:1006FE00E4CEFBE4CDFAE4CCF9A88222B800C1B96D
:10070E000059BA002DEC8BF084CFCECDFCE5F0CBAA
:10071E00F97818EF2FFFEE33FEED33FDEC33FCEBE3
:10072E0033FB10D703994004EB99FB0FD8E5E4F99E
:10073E00FA227818EF2FFFEE33FEED33FDEC33FC8B
:10074E00C933C910D7059BE99A4007EC9BFCE99A7F
:10075E00F90FD8E0E4C9FAE4CCFB2275F010EF2FC4
:10076E00FFEE33FEED33FDCC33CCC833C810D707C4
:10077E009BEC9AE899400AED9BFDEC9AFCE899F8FF
:0E078E000FD5F0DAE4CDFBE4CCFAE4C8F92292
:10079C00EB9FF5F0EA9E42F0E99D42F0E89C45F0B3
:0107AC00222A
:1007AD00E8600FECC313FCED13FDEE13FEEF13FF2A
:0307BD00D8F1224E
:1007C000BB010DE58229F582E5833AF5830207FD39
:1007D0005007E92582F80207F0BBFE07E92582F8F9
:1007E000020809E58229F582E5833AF583020816B5
:1000C600E5422436F8E605422278333007027836D0
:1000D600E475F0011208260206762000EB7F2ED288
:1000E600008018EF540F2490D43440D4FF30040B12
:1000F600EF24BFB41A0050032461FFE543600215E4
:10010600430546E5467002054530070D7833E4752C
:10011600F001120826EF0206BC02001E7403D20785
:100126008003E4C207F5428B338A348935E4F5430C
:10013600F545F546E54360077F2012010180F57518
:1001460044FFC201C200C202C203C205C206C208FF
:100156001200CFFF700D3007057F00120112AF4667
:10016600AE4522B4255FC2D5C2041200CFFF24D00B
:10017600B40A00501A75F00A784330D50508B6FF60
:100186000106C6A426F620D5047002D20380D9241F
:10019600CFB41A00EF5004C2E5D204020312D20112
:1001A60080C6D20080C0D20280BCD2D580BAD20529
:1001B60080B47F201201012002077401B54300407C
:1001C600F11200C6FF12010102013AD208D20680DE
:1001D600951200C6FB1200C6FA1200C6F94A4B7009
:1001E6000679E37A037BFF20022EE543602A7E0030
:1001F6008E8275830012068F60060EEE654470F0DF
:10020600C2D5EBC0E0EAC0E0E9C0E0EE120359D087
:10021600E0F9D0E0FAD0E0FB120676FF60AAEBC068
:10022600E0EAC0E0E9C0E0120101D0E02401F9D023
:10023600E03400FAD0E0FBE5440460DCD544D98024
:10024600877BFF7A037955D202809C7910800279E8
:1002560008C206C2088008D2D5790A8004790AC283
:10026600D5E544047002F544E4FAFDFEFF1200C62B
:10027600FC7B082001131200C6FD7B1030000A1219
:1002860000C6FE1200C6FF7B20EC3382D592D55005
:1002960013C3E43000069FFFE49EFEE42001039DA5
:1002A600FDE49CFCE4CBF8C201EC700CCFCECDCCC7
:1002B600E824F8F870F38017C3EF33FFEE33FEED52
:1002C60033FDEC33FCEB33FB994002FB0FD8E9EB33
:1002D600300105F8D0E0C448B201C0E00AEC4D4E4A
:1002E6004F78207B0070C2EAB5440040BCC0E012E3
:1002F600035BD0F0D0E0200104C4C0E0C4B201C06A
:10030600F01200EAD0F0D5F0EB02013A12083601FD
:10031600D75302515801A84C01A44202554F025D21
:0F03260044025D4901BD43026355024746024749
:100335004502474704035001AC2D01B02E01D32BD4
:1003450001B42301D12003EC2A016C48000001CB44
:100355003F3F3F00790AA2D5200314300509B910A3
:10036500020404B9080104A2D520060250010420A4
:1003750002689202B543005034C0E07F2030031973
:100385007F30A20272067205500F1203B2C202C27A
:1003950006C205C2087F30800F300503E9C0E012B0
:1003A5000101300503D0E0F9D0E0B543CC300517A5
:1003B5007F30B9100C1201017F583004077F788017
:1003C50003B908031201013002057F2D0201017FE7
:1003D500202008F87F2B2006F322920280CF286E7A
:1003E500756C6C2900D2011200C63001F8C2017883
:1003F5004330D50108F602016C2D504349581200CF
:10040500C62403B405004001E49003FE931200F2F4
:0D041500743A1200F2D20375430402025142
:0D07F000E6FB08E6F908E6FA08E6CBF82279
:0C07FD00E0F8A3E0F9A3E0FAA3E0FB227F
:0D080900E2FB08E2F908E2FA08E2CBF8226F
:10081600E493F8740193F9740293FA740393FB2238
:10082600FAE6FB0808E6F925F0F618E6CA3AF622D3
:10083600D083D082F8E4937012740193700DA3A351
:1008460093F8740193F5828883E473740293686065
:06085600EFA3A3A380DF65
:00000001FF
