:02285D0028034E
:02285F00283718
:022861001CEA6F
:03000B000211FDE2
:1011F800C2AF80FE321211FC85D00B75D008AAE070
:10120800C28CE58A24F7F58AE58C34D8F58CD28C23
:10121800EC241CF8E6BC020274FFC39581B41400E8
:1012280040CE7903782316E608700BC2AFE630E1AA
:10123800034418F6D2AF08D9EDEA8BD03012012258
:10124800D50DFCC0E0C0D0C0F0C083C082C000C0D3
:1012580001C002C003C004C005C006C007E50C23D6
:101268002424F87440C2AF46F6D2AFD212E50CFF80
:10127800232424F80F0808BF03047F007824E630ED
:10128800E4F200E50CC39F5020050C741B250CF8F4
:10129800E6FDA68108E6AE0CBE020274FFCDF8E8B2
:1012A8006D60E008E6C0E080F6E50CD39F4027E5D6
:1012B8000C241CF8E6AE0CBE020274FFFD18E6CD45
:1012C800F8E5816D6006D0E0F61880F5E50C241B82
:1012D800C8F6150C80D3750D05E50C232424F87F7A
:1012E80004C2AFE610E61E30E00310E20C7F0030C7
:0512F800E10730E304F2
:1012FD007F0854F4547CC6D2AF54804207C21222E8
:10130D00F6D2AFD007D006D005D004D003D002D08E
:10131D0001D000D082D083D0F0D0D0D0E0C2122244
:10132D00781BA68174026006FF0876FFDFFB7F0342
:10133D00E47823F608F608DFFA7824763090285DF5
:10134D00740193C0E0E493C0E0750D054389017508
:0D135D008AF0758CD8D28CD2AFD2A92202B2
:10222F00C6F4D3C3D1B2CFDF0A00B9D8B1D5D1B27A
:10223F00CFDF0A00706F733A2025640A004D6F7468
:10224F006F725F6C6566740A004D6F746F725F72A8
:10225F00696768740A004D6F746F725F666F72778B
:05226F006172640A0029
:0427F5004101AB00F3
:1024F4009001057440F0A37401F0A312084900018F
:10250400C20090010C7401F0E4A3F07B017A01791C
:10251400057F011219367D017F0112244053A23F29
:012524002294
:1026D70043BA801224F4122810120003122863123E
:0E26E700284F122869122760122878D2AF22DD
:0D2803001226D77F0112136AE4FF0213F3BF
:1024BB007F021227919001ABE07BFF700E7A22799D
:1024CB002F1209CE7F0212136A800C7A22793912ED
:1024DB0009CE7F021213F39001ABE070047F0180F1
:0924EB00027F009001ABEFF0222A
:050026007F020227A784
:0C2837001227127D027F0212147C80F434
:101CEA00E4900145F0A3F0A374FFF0A374F6F01298
:101CFA001F9C900145EEF0A3EFF0A3E0B5060EA3FA
:101D0A00E0B507097D027F0212147C80E29001454A
:101D1A00E0FEA3E0FFA3EEF0A3EFF07BFF7A2279C7
:101D2A004390014CEEF0A3EFF01209CEC3900145A7
:101D3A00E06480948050127BFF7A22794C1209CE9B
:101D4A007F3C7E001226008031D3900146E0940049
:101D5A00900145E0648094807BFF40107A22795894
:101D6A001209CE7F3C7E00122627800E7A227965E0
:101D7A001209CE7F467E001225D77D047F021214F7
:041D8A007C021CF9C2
:1014DB00EFD3940740037FFF2212057FFED39403C3
:1014EB0040037FFF22EF7041EE700B90000112055D
:1014FB0098F45293529412057FB4010B9000011291
:10150B0005984293F4529412057FFEB4020A9000A0
:10151B000112059842934294EEB4030D9000011210
:10152B000598FEF45293EE4294EF6401704312055A
:10153B007FFE700B900001120598F452915292EEBF
:10154B00B4010B9000011205984291F452921205CE
:10155B007FB4020A90000112059842914292120543
:10156B007FB4030D900001120598FEF45291EE42E8
:10157B0092EF6402704312057FFE700B9000011214
:10158B000598F452955296EEB4010B90000112059A
:10159B00984295F4529612057FB4020A90000112FC
:1015AB0005984295429612057FB4030D90000112E7
:1015BB000598FEF45295EE4296EF640370431205C4
:1015CB007FFE700B900001120598F452B152B2EEEF
:1015DB00B4010B90000112059842B1F452B21205FE
:1015EB007FB4020A90000112059842B142B2120573
:1015FB007FB4030D900001120598FEF452B1EE4238
:10160B00B2EF6404704312057FFE700B9000011261
:10161B000598F452B352B4EEB4010B9000011205CD
:10162B009842B3F452B412057FB4020A900001122F
:10163B00059842B342B412057FB4030D900001121A
:10164B000598FEF452B3EE42B4EF640570431205F5
:10165B007FFE700B900001120598F452C952CAEE2E
:10166B00B4010B90000112059842C9F452CA12053D
:10167B007FB4020A90000112059842C942CA1205B2
:10168B007FB4030D900001120598FEF452C9EE428F
:10169B00CAEF6406704312057FFE700B90000112B7
:1016AB000598F452CB52CCEEB4010B90000112050D
:1016BB009842CBF452CC12057FB4020A900001126F
:1016CB00059842CB42CC12057FB4030D900001125A
:1016DB000598FEF452CBEE42CCEF64077043120533
:1016EB007FFF700B900001120598F452E152E2EF6C
:1016FB00B4010B90000112059842E1F452E212057D
:10170B007FB4020A90000112059842E142E21205F1
:10171B007FB4030D900001120598FFF452E1EF42E4
:04172B00E27F002237
:10206A00900001120598FFE5DE54F04FF5DE90006E
:10207A0002120598C43354E0FFE5DE54DF4FF5DE63
:10208A0012057FFFD3941F502B900003120598FE70
:10209A00D39401501F900004120598FDD394035065
:1020AA0013EDC43354E0FDEEC433333354804D4F43
:0520BA0090FEA8F022D9
:0C284300EFB4010443BC802253BC7F2290
:101F2400EFD3940F4002806BE4F5BDF5BEE5BC54DD
:101F3400F044404FF5BC0000000000000000000029
:101F4400E4FDE5BC30E54753BCDFE5DEAFBD30E57D
:101F54000DEFFEACBEECFBEBFF9001A780229001DD
:101F6400A7E4F0A3EFF0E5BEC4540FFBE0C4F854BB
:101F74000FC868FF9001A7E0C454F048FEEF4BFF80
:101F8400EEF0A3EFF09001A7E0FEA3E0FF220DED39
:071F9400B4FAAF7E107F00DC
:011F9B002223
:03002B0002287434
:0428740053BCDF3240
:0B19360090010EEBF0A3EAF0A3E9F033
:10194100EF64016003021AC4900000F0A3F0A3F059
:10195100A3F0A3F0FF7E80900085E4F0A3DEFCE419
:10196100FF7E80900005E4F0A3DEFC7E0090010E76
:10197100E0FBA3E0FAA3E0F912057FFFE598543FED
:101981004FF598EF64C06008EF64406003021A6F7E
:1019910090000212080D7F807E8D7D5B7C00120716
:1019A1002F90011112083DE4FFFE7D01FC90011111
:1019B100E0F8A3E0F9A3E0FAA3E0FBC31207CF40EC
:1019C100037FFF22900111E0F8A3E0F9A3E0FAA35D
:1019D100E0FBC3E49BFFE49AFE740199FDE498FCEB
:1019E10090011112083D90010EE0FBA3E0FAA3E083
:1019F100F9900001120598FB64017038C28E538E74
:101A0100FE5389BF5389CF438E40900111E0FCA35F
:101A1100E0FDA3E0FEA3E0FF78081207E08F8D90C0
:101A21000111A3A3A3E0F58BC2AB5389BF538FFD73
:101A3100D28E8073EB64027032538EEF438E01536A
:101A41008EF7438E04900111E0FCA3E0FDA3E0FEBC
:101A5100A3E0FF78081207E08FD6900111A3A3A39A
:101A6100E0F5D753AFFB438E10803C7FFF229001FE
:101A71000EE0FBA3E0FAA3E0F912057FFF701390DB
:101A81000008120598B40105438E20801A538EDF99
:101A91008015EFB48011900008120598B401054338
:101AA1008780800353877F90010EE0FBA3E0FAA3B8
:101AB100E0F99000071205987004C29C8002D29C44
:051AC1007F00227FFF01
:011AC60022FD
:0F27E6008F999000027401F0900002E070FA22C7
:1027D30012057FFF600C1227E6740129F9E43AFA27
:0327E30080EE2263
:05286F00AE070227E6A0
:030023000220BFF9
:1020BF00C0E0C083C082C0D075D000C00730982761
:1020CF00C298900003E0C394804002E4F0900003B4
:1020DF00E0FF04F074052FF582E43400F583E599F1
:1020EF00F09000047405F0309907C299900002E453
:0C20FF00F0D007D0D0D082D083D0E032E7
:1022FB00EFD3940140037FFF22EDD3940340037F80
:10230B00FF22EF7004C2A98002D2A9ED700553B76A
:10231B00FDC2B9EDB4010553B7FDD2B9EDB4020559
:10232B0043B702C2B9EDB4030543B702D2B97F007C
:01233B00227F
:10233C00EFD3940140037FFF22EDD3940340037F3E
:10234C00FF22EF7004C2AB8002D2ABED700553B725
:10235C00F7C2BBEDB4010553B7F7D2BBEDB4020520
:10236C0043B708C2BBEDB4030543B708D2BB7F002B
:01237C00223E
:10267100EFD3940140037FFF22EDD3940340037F06
:10268100FF22EF25E025E0FFE5AF54FB4FF5AFE476
:02269100FF2226
:10269300EFD3940140037FFF22EDD3940340037FE4
:1026A300FF22EFC43354E0FFE5AF54DF4FF5AFE44F
:0226B300FF2204
:10264E00EFD3940140037FFF22EDD3940340037F29
:10265E00FF22EFC4333354C0FFE5AF54BF4FF5AF85
:03266E00E4FF2264
:10237D00EFD3940140037FFF22EDD3940340037FFD
:10238D00FF22EF7004C2A88002D2A8ED700553B7EA
:10239D00FEC2B8EDB4010553B7FED2B8EDB40205D7
:1023AD0043B701C2B8EDB4030543B701D2B87F00FE
:0123BD0022FD
:1023BE00EFD3940140037FFF22EDD3940340037FBC
:1023CE00FF22EF7004C2AA8002D2AAED700553B7A5
:1023DE00FBC2BAEDB4010553B7FBD2BAEDB4020598
:1023EE0043B704C2BAEDB4030543B704D2BA7F00B3
:0123FE0022BC
:10277900EFD3940140037FFF22EFC454F0FFE58FAC
:0827890054EF4FF58FE4FF222D
:10274700EFD3940140037FFF22EFC43354E0FFE54A
:092757008F54DF4FF58FE4FF22DF
:10272D00EFD3940140037FFF22EFC4333354C0FF36
:0A273D00E58F54BF4FF58FE4FF2233
:1023FF00EFD3940140037FFF22EDD3940340037F7B
:10240F00FF22EF7004C2AD8002D2ADED700553B75D
:10241F00DFC2BDEDB4010553B7DFD2BDEDB4020588
:10242F0043B720C2BDEDB4030543B720D2BD7F0033
:01243F00227A
:10210B00EDD3940340037FFF22EF30E10543E6203C
:10211B00800353E6DFEF30E00543E610800353E620
:10212B00EFED700653B6DF53B5DFEDB4010653B6D2
:10213B00DF43B520EDB4020643B62053B5DFEDB453
:0B214B00030643B62043B5207F0022AE
:10200D00EFD3940140037FFF22EBD3940340037F72
:10201D00FF22EFB40112ED90FE817006E0547FF0C7
:10202D008011E04480F0800BEF700890FE83E05447
:10203D00874DF0EB700653B6DF53B5DFEBB40106F9
:10204D0053B6DF43B520EBB4020643B62053B5DFDC
:0D205D00EBB4030643B62043B5207F0022FC
:10244000EFD3940140037FFF22EDD3940340037F39
:10245000FF22EF7004C2AC8002D2ACED700553B71E
:10246000EFC2BCEDB4010553B7EFD2BCEDB4020529
:1024700043B710C2BCEDB4030543B710D2BC7F0014
:012480002239
:1022B800EFD3940140037FFF22EDD3940340037FC3
:1022C800FF22E5AF54FE4FF5AFED700653B6FE534F
:1022D800B5FEEDB4010653B6FE43B501EDB40206F2
:1022E80043B60153B5FEEDB4030643B60143B50149
:0322F8007F002242
:10215600EFD3940140037FFF22EDD3940340037F26
:10216600FF22EF33333354F8FFE5AF54F74FF5AFA3
:10217600ED700653EEFE53DFFEEDB4010653EEFEA0
:1021860043DF01EDB4020643EE0153DFFEEDB40377
:0A2196000643EE0143DF017F002243
:1021A000EFD3940140037FFF22EDD3940340037FDC
:1021B000FF22EFC454F0FFE5AF54EF4FF5AFED70E1
:1021C0000653EEFD53DFFDEDB4010653EEFD43DF94
:1021D00002EDB4020643EE0253DFFDEDB403064305
:0821E000EE0243DF027F002242
:1021E800EFD3940140037FFF22EDD3940340037F94
:1021F800FF22EF25E0FFE5AF54FD4FF5AFED700688
:1022080053B6FD53B5FDEDB4010653B6FD43B50213
:10221800EDB4020643B60253B5FDEDB4030643B66A
:072228000243B5027F002212
:101EA500EFD3948140037FFF22EBD3940340037F5C
:101EB500FF22EF247F603204705D90FEC4EDF0EBED
:101EC500700653B6FB53B5FBEBB4010653B6FB43A3
:101ED500B504EBB4020643B60453B5FBEB640370DB
:101EE5003B43B60443B504803390FEE4EDF0EB705C
:101EF5000653B6F753B5F7EBB4010653B6F743B53A
:101F050008EBB4020643B60853B5F7EBB4030D432B
:0F1F1500B60843B508800590FEE4EDF07F00228A
:10248100EDD394035029ED700653EEFB53DFFBEDC2
:10249100B4010653EEFB43DF04EDB4020643EE0440
:1024A10053DFFBEDB4030B43EE0443DF0480037FF2
:0A24B100FF2290FE62EFF07F002290
:100DE600AD07ED6401707A90FECCE054FEF0E0545D
:100DF600FBF090FEC8E054FCF012057FFF90FEC8A1
:100E0600E0548F4FF0900006120598FF90FECC300C
:100E1600E00DE04401F090FEB1E04401F0800BE00B
:100E260054FEF090FEB1E054FEF0EF90FECC30E1BF
:100E36000DE04404F090FEB1E04402F0800BE05473
:100E4600FBF090FEB1E054FDF090000312066CE555
:100E5600F090FED5F090000312066C90FED60211BB
:100E6600A0ED6402707A90FECCE054EFF0E054BF3F
:100E7600F090FEC9E054FCF012057FFF90FEC9E039
:100E8600548F4FF0900006120598FF90FECC30E28A
:100E96000DE04410F090FEB1E04404F0800BE05405
:100EA600EFF090FEB1E054FBF0EF90FECC30E30D96
:100EB600E04440F090FEB1E04408F0800BE054BFFF
:100EC600F090FEB1E054F7F090000312066CE5F0E6
:100ED60090FED7F090000312066C90FED80211A087
:100EE600ED6403707A90FECDE054FEF0E054FBF022
:100EF60090FECAE054FCF012057FFF90FECAE05453
:100F06008F4FF0900006120598FF90FECD30E40D4D
:100F1600E04401F090FEB1E04410F0800BE054FE96
:100F2600F090FEB1E054EFF0EF90FECD30E50DE02D
:100F36004404F090FEB1E04420F0800BE054FBF056
:100F460090FEB1E054DFF090000312066CE5F090DD
:100F5600FED9F090000312066C90FEDA0211A0EDA5
:100F66006404707A90FECDE054EFF0E054BFF09048
:100F7600FECBE054FCF012057FFF90FECBE0548FD1
:100F86004FF0900006120598FF90FECD30E60DE07A
:100F96004410F090FEB1E04440F0800BE054EFF0D6
:100FA60090FEB1E054BFF0EF90FECD30E70DE04487
:100FB60040F090FEB1E04480F0800BE054BFF0902A
:100FC600FEB1E0547FF090000312066CE5F090FE4F
:100FD600DBF090000312066C90FEDC0211A0ED64BB
:100FE60080704F90000512059890FEDEF09000018B
:100FF60012066CE5F090FED2F090000112066C909D
:10100600FED3F090000812059890FEDDB40106E0CC
:101016004480F08004E0547FF09000071205989019
:10102600FEC0B40106E04401F08004E054FEF07F07
:101036000022ED6405705690FEECE054FEF090FE42
:10104600E8E054FCF012057FFF90FEE8E0548F4F75
:10105600F090000612059890FEEC30E00DE0440199
:10106600F090FEB5E04401F0800BE054FEF090FEF7
:10107600B5E054FEF090000312066CE5F090FEF524
:10108600F090000312066C90FEF60211A0ED6406C5
:10109600705690FEECE054EFF090FEE9E054FCF060
:1010A60012057FFF90FEE9E0548F4FF09000061284
:1010B600059890FEEC30E20DE04410F090FEB5E0AD
:1010C6004404F0800BE054EFF090FEB5E054FBF0E2
:1010D60090000312066CE5F090FEF7F09000031204
:1010E600066C90FEF80211A0ED6407705590FEEDB7
:1010F600E054FEF090FEEAE054FCF012057FFF900B
:10110600FEEAE0548F4FF090000612059890FEED2F
:1011160030E40DE04401F090FEB5E04410F0800BA1
:10112600E054FEF090FEB5E054EFF0900003120696
:101136006CE5F090FEF9F090000312066C90FEFA52
:101146008058ED6408705790FEEDE054EFF090FE85
:10115600EBE054FCF012057FFF90FEEBE0548F4F5E
:10116600F090000612059890FEED30E60DE0441072
:10117600F090FEB5E04440F0800BE054EFF090FEB6
:10118600B5E054BFF090000312066CE5F090FEFB4C
:10119600F090000312066C90FEFCF07F0022ED64D6
:1011A60081704C90000512059890FEFEF0900001AB
:1011B60012066CFDACF0EC90FEF2F0AF05A3EFF07A
:1011C60090000812059890FEFDB40106E04480F0F8
:1011D6008004E0547FF090000712059890FEE0B47A
:1011E6000106E04401F08004E054FEF07F00227F17
:0211F600FF22D6
:101AC700EF24807003021B82147003021BC724805B
:101AD700B408004003021C13901AED75F003A4C567
:101AE7008325F0C58373021B05021B12021B22020A
:101AF7001B32021B42021B52021B62021B7212069E
:101B070041FDACF0EC90FED5021C0D9000021206D0
:101B17006CFDACF0EC90FED7021C0D900004120691
:101B27006CFDACF0EC90FED9021C0D90000612067D
:101B37006CFDACF0EC90FEDB021C0D900008120669
:101B47006CFDACF0EC90FEF5021C0D90000A12063D
:101B57006CFDACF0EC90FEF7021C0D90000C120629
:101B67006CFDACF0EC90FEF9021C0D90000E120615
:101B77006CFDACF0EC90FEFB021C0D120641FDACB7
:101B8700F0EC90FED5F0AF05A3EFF090000212063F
:101B97006CFDACF0EC90FED7F0AF05A3EFF0900032
:101BA7000412066CFDACF0EC90FED9F0AF05A3EF84
:101BB700F090000612066CFDACF0EC90FEDB804660
:101BC70090000812066CFDACF0EC90FEF5F0AF0546
:101BD700A3EFF090000A12066CFDACF0EC90FEF754
:101BE700F0AF05A3EFF090000C12066CFDACF0EC23
:101BF70090FEF9F0AF05A3EFF090000E12066CFD12
:0D1C0700ACF0EC90FEFBF0AF05A3EFF02277
:0D2810005393DF43942053B1EF43B21022E5
:10279100EF14600A14600A2402700AD2B422D285AE
:0627A10022D2B4D2852211
:1027A700EF14600A14600A2402700AC2B422C285B8
:0627B70022C2B4C285221B
:0427F9004101AC00EE
:0700030053B17F53B27F22CD
:10271200A2B7E433FF9001ACE06F600EA2B7E433DE
:0B272200F030B7030224BB1200262297
:10000E009001057401F0A304F07B017A017905E4F7
:04001E00FF0214DBEE
:1025AE00900105741FF0E4900108F0A304F0E4908C
:1025BE000106F0A304F0FB7A01790512206A7F016F
:0925CE00122843E4FDFF0223FF83
:0628630012000E0225AE7A
:0B1E1A00900199EBF0A3EAF0A3E9F0BF
:101E25007F09121F24AD07AC06E412034AE4FBFA4E
:101E350079207840120126E4FBFA79807845120270
:101E45002F90019C12083D90019CE0FCA3E0FDA3AE
:101E5500E0FEA3E0FFE4FBFA79407840120126900A
:101E6500019C12083D90019CE0FCA3E0FDA3E0FE6F
:101E7500A3E0FF7BCD7ACC794C783F1200359001F9
:101E85009C12083D90019CE0FCA3E0FDA3E0FEA3AD
:101E9500E0FF900199E0FBA3E0FAA3E0F90207F364
:0C281D00751803751952D519FDD518FA6D
:01282900228C
:07284F0053B1BF43B2402268
:1026F5007FE87E03EF1FAC0670011ED39400EC64E7
:0C2705008094804007B2B612281D80E8C6
:0127110022A5
:06285600751A4ED51AFDB3
:01285C002259
:102583009001067408F09001057403F07B017A0151
:1025930079057F011214DB9001067401F0900105A7
:0B25A300F0FB7A0179057F040214DBD5
:06286900122583C2932238
:0B1C14009001A0EBF0A3EAF0A3E9F0C0
:101C1F00E4FBFAA312084900000000D293122856E1
:101C2F00122856C29320C00E1228560BBB00010A71
:101C3F00EB64284A70EF7C007D0AAF03AE021205F9
:101C4F00F9C3EF9490EE94014003AF0322E4FAFB43
:101C5F0030C00A1228560BBB00010A80F3AE02AF48
:101C6F00037C007D221205F9AC06AD07E412034A8E
:101C7F007B0A7AD779A3783B1201269001A3120829
:101C8F003D9001A3E0FCA3E0FDA3E0FEA3E0FF90E5
:101C9F0001A0E0FBA3E0FAA3E0F91207F3E4FFFED3
:101CAF00FD7C409001A3E0F8A3E0F9A3E0FAA3E0E4
:101CBF00FB1202CC50037F0122E4FFFE7D167C4411
:101CCF009001A3E0F8A3E0F9A3E0FAA3E0FB12026E
:0A1CDF00CC600540037F02227F0065
:011CE90022D8
:0527FD004201A90000EB
:1027600053B37F53B47F5393BF5394BF53B1F353C9
:09277000B2F353C9FE53CAFE2264
:10252500A2C7E4331205C5A286E433900001120563
:10253500D7A2B2E4339000021205D7A2B3E43390D8
:0F25450000031205D7A2C8E4339000040205D7A3
:101F9C00E4FFFEFDFC900149F0A3F030C70B244098
:101FAC00FFE433FE0DBD00010C30860C74202FFFB6
:101FBC00E43EFE0DBD00010C30B2050DBD00010C60
:101FCC0030B30D74E02FFF74FF3EFE0DBD00010C0D
:101FDC0030C80D74C02FFF74FF3EFE0DBD00010C08
:101FEC00ED4C70099001A9E0FEA3E0FF2212060B54
:101FFC00900149EEF0A3EFF09001A9EEF0A3EFF001
:01200C0022B1
:0727BD00F912066CFFAEF0FB
:0F27C4007C007D0212060BEF2432FFE43EFE2262
:0B172F00900151EBF0A3EAF0A3E9F0F9
:10173A009000021227BE90015DEEF0A3EFF0900137
:10174A0051E0FBA3E0FAA3E09000061227BD900146
:10175A005FEEF0A3EFF0900151E0FBA3E0FAA3E003
:10176A009000041227BD900161EEF0A3EFF0900102
:10177A0051E0FBA3E0FAA3E0F9120641FFAEF01232
:10178A0027C4900163EEF0A3EFF09001547460F067
:10179A0090015DE0FEA3E0FFEE3395E0FDFCE47B03
:1017AA00C07A5DF9F81206A4E47B64FAF9F8122209
:1017BA0074900157EEF0A3EFF0900151E0FBA3E023
:1017CA00FAA3E0F990000212066C45F07003FF805C
:1017DA00027F0390015AEFF07B017A0179547F016D
:1017EA00120DE69001547470F090015FE0FEA3E0E0
:1017FA00FFEE3395E0FDFCE47BC07A5DF9F8120652
:10180A00A4E47B64FAF9F8122274900157EEF0A36B
:10181A00EFF0900151E0FBA3E0FAA3E0F990000693
:10182A0012066C45F07003FF80027F0C90015AEF9C
:10183A00F07B017A0179547F02120DE6900154740B
:10184A0060F0900161E0FEA3E0FFEE3395E0FDFC5D
:10185A00E47BC07A5DF9F81206A4E47B64FAF9F82D
:10186A00122274900157EEF0A3EFF0900151E0FBC1
:10187A00A3E0FAA3E0F990000412066C45F07003A5
:10188A00FF80027F3090015AEFF07B017A01795490
:10189A007F03120DE69001547460F0900163E0FE3C
:1018AA00A3E0FFEE3395E0FDFCE47BC07A5DF9F836
:1018BA001206A4E47B64FAF9F8122274900157EE36
:1018CA00F0A3EFF0900151E0FBA3E0FAA3E0F912D4
:1018DA00064145F07003FF80027FC090015AEFF085
:1018EA007B017A0179547F04120DE6900155745DEB
:1018FA00F0A374BFF0E4900159F090015C04F090F9
:10190A00015BF0FB7A0179547F80120DE690FEB2FA
:10191A00E054FC4401F0E054F34404F0E054CFF006
:0C192A00E0543FF0E4FBFD7F80021EA5AE
:0D282A0053910F53920F5395F05396F022E7
:0328780002282A09
:1025D700900149EEF0A3EFF090014DEEF0A3EFF07C
:1025E70090014BEEF0A3EFF090014FEEF0A3EFF068
:0925F7007B017A01794902172FDA
:10255400C3E49FFDE49EFC900189F0A3EDF090019B
:102564008DECF0A3EDF090018BECF0A3EDF0900175
:0F2574008FECF0A3EDF07B017A01798902172F2C
:10260000E4900149F0A3F090014DEEF0A3EFF0E467
:1026100090014BF0A3F090014FEEF0A3EFF07B019F
:072620007A01794902172F2E
:10262700900149EEF0A3EFF0E490014DF0A3F09094
:10263700014BEEF0A3EFF0E490014FF0A3F07B0124
:072647007A01794902172F07
:1026B500E4900191F0A3F0900195F0A3F0900193BF
:1026C500F0A3F0900197F0A3F07B017A01799102D4
:0226D500172FBD
:10136A00EFD3940240037FFF2274242F2FF8E62044
:10137A00E5F4C2AFE64430F6D2AFAE0CEEC39F50EE
:10138A00210E741B2EF8E6F908E618BE020274FF55
:10139A00FDED69600909E71919F7090980F31616BD
:1013AA0080DAEED39F400405810581EED39F402267
:1013BA00741B2EF808E6F9EEB50C02A98118060688
:1013CA00E6FDED6960091919E70909F71980F31EA5
:1013DA0080D9EF241BF8E604F8EF2F0490285D93D8
:0913EA00F608EF2F93F67F0022B4
:1013F300EFD3940240037FFF22EF232424F8E63047
:10140300E5F4C2AFE6548CF6D2AFE50CB5070A7427
:101413001B2FF8E6F581021273502E741C2FF8E689
:10142300BF020274FFFD18E6F9741B2FF8FBE6FCFC
:10143300E96C6008A805E7F61D1980F4A803A60562
:101443001FE50CB507E37F0022741C2FF8E6FD1897
:1014530086010F741B2FF8A601088604E50CB50757
:1014630002AC81ED6C60080D09A805E6F780F4E590
:091473000CB507DE89817F00221F
:10147C008FF0E4FFFEE50C232423F8C2A930F70D0E
:10148C007F08E6600B2DF660325030800730F10695
:10149C00EDF660277E020830F010C2AFE610E725AB
:1014AC000E30E20CD2AF7F048014C2AFE610E71509
:1014BC0054EC4EF6D2AFD2A90212737F0808EF4457
:0F14CC0083F4C2AF56C6D2AFD2A954804FFF22CD
:10002E000203B8E86480F8E933E83360110460F045
:10003E00ED33EC337009E8FCE9FDEAFEEBFF220438
:10004E0060DED3EB9FEA9EE99DE8C2E78CF0C2F733
:10005E0095F0400CE8CCF8E9CDF9EACEFAEBCFFBFF
:10006E0012038385D0F05804700320D5B3E80470D2
:10007E00075002B2D50203C292D5EC0460F7E4CC6D
:10008E00C0E0C398F8603B94186008400DD0E0FBC8
:10009E0002039AE4FBFAC9FC8028E830E406E4C9BE
:1000AE00FBE4CAFCE830E305E4C9CACBFCE854071C
:1000BE006010F8C3E913F9EA13FAEB13FBEC13FC27
:1000CE00D8F130F52FC3E49CFCEF9BFFEE9AFEEDCA
:1000DE0099FDD0E0FBEF4E4D4C701222DB03020374
:1000EE00BFEC2CFCEF33FFEE33FEED33FDED30E7CE
:1000FE00EB02039AEF2BFFEE3AFEED39FDD0E0FB5B
:10010E0050130BBB00030203C2ED13FDEE13FEEF03
:08011E0013FFEC13FC02039A2D
:10012600EC4D6011E8497017ED33EC3304600DE4D3
:10013600FCFFFEFD22E933E8330470F80203B8122F
:10014600038358046009E4CC248150062850090230
:1001560003C22840030203BFC0E0EB4A7044B980E3
:1001660006D0E0FB0203AEEF4E701CBD8008EBFF2D
:10017600EAFEE9FD80EBE98DF0A4FEE5F002020F50
:10018600E9CDF9EAFEEBFFEF89F0A4FCE5F0CE89B4
:10019600F0A42EFFE435F0CD89F0A42DFEE435F071
:1001A6008067EF4E7005BD80D780C3EF8BF0A4AC9F
:1001B600F0EE8BF0A42CFCE435F0F8EF8AF0A42CDA
:1001C600E5F038FCE433CB8DF0A42CFCE5F03BF8ED
:1001D600EE8AF0A42CFCE5F038F8E433CF89F0A4DD
:1001E6002CFCE5F038CF3400CE89F0A42FFFE5F0E3
:1001F6003EFEE433C98DF0A42EFEE5F039CD8AF03B
:10020600A42FFFE5F03EFEE43DFD33D0E0FB5007B2
:100216000BBB000F0203C2EC2CFCEF33FFEE33FEE8
:06022600ED33FD02039A16
:10022C000203C2EC5D046005E8590470030203B8D4
:10023C00120383580460F6EC4860F2EC7004FDFE87
:10024C00FF22C860DB2481C85009C39860025006A5
:10025C000203BF9850CAF582E9294B4A7005AB825C
:10026C000203AE75F0007C1A7880C3EF9BEE9AED1A
:10027C0099400DC3EF9BFFEE9AFEED99FDE842F01D
:10028C00DC23ACF0D0E0FFD0E0FED0E0FDAB822070
:10029C00E7101BEB60BAEC2CFCEF33FFEE33FEEDFA
:1002AC0033FD02039AE803F830E705C0F075F0005F
:1002BC00EF2FFFEE33FEED33FD40B830E7C280AADE
:1002CC0074F8CC6480CCC86480C8F58204604FC3D9
:1002DC00EB9FF5F0EA9E42F0E99D42F0E89C45F078
:1002EC00603C501DE5825FFFE582D313CB5BCBF402
:1002FC002B5582FB50280ABA002409B9002008802B
:10030C001DE5825BFBE582D313CF5FCFF4C3132FC4
:10031C005582FF50090EBE00050DBD00010CC3EB4C
:10032C009FF5F0EA9E42F0E99D42F0E89C45F060B2
:09033C0007CC4820E701B3EC22D4
:1003450075F020800E75F010800575F0087D007E33
:10035500007F003392D530D5031207C1EC3340102E
:10036500EF33FFEE33FEED33FDEC33FCD5F0ED223C
:0E037500E5F0247EA2D513CC92E7CDCEFF2278
:10096300E513244CF582E43401F583E0051322906A
:10097300014930100390014CE475F00112087A022A
:10098300057F2009E97F2ED2098018EF540F2490A8
:10099300D43440D4FF300D0BEF24BFB41A005003FE
:1009A3002461FFE514600215140517E517700205AD
:1009B3001630100E900149E475F00112087AEF0227
:1009C30005C502286F7403D2108003E4C210F51327
:1009D300900149120891E4F514F516F517E5146032
:1009E300077F201209A680F57515FFC20AC209C246
:1009F3000BC20CC20EC20FC211120972FF700D306E
:100A030010057F001209B7AF17AE1622B4255FC2D7
:100A1300D5C20D120972FF24D0B40A00501A75F022
:100A23000A781430D50508B6FF0106C6A426F620B9
:100A3300D5047002D20C80D924CFB41A00EF50042D
:100A4300C2E5D20D020CA9D20A80C6D20980C0D257
:100A53000B80BCD2D580BAD20E80B47F201209A6F7
:100A6300200B077401B5140040F1120963FF12094A
:100A7300A60209E0D211D20F8095120963FB120975
:100A830063FA120963F94A4B700679A77A0D7BFF63
:100A9300200B2EE514602A7E008E827583001205DA
:100AA3009860060EEE651570F0C2D5EBC0E0EAC0A3
:100AB300E0E9C0E0EE120D0AD0E0F9D0E0FAD0E0B0
:100AC300FB12057FFF60AAEBC0E0EAC0E0E9C0E0EB
:100AD3001209A6D0E02401F9D0E03400FAD0E0FBFB
:100AE300E5150460DCD515D98087D20B80A2120CE2
:100AF300EC60F7E5157001041203CDA915600DE54F
:100B030015600914F515120D94EF60F3EA30E7024E
:100B1300F404C3995079EAF425150430E701E40499
:100B2300F515800D120CEC60C1EA051525151203AD
:100B3300CDEA900178F030E701E4251504D51504DA
:100B4300200E0114120D0AE4C0E0120D94900178F6
:100B5300E0601320E70714F012098E802204F0D01E
:100B6300E014C0E07F0012098EE5156007120985C5
:100B73001515800B300E03120985D0E00209E0D071
:100B8300E00480C4120CEC609EE515041203CD90C2
:100B93000178EAF0E515200E026001042404120D29
:010BA3000A47
:100BA40074FF04C0E0120D9412098EE515200E02A4
:100BB4006003120985D0E0B515E87F4512099890C5
:100BC4000178E07F2B30E7047F2DF404C0E01209A4
:100BD400A6D0E075F00A84C0F012098FD0E01209A3
:100BE4008F0209E0791080027908C20FC2118008CF
:100BF400D2D5790A8004790AC2D5E515047002F5C4
:100C040015E4FAFDFEFF120963FC7B08200A1312A7
:100C14000963FD7B1030090A120963FE120963FFA0
:100C24007B20EC3382D592D55013C3E43009069F60
:100C3400FFE49EFEE4200A039DFDE49CFCE4CBF863
:100C4400C20AEC700CCFCECDCCE824F8F870F38057
:100C540017C3EF33FFEE33FEED33FDEC33FCEB3320
:100C6400FB994002FB0FD8E9EB300A05F8D0E0C449
:100C740048B20AC0E00AEC4D4E4F78207B0070C2A7
:100C8400EAB5150040BCC0E0120D0CD0F0D0E02055
:100C94000A04C4C0E0C4B20AC0F012098FD0F0D56F
:100CA400F0EB0209E012089A0A7D530BE8580A4E49
:100CB4004C0A4A420BEC4F0BF4440BF4490A6343CD
:100CC4000BFA550B27460B87450AF1470DC7500A07
:100CD400522D0A562E0A792B0A5A230A77200DB070
:100CE4002A0A124800000A71E515B4FF03751506B7
:100CF400120963FC120963FD120963FE120963FF02
:100D040090017102040A790AA2D5200C14300E094C
:100D1400B910020404B9080104A2D5200F0250013D
:100D240004200B68920BB514005034C0E07F2030CF
:100D34000C197F30A20B720F720E500F120D63C28A
:100D44000BC20FC20EC2117F30800F300E03E9C0F8
:100D5400E01209A6300E03D0E0F9D0E0B514CC308F
:100D64000E177F30B9100C1209A67F58300D077F7B
:100D7400788003B908031209A6300B057F2D0209F8
:100D8400A67F202011F87F2B200FF322920B80CF17
:100D94007F00B40700500B2471F582E43401F5831D
:100DA400E0FF22286E756C6C2900D20A12096330A8
:100DB4000AF8C20A781430D50108F6020A122D5036
:100DC4004349581209632403B405004001E4900D1B
:100DD400C293120997743A120997D20C751404023B
:020DE4000BE81A
:10038300E9D2E7C933E833F892D5EDD2E7CD33ECC0
:0703930033FC5002B2D52239
:10039A00EC30E7100FBF000C0EBE00080DBD0004C4
:1003AA000BEB6014A2D5EB13FCED92E7FD2274FF70
:1003BA00FCFDFEFF22E480F8A2D574FF13FC7D80C9
:0303CA00E480EFDD
:1003CD00F920E73624F950037907E4F42402FBE51C
:1003DD0082158270021583DBF6E024FB501BE96069
:1003ED0014E4F0E582158270021583E004F0B40A7E
:0D03FD0008E4F0D9EE7401F00A22C2D52206
:10040A00ED33EC3392D5FA602AB4FF33EDC2E77BC1
:10041A00FF60067A04792FE4227A04793820D50419
:10042A007A047933224E614E002B494E46002D49FB
:10043A004E4600E47A08F0A3DAFC7B00740722C077
:10044A0083C082ECC0E0EDC0E0EEC0E0EFC0E0EABD
:10045A0075F010A4CAABF075F04DA42BFBE435F08F
:10046A00FCEA2410FAEB34C5FBEC34D9FCEDC2E704
:10047A00FF75F056A4F42411C5F0F434C58FF0A426
:10048A002AE5F03BE43CF020E71412053FD0E0FFF8
:10049A00D0E0FED0E0FDD0E0FC12022F8014F4047C
:1004AA0012053FD0E0FFD0E0FED0E0FDD0E0FC1224
:1004BA000126D082D083E0FAEDD2E7CD33EC3324A3
:1004CA0082FBE4C3CF33CFCE33CECD33CD33DBF390
:1004DA007B0775F00A846004F0A31B0AE5F0F0A319
:1004EA008FF0740AA4FFACF08EF0740AA42CFEAC50
:1004FA00F050010C8DF0740AA42CFDE435F0F0A341
:05050A00DBDE74072296
:10050F003F8000004120000042C80000447A0000F4
:10051F00461C400047C35000497424004B18968076
:10052F004CBEBC205A0E1BCA6753C21C749DC5AE6D
:10053F00FB60065407601C232312056DEB543860D3
:10054F0009120559120568120126ECF8EDF9EEFAB9
:10055F00EFCB22EB12056880F1543803241C900571
:10056F000FFE93FC0EEE93FD0EEE930ECE93FF2235
:03000000021D8E50
:0C1D8E00787FE4F6D8FD758128021DD591
:10057F00BB010689828A83E0225002E722BBFE027A
:09058F00E32289828A83E49322AD
:10059800BB010CE58229F582E5833AF583E0225018
:1005A80006E92582F8E622BBFE06E92582F8E22262
:0D05B800E58229F582E5833AF583E493227C
:1005C500BB010689828A83F0225002F722BBFE0115
:0205D500F3220F
:1005D700F8BB010DE58229F582E5833AF583E8F05A
:1005E700225006E92582C8F622BBFE05E92582C806
:0205F700F222EE
:1005F900EF8DF0A4A8F0CF8CF0A428CE8DF0A42E16
:02060900FE22CF
:10060B00C2D5EC30E709B2D5E4C39DFDE49CFCEE0A
:10061B0030E715B2D5E4C39FFFE49EFE1208C0C3BA
:10062B00E49DFDE49CFC80031208C030D507C3E4B5
:06063B009FFFE49EFE2279
:10064100BB010A89828A83E0F5F0A3E02250068784
:10065100F009E71922BBFE07E3F5F009E319228946
:0B066100828A83E493F5F07401932279
:10066C00BB0110E58229F582E5833AF583E0F5F0CC
:10067C00A3E0225009E92582F886F008E622BBFEA9
:10068C000AE92582F8E2F5F008E222E5832AF583EF
:08069C00E993F5F0A3E99322B4
:1006A400E88FF0A4CC8BF0A42CFCE98EF0A42CFCF5
:1006B4008AF0EDA42CFCEA8EF0A4CDA8F08BF0A473
:1006C4002DCC3825F0FDE98FF0A42CCD35F0FCEBD2
:1006D4008EF0A4FEA9F0EB8FF0A4CFC5F02ECD3997
:0F06E400FEE43CFCEAA42DCE35F0FDE43CFC2204
:1006F30075F008758200EF2FFFEE33FECD33CDCCBE
:1007030033CCC58233C5829BED9AEC99E582984040
:100713000CF582EE9BFEED9AFDEC99FC0FD5F0D61D
:10072300E4CEFBE4CDFAE4CCF9A88222B800C1B947
:100733000059BA002DEC8BF084CFCECDFCE5F0CB85
:10074300F97818EF2FFFEE33FEED33FDEC33FCEBBE
:1007530033FB10D703994004EB99FB0FD8E5E4F979
:10076300FA227818EF2FFFEE33FEED33FDEC33FC66
:10077300C933C910D7059BE99A4007EC9BFCE99A5A
:10078300F90FD8E0E4C9FAE4CCFB2275F010EF2F9F
:10079300FFEE33FEED33FDCC33CCC833C810D7079F
:1007A3009BEC9AE899400AED9BFDEC9AFCE899F8DA
:0E07B3000FD5F0DAE4CDFBE4CCFAE4C8F9226D
:10227400C2D5E830E70FB2D5E4C39BFBE49AFAE495
:1022840099F9E498F8EC30E717B2D51222AA1207AC
:102294002FE4C39BFBE49AFAE499F9E498F88003E9
:1022A40012072F30D50DE4C39FFFE49EFEE49DFD8D
:0422B400E49CFC2288
:0E07C100C3E49FFFE49EFEE49DFDE49CFC2249
:1007CF00EB9FF5F0EA9E42F0E99D42F0E89C45F080
:0107DF0022F7
:1007E000E8600FECC313FCED13FDEE13FEEF13FFF7
:0307F000D8F1221B
:1007F300BB010789828A8302083D5005E9F8020993
:0A0803004BBBFE05E9F8020957227D
:10080D00BB010DE58229F582E5833AF583020922C4
:10081D005007E92582F8020915BBFE07E92582F884
:10082D0002092EE58229F582E5833AF58302093B1B
:0C083D00ECF0A3EDF0A3EEF0A3EFF0222E
:10084900A8828583F0D083D08212086012086012D2
:100859000860120860E473E493A3C583C5F0C583F7
:10086900C8C582C8F0A3C583C5F0C583C8C582C8F9
:01087900225C
:10087A00F8E0FBA3A3E0F925F0F0E5821582700207
:07088A001583E0FA38F022AB
:09089100EBF0A3EAF0A3E9F02268
:10089A00D083D082F8E4937012740193700DA3A3ED
:1008AA0093F8740193F5828883E473740293686001
:0608BA00EFA3A3A380DF01
:101D9A0002132DE493A3F8E493A34003F68001F21F
:101DAA0008DFF48029E493A3F85407240CC8C3334A
:101DBA00C4540F4420C8834004F456800146F6DF19
:101DCA00E4800B01020408102040809027F5E47E8D
:101DDA00019360BCA3FF543F30E509541FFEE4930E
:101DEA00A360010ECF54C025E060A840B8E493A3D5
:101DFA00FAE493A3F8E493A3C8C582C8CAC583CA00
:101E0A00F0A3C8C582C8CAC583CADFE9DEE780BEB7
:0128020000D5
:1008C000BC000BBE0029EF8DF084FFADF022E4CC1C
:1008D000F875F008EF2FFFEE33FEEC33FCEE9DECE5
:1008E000984005FCEE9DFE0FD5F0E9E4CEFD22ED2B
:1008F000F8F5F0EE8420D21CFEADF075F008EF2F75
:10090000FFED33FD4007985006D5F0F222C398FD65
:050910000FD5F0EA2202
:0D091500E6FB08E6F908E6FA08E6CBF82252
:0C092200E0F8A3E0F9A3E0FAA3E0FB2258
:0D092E00E2FB08E2F908E2FA08E2CBF82249
:10093B00E493F8740193F9740293FA740393FB2212
:0C094B00ECF608EDF608EEF608EFF622D8
:0C095700ECF208EDF208EEF208EFF222DC
:00000001FF
