:10000300EFD3940740037FFF221202AAFED3940387
:1000130040037FFF22EF7041EE700B90000112024C
:10002300C3F4529352941202AAB4010B900001122A
:1000330002C34293F452941202AAFEB4020A90003D
:10004300011202C342934294EEB4030D90000112D5
:1000530002C3FEF45293EE4294EF64017043120222
:10006300AAFE700B9000011202C3F452915292EE59
:10007300B4010B9000011202C34291F45292120296
:10008300AAB4020A9000011202C3429142921202E0
:10009300AAB4030D9000011202C3FEF45291EE4282
:1000A30092EF640270431202AAFE700B90000112D9
:1000B30002C3F452955296EEB4010B900001120262
:1000C300C34295F452961202AAB4020A9000011296
:1000D30002C3429542961202AAB4030D9000011284
:1000E30002C3FEF45295EE4296EF6403704312028C
:1000F300AAFE700B9000011202C3F452B152B2EE89
:10010300B4010B9000011202C342B1F452B21202C5
:10011300AAB4020A9000011202C342B142B212020F
:10012300AAB4030D9000011202C3FEF452B1EE42D1
:10013300B2EF640470431202AAFE700B9000011226
:1001430002C3F452B352B4EEB4010B900001120295
:10015300C342B3F452B41202AAB4020A90000112C9
:1001630002C342B342B41202AAB4030D90000112B7
:1001730002C3FEF452B3EE42B4EF640570431202BD
:10018300AAFE700B9000011202C3F452C952CAEEC8
:10019300B4010B9000011202C342C9F452CA120205
:1001A300AAB4020A9000011202C342C942CA12024F
:1001B300AAB4030D9000011202C3FEF452C9EE4229
:1001C300CAEF640670431202AAFE700B900001127C
:1001D30002C3F452CB52CCEEB4010B9000011202D5
:1001E300C342CBF452CC1202AAB4020A9000011209
:1001F30002C342CB42CC1202AAB4030D90000112F7
:1002030002C3FEF452CBEE42CCEF640770431202FA
:10021300AAFF700B9000011202C3F452E152E2EF05
:10022300B4010B9000011202C342E1F452E2120244
:10023300AAB4020A9000011202C342E142E212028E
:10024300AAB4030D9000011202C3FFF452E1EF427E
:04025300E27F002224
:0702FC0053B3F843B40722DD
:100257001202FC7F07BF0704D2C4800EC3EF64807D
:1002670094834004D2C48002C2C4C2C30000D2C374
:1002770000001FC3EF6480948050DA7F07EF6402A9
:100287006004D2C48002C2C4C2C30000D2C300004B
:100297001FC3EF6480948050E4C2C20000D2C20042
:0302A7000080FED6
:030000000202F009
:0C02F000787FE4F6D8FD75810702025704
:1002AA00BB010689828A83E0225002E722BBFE0252
:0902BA00E32289828A83E4932285
:1002C300BB010CE58229F582E5833AF583E02250F0
:1002D30006E92582F8E622BBFE06E92582F8E2223A
:0D02E300E58229F582E5833AF583E4932254
:00000001FF
