:0F1975007D607C09ED1D70011C144C70F7DFF1D3
:011984002240
:100CEA00EFD3940740037FFF221205F5FED3940346
:100CFA0040037FFF22EF7041EE700B900001120655
:100D0A000EF4529352941205F5B4010B900001129D
:100D1A00060E4293F452941205F5FEB4020A9000AC
:100D2A000112060E42934294EEB4030D9000011292
:100D3A00060EFEF45293EE4294EF640170431205DC
:100D4A00F5FE700B90000112060EF452915292EECB
:100D5A00B4010B90000112060E4291F45292120550
:100D6A00F5B4020A90000112060E4291429212054F
:100D7A00F5B4030D90000112060EFEF45291EE42F4
:100D8A0092EF640270431205F5FE700B9000011297
:100D9A00060EF452955296EEB4010B90000112061B
:100DAA000E4295F452961205F5B4020A9000011209
:100DBA00060E429542961205F5B4030D90000112F3
:100DCA00060EFEF45295EE4296EF64037043120546
:100DDA00F5FE700B90000112060EF452B152B2EEFB
:100DEA00B4010B90000112060E42B1F452B2120580
:100DFA00F5B4020A90000112060E42B142B212057F
:100E0A00F5B4030D90000112060EFEF452B1EE4243
:100E1A00B2EF640470431205F5FE700B90000112E4
:100E2A00060EF452B352B4EEB4010B90000112064E
:100E3A000E42B3F452B41205F5B4020A900001123C
:100E4A00060E42B342B41205F5B4030D9000011226
:100E5A00060EFEF452B3EE42B4EF64057043120577
:100E6A00F5FE700B90000112060EF452C952CAEE3A
:100E7A00B4010B90000112060E42C9F452CA1205BF
:100E8A00F5B4020A90000112060E42C942CA1205BE
:100E9A00F5B4030D90000112060EFEF452C9EE429B
:100EAA00CAEF640670431205F5FE700B900001123A
:100EBA00060EF452CB52CCEEB4010B90000112068E
:100ECA000E42CBF452CC1205F5B4020A900001127C
:100EDA00060E42CB42CC1205F5B4030D9000011266
:100EEA00060EFEF452CBEE42CCEF640770431205B5
:100EFA00F5FF700B90000112060EF452E152E2EF78
:100F0A00B4010B90000112060E42E1F452E21205FE
:100F1A00F5B4020A90000112060E42E142E21205FD
:100F2A00F5B4030D90000112060EFFF452E1EF42F0
:040F3A00E27F002230
:1016F200EFD3940140037FFF22EDD3940340037F95
:10170200FF22EF7004C2A98002D2A9ED700553B77F
:10171200FDC2B9BD010553B7FDD2B9BD020543B73C
:0E17220002C2B9BD030543B702D2B97F00224F
:10173000EFD3940140037FFF22EDD3940340037F56
:10174000FF22EF7004C2AB8002D2ABED700553B73D
:10175000F7C2BBBD010553B7F7D2BBBD020543B706
:0E17600008C2BBBD030543B708D2BB7F002201
:1018ED00EFD3940140037FFF22EDD3940340037F98
:1018FD00FF22EF25E025E0FFE5AF54FB4FF5AFE408
:02190D00FF22B7
:10190F00EFD3940140037FFF22EDD3940340037F75
:10191F00FF22EFC43354E0FFE5AF54DF4FF5AFE4E0
:02192F00FF2295
:1018CA00EFD3940140037FFF22EDD3940340037FBB
:1018DA00FF22EFC4333354C0FFE5AF54BF4FF5AF17
:0318EA00E4FF22F6
:10176E00EFD3940140037FFF22EDD3940340037F18
:10177E00FF22EF7004C2A88002D2A8ED700553B705
:10178E00FEC2B8BD010553B7FED2B8BD020543B7C0
:0E179E0001C2B8BD030543B701D2B87F0022D7
:1017AC00EFD3940140037FFF22EDD3940340037FDA
:1017BC00FF22EF7004C2AA8002D2AAED700553B7C3
:1017CC00FBC2BABD010553B7FBD2BABD020543B784
:0E17DC0004C2BABD030543B704D2BA7F00228F
:10194A00EFD3940140037FFF22EFC454F0FFE58FE9
:08195A0054EF4FF58FE4FF226A
:10193100EFD3940140037FFF22EFC43354E0FFE56E
:091941008F54DF4FF58FE4FF2203
:10000300EFD3940140037FFF22EFC4333354C0FF87
:0A001300E58F54BF4FF58FE4FF2284
:1017EA00EFD3940140037FFF22EDD3940340037F9C
:1017FA00FF22EF7004C2AD8002D2ADED700553B77F
:10180A00DFC2BDBD010553B7DFD2BDBD020543B777
:0E181A0020C2BDBD030543B720D2BD7F002212
:10151600EDD3940340037FFF22EF30E10543E6203D
:10152600800353E6DFEF30E00543E610800353E621
:10153600EFED700653B6DF53B5DFBD010653B6DFD8
:1015460043B520BD020643B62053B5DFBD030643AF
:08155600B62043B5207F0022FE
:1014BD00EFD3940140037FFF22EBD3940340037FCE
:1014CD00FF22BF0112ED90FE817006E0547FF08087
:1014DD0011E04480F0800BEF700890FE83E054879C
:1014ED004DF0EB700653B6DF53B5DFBB010653B6B7
:1014FD00DF43B520BB020643B62053B5DFBB030661
:09150D0043B62043B5207F002203
:10182800EFD3940140037FFF22EDD3940340037F5D
:10183800FF22EF7004C2AC8002D2ACED700553B742
:10184800EFC2BCBD010553B7EFD2BCBD020543B71B
:0E18580010C2BCBD030543B710D2BC7F0022F6
:1016B200EFD3940140037FFF22EDD3940340037FD5
:1016C200FF22E5AF54FE4FF5AFED700653B6FE5361
:1016D200B5FEBD010653B6FE43B501BD020643B6D3
:1016E2000153B5FEBD030643B60143B5017F002297
:10155E00EFD3940140037FFF22EDD3940340037F2A
:10156E00FF22EF33333354F8FFE5AF54F74FF5AFA7
:10157E00ED700653EEFE53DFFEBD010653EEFE4345
:10158E00DF01BD020643EE0153DFFEBD030643EE4F
:07159E000143DF017F002281
:1015A500EFD3940140037FFF22EDD3940340037FE3
:1015B500FF22EFC454F0FFE5AF54EF4FF5AFED70E8
:1015C5000653EEFD53DFFDBD010653EEFD43DF027D
:1015D500BD020643EE0253DFFDBD030643EE0243A3
:0515E500DF027F00227F
:1015EA00EFD3940140037FFF22EDD3940340037F9E
:1015FA00FF22EF25E0FFE5AF54FD4FF5AFED700692
:10160A0053B6FD53B5FDBD010653B6FD43B502BD44
:10161A00020643B60253B5FDBD030643B60243B5FF
:04162A00027F002219
:10144300EFD3948140037FFF22EBD3940340037FC8
:10145300FF22EF247F603004705890FEC4EDF0EB60
:10146300700653B6FB53B5FBBB010653B6FB43B53E
:1014730004BB020643B60453B5FBEB640370384365
:10148300B60443B504803090FEE4EDF0EB700653F0
:10149300B6F753B5F7BB010653B6F743B508BB021E
:1014A3000643B60853B5F7BB030D43B60843B50867
:0A14B300800590FEE4EDF07F0022BA
:10186600EDD394035026ED700653EEFB53DFFBBD1C
:10187600010653EEFB43DF04BD020643EE0453DFCD
:10188600FBBD030B43EE0443DF0480037FFF22907E
:07189600FE62EFF07F00226B
:061130008B338A3489357F
:10113600EF6401600302127BF508F509F50AF50B69
:10114600F50CFF7E80900080E4F0A3DEFCE4FF7ED9
:1011560080900000E4F0A3DEFC7E00AB33AA34A945
:10116600351205F5FFE598543F4FF598EF64C060DA
:1011760008EF644060030212309000021207877F76
:10118600807E8D7D5B7C001206898F398E388D3787
:101196008C36E4FFFE7D01FCAB39AA38A937A836A8
:1011A600C312072940037FFF22C3E49539F539E4CA
:1011B6009538F53874019537F537E49536F536AB3D
:1011C60033AA34A93590000112060EFB6401702C77
:1011D600C28E538EFE5389BF5389CF438E40AF399B
:1011E600AE38AD37AC36780812073A8F8D85398B15
:1011F600C2AB5389BF538FFDD28E8062EB640270FF
:1012060026538EEF438E01538EF7438E04AF39AECD
:1012160038AD37AC36780812073A8FD68539D753AA
:10122600AFFB438E1080377FFF22AB33AA34A9353C
:101236001205F5FF701390000812060EB40105435F
:101246008E20801A538EDF8015EFB480119000082F
:1012560012060EB40105438780800353877FAB33A4
:10126600AA34A93590000712060E7004C29C8002AB
:07127600D29C7F00227FFFE4
:01127D00224E
:0A19AC008F99750A01E50A70FC220C
:101962001205F5FF600C1219AC740129F9E43AFA78
:0319720080EE22E2
:05001D00AE070219AC62
:0300230002162E94
:10162E00C0E0C083C082C0D075D000C00730982003
:10163E00C298E50BC394804003750B00AF0B050BEE
:10164E0074002FF582E43400F583E599F0750C05EE
:10165E00309905C299750A00D007D0D0D082D083B8
:03166E00D0E03297
:1016710048756D69646974793A252E32662025258D
:10168100200A0054656D70657261747572653A2542
:101691002E326620430A00446174612076616C69D0
:1016A100646174696F6E206661696C757265212170
:0116B1000038
:10189D00752A40752B01752F00752EC2752D01759A
:1018AD002C00753101E4F532FB7A00792A7F0112A3
:0C18BD0011307D017F0112182853A23F5A
:0118C90022FC
:1013C700E4F525F524F523F522F529F528F527F584
:1013D700261219B612189DD2AFE50CD394004055CA
:1013E700150CE50C704FE50BD394004045752D00A7
:1013F700752E00752F267B007A007922121334EFA1
:101407007BFF70277A1679718525438524428523CA
:10141700418522401208DD7BFF7A167984852943AE
:1014270085284285274185264080047A16799812B7
:0C14370008DDE4F50B7F0A121975809D9A
:10127E00E4B8BBE69CBAE9878AE694BEE697B6E97F
:10128E0097B4E8B685E697B60A006572723A205BA7
:10129E0025735D205B25645D757320E4B88DE6BB18
:1012AE00A1E8B6B3210A00E5938DE5BA94E4BD8EAC
:1012BE00E794B5E5B9B3E697B6E997B4E8B685E62F
:1012CE0097B600E5938DE5BA94E9AB98E794B5E54A
:1012DE00B9B3E697B6E997B4E8B685E697B6006473
:1012EE00617461E4BD8EE794B5E5B9B3E697B6E9EE
:1012FE0097B40064617461E9AB98E794B5E5B9B34E
:10130E00E697B6E997B400446174612076616C6922
:10131E00646174696F6E206661696C7572652121F6
:06132E00000000000000B9
:0B19A100000000000000000000002219
:10198500E4F52A752B40FB7A00792A7F04020CEADC
:0319B6000219858E
:060F3E008B358A3689376D
:100F4400E4F538F539F53AF53BC2C67F1412197544
:100F5400D2C6E4F538F5391219A10539E53970021C
:100F6400053830C609C39432E538940040E9C3E536
:100F740039940AE5389400400BD3E5399423E538D5
:100F8400940040097BFF7A12797E021127E4F53838
:100F9400F5391219A10539E5397002053830C6F260
:100FA400C3944EE5389400400BD3E5399458E538A2
:100FB400940040187540FF7541127542B585384359
:100FC4008539447BFF7A127998021127E4F538F5C4
:100FD400391219A10539E5397002053820C6F2C362
:100FE4009450E5389400400BD3E539945CE538948B
:100FF4000040187540FF7541127542D1853843850C
:1010040039447BFF7A127998021127E4F53A753B4B
:0110140007D4
:10101500E4F538F5391219A10539E53970020538B5
:1010250030C6F2C39430E5389400400BD3E53994CB
:101035003AE538940040187540FF7541127542ED48
:101045008538438539447BFF7A127998021127E464
:10105500F538F5391219A10539E539700205382039
:10106500C6F2C39417E5389400400BD3E539944A8A
:10107500E538940040187540FF75411375420185A8
:1010850038438539447BFF7A127998021127C3E5E5
:10109500399430E538940040047F0180027F008F49
:1010A5003CAB35AF3AEF3395E0FEE5372FF9E53642
:1010B5003EFA1205F5FFAE3BA806E53C088002C3E3
:0710C50033D8FC4F12063B7B
:1010CC00153BC3E53B648094804003021015053A40
:1010DC00C3E53A648094855003021012AB35AA36EE
:1010EC00A93790000112060EFF1205F52FFFE4330D
:1010FC00FE90000212060E7C002FFFEC3EFE9000CC
:10110C000312060E2FFFEC3EFE90000412060E6F2B
:10111C007001EE600C7BFF7A1379151208DD7FFFEE
:03112C00227F001F
:01112F00229D
:061334008B2A8A2B892C94
:10133A0078307C007D007BFF7A13792F7E007F0551
:10134A001205CF7B007A007930120F3EC3EF64801A
:10135A00948050037FFF22AC30E412023FAB2AAAEA
:10136A002BA92C12076DE533547FFCE412023F7B54
:10137A00CD7ACC79CC783D12011EC004C005C006D6
:10138A00C007AC32E412023FD003D002D001D00031
:10139A0012002DAB2DAA2EA92F12076DE53354800A
:1013AA00D394004015AB2DAA2EA92F12074D120275
:0C13BA0024AB2DAA2EA92F12076D7F0076
:0113C6002204
:100026000202A8E86480F8E933E83360110460F05E
:10003600ED33EC337009E8FCE9FDEAFEEBFF220440
:1000460060DED3EB9FEA9EE99DE8C2E78CF0C2F73B
:1000560095F0400CE8CCF8E9CDF9EACEFAEBCFFB07
:1000660012027385D0F05804700320D5B3E80470EB
:10007600075002B2D50202B292D5EC0460F7E4CC86
:10008600C0E0C398F8603B94186008400DD0E0FBD0
:1000960002028AE4FBFAC9FC8028E830E406E4C9D7
:1000A600FBE4CAFCE830E305E4C9CACBFCE8540724
:1000B6006010F8C3E913F9EA13FAEB13FBEC13FC2F
:1000C600D8F130F52FC3E49CFCEF9BFFEE9AFEEDD2
:1000D60099FDD0E0FBEF4E4D4C701222DB0302027D
:1000E600AFEC2CFCEF33FFEE33FEED33FDED30E7E6
:1000F600EB02028AEF2BFFEE3AFEED39FDD0E0FB74
:1001060050130BBB00030202B2ED13FDEE13FEEF1C
:0801160013FFEC13FC02028A46
:10011E00EC4D6011E8497017ED33EC3304600DE4DB
:10012E00FCFFFEFD22E933E8330470F80202A81248
:10013E00027358046009E4CC248150062850090249
:10014E0002B22840030202AFC0E0EB4A7044B9800D
:10015E0006D0E0FB02029EEF4E701CBD8008EBFF46
:10016E00EAFEE9FD80EBE98DF0A4FEE5F002020760
:10017E00E9CDF9EAFEEBFFEF89F0A4FCE5F0CE89BC
:10018E00F0A42EFFE435F0CD89F0A42DFEE435F079
:10019E008067EF4E7005BD80D780C3EF8BF0A4ACA7
:1001AE00F0EE8BF0A42CFCE435F0F8EF8AF0A42CE2
:1001BE00E5F038FCE433CB8DF0A42CFCE5F03BF8F5
:1001CE00EE8AF0A42CFCE5F038F8E433CF89F0A4E5
:1001DE002CFCE5F038CF3400CE89F0A42FFFE5F0EB
:1001EE003EFEE433C98DF0A42EFEE5F039CD8AF043
:1001FE00A42FFFE5F03EFEE43DFD33D0E0FB5007BB
:10020E000BBB000F0202B2EC2CFCEF33FFEE33FE01
:06021E00ED33FD02028A2F
:10022400ED33EC33600A047003BD8004ECB2E7FCE8
:0102340022A7
:1002350075F020800E75F010800575F0087D007E44
:10024500007F003392D530D50312071BEC334010E5
:10025500EF33FFEE33FEED33FDEC33FCD5F0ED224D
:0E026500E5F0247EA2D513CC92E7CDCEFF2289
:10087B00E5542440F8E6055422783D3007027840D1
:10088B00E475F0011207B70205F52000EB7F2ED2BD
:10089B00008018EF540F2490D43440D4FF30040B55
:1008AB00EF24BFB41A0050032461FFE55560021515
:1008BB00550558E5587002055730070D783DE4751E
:1008CB00F0011207B7EF02063B02001D7403D207BB
:1008DB008003E4C207F5548B3D8A3E893FE4F5550E
:1008EB00F557F558E55560077F201208B680F5756A
:1008FB0056FFC201C200C202C203C205C206C20831
:10090B00120884FF700D3007057F001208C7AF581F
:10091B00AE5722B4255FC2D5C204120884FF24D07F
:10092B00B40A00501A75F00A785530D50508B6FF91
:10093B000106C6A426F620D5047002D20380D92462
:10094B00CFB41A00EF5004C2E5D204020BB4D201AB
:10095B0080C6D20080C0D20280BCD2D580BAD2056C
:10096B0080B47F201208B62002077401B5550040F1
:10097B00F112087BFF1208B60208EFD208D20680EC
:10098B009512087BFB12087BFA12087BF94A4B7015
:10099B000679AB7A0C7BFF20022EE555602A7E0090
:1009AB008E8275830012060E60060EEE655670F091
:1009BB00C2D5EBC0E0EAC0E0E9C0E0EE120C14D007
:1009CB00E0F9D0E0FAD0E0FB1205F5FF60AAEBC02E
:1009DB00E0EAC0E0E9C0E01208B6D0E02401F9D0AB
:1009EB00E03400FAD0E0FBE5560460DCD556D98044
:1009FB0087D20280A2120BF760F7E5567001041242
:100A0B0002BDA956600DE556600914F556120C9EF1
:100A1B00EF60F3EA30E702F404C3995077EAF42568
:100A2B00560430E701E404F556800D120BF760C154
:100A3B00EA055625561202BDEA7853F630E701E473
:100A4B00255604D5560420050114120C14E4C0E0FD
:100A5B00120C9E7853E6601320E70714F612089EDB
:100A6B00802204F6D0E014C0E07F0012089EE55609
:100A7B0060071208951556800B300503120895D0A8
:100A8B00E00208EFD0E00480C5120BF760A0E5563A
:100A9B00041202BD7853EAF6E55620050260010404
:050AAB002404120C14EC
:100AB00074FF04C0E0120C9E12089EE55620050249
:100AC0006003120895D0E0B556E87F451208A87873
:100AD00053E67F2B30E7047F2DF404C0E01208B604
:100AE000D0E075F00A84C0F012089FD0E012089F91
:100AF0000208EF791080027908C206C2088008D285
:100B0000D5790A8004790AC2D5E556047002F556F3
:100B1000E4FAFDFEFF12087BFC7B0820011312089B
:100B20007BFD7B1030000A12087BFE12087BFF7BE6
:100B300020EC3382D592D55013C3E43000069FFFDA
:100B4000E49EFEE42001039DFDE49CFCE4CBF8C29E
:100B500001EC700CCFCECDCCE824F8F870F3801700
:100B6000C3EF33FFEE33FEED33FDEC33FCEB33FB31
:100B7000994002FB0FD8E9EB300105F8D0E0C448FA
:100B8000B201C0E00AEC4D4E4F78207B0070C2EA03
:100B9000B5560040BCC0E0120C16D0F0D0E02001E9
:100BA00004C4C0E0C4B201C0F012089FD0F0D5F078
:100BB000EB0208EF1207C7098C530AF358095D4C82
:100BC0000959420AF74F0AFF440AFF490972430BC9
:100BD00005550A36460A94450A00470CCB50096170
:100BE0002D09652E09882B0969230986200CB42A52
:100BF00009214800000980E556B4FF037556061226
:100C0000087BFC12087BFD12087BFE12087BFF7834
:100C10004C0202EC790AA2D5200314300509B91060
:100C2000020404B9080104A2D520060250010420E0
:100C300002689202B555005034C0E07F203003199D
:100C40007F30A20272067205500F120C6DC202C2F2
:100C500006C205C2087F30800F300503E9C0E012EC
:100C600008B6300503D0E0F9D0E0B555CC30051713
:100C70007F30B9100C1208B67F583004077F788097
:100C800003B908031208B63002057F2D0208B67FAB
:100C9000202008F87F2B2006F322920280CF7F00CD
:100CA000B407005005244CF8E6FF22286E756C6CE2
:100CB0002900D20112087B3001F8C201785530D5E5
:100CC0000108F60209212D5043495812087B2403DC
:100CD000B405004001E4900CC6931208A7743A12C0
:0A0CE00008A7D203755504020AF3B9
:10027300E9D2E7C933E833F892D5EDD2E7CD33ECD1
:0702830033FC5002B2D5224A
:10028A00EC30E7100FBF000C0EBE00080DBD0004D5
:10029A000BEB6014A2D5EB13FCED92E7FD2274FF81
:1002AA00FCFDFEFF22E480F8A2D574FF13FC7D80DA
:0302BA00E480EFEE
:1002BD00F920E72824F950037907E4F42402FB1808
:1002CD00DBFDE624FB5014E9600DE4F618E604F6B8
:0F02DD00B40A08E4F6D9F57401F60A22C2D52254
:1002EC00ED33EC3392D5FA602AB4FF33EDC2E77BE1
:1002FC00FF60067A037911E4227A03791A20D50477
:10030C007A037915224E614E002B494E46002D4939
:10031C004E4600E47A08F608DAFC7B00740722E803
:10032C00C0E0ECC0E0EDC0E0EEC0E0EFC0E0EA758C
:10033C00F010A4CAABF075F04DA42BFBE435F0FC27
:10034C00EA2410FAEB34C5FBEC34D9FCEDC2E7FF20
:10035C0075F056A4F42411C5F0F434C58FF0A42A1A
:10036C00E5F03BE43CF620E7141204BFD0E0FFD0EC
:10037C00E0FED0E0FDD0E0FC1203F28014F4041295
:10038C0004BFD0E0FFD0E0FED0E0FDD0E0FC1201D5
:10039C001ED0E0F8E6FAEDD2E7CD33EC332482FB45
:1003AC00E4C3CF33CFCE33CECD33CD33DBF37B07AA
:1003BC0075F00A846004F6081B0AE5F0F6088FF065
:1003CC00740AA4FFACF08EF0740AA42CFEACF050AE
:1003DC00010C8DF0740AA42CFDE435F0F608DBDE7C
:0303EC0074072271
:1003EF000202B2EC5D046005E8590470030202A832
:1003FF00120273580460F6EC4860F2EC7004FDFED4
:10040F00FF22C860DB2481C85009C39860025006E0
:10041F000202AF9850CAF582E9294B4A7005AB82A8
:10042F0002029E75F0007C1A7880C3EF9BEE9AED66
:10043F0099400DC3EF9BFFEE9AFEED99FDE842F058
:10044F00DC23ACF0D0E0FFD0E0FED0E0FDAB8220AB
:10045F00E7101BEB60BAEC2CFCEF33FFEE33FEED35
:10046F0033FD02028AE803F830E705C0F075F000AB
:10047F00EF2FFFEE33FEED33FD40B830E7C280AA19
:10048F003F8000004120000042C80000447A000075
:10049F00461C400047C35000497424004B189680F7
:1004AF004CBEBC205A0E1BCA6753C21C749DC5AEEE
:1004BF00FB60065407601C23231204EDEB543860D5
:1004CF00091204D91204E812011EECF8EDF9EEFA44
:1004DF00EFCB22EB1204E880F1543803241C900474
:1004EF008FFE93FC0EEE93FD0EEE930ECE93FF2236
:030000000219954D
:0C199500787FE4F6D8FD7581580213C776
:1004FF00E709F608DFFA8046E709F208DFFA803EDF
:10050F0088828C83E709F0A3DFFA8032E309F608CB
:10051F00DFFA8078E309F208DFFA807088828C8333
:10052F00E309F0A3DFFA806489828A83E0A3F608E7
:10053F00DFFA805889828A83E0A3F208DFFA804CC1
:10054F0080D280FA80C680D4806980F28033801098
:10055F0080A680EA809A80A880DA80E280CA803301
:10056F0089828A83ECFAE493A3C8C582C8CCC58379
:10057F00CCF0A3C8C582C8CCC583CCDFE9DEE78049
:10058F000D89828A83E493A3F608DFF9ECFAA9F0C8
:10059F00EDFB2289828A83ECFAE0A3C8C582C8CC1E
:1005AF00C583CCF0A3C8C582C8CCC583CCDFEADE37
:1005BF00E880DB89828A83E493A3F208DFF980CC99
:1005CF0088F0EF60010E4E60C388F0ED2402B40492
:1005DF000050B9F582EB2402B4040050AF23234539
:0605EF00822390054F730A
:1005F500BB010689828A83E0225002E722BBFE0204
:09060500E32289828A83E4932236
:10060E00BB010CE58229F582E5833AF583E02250A1
:10061E0006E92582F8E622BBFE06E92582F8E222EB
:0D062E00E58229F582E5833AF583E4932205
:10063B00BB010689828A83F0225002F722BBFE019E
:02064B00F32298
:10064D0075F008758200EF2FFFEE33FECD33CDCC64
:10065D0033CCC58233C5829BED9AEC99E5829840E7
:10066D000CF582EE9BFEED9AFDEC99FC0FD5F0D6C4
:10067D00E4CEFBE4CDFAE4CCF9A88222B800C1B9EE
:10068D000059BA002DEC8BF084CFCECDFCE5F0CB2C
:10069D00F97818EF2FFFEE33FEED33FDEC33FCEB65
:1006AD0033FB10D703994004EB99FB0FD8E5E4F920
:1006BD00FA227818EF2FFFEE33FEED33FDEC33FC0D
:1006CD00C933C910D7059BE99A4007EC9BFCE99A01
:1006DD00F90FD8E0E4C9FAE4CCFB2275F010EF2F46
:1006ED00FFEE33FEED33FDCC33CCC833C810D70746
:1006FD009BEC9AE899400AED9BFDEC9AFCE899F881
:0E070D000FD5F0DAE4CDFBE4CCFAE4C8F92213
:0E071B00C3E49FFFE49EFEE49DFDE49CFC22EF
:10072900EB9FF5F0EA9E42F0E99D42F0E89C45F026
:01073900229D
:10073A00E8600FECC313FCED13FDEE13FEEF13FF9D
:03074A00D8F122C1
:10074D00BB010789828A830207F95005E9F8020780
:10075D00EDBBFE05E9F802080589828A83020811BE
:10076D00BB010789828A830208635005E9F80208F4
:0A077D0057BBFE05E9F802086F22E1
:10078700BB010DE58229F582E5833AF58302082E40
:100797005007E92582F8020821BBFE07E92582F800
:1007A70002083AE58229F582E5833AF5830208478C
:1007B700FAE6FB0808E6F925F0F618E6CA3AF62243
:1007C700D083D082F8E4937012740193700DA3A3C1
:1007D70093F8740193F5828883E4737402936860D5
:0607E700EFA3A3A380DFD5
:0C07ED00E6FC08E6FD08E6FE08E6FF2238
:0C07F900E0FCA3E0FDA3E0FEA3E0FF2273
:0C080500E2FC08E2FD08E2FE08E2FF222F
:10081100E493FC740193FD740293FE740393FF222D
:0D082100E6FB08E6F908E6FA08E6CBF82247
:0C082E00E0F8A3E0F9A3E0FAA3E0FB224D
:0D083A00E2FB08E2F908E2FA08E2CBF8223E
:10084700E493F8740193F9740293FA740393FB2207
:0C085700ECF608EDF608EEF608EFF622CD
:0C086300ECF0A3EDF0A3EEF0A3EFF02208
:0C086F00ECF208EDF208EEF208EFF222C5
:00000001FF
