:0F0F64007D607C09ED1D70011C144C70F7DFF1EE
:010F7300225B
:10030D00EFD3940740037FFF22120561FED39403C0
:10031D0040037FFF22EF7041EE700B90000112053C
:10032D007AF452935294120561B4010B90000112AC
:10033D00057A4293F45294120561FEB4020A9000BC
:10034D000112057A42934294EEB4030D900001120E
:10035D00057AFEF45293EE4294EF64017043120558
:10036D0061FE700B90000112057AF452915292EEDB
:10037D00B4010B90000112057A4291F452921205CC
:10038D0061B4020A90000112057A4291429212055F
:10039D0061B4030D90000112057AFEF45291EE4204
:1003AD0092EF64027043120561FE700B9000011212
:1003BD00057AF452955296EEB4010B900001120598
:1003CD007A4295F45296120561B4020A9000011218
:1003DD00057A42954296120561B4030D9000011203
:1003ED00057AFEF45295EE4296EF640370431205C2
:1003FD0061FE700B90000112057AF452B152B2EE0B
:10040D00B4010B90000112057A42B1F452B21205FB
:10041D0061B4020A90000112057A42B142B212058E
:10042D0061B4030D90000112057AFEF452B1EE4253
:10043D00B2EF64047043120561FE700B900001125F
:10044D00057AF452B352B4EEB4010B9000011205CB
:10045D007A42B3F452B4120561B4020A900001124B
:10046D00057A42B342B4120561B4030D9000011236
:10047D00057AFEF452B3EE42B4EF640570431205F3
:10048D0061FE700B90000112057AF452C952CAEE4A
:10049D00B4010B90000112057A42C9F452CA12053B
:1004AD0061B4020A90000112057A42C942CA1205CE
:1004BD0061B4030D90000112057AFEF452C9EE42AB
:1004CD00CAEF64067043120561FE700B90000112B5
:1004DD00057AF452CB52CCEEB4010B90000112050B
:1004ED007A42CBF452CC120561B4020A900001128B
:1004FD00057A42CB42CC120561B4030D9000011276
:10050D00057AFEF452CBEE42CCEF64077043120530
:10051D0061FF700B90000112057AF452E152E2EF87
:10052D00B4010B90000112057A42E1F452E212057A
:10053D0061B4020A90000112057A42E142E212050D
:10054D0061B4030D90000112057AFFF452E1EF4200
:04055D00E27F002217
:03001E00011E02BE
:10002600750A03E4F509FB7A0079097F0312030DCB
:10003600750A307B007A0079097F0112030D750A73
:10004600CF7B007A0079097F0212030D750A2075AD
:0D00560009037B007A0079097F0402030D85
:10006600750940750A01750E00750DC2750C01758E
:100076000B00751001E4F511FB7A0079097F011276
:0C00860007377D017F01120D7553A23F6A
:01009200224B
:100EC700E4F509750A01F50B750CA2750D40750F50
:100ED70001FB7A007909FF1200A6E4FD7F01020CED
:010EE7003FCB
:100EE800E51DD394004016D51D13E51CD39400408E
:010EF80009F0
:090EF900900000E0F50885081ED8
:040F0200E4F51C22D4
:10098B00E4F509E5097002C2A7E509B40102C2A6A4
:10099B00E509B40202C295E509B40302C294E50964
:1009AB00B40402C2A3E509B40502C2A2E509B40668
:1009BB0002C2A1E509B40702C2A07F64120F64054D
:1009CB0009C3E5096480948840B97FC8120F64D2CB
:0F09DB00A0D2A1D2A2D2A3D294D295D2A6D2A753
:0109EA0022EA
:1009EB00750907E5097002C2A7E509B40102C2A6A1
:1009FB00E509B40202C295E509B40302C294E50904
:100A0B00B40402C2A3E509B40502C2A2E509B40607
:100A1B0002C2A1E509B40702C2A07F64120F6415DC
:100A2B0009C3E5096480948050B97FC8120F64D262
:0F0A3B00A0D2A1D2A2D2A3D294D295D2A6D2A7F2
:010A4A002289
:100DB300120026120066120EC7D2AFC2C5D2A0D24D
:100DC300A1D2A2D2A3D294D295D2A6D2A77F0A123D
:100DD3000F64E51E70081209EB751E0280EFE51E15
:0B0DE300B401EA12098B751E0280E2C9
:1000A600AD07ED7079C28C120561FED3940340034F
:1000B6007FFF22E58954FC4EF58990000112057AEE
:1000C600FED3940240037FFF22EE7006538E7F53C9
:1000D60089FB90000112057AB40106438E8053898C
:1000E600FB90000112057AB40203438904900002D2
:1000F60012057AFFE58F54FE4FF58F900003120527
:10010600A7E5F0F58C9000031205A7F58A90000686
:1001160012057A7004C28C8002D28C7F0022ED64B4
:100126000160030201ACC28E120561FED394034046
:10013600037FFF22EEC454F0FFE58954CF4FF589C3
:1001460090000112057AFED3940240037FFF22EE4F
:100156007006538EBF5389BF90000112057AB40111
:1001660006438E405389BF90000112057AB40203FC
:1001760043894090000212057A25E0FFE58F54FD81
:100186004FF58F9000031205A7E5F0F58D9000035B
:100196001205A7F58B90000612057A7004C28E80B0
:1001A60002D28E7F0022ED64027065538EEF9000BE
:1001B6000112057AFF7006538EFB538EF7EFB401DA
:1001C60006438E04538EF7EFB40203438E08900065
:1001D6000212057A25E025E0FFE58F54FB4FF58FE7
:1001E6009000031205A7E5F0F5D69000031205A7C7
:1001F600F5D790000512057A90FEA2F0900006123F
:10020600057AC454F0FFE58E54EF4FF58E7F002239
:10021600ED6403707253D1F790000112057AFED394
:10022600940240037FFF22EE700653D1FD53D1FBAB
:1002360090000112057AB4010643D10253D1FB9016
:10024600000112057AB4020343D10490000212059C
:100256007AFFE5D154FE4FF5D19000031205A7E5CC
:10026600F0F5D49000031205A7F5D5900005120508
:100276007A90FEA3F090000612057A33333354F8D1
:10028600FFE5D154F78077ED6404707853D17F9001
:10029600000112057AFED3940240037FFF22EE701E
:1002A6000653D1DF53D1BF90000112057AB401067F
:1002B60043D12053D1BF90000112057AB402034303
:1002C600D14090000212057AC454F0FFE5D154EFF4
:1002D6004FF5D19000031205A7FDACF0ECF5D2AFB7
:1002E600058FD390000512057A90FEA4F0900006C3
:1002F60012057AC43333335480FFE5D1547F4FF56A
:07030600D17F00227FFF22DE
:060737008B128A138914E5
:10073D00EF64016003020882F519F51AF51BF51C2B
:10074D00F51DFF7E80900080E4F0A3DEFCE4FF7ECB
:10075D0080900000E4F0A3DEFC7E00AB12AA13A98A
:10076D0014120561FFE598543F4FF598EF64C06092
:10077D0008EF644060030208379000021206D17F33
:10078D00807E8D7D5B7C0012061B8F188E178D165B
:10079D008C15E4FFFE7D01FCAB18AA17A916A81550
:1007AD00C31206AD40037FFF22C3E49518F518E48C
:1007BD009517F51774019516F516E49515F515AB06
:1007CD0012AA13A91490000112057AFB6401702C72
:1007DD00C28E538EFE5389BF5389CF438E40AF18BF
:1007ED00AE17AD16AC1578081206BE8F8D85188B19
:1007FD00C2AB5389BF538FFDD28E8062EB64027002
:10080D0026538EEF438E01538EF7438E04AF18AEF1
:10081D0017AD16AC1578081206BE8FD68518D753AE
:10082D00AFFB438E1080377FFF22AB12AA13A914A2
:10083D00120561FF701390000812057AB40105438B
:10084D008E20801A538EDF8015EFB4801190000832
:10085D0012057AB40105438780800353877FAB125D
:10086D00AA13A91490000712057A7004C29C800285
:07087D00D29C7F00227FFFE7
:010884002251
:0A000E008F99751B01E51B70FC22A1
:100F5100120561FF600C12000E740129F9E43AFADE
:030F610080EE22FD
:05000300AE0702000E33
:100C3F00EFD3940140037FFF22EDD3940340037F52
:100C4F00FF22EF7004C2A98002D2A9ED700553B73D
:100C5F00FDC2B9BD010553B7FDD2B9BD020543B7FA
:0E0C6F0002C2B9BD030543B702D2B97F00220D
:100C7D00EFD3940140037FFF22EDD3940340037F14
:100C8D00FF22EF7004C2AB8002D2ABED700553B7FB
:100C9D00F7C2BBBD010553B7F7D2BBBD020543B7C4
:0E0CAD0008C2BBBD030543B708D2BB7F0022BF
:100E8300EFD3940140037FFF22EDD3940340037F0C
:100E9300FF22EF25E025E0FFE5AF54FB4FF5AFE47C
:020EA300FF222C
:100EA500EFD3940140037FFF22EDD3940340037FEA
:100EB500FF22EFC43354E0FFE5AF54DF4FF5AFE455
:020EC500FF220A
:100E6000EFD3940140037FFF22EDD3940340037F2F
:100E7000FF22EFC4333354C0FFE5AF54BF4FF5AF8B
:030E8000E4FF226A
:100CBB00EFD3940140037FFF22EDD3940340037FD6
:100CCB00FF22EF7004C2A88002D2A8ED700553B7C3
:100CDB00FEC2B8BD010553B7FED2B8BD020543B77E
:0E0CEB0001C2B8BD030543B701D2B87F002295
:100CF900EFD3940140037FFF22EDD3940340037F98
:100D0900FF22EF7004C2AA8002D2AAED700553B780
:100D1900FBC2BABD010553B7FBD2BABD020543B741
:0E0D290004C2BABD030543B704D2BA7F00224C
:100F3900EFD3940140037FFF22EFC454F0FFE58F04
:080F490054EF4FF58FE4FF2285
:100F2000EFD3940140037FFF22EFC43354E0FFE589
:090F30008F54DF4FF58FE4FF221E
:100F0600EFD3940140037FFF22EFC4333354C0FF75
:0A0F1600E58F54BF4FF58FE4FF2272
:100D3700EFD3940140037FFF22EDD3940340037F59
:100D4700FF22EF7004C2AD8002D2ADED700553B73C
:100D5700DFC2BDBD010553B7DFD2BDBD020543B735
:0E0D670020C2BDBD030543B720D2BD7F0022D0
:100AA400EDD3940340037FFF22EF30E10543E620BA
:100AB400800353E6DFEF30E00543E610800353E69E
:100AC400EFED700653B6DF53B5DFBD010653B6DF55
:100AD40043B520BD020643B62053B5DFBD0306432C
:080AE400B62043B5207F00227B
:100A4B00EFD3940140037FFF22EBD3940340037F4A
:100A5B00FF22BF0112ED90FE817006E0547FF08003
:100A6B0011E04480F0800BEF700890FE83E0548718
:100A7B004DF0EB700653B6DF53B5DFBB010653B633
:100A8B00DF43B520BB020643B62053B5DFBB0306DD
:090A9B0043B62043B5207F002280
:100D7500EFD3940140037FFF22EDD3940340037F1B
:100D8500FF22EF7004C2AC8002D2ACED700553B700
:100D9500EFC2BCBD010553B7EFD2BCBD020543B7D9
:0E0DA50010C2BCBD030543B710D2BC7F0022B4
:100BFF00EFD3940140037FFF22EDD3940340037F93
:100C0F00FF22E5AF54FE4FF5AFED700653B6FE531E
:100C1F00B5FEBD010653B6FE43B501BD020643B690
:100C2F000153B5FEBD030643B60143B5017F002254
:100AEC00EFD3940140037FFF22EDD3940340037FA7
:100AFC00FF22EF33333354F8FFE5AF54F74FF5AF24
:100B0C00ED700653EEFE53DFFEBD010653EEFE43C1
:100B1C00DF01BD020643EE0153DFFEBD030643EECB
:070B2C000143DF017F0022FD
:100B3300EFD3940140037FFF22EDD3940340037F5F
:100B4300FF22EFC454F0FFE5AF54EF4FF5AFED7064
:100B53000653EEFD53DFFDBD010653EEFD43DF02F9
:100B6300BD020643EE0253DFFDBD030643EE02431F
:050B7300DF027F0022FB
:100B7800EFD3940140037FFF22EDD3940340037F1A
:100B8800FF22EF25E0FFE5AF54FD4FF5AFED70060E
:100B980053B6FD53B5FDBD010653B6FD43B502BDC1
:100BA800020643B60253B5FDBD030643B60243B57C
:040BB800027F002296
:10091100EFD3948140037FFF22EBD3940340037F05
:10092100FF22EF247F603004705890FEC4EDF0EB9D
:10093100700653B6FB53B5FBBB010653B6FB43B57B
:1009410004BB020643B60453B5FBEB6403703843A2
:10095100B60443B504803090FEE4EDF0EB7006532D
:10096100B6F753B5F7BB010653B6F743B508BB025B
:100971000643B60853B5F7BB030D43B60843B508A4
:0A098100800590FEE4EDF07F0022F7
:100E2900EDD394035026ED700653EEFB53DFFBBD63
:100E3900010653EEFB43DF04BD020643EE0453DF14
:100E4900FBBD030B43EE0443DF0480037FFF2290C5
:070E5900FE62EFF07F0022B2
:03002300020BBC11
:100BBC00C0E0C083C082C0D075D000C00730982080
:100BCC00C298E51CC394804003751C00AF1C051C27
:100BDC0074002FF582E43400F583E599F0751D055A
:100BEC00309905C299751B00D007D0D0D082D08324
:030BFC00D0E03214
:03000B00020DEEF5
:100DEE00C0E0C0F0C083C082C0D075D000C000C0CB
:100DFE0001C002C003C004C005C006C007120EE841
:100E0E00D007D006D005D004D003D002D001D00038
:0B0E1E00D0D0D082D083D0F0D0E032E2
:03001B00020008D8
:03000800B2EE3223
:0300630002001880
:03001800B2ED3214
:03009B00020093CD
:03009300B2EC329A
:0300A300020096C2
:03009600B2EB3298
:030000000208856E
:0C088500787FE4F6D8FD75811E0208CCD7
:10056100BB010689828A83E0225002E722BBFE0298
:09057100E32289828A83E49322CB
:10057A00BB010CE58229F582E5833AF583E0225036
:10058A0006E92582F8E622BBFE06E92582F8E22280
:0D059A00E58229F582E5833AF583E493229A
:1005A700BB0110E58229F582E5833AF583E0F5F092
:1005B700A3E0225009E92582F886F008E622BBFE6F
:1005C7000AE92582F8E2F5F008E222E5832AF583B5
:0805D700E993F5F0A3E993227A
:1005DF0075F008758200EF2FFFEE33FECD33CDCCD3
:1005EF0033CCC58233C5829BED9AEC99E582984056
:1005FF000CF582EE9BFEED9AFDEC99FC0FD5F0D633
:10060F00E4CEFBE4CDFAE4CCF9A88222B800C1B95C
:10061F000059BA002DEC8BF084CFCECDFCE5F0CB9A
:10062F00F97818EF2FFFEE33FEED33FDEC33FCEBD3
:10063F0033FB10D703994004EB99FB0FD8E5E4F98E
:10064F00FA227818EF2FFFEE33FEED33FDEC33FC7B
:10065F00C933C910D7059BE99A4007EC9BFCE99A6F
:10066F00F90FD8E0E4C9FAE4CCFB2275F010EF2FB4
:10067F00FFEE33FEED33FDCC33CCC833C810D707B4
:10068F009BEC9AE899400AED9BFDEC9AFCE899F8EF
:0E069F000FD5F0DAE4CDFBE4CCFAE4C8F92282
:1006AD00EB9FF5F0EA9E42F0E99D42F0E89C45F0A3
:0106BD00221A
:1006BE00E8600FECC313FCED13FDEE13FEEF13FF1A
:0306CE00D8F1223E
:1006D100BB010DE58229F582E5833AF58302070E18
:1006E1005007E92582F8020701BBFE07E92582F8D8
:1006F10002071AE58229F582E5833AF58302072785
:10089100020DB3E493A3F8E493A34003F68001F2BD
:1008A10008DFF48029E493A3F85407240CC8C33368
:1008B100C4540F4420C8834004F456800146F6DF37
:1008C100E4800B010204081020408090001EE47EA9
:1008D100019360BCA3FF543F30E509541FFEE4932C
:1008E100A360010ECF54C025E060A840B8E493A3F3
:1008F100FAE493A3F8E493A3C8C582C8CAC583CA1E
:10090100F0A3C8C582C8CAC583CADFE9DEE780BED5
:0100210000DE
:0D070100E6FB08E6F908E6FA08E6CBF82268
:0C070E00E0F8A3E0F9A3E0FAA3E0FB226E
:0D071A00E2FB08E2F908E2FA08E2CBF8225F
:10072700E493F8740193F9740293FA740393FB2228
:00000001FF
