:100E0B00524F573A256420434F4CEFBC9A25642030
:100E1B006F66204B657920446F776E0A00524F57EF
:100E2B003A256420434F4CEFBC9A2564206F662013
:080E3B004B65792055700A0097
:100FA0001022010101010101010101010101010101
:020FB00001013D
:100F560053933753943753917F53927F53B1CF5363
:090F6600B2CF53B3FC53B4FC22DA
:100E7A00750840750901750D00750CC2750B017571
:100E8A000A00750F01E4F510FB7A0079087F011258
:0C0E9A0007BC7D017F01120DCD53A23F6B
:010EA6002229
:100EA700EF7003C38001D392B4BF0103C38001D3A2
:100EB70092B5BF0203C38001D392C0BF0303C380AF
:050EC70001D392C122DD
:100ECC00EF14600E14600F14601024037012A283D0
:100EDC00800AA2868006A2878002A297E433FF22B2
:030EEC007F002262
:10090A00E4F508AF08120EA7E4F509AF09120ECCF8
:10091A00EF7032E50825E025E025092422F8E6648F
:10092A000170227BFF7A0E790BF50D85080EF50F03
:10093A00850910120088E50825E025E0250924220A
:10094A00F8E4F68038AF09120ECCEF6401702EE598
:10095A000825E025E025092422F8E670207BFF7AA5
:10096A000E7928F50D85080EF50F850910120088F5
:10097A00E50825E025E025092422F876010509E5A0
:10098A0009C3940440850508E508C394045003028A
:02099A00090D45
:01099C002238
:100FC600120F56120E7AD2AF12090A7F19120FD8D3
:020FD60080F6A3
:0F0FD8007D607C09ED1D70011C144C70F7DFF17A
:010FE70022E7
:10038200EFD3940740037FFF221205D6FED39403D6
:1003920040037FFF22EF7041EE700B9000011205C7
:1003A200EFF4529352941205D6B4010B900001124D
:1003B20005EF4293F452941205D6FEB4020A90005D
:1003C200011205EF42934294EEB4030D9000011224
:1003D20005EFFEF45293EE4294EF6401704312056E
:1003E200D6FE700B9000011205EFF452915292EE7C
:1003F200B4010B9000011205EF4291F452921205E2
:10040200D6B4020A9000011205EF429142921205FF
:10041200D6B4030D9000011205EFFEF45291EE42A4
:1004220092EF640270431205D6FE700B9000011227
:1004320005EFF452955296EEB4010B9000011205AD
:10044200EF4295F452961205D6B4020A90000112B8
:1004520005EF429542961205D6B4030D90000112A3
:1004620005EFFEF45295EE4296EF640370431205D7
:10047200D6FE700B9000011205EFF452B152B2EEAB
:10048200B4010B9000011205EF42B1F452B2120511
:10049200D6B4020A9000011205EF42B142B212052F
:1004A200D6B4030D9000011205EFFEF452B1EE42F4
:1004B200B2EF640470431205D6FE700B9000011275
:1004C20005EFF452B352B4EEB4010B9000011205E1
:1004D200EF42B3F452B41205D6B4020A90000112EC
:1004E20005EF42B342B41205D6B4030D90000112D7
:1004F20005EFFEF452B3EE42B4EF64057043120509
:10050200D6FE700B9000011205EFF452C952CAEEEA
:10051200B4010B9000011205EF42C9F452CA120550
:10052200D6B4020A9000011205EF42C942CA12056E
:10053200D6B4030D9000011205EFFEF452C9EE424B
:10054200CAEF640670431205D6FE700B90000112CA
:1005520005EFF452CB52CCEEB4010B900001120520
:10056200EF42CBF452CC1205D6B4020A900001122B
:1005720005EF42CB42CC1205D6B4030D9000011216
:1005820005EFFEF452CBEE42CCEF64077043120546
:10059200D6FF700B9000011205EFF452E152E2EF28
:1005A200B4010B9000011205EF42E1F452E2120590
:1005B200D6B4020A9000011205EF42E142E21205AE
:1005C200D6B4030D9000011205EFFFF452E1EF42A1
:0405D200E27F0022A2
:0607BC008B118A12891363
:1007C200EF64016003020907F532F533F534F535BC
:1007D200F536FF7E80900080E4F0A3DEFCE4FF7E2D
:1007E20080900000E4F0A3DEFC7E00AB11AA12A907
:1007F200131205D6FFE598543F4FF598EF64C06099
:1008020008EF644060030208BC90000212070E7FEA
:10081200807E8D7D5B7C001206588F178E168D159B
:100822008C14E4FFFE7D01FCAB17AA16A915A814CF
:10083200C31206EA40037FFF22C3E49517F517E4CB
:100842009516F51674019515F515E49514F514AB86
:1008520011AA12A9139000011205EFFB6401702C7A
:10086200C28E538EFE5389BF5389CF438E40AF173A
:10087200AE16AD15AC1478081206FB8F8D85178B5A
:10088200C2AB5389BF538FFDD28E8062EB6402707C
:1008920026538EEF438E01538EF7438E04AF17AE6D
:1008A20016AD15AC1478081206FB8FD68517D753F0
:1008B200AFFB438E1080377FFF22AB11AA12A91320
:1008C2001205D6FF70139000081205EFB40105431C
:1008D2008E20801A538EDF8015EFB48011900008AD
:1008E2001205EFB40105438780800353877FAB1164
:1008F200AA12A9139000071205EF7004C29C80028D
:07090200D29C7F00227FFF61
:0109090022CB
:0A0FE8008F99753401E53470FC2286
:100FB3001205D6FF600C120FE8740129F9E43AFA1E
:030FC30080EE229B
:05001D00AE07020FE830
:03002300020C14B8
:100C1400C0E0C083C082C0D075D000C00730982027
:100C2400C298E535C394804003753500AF3505356A
:100C340074002FF582E43400F583E599F0753605E8
:100C4400309905C299753400D007D0D0D082D083B2
:030C5400D0E032BB
:100C9700EFD3940140037FFF22EDD3940340037FFA
:100CA700FF22EF7004C2A98002D2A9ED700553B7E5
:100CB700FDC2B9BD010553B7FDD2B9BD020543B7A2
:0E0CC70002C2B9BD030543B702D2B97F0022B5
:100CD500EFD3940140037FFF22EDD3940340037FBC
:100CE500FF22EF7004C2AB8002D2ABED700553B7A3
:100CF500F7C2BBBD010553B7F7D2BBBD020543B76C
:0E0D050008C2BBBD030543B708D2BB7F002266
:100F1200EFD3940140037FFF22EDD3940340037F7C
:100F2200FF22EF25E025E0FFE5AF54FB4FF5AFE4EC
:020F3200FF229C
:100F3400EFD3940140037FFF22EDD3940340037F5A
:100F4400FF22EFC43354E0FFE5AF54DF4FF5AFE4C5
:020F5400FF227A
:100EEF00EFD3940140037FFF22EDD3940340037FA0
:100EFF00FF22EFC4333354C0FFE5AF54BF4FF5AFFC
:030F0F00E4FF22DA
:100D1300EFD3940140037FFF22EDD3940340037F7D
:100D2300FF22EF7004C2A88002D2A8ED700553B76A
:100D3300FEC2B8BD010553B7FED2B8BD020543B725
:0E0D430001C2B8BD030543B701D2B87F00223C
:100D5100EFD3940140037FFF22EDD3940340037F3F
:100D6100FF22EF7004C2AA8002D2AAED700553B728
:100D7100FBC2BABD010553B7FBD2BABD020543B7E9
:0E0D810004C2BABD030543B704D2BA7F0022F4
:100F8800EFD3940140037FFF22EFC454F0FFE58FB5
:080F980054EF4FF58FE4FF2236
:100F6F00EFD3940140037FFF22EFC43354E0FFE53A
:090F7F008F54DF4FF58FE4FF22CF
:10000300EFD3940140037FFF22EFC4333354C0FF87
:0A001300E58F54BF4FF58FE4FF2284
:100D8F00EFD3940140037FFF22EDD3940340037F01
:100D9F00FF22EF7004C2AD8002D2ADED700553B7E4
:100DAF00DFC2BDBD010553B7DFD2BDBD020543B7DD
:0E0DBF0020C2BDBD030543B720D2BD7F002278
:100AFC00EDD3940340037FFF22EF30E10543E62062
:100B0C00800353E6DFEF30E00543E610800353E645
:100B1C00EFED700653B6DF53B5DFBD010653B6DFFC
:100B2C0043B520BD020643B62053B5DFBD030643D3
:080B3C00B62043B5207F002222
:100AA300EFD3940140037FFF22EBD3940340037FF2
:100AB300FF22BF0112ED90FE817006E0547FF080AB
:100AC30011E04480F0800BEF700890FE83E05487C0
:100AD3004DF0EB700653B6DF53B5DFBB010653B6DB
:100AE300DF43B520BB020643B62053B5DFBB030685
:090AF30043B62043B5207F002228
:100DCD00EFD3940140037FFF22EDD3940340037FC3
:100DDD00FF22EF7004C2AC8002D2ACED700553B7A8
:100DED00EFC2BCBD010553B7EFD2BCBD020543B781
:0E0DFD0010C2BCBD030543B710D2BC7F00225C
:100C5700EFD3940140037FFF22EDD3940340037F3A
:100C6700FF22E5AF54FE4FF5AFED700653B6FE53C6
:100C7700B5FEBD010653B6FE43B501BD020643B638
:100C87000153B5FEBD030643B60143B5017F0022FC
:100B4400EFD3940140037FFF22EDD3940340037F4E
:100B5400FF22EF33333354F8FFE5AF54F74FF5AFCB
:100B6400ED700653EEFE53DFFEBD010653EEFE4369
:100B7400DF01BD020643EE0153DFFEBD030643EE73
:070B84000143DF017F0022A5
:100B8B00EFD3940140037FFF22EDD3940340037F07
:100B9B00FF22EFC454F0FFE5AF54EF4FF5AFED700C
:100BAB000653EEFD53DFFDBD010653EEFD43DF02A1
:100BBB00BD020643EE0253DFFDBD030643EE0243C7
:050BCB00DF027F0022A3
:100BD000EFD3940140037FFF22EDD3940340037FC2
:100BE000FF22EF25E0FFE5AF54FD4FF5AFED7006B6
:100BF00053B6FD53B5FDBD010653B6FD43B502BD69
:100C0000020643B60253B5FDBD030643B60243B523
:040C1000027F00223D
:100A2900EFD3948140037FFF22EBD3940340037FEC
:100A3900FF22EF247F603004705890FEC4EDF0EB84
:100A4900700653B6FB53B5FBBB010653B6FB43B562
:100A590004BB020643B60453B5FBEB640370384389
:100A6900B60443B504803090FEE4EDF0EB70065314
:100A7900B6F753B5F7BB010653B6F743B508BB0242
:100A89000643B60853B5F7BB030D43B60843B5088B
:0A0A9900800590FEE4EDF07F0022DE
:100E4300EDD394035026ED700653EEFB53DFFBBD49
:100E5300010653EEFB43DF04BD020643EE0453DFFA
:100E6300FBBD030B43EE0443DF0480037FFF2290AB
:070E7300FE62EFF07F002298
:0300000002099D55
:0C099D00787FE4F6D8FD7581360209E48D
:1005D600BB010689828A83E0225002E722BBFE0223
:0905E600E32289828A83E4932256
:1005EF00BB010CE58229F582E5833AF583E02250C1
:1005FF0006E92582F8E622BBFE06E92582F8E2220B
:0D060F00E58229F582E5833AF583E4932224
:10061C0075F008758200EF2FFFEE33FECD33CDCC95
:10062C0033CCC58233C5829BED9AEC99E582984018
:10063C000CF582EE9BFEED9AFDEC99FC0FD5F0D6F5
:10064C00E4CEFBE4CDFAE4CCF9A88222B800C1B91F
:10065C000059BA002DEC8BF084CFCECDFCE5F0CB5D
:10066C00F97818EF2FFFEE33FEED33FDEC33FCEB96
:10067C0033FB10D703994004EB99FB0FD8E5E4F951
:10068C00FA227818EF2FFFEE33FEED33FDEC33FC3E
:10069C00C933C910D7059BE99A4007EC9BFCE99A32
:1006AC00F90FD8E0E4C9FAE4CCFB2275F010EF2F77
:1006BC00FFEE33FEED33FDCC33CCC833C810D70777
:1006CC009BEC9AE899400AED9BFDEC9AFCE899F8B2
:0E06DC000FD5F0DAE4CDFBE4CCFAE4C8F92245
:1006EA00EB9FF5F0EA9E42F0E99D42F0E89C45F066
:0106FA0022DD
:1006FB00E8600FECC313FCED13FDEE13FEEF13FFDD
:03070B00D8F12200
:10070E00BB010DE58229F582E5833AF58302075D8B
:10071E005007E92582F8020750BBFE07E92582F84B
:10072E00020769E58229F582E5833AF583020776A9
:10002600E519240DF8E6051922780A300702780D3D
:10003600E475F0011207860205D62000EB7F2ED26A
:10004600008018EF540F2490D43440D4FF30040BB2
:10005600EF24BFB41A0050032461FFE51A600215AD
:100066001A051DE51D7002051C30070D780AE4759A
:10007600F001120786EF02073E02001D7403D20745
:100086008003E4C207F5198B0A8A0B890CE4F51A7A
:10009600F51CF51DE51A60077F2012006180F575D5
:1000A6001BFFC201C200C202C203C205C206C208C9
:1000B60012002FFF700D3007057F00120072AF1D72
:1000C600AE1C22B4255FC2D5C20412002FFF24D075
:1000D600B40A00501A75F00A781A30D50508B6FF2A
:1000E6000106C6A426F620D5047002D20380D924C0
:1000F600CFB41A00EF5004C2E5D204020272D20154
:1001060080C6D20080C0D20280BCD2D580BAD205C9
:1001160080B47F201200612002077401B51A0040E6
:10012600F1120026FF12006102009AD208D2068060
:1001360095120026FB120026FA120026F94A4B7089
:100146000679437A037BFF20022EE51A602A7E0099
:100156008E827583001205EF60060EEE651B70F049
:10016600C2D5EBC0E0EAC0E0E9C0E0EE1202B9D0C9
:10017600E0F9D0E0FAD0E0FB1205D6FF60AAEBC0AA
:10018600E0EAC0E0E9C0E0120061D0E02401F9D065
:10019600E03400FAD0E0FBE51B0460DCD51BD98017
:1001A600877BFF7A0279B5D202809C79108002792A
:1001B60008C206C2088008D2D5790A8004790AC224
:1001C600D5E51B047002F51BE4FAFDFEFF120026BE
:1001D600FC7B08200113120026FD7B1030000A125A
:1001E6000026FE120026FF7B20EC3382D592D550E6
:1001F60013C3E43000069FFFE49EFEE42001039D46
:10020600FDE49CFCE4CBF8C201EC700CCFCECDCC67
:10021600E824F8F870F38017C3EF33FFEE33FEEDF2
:1002260033FDEC33FCEB33FB994002FB0FD8E9EBD3
:10023600300105F8D0E0C448B201C0E00AEC4D4EEA
:100246004F78207B0070C2EAB51B0040BCC0E012AC
:1002560002BBD0F0D0E0200104C4C0E0C4B201C0AB
:10026600F012004AD0F0D5F0EB02009A1207960180
:10027600375301B15801084C01044201B54F01BD85
:0F0286004401BD49011D4301C35501A74601A70E
:100295004501A747036350010C2D01102E01332B97
:1002A500011423013120034C2A00CC480000012B06
:1002B5003F3F3F00790AA2D5200314300509B91044
:1002C500020404B9080104A2D52006025001042045
:1002D50002689202B51A005034C0E07F203003193D
:1002E5007F30A20272067205500F120312C202C2BB
:1002F50006C205C2087F30800F300503E9C0E01251
:100305000061300503D0E0F9D0E0B51ACC3005170F
:100315007F30B9100C1200617F583004077F788058
:1003250003B908031200613002057F2D0200617FC9
:10033500202008F87F2B2006F322920280CF286E1A
:10034500756C6C2900D2011200263001F8C20178C3
:100355001A30D50108F60200CC2D50434958120039
:10036500262403B405004001E490035E9312005275
:0D037500743A120052D203751A040201B14D
:1009A900020FC6E493A3F8E493A34003F68001F28F
:1009B90008DFF48029E493A3F85407240CC8C3334F
:1009C900C4540F4420C8834004F456800146F6DF1E
:1009D900E4800B0102040810204080900FA0E47EFF
:1009E900019360BCA3FF543F30E509541FFEE49313
:1009F900A360010ECF54C025E060A840B8E493A3DA
:100A0900FAE493A3F8E493A3C8C582C8CAC583CA04
:100A1900F0A3C8C582C8CAC583CADFE9DEE780BEBC
:010FB200003E
:10073E00BB010689828A83F0225002F722BBFE019A
:02074E00F32294
:0D075000E6FB08E6F908E6FA08E6CBF82219
:0C075D00E0F8A3E0F9A3E0FAA3E0FB221F
:0D076900E2FB08E2F908E2FA08E2CBF82210
:10077600E493F8740193F9740293FA740393FB22D9
:10078600FAE6FB0808E6F925F0F618E6CA3AF62274
:10079600D083D082F8E4937012740193700DA3A3F2
:1007A60093F8740193F5828883E473740293686006
:0607B600EFA3A3A380DF06
:00000001FF
