:0F1334007D607C09ED1D70011C144C70F7DFF11A
:011343002287
:10071700EFD3940740037FFF22120422FED39403F2
:1007270040037FFF22EF7041EE700B90000112042F
:100737003BF452935294120422B4010B900001121D
:10074700043B4293F45294120422FEB4020A90002E
:100757000112043B42934294EEB4030D9000011240
:10076700043BFEF45293EE4294EF6401704312048B
:1007770022FE700B90000112043BF452915292EE4C
:10078700B4010B90000112043B4291F452921204FF
:1007970022B4020A90000112043B429142921204D1
:1007A70022B4030D90000112043BFEF45291EE4275
:1007B70092EF64027043120422FE700B9000011244
:1007C700043BF452955296EEB4010B9000011204CB
:1007D7003B4295F45296120422B4020A9000011289
:1007E700043B42954296120422B4030D9000011275
:1007F700043BFEF45295EE4296EF640370431204F5
:1008070022FE700B90000112043BF452B152B2EE7B
:10081700B4010B90000112043B42B1F452B212042E
:1008270022B4020A90000112043B42B142B2120400
:1008370022B4030D90000112043BFEF452B1EE42C4
:10084700B2EF64047043120422FE700B9000011291
:10085700043BF452B352B4EEB4010B9000011204FE
:100867003B42B3F452B4120422B4020A90000112BC
:10087700043B42B342B4120422B4030D90000112A8
:10088700043BFEF452B3EE42B4EF64057043120426
:1008970022FE700B90000112043BF452C952CAEEBB
:1008A700B4010B90000112043B42C9F452CA12046E
:1008B70022B4020A90000112043B42C942CA120440
:1008C70022B4030D90000112043BFEF452C9EE421C
:1008D700CAEF64067043120422FE700B90000112E7
:1008E700043BF452CB52CCEEB4010B90000112043E
:1008F7003B42CBF452CC120422B4020A90000112FC
:10090700043B42CB42CC120422B4030D90000112E7
:10091700043BFEF452CBEE42CCEF64077043120463
:1009270022FF700B90000112043BF452E152E2EFF8
:10093700B4010B90000112043B42E1F452E21204AD
:1009470022B4020A90000112043B42E142E212047F
:1009570022B4030D90000112043BFFF452E1EF4271
:04096700E27F002209
:1000260090000212043B6401702A90FE80E0444076
:10003600F090FE82E4F0120422543FFF90FE80E02E
:1000460054C04FF090000312043B90FE88B40102A6
:100056008031802990FE80E054BFF090FE84E4F069
:1000660090000412043B25E0FF90FE85E054014F0A
:10007600F090000512043B90FE85B40106E054FEA4
:10008600F08004E04401F090000112043B90FE80F1
:0C0096007005E0547FF022E04480F0226E
:0813D70090FE82E05480FF2229
:0C139A0090FE82E030E6F9E054BFF02243
:0913BC0090FE817401F002139A05
:0E13710090FE86EFF090FE817402F002139A57
:061344001213BC1213712C
:09134A0090FE817403F002139A75
:0F13530090FE817404F012139A90FE87E0FF223F
:0E137F0090FE82E4F090FE817405F002139A55
:0F13620090FE827401F090FE817405F002139AE0
:0913C50090FE817406F002139AF7
:0D138D0090FE86EDF090FE81EFF002139AC5
:1011EE008B368A378938AE05121344AF0612137147
:1011FE0012134AAB360538E538AA37700205371494
:10120E00F9120422FF12137112134AD539E5021393
:01121E00C50A
:10117D00AE07121344AF0512137112134A1213BCAA
:10118D00EE4401FF12137112134A121353EF12049E
:10119D0068740129F9E43AFAE53A6401600312131F
:0A11AD007FD53AE61213620213C563
:0300C300020C7DAF
:100C7D00C0E0C083C082C0D075D000C006C0079050
:100C8D00FE84E030E606E054BFF0807A90FE84E00A
:100C9D0030E535E054DFF0E50E6005750E00806639
:100CAD00E50D600D750D0090FE87E0F50F240080B9
:100CBD003490FE87E0FFAE0F050F74002EF582E431
:100CCD003401F583EFF0803E90FE84E030E424E0C3
:100CDD0054EFF0E030E10890FE8674FFF0802705B8
:100CED000F7400250FF582E43401F583E090FE8644
:100CFD00F0801390FE84E030E30CE054F7F0750EB5
:100D0D0001750D01D209D007D006D0D0D082D08385
:030D1D00D0E032F1
:1000030025642D25642D25642D25642D25642D253A
:0B001300642C5765656B3A25640A00F9
:10121F00752A40752B01752F00752EC2752D01751E
:10122F002C00753101E4F532FB7A00792A7F011227
:0C123F00096B7D017F0112113F53A23F9B
:01124B002280
:100D20001213CE12121FD2AF7522077523E8752455
:100D30000675261D75250175271775283B752936FB
:100D40007B007A007922120AB97B007A007922129C
:100D50000BAE7BFF7A00790385222D85232E752F1C
:100D6000008524307531008526327533008527349F
:100D70007535008528367537008529387539008521
:100D8000253A1201287FFA1213347FFA1213347FA6
:0B0D9000FA1213347FFA12133480AE05
:10100900EFD3940140037FFF22EDD3940340037F84
:10101900FF22EF7004C2A98002D2A9ED700553B76F
:10102900FDC2B9BD010553B7FDD2B9BD020543B72C
:0E10390002C2B9BD030543B702D2B97F00223F
:10104700EFD3940140037FFF22EDD3940340037F46
:10105700FF22EF7004C2AB8002D2ABED700553B72D
:10106700F7C2BBBD010553B7F7D2BBBD020543B7F6
:0E10770008C2BBBD030543B708D2BB7F0022F1
:10129400EFD3940140037FFF22EDD3940340037FF7
:1012A400FF22EF25E025E0FFE5AF54FB4FF5AFE467
:0212B400FF2217
:1012B600EFD3940140037FFF22EDD3940340037FD5
:1012C600FF22EFC43354E0FFE5AF54DF4FF5AFE440
:0212D600FF22F5
:10127100EFD3940140037FFF22EDD3940340037F1A
:10128100FF22EFC4333354C0FFE5AF54BF4FF5AF76
:03129100E4FF2255
:10108500EFD3940140037FFF22EDD3940340037F08
:10109500FF22EF7004C2A88002D2A8ED700553B7F5
:1010A500FEC2B8BD010553B7FED2B8BD020543B7B0
:0E10B50001C2B8BD030543B701D2B87F0022C7
:1010C300EFD3940140037FFF22EDD3940340037FCA
:1010D300FF22EF7004C2AA8002D2AAED700553B7B3
:1010E300FBC2BABD010553B7FBD2BABD020543B774
:0E10F30004C2BABD030543B704D2BA7F00227F
:1012F100EFD3940140037FFF22EFC454F0FFE58F49
:0813010054EF4FF58FE4FF22C9
:1012D800EFD3940140037FFF22EFC43354E0FFE5CE
:0912E8008F54DF4FF58FE4FF2263
:1000A200EFD3940140037FFF22EFC4333354C0FFE8
:0A00B200E58F54BF4FF58FE4FF22E5
:10110100EFD3940140037FFF22EDD3940340037F8B
:10111100FF22EF7004C2AD8002D2ADED700553B76E
:10112100DFC2BDBD010553B7DFD2BDBD020543B767
:0E11310020C2BDBD030543B720D2BD7F002202
:100E6E00EDD3940340037FFF22EF30E10543E620EC
:100E7E00800353E6DFEF30E00543E610800353E6D0
:100E8E00EFED700653B6DF53B5DFBD010653B6DF87
:100E9E0043B520BD020643B62053B5DFBD0306435E
:080EAE00B62043B5207F0022AD
:100E1500EFD3940140037FFF22EBD3940340037F7C
:100E2500FF22BF0112ED90FE817006E0547FF08035
:100E350011E04480F0800BEF700890FE83E054874A
:100E45004DF0EB700653B6DF53B5DFBB010653B665
:100E5500DF43B520BB020643B62053B5DFBB03060F
:090E650043B62043B5207F0022B2
:10113F00EFD3940140037FFF22EDD3940340037F4D
:10114F00FF22EF7004C2AC8002D2ACED700553B732
:10115F00EFC2BCBD010553B7EFD2BCBD020543B70B
:0E116F0010C2BCBD030543B710D2BC7F0022E6
:100FC900EFD3940140037FFF22EDD3940340037FC5
:100FD900FF22E5AF54FE4FF5AFED700653B6FE5351
:100FE900B5FEBD010653B6FE43B501BD020643B6C3
:100FF9000153B5FEBD030643B60143B5017F002287
:100EB600EFD3940140037FFF22EDD3940340037FD9
:100EC600FF22EF33333354F8FFE5AF54F74FF5AF56
:100ED600ED700653EEFE53DFFEBD010653EEFE43F4
:100EE600DF01BD020643EE0153DFFEBD030643EEFE
:070EF6000143DF017F002230
:100EFD00EFD3940140037FFF22EDD3940340037F92
:100F0D00FF22EFC454F0FFE5AF54EF4FF5AFED7096
:100F1D000653EEFD53DFFDBD010653EEFD43DF022B
:100F2D00BD020643EE0253DFFDBD030643EE024351
:050F3D00DF027F00222D
:100F4200EFD3940140037FFF22EDD3940340037F4C
:100F5200FF22EF25E0FFE5AF54FD4FF5AFED700640
:100F620053B6FD53B5FDBD010653B6FD43B502BDF3
:100F7200020643B60253B5FDBD030643B60243B5AE
:040F8200027F0022C8
:100D9B00EFD3948140037FFF22EBD3940340037F77
:100DAB00FF22EF247F603004705890FEC4EDF0EB0F
:100DBB00700653B6FB53B5FBBB010653B6FB43B5ED
:100DCB0004BB020643B60453B5FBEB640370384314
:100DDB00B60443B504803090FEE4EDF0EB7006539F
:100DEB00B6F753B5F7BB010653B6F743B508BB02CD
:100DFB000643B60853B5F7BB030D43B60843B50816
:0A0E0B00800590FEE4EDF07F002268
:1011B700EDD394035026ED700653EEFB53DFFBBDD2
:1011C700010653EEFB43DF04BD020643EE0453DF83
:1011D700FBBD030B43EE0443DF0480037FFF229034
:0711E700FE62EFF07F002221
:06096B008B338A3489354C
:10097100EF64016003020AB6F508F509F50AF50B03
:10098100F50CFF7E80900080E4F0A3DEFCE4FF7EA6
:1009910080900000E4F0A3DEFC7E00AB33AA34A912
:1009A10035120422FFE598543F4FF598EF64C0607B
:1009B10008EF64406003020A6B9000021206657F33
:1009C100807E8D7D5B7C001205AF8F398E388D372F
:1009D1008C36E4FFFE7D01FCAB39AA38A937A83675
:1009E100C312064140037FFF22C3E49539F539E480
:1009F1009538F53874019537F537E49536F536AB0A
:100A010033AA34A93590000112043BFB6401702C18
:100A1100C28E538EFE5389BF5389CF438E40AF3967
:100A2100AE38AD37AC3678081206528F8D85398BCA
:100A3100C2AB5389BF538FFDD28E8062EB640270CB
:100A410026538EEF438E01538EF7438E04AF39AE9A
:100A510038AD37AC3678081206528FD68539D75360
:100A6100AFFB438E1080377FFF22AB33AA34A93509
:100A7100120422FF701390000812043BB4010543D5
:100A81008E20801A538EDF8015EFB48011900008FC
:100A910012043BB40105438780800353877FAB3346
:100AA100AA34A93590000712043B7004C29C80024D
:070AB100D29C7F00227FFFB1
:010AB800221B
:0A13B2008F99750A01E50A70FC220C
:10132100120422FF600C1213B2740129F9E43AFA93
:0313310080EE2229
:05001E00AE070213B261
:03002300020F8643
:100F8600C0E0C083C082C0D075D000C007309820B2
:100F9600C298E50BC394804003750B00AF0B050B9D
:100FA60074002FF582E43400F583E599F0750C059D
:100FB600309905C299750A00D007D0D0D082D08367
:030FC600D0E03246
:10130900752A02752B0C7B007A00792A7F03120754
:071319001753B1FC53B2FCB5
:0113200022AA
:10124C00752C01752B01E4F52D752A0DFB7A0079AF
:10125C002A120026E4FBFD7F01120E15E5BA54CFCD
:04126C004430F5BA5B
:01127000225B
:0913CE0043BA8012130902124C0B
:060AB9008B2A8A2B892C18
:100ABF00E490000712043BFE75F00A84C454F0FD65
:100ACF00EE75F00A84E5F02DF52D90000612043B2B
:100ADF00FE75F00A84C454F0FDEE75F00A84E5F05B
:100AEF002DF52E90000512043BFE75F00A84C454B8
:100AFF00F0FDEE75F00A84E5F02DF52F900003124E
:100B0F00043BF53090000412043BFE75F00A84C4D8
:100B1F0054F0FDEE75F00A84E5F02DF5311204F175
:100B2F00C39434E5F0940850047E0080027E01AF38
:100B3F0006AB2AAA2BA92C90000212043BFE75F0DB
:100B4F000A84C454F0FDEFC433333354802DFFEEC9
:100B5F0075F00A84E5F02FF5321204F1FFAEF07C48
:100B6F00007D6412049CAA04AB057D0A7C00AF03D0
:100B7F00AE0212049CEFC4F8540FC868FFC0077D83
:100B8F000A7C00AF03AE0212049CD0E02DF5337B3C
:0F0B9F00007A00792D7539077D027FA20211EED1
:060BAE008B2A8A2B892C22
:100BB400E4F534FB7A00792D753A077D027FA212A1
:100BC400117DE52DC4540775F00AA4FFE52D540FDB
:100BD4002FAB2AAA2BA92C90000712047AE52EC465
:100BE400540775F00AA4FFE52E540F2F9000061247
:100BF400047AE52FC4540375F00AA4FFE52F540FBB
:100C04002F90000512047AE530C4540375F00AA449
:100C1400FFE530540F2F90000412047AE531540795
:100C240090000312047AE532C4540175F00AA4FF5B
:100C3400E532540F2F90000212047AE532C41313E4
:100C4400135401F534E533C4540F75F00AA4FFE5D9
:100C540033540F7C002FFFEC35F08FF0120554E570
:100C64003470067E077FD080047E087F34AB2AAAC6
:090C74002BA92CEE8FF002051CE7
:030000000213A642
:0C13A600787FE4F6D8FD75813D020D2033
:10042200BB010689828A83E0225002E722BBFE02D8
:09043200E32289828A83E493220B
:10043B00BB010CE58229F582E5833AF583E0225076
:10044B0006E92582F8E622BBFE06E92582F8E222C0
:0D045B00E58229F582E5833AF583E49322DA
:10046800BB010689828A83F0225002F722BBFE0173
:02047800F3226D
:10047A00F8BB010DE58229F582E5833AF583E8F0B8
:10048A00225006E92582C8F622BBFE05E92582C864
:02049A00F2224C
:10049C00BC000BBE0029EF8DF084FFADF022E4CC44
:1004AC00F875F008EF2FFFEE33FEEC33FCEE9DEC0D
:1004BC00984005FCEE9DFE0FD5F0E9E4CEFD22ED53
:1004CC00F8F5F0EE8420D21CFEADF075F008EF2F9D
:1004DC00FFED33FD4007985006D5F0F222C398FD8E
:0504EC000FD5F0EA222B
:1004F100BB010A89828A83E0F5F0A3E022500687D6
:10050100F009E71922BBFE07E3F5F009E319228997
:0B051100828A83E493F5F074019322CA
:10051C00BB010789828A83020695500B09C5F02717
:10052C00F7C5F01937F722BBFE0D09F8E325F0F3F8
:10053C00C5F019E338F322F889828A837401932574
:08054C00F0C5F0F8E493382239
:10055400BB010A89828A83F0E5F0A3F0225006F7F2
:0F05640009A7F01922BBFE06F3E5F009F31922EF
:1005730075F008758200EF2FFFEE33FECD33CDCC3F
:1005830033CCC58233C5829BED9AEC99E5829840C2
:100593000CF582EE9BFEED9AFDEC99FC0FD5F0D69F
:1005A300E4CEFBE4CDFAE4CCF9A88222B800C1B9C9
:1005B3000059BA002DEC8BF084CFCECDFCE5F0CB07
:1005C300F97818EF2FFFEE33FEED33FDEC33FCEB40
:1005D30033FB10D703994004EB99FB0FD8E5E4F9FB
:1005E300FA227818EF2FFFEE33FEED33FDEC33FCE8
:1005F300C933C910D7059BE99A4007EC9BFCE99ADC
:10060300F90FD8E0E4C9FAE4CCFB2275F010EF2F20
:10061300FFEE33FEED33FDCC33CCC833C810D70720
:100623009BEC9AE899400AED9BFDEC9AFCE899F85B
:0E0633000FD5F0DAE4CDFBE4CCFAE4C8F922EE
:10064100EB9FF5F0EA9E42F0E99D42F0E89C45F00F
:010651002286
:10065200E8600FECC313FCED13FDEE13FEEF13FF86
:03066200D8F122AA
:10066500BB010DE58229F582E5833AF5830206B8DB
:100675005007E92582F80206ABBBFE07E92582F89B
:100685000206C4E58229F582E5833AF5830206D19F
:1000C600E539242DF8E6053922782A300702782DFD
:1000D600E475F0011206E10204222000EB7F2ED225
:1000E600008018EF540F2490D43440D4FF30040B12
:1000F600EF24BFB41A0050032461FFE53A600215ED
:100106003A053DE53D7002053C30070D782AE47559
:10011600F0011206E1EF02046802001E7403D20722
:100126008003E4C207F5398B2A8A2B892CE4F53A39
:10013600F53CF53DE53A60077F2012010180F57533
:100146003BFFC201C200C202C203C205C206C20808
:100156001200CFFF700D3007057F00120112AF3D70
:10016600AE3C22B4255FC2D5C2041200CFFF24D014
:10017600B40A00501A75F00A783A30D50508B6FF69
:100186000106C6A426F620D5047002D20380D9241F
:10019600CFB41A00EF5004C2E5D204020312D20112
:1001A60080C6D20080C0D20280BCD2D580BAD20529
:1001B60080B47F201201012002077401B53A004085
:1001C600F11200C6FF12010102013AD208D20680DE
:1001D600951200C6FB1200C6FA1200C6F94A4B7009
:1001E6000679E37A037BFF20022EE53A602A7E0039
:1001F6008E8275830012043B60060EEE653B70F03E
:10020600C2D5EBC0E0EAC0E0E9C0E0EE120359D087
:10021600E0F9D0E0FAD0E0FB120422FF60AAEBC0BE
:10022600E0EAC0E0E9C0E0120101D0E02401F9D023
:10023600E03400FAD0E0FBE53B0460DCD53BD98036
:10024600877BFF7A037955D202809C7910800279E8
:1002560008C206C2088008D2D5790A8004790AC283
:10026600D5E53B047002F53BE4FAFDFEFF1200C63D
:10027600FC7B082001131200C6FD7B1030000A1219
:1002860000C6FE1200C6FF7B20EC3382D592D55005
:1002960013C3E43000069FFFE49EFEE42001039DA5
:1002A600FDE49CFCE4CBF8C201EC700CCFCECDCCC7
:1002B600E824F8F870F38017C3EF33FFEE33FEED52
:1002C60033FDEC33FCEB33FB994002FB0FD8E9EB33
:1002D600300105F8D0E0C448B201C0E00AEC4D4E4A
:1002E6004F78207B0070C2EAB53B0040BCC0E012EC
:1002F600035BD0F0D0E0200104C4C0E0C4B201C06A
:10030600F01200EAD0F0D5F0EB02013A1206F10144
:10031600D75302515801A84C01A44202554F025D21
:0F03260044025D4901BD43026355024746024749
:100335004502474704035001AC2D01B02E01D32BD4
:1003450001B42301D12003EC2A016C48000001CB44
:100355003F3F3F00790AA2D5200314300509B910A3
:10036500020404B9080104A2D520060250010420A4
:1003750002689202B53A005034C0E07F203003197C
:100385007F30A20272067205500F1203B2C202C27A
:1003950006C205C2087F30800F300503E9C0E012B0
:1003A5000101300503D0E0F9D0E0B53ACC300517AE
:1003B5007F30B9100C1201017F583004077F788017
:1003C50003B908031201013002057F2D0201017FE7
:1003D500202008F87F2B2006F322920280CF286E7A
:1003E500756C6C2900D2011200C63001F8C2017883
:1003F5003A30D50108F602016C2D504349581200D8
:10040500C62403B405004001E49003FE931200F2F4
:0D041500743A1200F2D203753A040202514B
:10069500C5F0F8A3E028F0C5F0F8E58215827002F0
:0606A5001583E038F0228D
:0D06AB00E6FB08E6F908E6FA08E6CBF822BF
:0C06B800E0F8A3E0F9A3E0FAA3E0FB22C5
:0D06C400E2FB08E2F908E2FA08E2CBF822B6
:1006D100E493F8740193F9740293FA740393FB227F
:1006E100FAE6FB0808E6F925F0F618E6CA3AF6221A
:1006F100D083D082F8E4937012740193700DA3A398
:1007010093F8740193F5828883E4737402936860AB
:06071100EFA3A3A380DFAB
:00000001FF
