:0F1D84007D607C09ED1D70011C144C70F7DFF1C0
:011D9300222D
:1011ED00EFD3940740037FFF22120CEEFED394033E
:1011FD0040037FFF22EF7041EE700B900001120D46
:10120D0007F452935294120CEEB4010B900001129C
:10121D000D074293F45294120CEEFEB4020A9000A4
:10122D0001120D0742934294EEB4030D900001128A
:10123D000D07FEF45293EE4294EF64017043120CCD
:10124D00EEFE700B900001120D07F452915292EECA
:10125D00B4010B900001120D074291F45292120C41
:10126D00EEB4020A900001120D0742914292120C47
:10127D00EEB4030D900001120D07FEF45291EE42F3
:10128D0092EF64027043120CEEFE700B900001128F
:10129D000D07F452955296EEB4010B900001120D0C
:1012AD00074295F45296120CEEB4020A9000011208
:1012BD000D0742954296120CEEB4030D90000112EB
:1012CD000D07FEF45295EE4296EF64037043120C37
:1012DD00EEFE700B900001120D07F452B152B2EEFA
:1012ED00B4010B900001120D0742B1F452B2120C71
:1012FD00EEB4020A900001120D0742B142B2120C77
:10130D00EEB4030D900001120D07FEF452B1EE4242
:10131D00B2EF64047043120CEEFE700B90000112DC
:10132D000D07F452B352B4EEB4010B900001120D3F
:10133D000742B3F452B4120CEEB4020A900001123B
:10134D000D0742B342B4120CEEB4030D900001121E
:10135D000D07FEF452B3EE42B4EF64057043120C68
:10136D00EEFE700B900001120D07F452C952CAEE39
:10137D00B4010B900001120D0742C9F452CA120CB0
:10138D00EEB4020A900001120D0742C942CA120CB6
:10139D00EEB4030D900001120D07FEF452C9EE429A
:1013AD00CAEF64067043120CEEFE700B9000011232
:1013BD000D07F452CB52CCEEB4010B900001120D7F
:1013CD000742CBF452CC120CEEB4020A900001127B
:1013DD000D0742CB42CC120CEEB4030D900001125E
:1013ED000D07FEF452CBEE42CCEF64077043120CA6
:1013FD00EEFF700B900001120D07F452E152E2EF77
:10140D00B4010B900001120D0742E1F452E2120CEF
:10141D00EEB4020A900001120D0742E142E2120CF5
:10142D00EEB4030D900001120D07FFF452E1EF42EF
:04143D00E27F002228
:101D7300647574795F70657263656E743A25640A7D
:011D8300005F
:03001E0001460098
:101C2A00750A03E4F509FB7A0079097F031211EDBD
:101C3A00750A307B007A0079097F011211ED750A65
:101C4A00CF7B007A0079097F021211ED750A20759F
:0D1C5A0009037B007A0079097F040211ED77
:101A3500750970853C0C853D0D750FC07B007A00DE
:101A450079097F04120580750A5D750BBFE4F50EF3
:101A5500751101751001FB7A0079097F80120580E7
:101A650090FEB2E0543F4440F0E4FBFD7F80021657
:011A750098D8
:101C9E00750940750A01750E00750DC2750C01753A
:101CAE000B00751001E4F511FB7A0079097F011222
:0C1CBE0000A67D017F01121BEC53A23F29
:011CCA0022F7
:10161A00900000E0F509E509702315467BFF7A1D65
:10162A007973AF46EF3395E0F50D8F0E1209F4C3C7
:10163A00E54664809480502BE4F5468026E509B49B
:10164A00012105467BFF7A1D7973AF46EF3395E09A
:10165A00F50D8F0E1209F4D3E546648094E4400335
:10166A00754664AF46EF3395E0FEFDFCE47BC07A35
:10167A005DF9F8120D97E47B64FAF9F81219AE8E47
:0E168A003C8F3D7B007A0079367F04021441CC
:10176B00E4F50843BA80121C2A121A35121C9ED2B9
:10177B00AFC2C5C295C2A6C2A7E526D39400402925
:10178B00D52626E525D39400401CE4F508AD08EDDD
:10179B003395E0FCC3ED95257480F86C98500712D7
:1017AB00161A050880E7E4F5257F0A121D8480C907
:100F8600AD07ED7079C28C120CEEFED394034003CC
:100F96007FFF22E58954FC4EF589900001120D076A
:100FA600FED3940240037FFF22EE7006538E7F53DA
:100FB60089FB900001120D07B40106438E80538908
:100FC600FB900001120D07B402034389049000024E
:100FD600120D07FFE58F54FE4FF58F900003120D9B
:100FE6005FE5F0F58C900003120D5FF58A90000620
:100FF600120D077004C28C8002D28C7F0022ED6431
:1010060001600302108CC28E120CEEFED3940340D4
:10101600037FFF22EEC454F0FFE58954CF4FF589D4
:10102600900001120D07FED3940240037FFF22EECB
:101036007006538EBF5389BF900001120D07B4018D
:1010460006438E405389BF900001120D07B4020378
:10105600438940900002120D0725E0FFE58F54FDFD
:101066004FF58F900003120D5FE5F0F58D900003AC
:10107600120D5FF58B900006120D077004C28E806C
:1010860002D28E7F0022ED64027065538EEF9000CF
:1010960001120D07FF7006538EFB538EF7EFB40156
:1010A60006438E04538EF7EFB40203438E08900076
:1010B60002120D0725E025E0FFE58F54FB4FF58F63
:1010C600900003120D5FE5F0F5D6900003120D5F58
:1010D600F5D7900005120D0790FEA2F090000612BB
:1010E6000D07C454F0FFE58E54EF4FF58E7F0022B6
:1010F600ED6403707253D1F7900001120D07FED311
:10110600940240037FFF22EE700653D1FD53D1FBBC
:10111600900001120D07B4010643D10253D1FB9092
:101126000001120D07B4020343D104900002120D10
:1011360007FFE5D154FE4FF5D1900003120D5FE590
:10114600F0F5D4900003120D5FF5D5900005120D51
:101156000790FEA3F0900006120D0733333354F8C0
:10116600FFE5D154F78077ED6404707853D17F9012
:101176000001120D07FED3940240037FFF22EE709A
:101186000653D1DF53D1BF900001120D07B40106FB
:1011960043D12053D1BF900001120D07B40203437F
:1011A600D140900002120D07C454F0FFE5D154EF70
:1011B6004FF5D1900003120D5FFDACF0ECF5D2AF08
:1011C600058FD3900005120D0790FEA4F09000063F
:1011D600120D07C43333335480FFE5D1547F4FF5E6
:0711E600D17F00227FFF22F0
:0800A6008F128B138A148915D7
:1000AE00E5126401600302021CF522F523F524F526
:1000BE0025F526F516F51774402517F582740135CA
:1000CE0016F583E4F00517E51770020516648045F2
:1000DE001670E4E4F516F51774002517F582740012
:1000EE003516F583E4F00517E517700205166480E2
:1000FE00451670E4AB13AA14A915120CEEFFE59881
:10010E00543F4FF598EF64C06008EF6440600302FF
:10011E0001D1900002120ED87F807E8D7D5B7C0017
:10012E00120E228F1B8E1A8D198C18E4FFFE7D0184
:10013E00FCAB1BAA1AA919A818C3120EB440037F50
:10014E00FF22C3E4951BF51BE4951AF51A7401956D
:10015E0019F519E49518F518AB13AA14A915900002
:10016E0001120D07FB6401702CC28E538EFE538953
:10017E00BF5389CF438E40AF1BAE1AAD19AC187862
:10018E0008120EC58F8D851B8BC2AB5389BF538F43
:10019E00FDD28E8062EB64027026538EEF438E0189
:1001AE00538EF7438E04AF1BAE1AAD19AC187808F8
:1001BE00120EC58FD6851BD753AFFB438E108037DB
:1001CE007FFF22AB13AA14A915120CEEFF70139029
:1001DE000008120D07B40105438E20801A538EDFDE
:1001EE008015EFB48011900008120D07B40105437D
:1001FE008780800353877FAB13AA14A9159000073D
:10020E00120D077004C29C8002D29C7F0022E51260
:10021E0064026003020315F527F528F529F52AF582
:10022E002BF516F51774E02517F58274013516F5C2
:10023E0083E4F00517E51770020516648045167005
:10024E00E4E4F516F51774802517F582740035165B
:10025E00F583E4F00517E517700205166480451660
:10026E0070E4AB13AA14A915120CEEFF64C060055E
:10027E00EF64407075EFB4C005439A808003539AC3
:10028E007F900002120ED87F807E8D7D5B7C0012E7
:10029E000E228F1B8E1A8D198C18E4FFFE7D01FC29
:1002AE00AB1BAA1AA919A818C3120EB440037FFFDC
:1002BE0022C3E4951BF51BE4951AF51A74019519E2
:1002CE00F519E49518F518538EEF538EF7438E04F7
:1002DE00AF1BAE1AAD19AC187808120EC58FD685A5
:1002EE001BD753AFFB438E1080037FFF22AB13AAA5
:1002FE0014A915900007120D07C454F0FFE59A5487
:10030E00EF4FF59A7F0022E5126403600302044961
:10031E00F52CF52DF52EF52FF530F516F517746035
:10032E002517F58274023516F583E4F00517E517E7
:10033E00700205166440451670E4E4F516F5177460
:10034E00002517F58274013516F583E4F00517E5DF
:10035E0017700205166440451670E4AB13AA14A973
:10036E0015120CEEFF64C06008EF644060030204D7
:10037E002CEFB4C00543AC80800353AC7F900002D9
:10038E00120ED87F807E8D7D5B7C00120E228F1B1D
:10039E008E1A8D198C18E4FFFE7D01FCAB1BAA1A78
:1003AE00A919A818C3120EB440037FFF22C3E49507
:1003BE001BF51BE4951AF51A74019519F519E495B8
:1003CE0018F518AB13AA14A915900001120D07FB0E
:1003DE00B4031D43AC40AF1BAE1AAD19AC18780870
:1003EE00120EC58FD4851BD553D1F043D10A80315F
:1003FE00EB64027026538EEF53ACBF538EF7438ED1
:10040E0004AF1BAE1AAD19AC187808120EC58FD6F4
:10041E00851BD753AFFB438E1080067FFF227FFFD5
:10042E0022AB13AA14A915900007120D07C454F09D
:10043E00FFE5AC54EF4FF5AC7F0022E5126404608B
:10044E000302057DF531F532F533F534F535F51644
:10045E00F51774A02517F58274023516F583E4F0AE
:10046E000517E517700205166420451670E4E4F5CD
:10047E0016F51774C02517F58274013516F583E449
:10048E00F00517E517700205166420451670E4ABEB
:10049E0013AA14A915120CEEFF64C06008EF644095
:1004AE006003020560EFB4C005438480800353846B
:1004BE007F900002120ED87F807E8D7D5B7C0012B5
:1004CE000E228F1B8E1A8D198C18E4FFFE7D01FCF7
:1004DE00AB1BAA1AA919A818C3120EB440037FFFAA
:1004EE0022C3E4951BF51BE4951AF51A74019519B0
:1004FE00F519E49518F518AB13AA14A91590000177
:10050E00120D07FBB4041D438440AF1BAE1AAD1988
:10051E00AC187808120EC58FD2851BD353D10F435A
:10052E00D1A08031EB64027026538EEF5384BF53FB
:10053E008EF7438E04AF1BAE1AAD19AC18780812A5
:10054E000EC58FD6851BD753AFFB438E1080067F0B
:10055E00FF227FFF22AB13AA14A915900007120DDC
:10056E0007C454F0FFE58454EF4FF5847F00227FDB
:01057E00FF7D
:01057F002259
:0A000E008F99752401E52470FC228F
:101D2700120CEEFF600C12000E740129F9E43AFA66
:031D370080EE2219
:0A1D94008F9B752901E52970FC22E0
:101D3A00120CEEFF600C121D94740129F9E43AFAB0
:031D4A0080EE2206
:0A1D9E008FAD752E01E52E70FC22BA
:101D4D00120CEEFF600C121D9E740129F9E43AFA93
:031D5D0080EE22F3
:0A1DA8008F85753301E53370FC22CE
:101D6000120CEEFF600C121DA8740129F9E43AFA76
:031D700080EE22E0
:05000300AE0702000E33
:101AB600EFD3940140037FFF22EDD3940340037FCD
:101AC600FF22EF7004C2A98002D2A9ED700553B7B8
:101AD600FDC2B9BD010553B7FDD2B9BD020543B775
:0E1AE60002C2B9BD030543B702D2B97F002288
:101AF400EFD3940140037FFF22EDD3940340037F8F
:101B0400FF22EF7004C2AB8002D2ABED700553B775
:101B1400F7C2BBBD010553B7F7D2BBBD020543B73E
:0E1B240008C2BBBD030543B708D2BB7F002239
:101CCB00EFD3940140037FFF22EDD3940340037FB6
:101CDB00FF22EF25E025E0FFE5AF54FB4FF5AFE426
:021CEB00FF22D6
:101CED00EFD3940140037FFF22EDD3940340037F94
:101CFD00FF22EFC43354E0FFE5AF54DF4FF5AFE4FF
:021D0D00FF22B3
:10006600EFD3940140037FFF22EDD3940340037F37
:10007600FF22EFC4333354C0FFE5AF54BF4FF5AF93
:03008600E4FF2272
:101B3200EFD3940140037FFF22EDD3940340037F50
:101B4200FF22EF7004C2A88002D2A8ED700553B73D
:101B5200FEC2B8BD010553B7FED2B8BD020543B7F8
:0E1B620001C2B8BD030543B701D2B87F00220F
:101B7000EFD3940140037FFF22EDD3940340037F12
:101B8000FF22EF7004C2AA8002D2AAED700553B7FB
:101B9000FBC2BABD010553B7FBD2BABD020543B7BC
:0E1BA00004C2BABD030543B704D2BA7F0022C7
:101D0F00EFD3940140037FFF22EFC454F0FFE58F20
:081D1F0054EF4FF58FE4FF22A1
:10004600EFD3940140037FFF22EFC43354E0FFE572
:090056008F54DF4FF58FE4FF2207
:10002600EFD3940140037FFF22EFC4333354C0FF64
:0A003600E58F54BF4FF58FE4FF2261
:101BAE00EFD3940140037FFF22EDD3940340037FD4
:101BBE00FF22EF7004C2AD8002D2ADED700553B7B7
:101BCE00DFC2BDBD010553B7DFD2BDBD020543B7B0
:0E1BDE0020C2BDBD030543B720D2BD7F00224B
:10189600EDD3940340037FFF22EF30E10543E620BA
:1018A600800353E6DFEF30E00543E610800353E69E
:1018B600EFED700653B6DF53B5DFBD010653B6DF55
:1018C60043B520BD020643B62053B5DFBD0306432C
:0818D600B62043B5207F00227B
:10171200EFD3940140037FFF22EBD3940340037F76
:10172200FF22BF0112ED90FE817006E0547FF0802F
:1017320011E04480F0800BEF700890FE83E0548744
:101742004DF0EB700653B6DF53B5DFBB010653B65F
:10175200DF43B520BB020643B62053B5DFBB030609
:0917620043B62043B5207F0022AC
:101BEC00EFD3940140037FFF22EDD3940340037F96
:101BFC00FF22EF7004C2AC8002D2ACED700553B77B
:101C0C00EFC2BCBD010553B7EFD2BCBD020543B753
:0E1C1C0010C2BCBD030543B710D2BC7F00222E
:101A7600EFD3940140037FFF22EDD3940340037F0D
:101A8600FF22E5AF54FE4FF5AFED700653B6FE5399
:101A9600B5FEBD010653B6FE43B501BD020643B60B
:101AA6000153B5FEBD030643B60143B5017F0022CF
:1018DE00EFD3940140037FFF22EDD3940340037FA7
:1018EE00FF22EF33333354F8FFE5AF54F74FF5AF24
:1018FE00ED700653EEFE53DFFEBD010653EEFE43C2
:10190E00DF01BD020643EE0153DFFEBD030643EECB
:07191E000143DF017F0022FD
:10192500EFD3940140037FFF22EDD3940340037F5F
:10193500FF22EFC454F0FFE5AF54EF4FF5AFED7064
:101945000653EEFD53DFFDBD010653EEFD43DF02F9
:10195500BD020643EE0253DFFDBD030643EE02431F
:05196500DF027F0022FB
:10196A00EFD3940140037FFF22EDD3940340037F1A
:10197A00FF22EF25E0FFE5AF54FD4FF5AFED70060E
:10198A0053B6FD53B5FDBD010653B6FD43B502BDC1
:10199A00020643B60253B5FDBD030643B60243B57C
:0419AA00027F002296
:10169800EFD3948140037FFF22EBD3940340037F71
:1016A800FF22EF247F603004705890FEC4EDF0EB09
:1016B800700653B6FB53B5FBBB010653B6FB43B5E7
:1016C80004BB020643B60453B5FBEB64037038430E
:1016D800B60443B504803090FEE4EDF0EB70065399
:1016E800B6F753B5F7BB010653B6F743B508BB02C7
:1016F8000643B60853B5F7BB030D43B60843B50810
:0A170800800590FEE4EDF07F002262
:101C6700EDD394035026ED700653EEFB53DFFBBD17
:101C7700010653EEFB43DF04BD020643EE0453DFC8
:101C8700FBBD030B43EE0443DF0480037FFF229079
:071C9700FE62EFF07F002266
:03000B00020022CE
:0100220032AB
:03001B00020008D8
:03000800B2EE3223
:0300630002001880
:03001800B2ED3214
:03009B0002004020
:03004000B2EC32ED
:0300A30002005FF9
:03005F00B2EB32CF
:030023000219F2CD
:1019F200C0E0C083C082C0D075D000C0073098203C
:101A0200C298E525C394804003752500AF250525BE
:101A120074002FF582E43400F583E599F07526050C
:101A2200309905C299752400D007D0D0D082D083D6
:031A3200D0E032CF
:030043000217BBE6
:1017BB00C0E0C083C082C0D075D000C007E59A30AE
:1017CB00E021539AFEE52AC394804003752A00AFAB
:1017DB002A052A74802FF582E43400F583E59BF00B
:1017EB00752B05E59A30E106539AFD752900D00754
:0917FB00D0D0D082D083D0E032BE
:03008B0002180454
:10180400C0E0C083C082C0D075D000C007E5AC3052
:10181400E02153ACFEE52FC394404003752F00AF85
:101824002F052F74002FF582E43401F583E5ADF024
:10183400753005E5AC30E10653ACFD752E00D007DC
:09184400D0D0D082D083D0E03274
:0300930002184D03
:10184D00C0E0C083C082C0D075D000C007E5843031
:10185D00E0215384FEE534C394204003753400AF7A
:10186D0034053474C02FF582E43401F583E585F039
:10187D00753505E58430E1065384FD753300D007D9
:09188D00D0D0D082D083D0E0322B
:10058000AD07ED6401707A90FECCE054FEF0E054CB
:10059000FBF090FEC8E054FCF0120CEEFF90FEC899
:1005A000E0548F4FF0900006120D07FF90FECC3004
:1005B000E00DE04401F090FEB1E04401F0800BE07A
:1005C00054FEF090FEB1E054FEF0EF90FECC30E12E
:1005D0000DE04404F090FEB1E04402F0800BE054E2
:1005E000FBF090FEB1E054FDF0900003120D5FE5CA
:1005F000F090FED5F0900003120D5F90FED6020938
:100600003AED6402707A90FECCE054EFF0E054BF13
:10061000F090FEC9E054FCF0120CEEFF90FEC9E031
:10062000548F4FF0900006120D07FF90FECC30E281
:100630000DE04410F090FEB1E04404F0800BE05473
:10064000EFF090FEB1E054FBF0EF90FECC30E30D04
:10065000E04440F090FEB1E04408F0800BE054BF6D
:10066000F090FEB1E054F7F0900003120D5FE5F05A
:1006700090FED7F0900003120D5F90FED802093A69
:10068000ED6403707A90FECDE054FEF0E054FBF090
:1006900090FECAE054FCF0120CEEFF90FECAE0544B
:1006A0008F4FF0900006120D07FF90FECD30E40D45
:1006B000E04401F090FEB1E04410F0800BE054FE05
:1006C000F090FEB1E054EFF0EF90FECD30E50DE09C
:1006D0004404F090FEB1E04420F0800BE054FBF0C5
:1006E00090FEB1E054DFF0900003120D5FE5F09052
:1006F000FED9F0900003120D5F90FEDA02093AED88
:100700006404707A90FECDE054EFF0E054BFF090B6
:10071000FECBE054FCF0120CEEFF90FECBE0548FC9
:100720004FF0900006120D07FF90FECD30E60DE071
:100730004410F090FEB1E04440F0800BE054EFF044
:1007400090FEB1E054BFF0EF90FECD30E70DE044F5
:1007500040F090FEB1E04480F0800BE054BFF09098
:10076000FEB1E0547FF0900003120D5FE5F090FEC3
:10077000DBF0900003120D5F90FEDC02093AED649D
:1007800080704F900005120D0790FEDEF090000182
:10079000120D5FE5F090FED2F0900001120D5F9017
:1007A000FED3F0900008120D0790FEDDB40106E0C4
:1007B0004480F08004E0547FF0900007120D079011
:1007C000FEC0B40106E04401F08004E054FEF07F76
:1007D0000022ED6405705690FEECE054FEF090FEB1
:1007E000E8E054FCF0120CEEFF90FEE8E0548F4F6E
:1007F000F0900006120D0790FEEC30E00DE0440191
:10080000F090FEB5E04401F0800BE054FEF090FE65
:10081000B5E054FEF0900003120D5FE5F090FEF598
:10082000F0900003120D5F90FEF602093AED6406A7
:10083000705690FEECE054EFF090FEE9E054FCF0CE
:10084000120CEEFF90FEE9E0548F4FF0900006127C
:100850000D0790FEEC30E20DE04410F090FEB5E0A4
:100860004404F0800BE054EFF090FEB5E054FBF050
:10087000900003120D5FE5F090FEF7F09000031278
:100880000D5F90FEF802093AED6407705590FEED99
:10089000E054FEF090FEEAE054FCF0120CEEFF9003
:1008A000FEEAE0548F4FF0900006120D0790FEED27
:1008B00030E40DE04401F090FEB5E04410F0800B10
:1008C000E054FEF090FEB5E054EFF0900003120DFE
:1008D0005FE5F090FEF9F0900003120D5F90FEFAD4
:1008E0008058ED6408705790FEEDE054EFF090FEF4
:1008F000EBE054FCF0120CEEFF90FEEBE0548F4F57
:10090000F0900006120D0790FEED30E60DE0441069
:10091000F090FEB5E04440F0800BE054EFF090FE24
:10092000B5E054BFF0900003120D5FE5F090FEFBC0
:10093000F0900003120D5F90FEFCF07F0022ED644A
:1009400081704C900005120D0790FEFEF0900001A2
:10095000120D5FFDACF0EC90FEF2F0AF05A3EFF0EE
:10096000900008120D0790FEFDB40106E04480F0EF
:100970008004E0547FF0900007120D0790FEE0B471
:100980000106E04401F08004E054FEF07F00227F85
:02099000FF2244
:10144100EF248070030214FC147003021541248000
:10145100B40800400302158D90146775F003A4C50C
:101461008325F0C5837302147F02148C02149C023D
:1014710014AC0214BC0214CC0214DC0214EC120DE4
:1014810034FDACF0EC90FED5021587900002120DF0
:101491005FFDACF0EC90FED7021587900004120DB1
:1014A1005FFDACF0EC90FED9021587900006120D9D
:1014B1005FFDACF0EC90FEDB021587900008120D89
:1014C1005FFDACF0EC90FEF502158790000A120D5D
:1014D1005FFDACF0EC90FEF702158790000C120D49
:1014E1005FFDACF0EC90FEF902158790000E120D35
:1014F1005FFDACF0EC90FEFB021587120D34FDACE4
:10150100F0EC90FED5F0AF05A3EFF0900002120DC4
:101511005FFDACF0EC90FED7F0AF05A3EFF09000CB
:1015210004120D5FFDACF0EC90FED9F0AF05A3EF16
:10153100F0900006120D5FFDACF0EC90FEDB8046F2
:10154100900008120D5FFDACF0EC90FEF5F0AF05D8
:10155100A3EFF090000A120D5FFDACF0EC90FEF7E6
:10156100F0AF05A3EFF090000C120D5FFDACF0ECB5
:1015710090FEF9F0AF05A3EFF090000E120D5FFDA4
:0D158100ACF0EC90FEFBF0AF05A3EFF02204
:0300000002158E58
:0C158E00787FE4F6D8FD7581460215D583
:100CEE00BB010689828A83E0225002E722BBFE0204
:090CFE00E32289828A83E4932237
:100D0700BB010CE58229F582E5833AF583E02250A1
:100D170006E92582F8E622BBFE06E92582F8E222EB
:0D0D2700E58229F582E5833AF583E4932205
:100D3400BB010A89828A83E0F5F0A3E0225006878A
:100D4400F009E71922BBFE07E3F5F009E31922894C
:0B0D5400828A83E493F5F0740193227F
:100D5F00BB0110E58229F582E5833AF583E0F5F0D2
:100D6F00A3E0225009E92582F886F008E622BBFEAF
:100D7F000AE92582F8E2F5F008E222E5832AF583F5
:080D8F00E993F5F0A3E99322BA
:100D9700E88FF0A4CC8BF0A42CFCE98EF0A42CFCFB
:100DA7008AF0EDA42CFCEA8EF0A4CDA8F08BF0A479
:100DB7002DCC3825F0FDE98FF0A42CCD35F0FCEBD8
:100DC7008EF0A4FEA9F0EB8FF0A4CFC5F02ECD399D
:0F0DD700FEE43CFCEAA42DCE35F0FDE43CFC220A
:100DE60075F008758200EF2FFFEE33FECD33CDCCC4
:100DF60033CCC58233C5829BED9AEC99E582984047
:100E06000CF582EE9BFEED9AFDEC99FC0FD5F0D623
:100E1600E4CEFBE4CDFAE4CCF9A88222B800C1B94D
:100E26000059BA002DEC8BF084CFCECDFCE5F0CB8B
:100E3600F97818EF2FFFEE33FEED33FDEC33FCEBC4
:100E460033FB10D703994004EB99FB0FD8E5E4F97F
:100E5600FA227818EF2FFFEE33FEED33FDEC33FC6C
:100E6600C933C910D7059BE99A4007EC9BFCE99A60
:100E7600F90FD8E0E4C9FAE4CCFB2275F010EF2FA5
:100E8600FFEE33FEED33FDCC33CCC833C810D707A5
:100E96009BEC9AE899400AED9BFDEC9AFCE899F8E0
:0E0EA6000FD5F0DAE4CDFBE4CCFAE4C8F92273
:1019AE00C2D5E830E70FB2D5E4C39BFBE49AFAE464
:1019BE0099F9E498F8EC30E717B2D51219E4120E43
:1019CE0022E4C39BFBE49AFAE499F9E498F88003C5
:1019DE00120E2230D50DE4C39FFFE49EFEE49DFD62
:0419EE00E49CFC2257
:100EB400EB9FF5F0EA9E42F0E99D42F0E89C45F094
:010EC400220B
:100EC500E8600FECC313FCED13FDEE13FEEF13FF0B
:030ED500D8F1222F
:100ED800BB010DE58229F582E5833AF583020F27E8
:100EE8005007E92582F8020F1ABBFE07E92582F8A8
:100EF800020F33E58229F582E5833AF583020F4034
:10099200E519240DF8E6051922780A300702780DC8
:1009A200E475F001120F50020CEE2000EB7F2ED204
:1009B200008018EF540F2490D43440D4FF30040B3D
:1009C200EF24BFB41A0050032461FFE51A60021538
:1009D2001A051DE51D7002051C30070D780AE47525
:1009E200F001120F50EF020F080200037403D20746
:1009F2008003E4C207F5198B0A8A0B890CE4F51A05
:100A0200F51CF51DE51A60077F201209CD80F575EA
:100A12001BFFC201C200C202C203C205C206C20853
:100A220012099BFF700D3007057F001209DEAF1D12
:100A3200AE1C22B4255FC2D5C20412099BFF24D08A
:100A4200B40A00501A75F00A781A30D50508B6FFB4
:100A52000106C6A426F620D5047002D20380D9244A
:100A6200CFB41A00EF5004C2E5D204020BDED20169
:100A720080C6D20080C0D20280BCD2D580BAD20554
:100A820080B47F201209CD2002077401B51A0040FC
:100A9200F1120992FF1209CD020A06D208D206808B
:100AA20095120992FB120992FA120992F94A4B70B5
:100AB2000679AF7A0C7BFF20022EE51A602A7E00AF
:100AC2008E82758300120D0760060EEE651B70F0B4
:100AD200C2D5EBC0E0EAC0E0E9C0E0EE120C25D0DE
:100AE200E0F9D0E0FAD0E0FB120CEEFF60AAEBC016
:100AF200E0EAC0E0E9C0E01209CDD0E02401F9D07B
:100B0200E03400FAD0E0FBE51B0460DCD51BD980A1
:100B1200877BFF7A0C7921D202809C79108002793E
:100B220008C206C2088008D2D5790A8004790AC2AE
:100B3200D5E51B047002F51BE4FAFDFEFF120992D3
:100B4200FC7B08200113120992FD7B1030000A126F
:100B52000992FE120992FF7B20EC3382D592D55086
:100B620013C3E43000069FFFE49EFEE42001039DD0
:100B7200FDE49CFCE4CBF8C201EC700CCFCECDCCF2
:100B8200E824F8F870F38017C3EF33FFEE33FEED7D
:100B920033FDEC33FCEB33FB994002FB0FD8E9EB5E
:100BA200300105F8D0E0C448B201C0E00AEC4D4E75
:100BB2004F78207B0070C2EAB51B0040BCC0E01237
:100BC2000C27D0F0D0E0200104C4C0E0C4B201C0C0
:100BD200F01209B6D0F0D5F0EB020A06120F600A45
:100BE200A3530B1D580A744C0A70420B214F0B2958
:0F0BF200440B29490A89430B2F550B13460B134C
:100C0100450B13470CCF500A782D0A7C2E0A9F2BD7
:100C11000A80230A9D200CB82A0A384800000A9746
:100C21003F3F3F00790AA2D5200314300509B910CE
:100C3100020404B9080104A2D520060250010420CF
:100C410002689202B51A005034C0E07F20300319C7
:100C51007F30A20272067205500F120C7EC202C2D0
:100C610006C205C2087F30800F300503E9C0E012DB
:100C710009CD300503D0E0F9D0E0B51ACC30051725
:100C81007F30B9100C1209CD7F583004077F78806E
:100C910003B908031209CD3002057F2D0209CD7F6A
:100CA100202008F87F2B2006F322920280CF286EA5
:100CB100756C6C2900D2011209923001F8C20178D9
:100CC1001A30D50108F6020A382D50434958120945
:100CD100922403B405004001E4900CCA931209BEAA
:0D0CE100743A1209BED203751A04020B1DED
:10159A0002176BE493A3F8E493A34003F68001F2E5
:1015AA0008DFF48029E493A3F85407240CC8C33352
:1015BA00C4540F4420C8834004F456800146F6DF21
:1015CA00E4800B010204081020408090001EE47E93
:1015DA00019360BCA3FF543F30E509541FFEE49316
:1015EA00A360010ECF54C025E060A840B8E493A3DD
:1015FA00FAE493A3F8E493A3C8C582C8CAC583CA08
:10160A00F0A3C8C582C8CAC583CADFE9DEE780BEBF
:0100210000DE
:100F0800BB010689828A83F0225002F722BBFE01C8
:020F1800F322C2
:0D0F1A00E6FB08E6F908E6FA08E6CBF82247
:0C0F2700E0F8A3E0F9A3E0FAA3E0FB224D
:0D0F3300E2FB08E2F908E2FA08E2CBF8223E
:100F4000E493F8740193F9740293FA740393FB2207
:100F5000FAE6FB0808E6F925F0F618E6CA3AF622A2
:100F6000D083D082F8E4937012740193700DA3A320
:100F700093F8740193F5828883E473740293686034
:060F8000EFA3A3A380DF34
:00000001FF
