:0A19880054656D703A202564430099
:07199C0053B1FC53B2FC2221
:101857007522407523017527007526C27525017508
:101867002400752901E4F52AFB7A0079227F011209
:0C18770011687D017F011217B153A23FE0
:011883002242
:1018260012199C12185712001DD2AF1212B68E2F23
:101836008F307BFF7A1979881207D67FFA121961E1
:101846007FFA1219617FFA1219617FFA1219618003
:01185600DAB7
:10148B00900001120599FFE5DE54F04FF5DE900058
:10149B0002120599C43354E0FFE5DE54DF4FF5DE4D
:1014AB00120580FFD3941F502B900003120599FE59
:1014BB00D39401501F900004120599FDD39403504F
:1014CB0013EDC43354E0FDEEC433333354804D4F2E
:0514DB0090FEA8F022C4
:0B197D00BF010443BC802253BC7F224A
:1013C500EFD3940F40028060E4F5BDF5BEE5BC5453
:1013D500F044404FF5BC0000000000000000000094
:1013E500E4FDE5BC30E53D53BCDFE5DEAFBD30E5F2
:1013F5000EEFFEACBEECFBEEF52CEBF52D8020756B
:101405002C008F2DE5BEC4540FFBE52DC4F8540FF9
:10141500C868FFE52CC454F048F52CEF4BF52DAE0C
:0C1425002CAF2D220DBDFABA7E107F0006
:011431002298
:03002B000219A314
:0419A30053BCDF3220
:0F1961007D607C09ED1D70011C144C70F7DFF1E7
:011970002254
:100BE300EFD3940740037FFF22120580FED39403C3
:100BF30040037FFF22EF7041EE700B90000112055E
:100C030099F452935294120580B4010B900001128F
:100C130005994293F45294120580FEB4020A90009F
:100C23000112059942934294EEB4030D9000011210
:100C33000599FEF45293EE4294EF6401704312055A
:100C430080FE700B900001120599F452915292EEBE
:100C5300B4010B9000011205994291F452921205CE
:100C630080B4020A90000112059942914292120542
:100C730080B4030D900001120599FEF45291EE42E7
:100C830092EF64027043120580FE700B9000011214
:100C93000599F452955296EEB4010B90000112059A
:100CA300994295F45296120580B4020A90000112FB
:100CB300059942954296120580B4030D90000112E6
:100CC3000599FEF45295EE4296EF640370431205C4
:100CD30080FE700B900001120599F452B152B2EEEE
:100CE300B4010B90000112059942B1F452B21205FE
:100CF30080B4020A90000112059942B142B2120572
:100D030080B4030D900001120599FEF452B1EE4236
:100D1300B2EF64047043120580FE700B9000011261
:100D23000599F452B352B4EEB4010B9000011205CD
:100D33009942B3F452B4120580B4020A900001122E
:100D4300059942B342B4120580B4030D9000011219
:100D53000599FEF452B3EE42B4EF640570431205F5
:100D630080FE700B900001120599F452C952CAEE2D
:100D7300B4010B90000112059942C9F452CA12053D
:100D830080B4020A90000112059942C942CA1205B1
:100D930080B4030D900001120599FEF452C9EE428E
:100DA300CAEF64067043120580FE700B90000112B7
:100DB3000599F452CB52CCEEB4010B90000112050D
:100DC3009942CBF452CC120580B4020A900001126E
:100DD300059942CB42CC120580B4030D9000011259
:100DE3000599FEF452CBEE42CCEF64077043120533
:100DF30080FF700B900001120599F452E152E2EF6B
:100E0300B4010B90000112059942E1F452E212057C
:100E130080B4020A90000112059942E142E21205F0
:100E230080B4030D900001120599FFF452E1EF42E3
:040E3300E27F002238
:10167B00EFD3940140037FFF22EDD3940340037F0C
:10168B00FF22EF7004C2A98002D2A9ED700553B7F7
:10169B00FDC2B9BD010553B7FDD2B9BD020543B7B4
:0E16AB0002C2B9BD030543B702D2B97F0022C7
:1016B900EFD3940140037FFF22EDD3940340037FCE
:1016C900FF22EF7004C2AB8002D2ABED700553B7B5
:1016D900F7C2BBBD010553B7F7D2BBBD020543B77E
:0E16E90008C2BBBD030543B708D2BB7F002279
:1018A700EFD3940140037FFF22EDD3940340037FDE
:1018B700FF22EF25E025E0FFE5AF54FB4FF5AFE44E
:0218C700FF22FE
:1018C900EFD3940140037FFF22EDD3940340037FBC
:1018D900FF22EFC43354E0FFE5AF54DF4FF5AFE427
:0218E900FF22DC
:10188400EFD3940140037FFF22EDD3940340037F01
:10189400FF22EFC4333354C0FFE5AF54BF4FF5AF5D
:0318A400E4FF223C
:1016F700EFD3940140037FFF22EDD3940340037F90
:10170700FF22EF7004C2A88002D2A8ED700553B77C
:10171700FEC2B8BD010553B7FED2B8BD020543B737
:0E17270001C2B8BD030543B701D2B87F00224E
:10173500EFD3940140037FFF22EDD3940340037F51
:10174500FF22EF7004C2AA8002D2AAED700553B73A
:10175500FBC2BABD010553B7FBD2BABD020543B7FB
:0E17650004C2BABD030543B704D2BA7F002206
:10192500EFD3940140037FFF22EFC454F0FFE58F0E
:0819350054EF4FF58FE4FF228F
:10190C00EFD3940140037FFF22EFC43354E0FFE593
:09191C008F54DF4FF58FE4FF2228
:10000300EFD3940140037FFF22EFC4333354C0FF87
:0A001300E58F54BF4FF58FE4FF2284
:10177300EFD3940140037FFF22EDD3940340037F13
:10178300FF22EF7004C2AD8002D2ADED700553B7F6
:10179300DFC2BDBD010553B7DFD2BDBD020543B7EF
:0E17A30020C2BDBD030543B720D2BD7F00228A
:1014E000EDD3940340037FFF22EF30E10543E62074
:1014F000800353E6DFEF30E00543E610800353E658
:10150000EFED700653B6DF53B5DFBD010653B6DF0E
:1015100043B520BD020643B62053B5DFBD030643E5
:08152000B62043B5207F002234
:10143200EFD3940140037FFF22EBD3940340037F59
:10144200FF22BF0112ED90FE817006E0547FF08012
:1014520011E04480F0800BEF700890FE83E0548727
:101462004DF0EB700653B6DF53B5DFBB010653B642
:10147200DF43B520BB020643B62053B5DFBB0306EC
:0914820043B62043B5207F00228F
:1017B100EFD3940140037FFF22EDD3940340037FD5
:1017C100FF22EF7004C2AC8002D2ACED700553B7BA
:1017D100EFC2BCBD010553B7EFD2BCBD020543B793
:0E17E10010C2BCBD030543B710D2BC7F00226E
:10163B00EFD3940140037FFF22EDD3940340037F4C
:10164B00FF22E5AF54FE4FF5AFED700653B6FE53D8
:10165B00B5FEBD010653B6FE43B501BD020643B64A
:10166B000153B5FEBD030643B60143B5017F00220E
:10152800EFD3940140037FFF22EDD3940340037F60
:10153800FF22EF33333354F8FFE5AF54F74FF5AFDD
:10154800ED700653EEFE53DFFEBD010653EEFE437B
:10155800DF01BD020643EE0153DFFEBD030643EE85
:071568000143DF017F0022B7
:10156F00EFD3940140037FFF22EDD3940340037F19
:10157F00FF22EFC454F0FFE5AF54EF4FF5AFED701E
:10158F000653EEFD53DFFDBD010653EEFD43DF02B3
:10159F00BD020643EE0253DFFDBD030643EE0243D9
:0515AF00DF027F0022B5
:1015B400EFD3940140037FFF22EDD3940340037FD4
:1015C400FF22EF25E0FFE5AF54FD4FF5AFED7006C8
:1015D40053B6FD53B5FDBD010653B6FD43B502BD7B
:1015E400020643B60253B5FDBD030643B60243B536
:0415F400027F002250
:10134B00EFD3948140037FFF22EBD3940340037FC1
:10135B00FF22EF247F603004705890FEC4EDF0EB59
:10136B00700653B6FB53B5FBBB010653B6FB43B537
:10137B0004BB020643B60453B5FBEB64037038435E
:10138B00B60443B504803090FEE4EDF0EB700653E9
:10139B00B6F753B5F7BB010653B6F743B508BB0217
:1013AB000643B60853B5F7BB030D43B60843B50860
:0A13BB00800590FEE4EDF07F0022B3
:1017EF00EDD394035026ED700653EEFB53DFFBBD94
:1017FF00010653EEFB43DF04BD020643EE0453DF45
:10180F00FBBD030B43EE0443DF0480037FFF2290F5
:07181F00FE62EFF07F0022E2
:061168008B2B8A2C892D5F
:10116E00EF640160030212B3F508F509F50AF50BF9
:10117E00F50CFF7E80900080E4F0A3DEFCE4FF7EA1
:10118E0080900000E4F0A3DEFC7E00AB2BAA2CA91D
:10119E002D120580FFE598543F4FF598EF64C0601F
:1011AE0008EF644060030212689000021206D87FB6
:1011BE00807E8D7D5B7C001206148F318E308D2FDC
:1011CE008C2EE4FFFE7D01FCAB31AA30A92FA82E98
:1011DE00C31206B440037FFF22C3E49531F531E418
:1011EE009530F5307401952FF52FE4952EF52EAB35
:1011FE002BAA2CA92D900001120599FB6401702CCD
:10120E00C28E538EFE5389BF5389CF438E40AF316A
:10121E00AE30AD2FAC2E78081206C58F8D85318B72
:10122E00C2AB5389BF538FFDD28E8062EB640270C6
:10123E0026538EEF438E01538EF7438E04AF31AE9D
:10124E0030AD2FAC2E78081206C58FD68531D75308
:10125E00AFFB438E1080377FFF22AB2BAA2CA92D1C
:10126E00120580FF7013900008120599B401054312
:10127E008E20801A538EDF8015EFB48011900008F7
:10128E00120599B40105438780800353877FAB2BEA
:10129E00AA2CA92D9000071205997004C29C8002F9
:0712AE00D29C7F00227FFFAC
:0112B5002216
:0A1992008F99750A01E50A70FC2226
:10193D00120580FF600C121992740129F9E43AFA2C
:03194D0080EE2207
:05002600AE0702199273
:030023000215F8CB
:1015F800C0E0C083C082C0D075D000C0073098203A
:10160800C298E50BC394804003750B00AF0B050B24
:1016180074002FF582E43400F583E599F0750C0524
:10162800309905C299750A00D007D0D0D082D083EE
:03163800D0E032CD
:100FF30054656D70323A2025644300E3F2D8A8CDDE
:10100300DAC380B99BB029A7259E8D965C8E908705
:10101300258017796373046CF8673B61CA5CA15739
:10102300BC53194EB44A8B469B42E03F583C0138AF
:10103300D735D9330530582DD02B6A2927270224D9
:10104300FC231121411F8B1DEC1C631AF01991180D
:1010530044170A15E114C713BD12C111D210F010C1
:101063001A0F500E900DDA0D2E0C8B0BF10B5E0A3E
:10107300D30A4F09D3095C08EC0881081C07BA0797
:1010830061070A06B8066A062005D90596055605BE
:101093001A04E004A904750444041403E803BD031B
:1010A30094036D03480325030302E302C502A70269
:1010B3008C0271025802400228021201FD01E9016B
:1010C300D601C401B201A10191018201730166013C
:1010D30058014B013E01320127011C011201080096
:1010E300FE00F500EC00E400DC00D400CD00C600F7
:1010F300BF00B800B200AC00A600A0009B009600A1
:1011030091008C00870083007E007A0076007300D4
:101113006F006B006800650061005E005B005900B2
:101123005600530051004E004C004A004700450052
:10113300430041003F003D003C003A0038003700C7
:1011430035003400320031002F002E002D002B001B
:101153002A00290028002700260025002400230058
:05116300220021002024
:101950007522017523107B007A007922E4FF020BC7
:01196000E3A3
:1018EB0075221FE4F525752601F523752401FB7A76
:1018FB0000792212148B7F0112197DE4FDFF021770
:01190B007368
:06001D001219500218EB5D
:080E37008F2F8E2E8D2D8C2CC7
:100E3F00E4F532F533F5387539B5E53325E0FFE5DF
:100E4F003233FE74FE2FF582740F3EF583E493FC6C
:100E5F00740193FDE412035BA804A905AA06AB076E
:100E6F00AF2FAE2EAD2DAC2C120031E4FBFAF9F8FA
:100E7F001202CC5033E53325E0FFE53233FE74FE2A
:100E8F002FF582740F3EF583E493FC740193FDE418
:100E9F0012035BA804A905AA06AB07AF2FAE2EADB0
:100EAF002DAC2C1200318034E53325E0FFE53233D1
:100EBF00FE74FE2FF582740F3EF583E493FC7401EC
:100ECF0093FDE412035BA804A905AA06AB07AF2F95
:100EDF00AE2EAD2DAC2C1200311203458F3D8E3C42
:100EEF008D3B8C3AE4F530F531C3E5319539E53872
:100EFF006480F8E5306480984003020FE8E53125FF
:100F0F00E0FFE53033FE74FE2FF582740F3EF5835C
:100F1F00E493FC740193FDE412035BA804A905AAF2
:100F2F0006AB07AF2FAE2EAD2DAC2C120031E4FB6C
:100F3F00FAF9F81202CC5033E53125E0FFE53033F2
:100F4F00FE74FE2FF582740F3EF583E493FC74015B
:100F5F0093FDE412035BA804A905AA06AB07AF2F04
:100F6F00AE2EAD2DAC2C1200318034E53125E0FFD3
:100F7F00E53033FE74FE2FF582740F3EF583E49354
:100F8F00FC740193FDE412035BA804A905AA06AB48
:100F9F0007AF2FAE2EAD2DAC2C1200311203458FA3
:100FAF00378E368D358C34AF3DAE3CAD3BAC3AAB66
:100FBF0037AA36A935A8341202CC501285373D8591
:100FCF00363C85353B85343A8530328531330531B2
:100FDF00E53170020530020EF8E53324C9FFE53222
:030FEF0034FFFECE
:010FF20022DC
:1012B6007F0C1213C5AD07AC06E412035BE4FBFA20
:1012C60079207840120126E4FBFA798078451202EB
:1012D6002F8F258E248D238C22AB25AA24A923A803
:1012E60022E4FFFE7DA07C40120031C004C005C090
:1012F60006C007E4FFFE7D207C41AB25AA24A92376
:10130600A822120126D003D002D001D00012022F4B
:101316008F298E288D278C26E4FFFE7DC87C42AB64
:1013260029AA28A927A826120126120E378E2A8F47
:101336002B7BFF7A0F79F3852A2F852B301207D660
:04134600AE2AAF2BF1
:01134A002280
:10002E000203C9E86480F8E933E83360110460F034
:10003E00ED33EC337009E8FCE9FDEAFEEBFF220438
:10004E0060DED3EB9FEA9EE99DE8C2E78CF0C2F733
:10005E0095F0400CE8CCF8E9CDF9EACEFAEBCFFBFF
:10006E0012039485D0F05804700320D5B3E80470C1
:10007E00075002B2D50203D392D5EC0460F7E4CC5C
:10008E00C0E0C398F8603B94186008400DD0E0FBC8
:10009E000203ABE4FBFAC9FC8028E830E406E4C9AD
:1000AE00FBE4CAFCE830E305E4C9CACBFCE854071C
:1000BE006010F8C3E913F9EA13FAEB13FBEC13FC27
:1000CE00D8F130F52FC3E49CFCEF9BFFEE9AFEEDCA
:1000DE0099FDD0E0FBEF4E4D4C701222DB03020374
:1000EE00D0EC2CFCEF33FFEE33FEED33FDED30E7BD
:1000FE00EB0203ABEF2BFFEE3AFEED39FDD0E0FB4A
:10010E0050130BBB00030203D3ED13FDEE13FEEFF2
:08011E0013FFEC13FC0203AB1C
:10012600EC4D6011E8497017ED33EC3304600DE4D3
:10013600FCFFFEFD22E933E8330470F80203C9121E
:10014600039458046009E4CC24815006285009021F
:1001560003D32840030203D0C0E0EB4A7044B980C1
:1001660006D0E0FB0203BFEF4E701CBD8008EBFF1C
:10017600EAFEE9FD80EBE98DF0A4FEE5F002020F50
:10018600E9CDF9EAFEEBFFEF89F0A4FCE5F0CE89B4
:10019600F0A42EFFE435F0CD89F0A42DFEE435F071
:1001A6008067EF4E7005BD80D780C3EF8BF0A4AC9F
:1001B600F0EE8BF0A42CFCE435F0F8EF8AF0A42CDA
:1001C600E5F038FCE433CB8DF0A42CFCE5F03BF8ED
:1001D600EE8AF0A42CFCE5F038F8E433CF89F0A4DD
:1001E6002CFCE5F038CF3400CE89F0A42FFFE5F0E3
:1001F6003EFEE433C98DF0A42EFEE5F039CD8AF03B
:10020600A42FFFE5F03EFEE43DFD33D0E0FB5007B2
:100216000BBB000F0203D3EC2CFCEF33FFEE33FED7
:06022600ED33FD0203AB05
:10022C000203D3EC5D046005E8590470030203C9B2
:10023C00120394580460F6EC4860F2EC7004FDFE76
:10024C00FF22C860DB2481C85009C39860025006A5
:10025C000203D09850CAF582E9294B4A7005AB824B
:10026C000203BF75F0007C1A7880C3EF9BEE9AED09
:10027C0099400DC3EF9BFFEE9AFEED99FDE842F01D
:10028C00DC23ACF0D0E0FFD0E0FED0E0FDAB822070
:10029C00E7101BEB60BAEC2CFCEF33FFEE33FEEDFA
:1002AC0033FD0203ABE803F830E705C0F075F0004E
:1002BC00EF2FFFEE33FEED33FD40B830E7C280AADE
:1002CC0074F8CC6480CCC86480C8F58204604FC3D9
:1002DC00EB9FF5F0EA9E42F0E99D42F0E89C45F078
:1002EC00603C501DE5825FFFE582D313CB5BCBF402
:1002FC002B5582FB50280ABA002409B9002008802B
:10030C001DE5825BFBE582D313CF5FCFF4C3132FC4
:10031C005582FF50090EBE00050DBD00010CC3EB4C
:10032C009FF5F0EA9E42F0E99D42F0E89C45F060B2
:09033C0007CC4820E701B3EC22D4
:10034500ED33EC33600A047003BD8004ECB2E7FCC6
:010355002285
:1003560075F020800E75F010800575F0087D007E22
:10036600007F003392D530D5031206A6EC33401039
:10037600EF33FFEE33FEED33FDEC33FCD5F0ED222B
:0E038600E5F0247EA2D513CC92E7CDCEFF2267
:10077400E543242FF8E6054322782C300702782F2E
:10078400E475F0011207080205802000EB7F2ED2E9
:10079400008018EF540F2490D43440D4FF30040B5D
:1007A400EF24BFB41A0050032461FFE5446002152E
:1007B400440547E5477002054630070D782CE4757B
:1007C400F001120708EF0205C60200267403D207DF
:1007D4008003E4C207F5438B2C8A2D892EE4F5446B
:1007E400F546F547E54460077F201207AF80F575AD
:1007F40045FFC201C200C202C203C205C206C2084A
:1008040012077DFF700D3007057F001207C0AF4748
:10081400AE4622B4255FC2D5C20412077DFF24D0A0
:10082400B40A00501A75F00A784430D50508B6FFAA
:100834000106C6A426F620D5047002D20380D9246A
:10084400CFB41A00EF5004C2E5D204020AADD201BB
:1008540080C6D20080C0D20280BCD2D580BAD20574
:1008640080B47F201207AF2002077401B544004012
:10087400F1120774FF1207AF0207E8D208D206800C
:1008840095120774FB120774FA120774F94A4B7035
:100894000679A47A0B7BFF20022EE544602A7E00B1
:1008A4008E8275830012059960060EEE654570F020
:1008B400C2D5EBC0E0EAC0E0E9C0E0EE120B0DD017
:1008C400E0F9D0E0FAD0E0FB120580FF60AAEBC0AB
:1008D400E0EAC0E0E9C0E01207AFD0E02401F9D0BB
:1008E400E03400FAD0E0FBE5450460DCD545D9806E
:1008F40087D20280A2120AF060F7E5457001041263
:1009040003DEA945600DE545600914F545120B9712
:10091400EF60F3EA30E702F404C3995077EAF42570
:10092400450430E701E404F545800D120AF060C186
:10093400EA054525451203DEEA7842F630E701E48C
:10094400254504D5450420050114120B0DE4C0E02F
:10095400120B977842E6601320E70714F612079704
:10096400802204F6D0E014C0E07F00120797E5452A
:10097400600712078E1545800B30050312078ED0D1
:10098400E00207E8D0E00480C5120AF060A0E54563
:10099400041203DE7842EAF6E5452005026001040C
:0509A4002404120B0DFC
:1009A90074FF04C0E0120B97120797E54520050272
:1009B900600312078ED0E0B545E87F451207A1789C
:1009C90042E67F2B30E7047F2DF404C0E01207AF25
:1009D900D0E075F00A84C0F0120798D0E0120798A9
:1009E9000207E8791080027908C206C2088008D295
:1009F900D5790A8004790AC2D5E545047002F5451E
:100A0900E4FAFDFEFF120774FC7B082001131207AC
:100A190074FD7B1030000A120774FE120774FF7B05
:100A290020EC3382D592D55013C3E43000069FFFE2
:100A3900E49EFEE42001039DFDE49CFCE4CBF8C2A6
:100A490001EC700CCFCECDCCE824F8F870F3801708
:100A5900C3EF33FFEE33FEED33FDEC33FCEB33FB39
:100A6900994002FB0FD8E9EB300105F8D0E0C44802
:100A7900B201C0E00AEC4D4E4F78207B0070C2EA0B
:100A8900B5450040BCC0E0120B0FD0F0D0E020010A
:100A990004C4C0E0C4B201C0F0120798D0F0D5F088
:100AA900EB0207E812071808855309EC5808564C59
:100AB90008524209F04F09F84409F849086B4309FB
:100AC900FE55092F46098D4508F9470BC450085AA8
:100AD9002D085E2E08812B086223087F200BAD2A82
:100AE900081A4800000879E545B4FF037545061260
:100AF9000774FC120774FD120774FE120774FF785D
:100B09003B02040D790AA2D5200314300509B91056
:100B1900020404B9080104A2D520060250010420E8
:100B290002689202B544005034C0E07F20300319B6
:100B39007F30A20272067205500F120B66C202C202
:100B490006C205C2087F30800F300503E9C0E012F4
:100B590007AF300503D0E0F9D0E0B544CC30051734
:100B69007F30B9100C1207AF7F583004077F7880A7
:100B790003B908031207AF3002057F2D0207AF7FC3
:100B8900202008F87F2B2006F322920280CF7F00D5
:100B9900B407005005243BF8E6FF22286E756C6CFB
:100BA9002900D2011207743001F8C201784430D506
:100BB9000108F602081A2D504349581207742403F4
:100BC900B405004001E4900BBF931207A0743A12D8
:0A0BD90007A0D2037544040209ECE2
:10039400E9D2E7C933E833F892D5EDD2E7CD33ECAF
:0703A40033FC5002B2D52228
:1003AB00EC30E7100FBF000C0EBE00080DBD0004B3
:1003BB000BEB6014A2D5EB13FCED92E7FD2274FF5F
:1003CB00FCFDFEFF22E480F8A2D574FF13FC7D80B8
:0303DB00E480EFCC
:1003DE00F920E72824F950037907E4F42402FB18E6
:1003EE00DBFDE624FB5014E9600DE4F618E604F696
:0F03FE00B40A08E4F6D9F57401F60A22C2D52232
:10040D00ED33EC3392D5FA602AB4FF33EDC2E77BBE
:10041D00FF60067A047932E4227A04793B20D50410
:10042D007A047936224E614E002B494E46002D49F5
:10043D004E4600E47A08F608DAFC7B00740722E8E1
:10044D00C0E0ECC0E0EDC0E0EEC0E0EFC0E0EA756A
:10045D00F010A4CAABF075F04DA42BFBE435F0FC05
:10046D00EA2410FAEB34C5FBEC34D9FCEDC2E7FFFE
:10047D0075F056A4F42411C5F0F434C58FF0A42AF8
:10048D00E5F03BE43CF620E714120540D0E0FFD048
:10049D00E0FED0E0FDD0E0FC12022F8014F4041237
:1004AD000540D0E0FFD0E0FED0E0FDD0E0FC120131
:1004BD0026D0E0F8E6FAEDD2E7CD33EC332482FB1B
:1004CD00E4C3CF33CFCE33CECD33CD33DBF37B0788
:1004DD0075F00A846004F6081B0AE5F0F6088FF043
:1004ED00740AA4FFACF08EF0740AA42CFEACF0508C
:1004FD00010C8DF0740AA42CFDE435F0F608DBDE5A
:03050D007407224E
:100510003F8000004120000042C80000447A0000F3
:10052000461C400047C35000497424004B18968075
:100530004CBEBC205A0E1BCA6753C21C749DC5AE6C
:10054000FB60065407601C232312056EEB543860D1
:100550000912055A120569120126ECF8EDF9EEFAB6
:10056000EFCB22EB12056980F1543803241C90056F
:1005700010FE93FC0EEE93FD0EEE930ECE93FF2233
:0300000002197171
:0C197100787FE4F6D8FD75814702182647
:10058000BB010689828A83E0225002E722BBFE0279
:09059000E32289828A83E49322AC
:10059900BB010CE58229F582E5833AF583E0225017
:1005A90006E92582F8E622BBFE06E92582F8E22261
:0D05B900E58229F582E5833AF583E493227B
:1005C600BB010689828A83F0225002F722BBFE0114
:0205D600F3220E
:1005D80075F008758200EF2FFFEE33FECD33CDCCDA
:1005E80033CCC58233C5829BED9AEC99E58298405D
:1005F8000CF582EE9BFEED9AFDEC99FC0FD5F0D63A
:10060800E4CEFBE4CDFAE4CCF9A88222B800C1B963
:100618000059BA002DEC8BF084CFCECDFCE5F0CBA1
:10062800F97818EF2FFFEE33FEED33FDEC33FCEBDA
:1006380033FB10D703994004EB99FB0FD8E5E4F995
:10064800FA227818EF2FFFEE33FEED33FDEC33FC82
:10065800C933C910D7059BE99A4007EC9BFCE99A76
:10066800F90FD8E0E4C9FAE4CCFB2275F010EF2FBB
:10067800FFEE33FEED33FDCC33CCC833C810D707BB
:100688009BEC9AE899400AED9BFDEC9AFCE899F8F6
:0E0698000FD5F0DAE4CDFBE4CCFAE4C8F92289
:0E06A600C3E49FFFE49EFEE49DFDE49CFC2265
:1006B400EB9FF5F0EA9E42F0E99D42F0E89C45F09C
:0106C4002213
:1006C500E8600FECC313FCED13FDEE13FEEF13FF13
:0306D500D8F12237
:1006D800BB010DE58229F582E5833AF58302074BD4
:1006E8005007E92582F802073EBBFE07E92582F894
:1006F800020757E58229F582E5833AF58302076404
:10070800FAE6FB0808E6F925F0F618E6CA3AF622F2
:10071800D083D082F8E4937012740193700DA3A370
:1007280093F8740193F5828883E473740293686084
:06073800EFA3A3A380DF84
:0D073E00E6FB08E6F908E6FA08E6CBF8222B
:0C074B00E0F8A3E0F9A3E0FAA3E0FB2231
:0D075700E2FB08E2F908E2FA08E2CBF82222
:10076400E493F8740193F9740293FA740393FB22EB
:00000001FF
